{
  "_format": "hh-sol-artifact-1",
  "contractName": "LiquidityPool",
  "sourceName": "contracts/LiquidityPool.sol",
  "abi": [
    {
      "inputs": [
        {
          "internalType": "address",
          "name": "_usdc",
          "type": "address"
        },
        {
          "internalType": "address",
          "name": "_owner",
          "type": "address"
        }
      ],
      "stateMutability": "nonpayable",
      "type": "constructor"
    },
    {
      "inputs": [
        {
          "internalType": "address",
          "name": "owner",
          "type": "address"
        }
      ],
      "name": "OwnableInvalidOwner",
      "type": "error"
    },
    {
      "inputs": [
        {
          "internalType": "address",
          "name": "account",
          "type": "address"
        }
      ],
      "name": "OwnableUnauthorizedAccount",
      "type": "error"
    },
    {
      "inputs": [],
      "name": "ReentrancyGuardReentrantCall",
      "type": "error"
    },
    {
      "inputs": [
        {
          "internalType": "address",
          "name": "token",
          "type": "address"
        }
      ],
      "name": "SafeERC20FailedOperation",
      "type": "error"
    },
    {
      "anonymous": false,
      "inputs": [
        {
          "indexed": false,
          "internalType": "uint256",
          "name": "amount",
          "type": "uint256"
        }
      ],
      "name": "CapitalLocked",
      "type": "event"
    },
    {
      "anonymous": false,
      "inputs": [
        {
          "indexed": false,
          "internalType": "uint256",
          "name": "amount",
          "type": "uint256"
        }
      ],
      "name": "CapitalReleased",
      "type": "event"
    },
    {
      "anonymous": false,
      "inputs": [
        {
          "indexed": true,
          "internalType": "address",
          "name": "previousOwner",
          "type": "address"
        },
        {
          "indexed": true,
          "internalType": "address",
          "name": "newOwner",
          "type": "address"
        }
      ],
      "name": "OwnershipTransferred",
      "type": "event"
    },
    {
      "anonymous": false,
      "inputs": [
        {
          "indexed": true,
          "internalType": "address",
          "name": "lp",
          "type": "address"
        },
        {
          "indexed": false,
          "internalType": "uint256",
          "name": "amount",
          "type": "uint256"
        },
        {
          "indexed": false,
          "internalType": "uint256",
          "name": "sharesMinted",
          "type": "uint256"
        }
      ],
      "name": "Staked",
      "type": "event"
    },
    {
      "anonymous": false,
      "inputs": [
        {
          "indexed": true,
          "internalType": "address",
          "name": "lp",
          "type": "address"
        },
        {
          "indexed": false,
          "internalType": "uint256",
          "name": "sharesBurned",
          "type": "uint256"
        },
        {
          "indexed": false,
          "internalType": "uint256",
          "name": "amountReturned",
          "type": "uint256"
        }
      ],
      "name": "Withdrawn",
      "type": "event"
    },
    {
      "inputs": [
        {
          "internalType": "address",
          "name": "",
          "type": "address"
        }
      ],
      "name": "depositTime",
      "outputs": [
        {
          "internalType": "uint256",
          "name": "",
          "type": "uint256"
        }
      ],
      "stateMutability": "view",
      "type": "function"
    },
    {
      "inputs": [],
      "name": "getUtilizationRate",
      "outputs": [
        {
          "internalType": "uint256",
          "name": "",
          "type": "uint256"
        }
      ],
      "stateMutability": "view",
      "type": "function"
    },
    {
      "inputs": [
        {
          "internalType": "uint256",
          "name": "amount",
          "type": "uint256"
        }
      ],
      "name": "lockCapital",
      "outputs": [],
      "stateMutability": "nonpayable",
      "type": "function"
    },
    {
      "inputs": [],
      "name": "owner",
      "outputs": [
        {
          "internalType": "address",
          "name": "",
          "type": "address"
        }
      ],
      "stateMutability": "view",
      "type": "function"
    },
    {
      "inputs": [],
      "name": "policyVault",
      "outputs": [
        {
          "internalType": "address",
          "name": "",
          "type": "address"
        }
      ],
      "stateMutability": "view",
      "type": "function"
    },
    {
      "inputs": [],
      "name": "reinsurancePool",
      "outputs": [
        {
          "internalType": "address",
          "name": "",
          "type": "address"
        }
      ],
      "stateMutability": "view",
      "type": "function"
    },
    {
      "inputs": [
        {
          "internalType": "uint256",
          "name": "amount",
          "type": "uint256"
        }
      ],
      "name": "releaseCapital",
      "outputs": [],
      "stateMutability": "nonpayable",
      "type": "function"
    },
    {
      "inputs": [],
      "name": "renounceOwnership",
      "outputs": [],
      "stateMutability": "nonpayable",
      "type": "function"
    },
    {
      "inputs": [
        {
          "internalType": "address",
          "name": "to",
          "type": "address"
        },
        {
          "internalType": "uint256",
          "name": "payoutAmount",
          "type": "uint256"
        },
        {
          "internalType": "uint256",
          "name": "liabilityAmount",
          "type": "uint256"
        }
      ],
      "name": "sendPayout",
      "outputs": [],
      "stateMutability": "nonpayable",
      "type": "function"
    },
    {
      "inputs": [
        {
          "internalType": "address",
          "name": "_vault",
          "type": "address"
        }
      ],
      "name": "setPolicyVault",
      "outputs": [],
      "stateMutability": "nonpayable",
      "type": "function"
    },
    {
      "inputs": [
        {
          "internalType": "address",
          "name": "_reinsurancePool",
          "type": "address"
        }
      ],
      "name": "setReinsurancePool",
      "outputs": [],
      "stateMutability": "nonpayable",
      "type": "function"
    },
    {
      "inputs": [
        {
          "internalType": "address",
          "name": "",
          "type": "address"
        }
      ],
      "name": "sharesOf",
      "outputs": [
        {
          "internalType": "uint256",
          "name": "",
          "type": "uint256"
        }
      ],
      "stateMutability": "view",
      "type": "function"
    },
    {
      "inputs": [
        {
          "internalType": "uint256",
          "name": "amount",
          "type": "uint256"
        }
      ],
      "name": "stake",
      "outputs": [],
      "stateMutability": "nonpayable",
      "type": "function"
    },
    {
      "inputs": [],
      "name": "totalLiabilities",
      "outputs": [
        {
          "internalType": "uint256",
          "name": "",
          "type": "uint256"
        }
      ],
      "stateMutability": "view",
      "type": "function"
    },
    {
      "inputs": [],
      "name": "totalShares",
      "outputs": [
        {
          "internalType": "uint256",
          "name": "",
          "type": "uint256"
        }
      ],
      "stateMutability": "view",
      "type": "function"
    },
    {
      "inputs": [
        {
          "internalType": "address",
          "name": "newOwner",
          "type": "address"
        }
      ],
      "name": "transferOwnership",
      "outputs": [],
      "stateMutability": "nonpayable",
      "type": "function"
    },
    {
      "inputs": [],
      "name": "usdc",
      "outputs": [
        {
          "internalType": "contract IERC20",
          "name": "",
          "type": "address"
        }
      ],
      "stateMutability": "view",
      "type": "function"
    },
    {
      "inputs": [
        {
          "internalType": "uint256",
          "name": "shares",
          "type": "uint256"
        }
      ],
      "name": "withdraw",
      "outputs": [],
      "stateMutability": "nonpayable",
      "type": "function"
    }
  ],
  "bytecode": "0x60a03461012657601f61111738819003918201601f19168301916001600160401b0383118484101761012a578084926040948552833981010312610126576100468161013e565b906001600160a01b039061005c9060200161013e565b16908115610113575f80546001600160a01b031981168417825560405193916001600160a01b03909116907f8be0079c531659141344cd1fd0a4f28419497f9722a3daafe3b4186f6b6457e09080a360017f9b779b17422d0df92223018b32b4d1fa46e071723d6817e2486d003becc55f00556001600160a01b0316608052610fc49081610153823960805181818161023c015281816105d80152818161071e0152818161080101528181610b560152610df60152f35b631e4fbdf760e01b5f525f60045260245ffd5b5f80fd5b634e487b7160e01b5f52604160045260245ffd5b51906001600160a01b03821682036101265756fe60806040526004361015610011575f80fd5b5f5f3560e01c806304b1ed9614610af25780630a2c433d14610aad578063211cd78e14610a845780632e1a7d4d146107945780632fbac6d71461076b5780633a98ef391461074d5780633e413bee1461070857806343570be71461058157806346c64873146105485780634a417a5314610525578063715018a6146104cb5780638d9a3365146104525780638da5cb5b1461042b578063a694fc3a14610204578063f2fde38b1461017e578063f5eb42dc14610145578063f73579a9146101275763f9042265146100e0575f80fd5b34610124576020366003190112610124576100f9610ce4565b610101610f10565b60018060a01b03166bffffffffffffffffffffffff60a01b600554161760055580f35b80fd5b50346101245780600319360112610124576020600354604051908152f35b5034610124576020366003190112610124576020906040906001600160a01b0361016d610ce4565b168152600283522054604051908152f35b503461012457602036600319011261012457610198610ce4565b6101a0610f10565b6001600160a01b031680156101f05781546001600160a01b03198116821783556001600160a01b03167f8be0079c531659141344cd1fd0a4f28419497f9722a3daafe3b4186f6b6457e08380a380f35b631e4fbdf760e01b82526004829052602482fd5b503461012457602036600319011261012457600435610221610f36565b80156103e6576040516370a0823160e01b81523060048201527f00000000000000000000000000000000000000000000000000000000000000006001600160a01b03811690602083602481855afa9283156103db5785936103a3575b506040516323b872dd60e01b8652336004523060245260448590529060208660648180855af1906001875114821615610384575b509060405284606052156103725750600154908115801561036a575b1561034d57506102de828092610d9d565b6001553383526002602052604083206102f8828254610d9d565b9055338352600460205242604084205560405191825260208201527f1449c6dd7851abc30abf37f57715f492010519147cc2652fbc38202c18a6ee9060403392a260015f516020610f6f5f395f51905f525580f35b6103636102de9161035e8486610daa565b610dbd565b8092610d9d565b5080156102cd565b635274afe760e01b8452600452602483fd5b600182151661039a573b15153d1516165f6102b1565b823d88823e3d90fd5b9092506020813d6020116103d3575b816103bf60209383610d67565b810103126103cf5751915f61027d565b5f80fd5b3d91506103b2565b6040513d87823e3d90fd5b60405162461bcd60e51b815260206004820152601760248201527f4c6971756964697479506f6f6c3a20616d6f756e743d300000000000000000006044820152606490fd5b5034610124578060031936011261012457546040516001600160a01b039091168152602090f35b5034610124576020366003190112610124577ff2eaad86bd62238503feb1b3d2c1bee7846707a0777cf1b3e1b1f8ba8618daa0602060043561049f60018060a01b03600554163314610cfa565b60035481116104c2576104b481600354610d46565b6003555b604051908152a180f35b836003556104b8565b50346101245780600319360112610124576104e4610f10565b80546001600160a01b03198116825581906001600160a01b03167f8be0079c531659141344cd1fd0a4f28419497f9722a3daafe3b4186f6b6457e08280a380f35b50346101245780600319360112610124576020610540610ddb565b604051908152f35b5034610124576020366003190112610124576020906040906001600160a01b03610570610ce4565b168152600483522054604051908152f35b5034610124576020366003190112610124576004356105ab60018060a01b03600554163314610cfa565b6105b781600354610d9d565b60038190556040516370a0823160e01b8152306004820152906020826024817f00000000000000000000000000000000000000000000000000000000000000006001600160a01b03165afa9182156106fd5784926106c9575b506078810290808204607814901517156106b557606490041161065b5760207fd2ce56bfc5f3b60a7274fc932af1dab3504bfc9be4839328aa35a3333fc3e63891604051908152a180f35b60405162461bcd60e51b815260206004820152602c60248201527f4c6971756964697479506f6f6c3a20696e73756666696369656e7420636f6c6c60448201526b61746572616c20726174696f60a01b6064820152608490fd5b634e487b7160e01b84526011600452602484fd5b9091506020813d6020116106f5575b816106e560209383610d67565b810103126103cf5751905f610610565b3d91506106d8565b6040513d86823e3d90fd5b50346101245780600319360112610124576040517f00000000000000000000000000000000000000000000000000000000000000006001600160a01b03168152602090f35b50346101245780600319360112610124576020600154604051908152f35b50346101245780600319360112610124576006546040516001600160a01b039091168152602090f35b5034610124576020366003190112610124576004356107b1610f36565b8015610a3f57338252600260205260408220548181106109ef573383526004602052604083205462093a8081018091116106b557421061099f576040516370a0823160e01b8152306004820152907f0000000000000000000000000000000000000000000000000000000000000000906020836024816001600160a01b0386165afa80156103db5784938691610966575b5090816108696108616108588761088a96610daa565b60015490610dbd565b958693610d46565b3388526002602052604088205561088286600154610d46565b600155610d46565b6003546078810290808204607814901517156109525760649004116108fa57816108b5913390610e8f565b60405191825260208201527f92ccf450a286a957af52509bc1c9939d1a6a481783e142e41e2499f0bb66ebc660403392a260015f516020610f6f5f395f51905f525580f35b60405162461bcd60e51b815260206004820152602a60248201527f4c6971756964697479506f6f6c3a207769746864726177616c2062726561636860448201526932b990189918129021a960b11b6064820152608490fd5b634e487b7160e01b86526011600452602486fd5b919350506020813d602011610997575b8161098360209383610d67565b810103126103cf575183929061088a610842565b3d9150610976565b60405162461bcd60e51b815260206004820152602260248201527f4c6971756964697479506f6f6c3a20372d646179206c6f636b75702061637469604482015261766560f01b6064820152608490fd5b60405162461bcd60e51b815260206004820152602260248201527f4c6971756964697479506f6f6c3a20696e73756666696369656e742073686172604482015261657360f01b6064820152608490fd5b60405162461bcd60e51b815260206004820152601760248201527f4c6971756964697479506f6f6c3a207368617265733d300000000000000000006044820152606490fd5b50346101245780600319360112610124576005546040516001600160a01b039091168152602090f35b503461012457602036600319011261012457610ac7610ce4565b610acf610f10565b60018060a01b03166bffffffffffffffffffffffff60a01b600654161760065580f35b50346103cf5760603660031901126103cf57610b0c610ce4565b90602435604435610b2860018060a01b03600554163314610cfa565b6003548111610cda57610b3d90600354610d46565b6003555b6040516370a0823160e01b81523060048201527f00000000000000000000000000000000000000000000000000000000000000006001600160a01b0381169491602081602481895afa908115610c89575f91610ca8575b5083811080610c94575b610c29575b50602060249495604051958680926370a0823160e01b82523060048301525afa9283156103db578593610bf3575b610be89450808411610beb575b50610e8f565b80f35b92505f610be2565b92506020843d602011610c21575b81610c0e60209383610d67565b810103126103cf57610be8935192610bd5565b3d9150610c01565b610c339084610d46565b6006546001600160a01b031690813b156103cf575f9160248392604051948593849263d768c90d60e01b845260048401525af18015610c895715610ba757602494505f610c7f91610d67565b60205f9450610ba7565b6040513d5f823e3d90fd5b506006546001600160a01b03161515610ba2565b90506020813d602011610cd2575b81610cc360209383610d67565b810103126103cf57515f610b98565b3d9150610cb6565b505f600355610b41565b600435906001600160a01b03821682036103cf57565b15610d0157565b60405162461bcd60e51b815260206004820152601f60248201527f4c6971756964697479506f6f6c3a206e6f7420706f6c696379207661756c74006044820152606490fd5b91908203918211610d5357565b634e487b7160e01b5f52601160045260245ffd5b90601f8019910116810190811067ffffffffffffffff821117610d8957604052565b634e487b7160e01b5f52604160045260245ffd5b91908201809211610d5357565b81810292918115918404141715610d5357565b8115610dc7570490565b634e487b7160e01b5f52601260045260245ffd5b6040516370a0823160e01b81523060048201526020816024817f00000000000000000000000000000000000000000000000000000000000000006001600160a01b03165afa908115610c89575f91610e5d575b508015610e585760035490606482029180830460641490151715610d5357610e5591610dbd565b90565b505f90565b90506020813d602011610e87575b81610e7860209383610d67565b810103126103cf57515f610e2e565b3d9150610e6b565b916040519163a9059cbb60e01b5f5260018060a01b031660045260245260205f60448180865af19060015f5114821615610eef575b60405215610ecf5750565b635274afe760e01b5f9081526001600160a01b0391909116600452602490fd5b906001811516610f0757823b15153d15161690610ec4565b503d5f823e3d90fd5b5f546001600160a01b03163303610f2357565b63118cdaa760e01b5f523360045260245ffd5b60025f516020610f6f5f395f51905f525414610f5f5760025f516020610f6f5f395f51905f5255565b633ee5aeb560e01b5f5260045ffdfe9b779b17422d0df92223018b32b4d1fa46e071723d6817e2486d003becc55f00a264697066735822122036bbfbec2b8f648d1575ba42b96c71926a4cfea237701a2660c69df7bd67aa1f64736f6c634300081c0033",
  "linkReferences": {},
  "deployedLinkReferences": {}
}