{"contracts/PolicyVault.sol":{"PolicyVault":{"abi":[{"inputs":[{"internalType":"address","name":"_usdc","type":"address"},{"internalType":"address","name":"_oracle","type":"address"},{"internalType":"address","name":"_liquidityPool","type":"address"},{"internalType":"address","name":"_owner","type":"address"}],"stateMutability":"nonpayable","type":"constructor"},{"inputs":[],"name":"EnforcedPause","type":"error"},{"inputs":[],"name":"ExpectedPause","type":"error"},{"inputs":[{"internalType":"address","name":"owner","type":"address"}],"name":"OwnableInvalidOwner","type":"error"},{"inputs":[{"internalType":"address","name":"account","type":"address"}],"name":"OwnableUnauthorizedAccount","type":"error"},{"inputs":[],"name":"ReentrancyGuardReentrantCall","type":"error"},{"inputs":[{"internalType":"address","name":"token","type":"address"}],"name":"SafeERC20FailedOperation","type":"error"},{"anonymous":false,"inputs":[{"indexed":true,"internalType":"address","name":"liquidityPool","type":"address"}],"name":"LiquidityPoolUpdated","type":"event"},{"anonymous":false,"inputs":[{"indexed":true,"internalType":"address","name":"oracle","type":"address"}],"name":"OracleUpdated","type":"event"},{"anonymous":false,"inputs":[{"indexed":true,"internalType":"address","name":"previousOwner","type":"address"},{"indexed":true,"internalType":"address","name":"newOwner","type":"address"}],"name":"OwnershipTransferred","type":"event"},{"anonymous":false,"inputs":[{"indexed":false,"internalType":"address","name":"account","type":"address"}],"name":"Paused","type":"event"},{"anonymous":false,"inputs":[{"indexed":true,"internalType":"uint256","name":"policyId","type":"uint256"},{"indexed":false,"internalType":"enum PolicyVault.PayoutSeverity","name":"severity","type":"uint8"}],"name":"PolicyClaimable","type":"event"},{"anonymous":false,"inputs":[{"indexed":true,"internalType":"uint256","name":"policyId","type":"uint256"},{"indexed":true,"internalType":"address","name":"farmer","type":"address"},{"indexed":false,"internalType":"uint256","name":"payout","type":"uint256"},{"indexed":false,"internalType":"enum PolicyVault.PayoutSeverity","name":"severity","type":"uint8"}],"name":"PolicyClaimed","type":"event"},{"anonymous":false,"inputs":[{"indexed":true,"internalType":"uint256","name":"policyId","type":"uint256"},{"indexed":true,"internalType":"address","name":"farmer","type":"address"},{"indexed":false,"internalType":"enum PolicyVault.CropType","name":"crop","type":"uint8"},{"indexed":false,"internalType":"uint256","name":"hectares","type":"uint256"},{"indexed":false,"internalType":"uint256","name":"coverageAmount","type":"uint256"},{"indexed":false,"internalType":"uint256","name":"premium","type":"uint256"}],"name":"PolicyCreated","type":"event"},{"anonymous":false,"inputs":[{"indexed":true,"internalType":"uint256","name":"policyId","type":"uint256"}],"name":"PolicyExpired","type":"event"},{"anonymous":false,"inputs":[{"indexed":false,"internalType":"address","name":"account","type":"address"}],"name":"Unpaused","type":"event"},{"inputs":[],"name":"MAX_COVERAGE_PER_HECTARE","outputs":[{"internalType":"uint256","name":"","type":"uint256"}],"stateMutability":"view","type":"function"},{"inputs":[],"name":"MIN_TRIGGER_DAYS","outputs":[{"internalType":"uint256","name":"","type":"uint256"}],"stateMutability":"view","type":"function"},{"inputs":[{"internalType":"uint256","name":"policyId","type":"uint256"}],"name":"claimPayout","outputs":[],"stateMutability":"nonpayable","type":"function"},{"inputs":[{"components":[{"internalType":"enum PolicyVault.CropType","name":"crop","type":"uint8"},{"internalType":"uint256","name":"farmSizeHectares","type":"uint256"},{"internalType":"int256","name":"lat","type":"int256"},{"internalType":"int256","name":"lon","type":"int256"},{"internalType":"uint256","name":"duration","type":"uint256"},{"internalType":"bytes32","name":"regionCode","type":"bytes32"}],"internalType":"struct PolicyVault.CreatePolicyParams","name":"params","type":"tuple"}],"name":"createPolicy","outputs":[],"stateMutability":"nonpayable","type":"function"},{"inputs":[{"internalType":"uint256","name":"policyId","type":"uint256"}],"name":"evaluateTrigger","outputs":[],"stateMutability":"nonpayable","type":"function"},{"inputs":[{"internalType":"uint256","name":"policyId","type":"uint256"}],"name":"expirePolicy","outputs":[],"stateMutability":"nonpayable","type":"function"},{"inputs":[],"name":"liquidityPool","outputs":[{"internalType":"address","name":"","type":"address"}],"stateMutability":"view","type":"function"},{"inputs":[],"name":"nextPolicyId","outputs":[{"internalType":"uint256","name":"","type":"uint256"}],"stateMutability":"view","type":"function"},{"inputs":[],"name":"oracle","outputs":[{"internalType":"contract IOracleConsumer","name":"","type":"address"}],"stateMutability":"view","type":"function"},{"inputs":[],"name":"owner","outputs":[{"internalType":"address","name":"","type":"address"}],"stateMutability":"view","type":"function"},{"inputs":[],"name":"pause","outputs":[],"stateMutability":"nonpayable","type":"function"},{"inputs":[],"name":"paused","outputs":[{"internalType":"bool","name":"","type":"bool"}],"stateMutability":"view","type":"function"},{"inputs":[{"internalType":"uint256","name":"","type":"uint256"}],"name":"policies","outputs":[{"internalType":"address","name":"farmer","type":"address"},{"internalType":"enum PolicyVault.CropType","name":"crop","type":"uint8"},{"internalType":"uint256","name":"farmSizeHectares","type":"uint256"},{"internalType":"uint256","name":"premium","type":"uint256"},{"internalType":"uint256","name":"coverageAmount","type":"uint256"},{"internalType":"uint256","name":"startTime","type":"uint256"},{"internalType":"uint256","name":"endTime","type":"uint256"},{"internalType":"int256","name":"lat","type":"int256"},{"internalType":"int256","name":"lon","type":"int256"},{"internalType":"uint8","name":"triggerThreshold","type":"uint8"},{"internalType":"bool","name":"active","type":"bool"},{"internalType":"bool","name":"claimed","type":"bool"},{"internalType":"bool","name":"claimable","type":"bool"},{"internalType":"enum PolicyVault.PayoutSeverity","name":"severity","type":"uint8"},{"internalType":"bytes32","name":"regionCode","type":"bytes32"},{"internalType":"uint256","name":"triggerStartTimestamp","type":"uint256"}],"stateMutability":"view","type":"function"},{"inputs":[],"name":"renounceOwnership","outputs":[],"stateMutability":"nonpayable","type":"function"},{"inputs":[{"internalType":"address","name":"_liquidityPool","type":"address"}],"name":"setLiquidityPool","outputs":[],"stateMutability":"nonpayable","type":"function"},{"inputs":[{"internalType":"address","name":"_oracle","type":"address"}],"name":"setOracle","outputs":[],"stateMutability":"nonpayable","type":"function"},{"inputs":[{"internalType":"address","name":"newOwner","type":"address"}],"name":"transferOwnership","outputs":[],"stateMutability":"nonpayable","type":"function"},{"inputs":[],"name":"unpause","outputs":[],"stateMutability":"nonpayable","type":"function"},{"inputs":[],"name":"usdc","outputs":[{"internalType":"contract IERC20","name":"","type":"address"}],"stateMutability":"view","type":"function"}],"evm":{"bytecode":{"linkReferences":{},"object":"60a03461019b57601f6114f838819003918201601f19168301916001600160401b0383118484101761019f5780849260809460405283398101031261019b57610047816101b3565b90610054602082016101b3565b610060604083016101b3565b916001600160a01b0390610076906060016101b3565b16928315610188575f80546001600160a01b031981168617825560405195916001600160a01b03909116907f8be0079c531659141344cd1fd0a4f28419497f9722a3daafe3b4186f6b6457e09080a360017f9b779b17422d0df92223018b32b4d1fa46e071723d6817e2486d003becc55f0081905560038190556001600160a01b0391821660805280549282166001600160a01b03199384168117909155600280549490921693909216831790557f3df77beb5db05fcdd70a30fc8adf3f83f9501b68579455adbd100b81809403945f80a27fedf1a035d265f6321083031b40acf4e5e06cd3e2e2025192fd308409b13b44c65f80a261133090816101c882396080518181816106f80152610d1f0152f35b631e4fbdf760e01b5f525f60045260245ffd5b5f80fd5b634e487b7160e01b5f52604160045260245ffd5b51906001600160a01b038216820361019b5756fe60806040526004361015610011575f80fd5b5f5f3560e01c806301877020146110b757806320ae9a7d14610edf5780633037e4cd14610d4e5780633e413bee14610d095780633f4ba83a14610c9b5780635c975abb14610c76578063665a11ca14610c4d578063715018a614610bf35780637adbf97314610b8b5780637dc0d1d014610b6257806383b4b1e4146105ff5780638456cb591461059e5780638a69614e146102f75780638da5cb5b146102d0578063cad0b8db146102b2578063d3e89483146101b6578063f2fde38b14610128578063fd9c611e1461010c5763ff08a419146100eb575f80fd5b346101095780600319360112610109576020604051633b9aca008152f35b80fd5b50346101095780600319360112610109576020604051600e8152f35b5034610109576020366003190112610109576004356001600160a01b038116908190036101b25761015761122f565b801561019e5781546001600160a01b03198116821783556001600160a01b03167f8be0079c531659141344cd1fd0a4f28419497f9722a3daafe3b4186f6b6457e08380a380f35b631e4fbdf760e01b82526004829052602482fd5b5080fd5b503461010957602036600319011261010957604061020091600435815260046020522080549060ff8260a01c1690600181015460ff6002830154600384015460048501546005860154600687015491600788015493600889015495878760201c1698600a60098c01549b01549b60206040519e8f9060018060a01b0316815261023e8361111d565b015260408d015260608c015260808b015260a08a015260c089015260e0880152610100870152818116610120870152818160081c161515610140870152818160101c16151561016087015260181c16151561018085015261029e8161111d565b6101a08401526101c08301526101e0820152f35b50346101095780600319360112610109576020600354604051908152f35b5034610109578060031936011261010957546040516001600160a01b039091168152602090f35b503461010957602036600319011261010957600435610314611272565b61031c611255565b80825260046020526040822090600882019182549061034060ff8360081c1661113b565b60ff8260101c166105595760ff8260181c16156105145760ff8260201c166103678161111d565b156104cf5780546001600160a01b0316913383900361048a5762010000869162ffff00191617808655600383015493600160ff869360201c166103a98161111d565b14610480575b6002546001600160a01b031691823b1561047c5760648492836040519586948593630258f6cb60e11b855260048501528a602485015260448401525af1801561047157610458575b50507fef4040f84a7e4fa3b292a9b9057d33b14470726f672fbfeb4a552945b1345e9e9160ff60409260018060a01b03905416955460201c16825191825261043e8161111d565b6020820152a360015f5160206112db5f395f51905f525580f35b816104629161117f565b61046d57845f6103f7565b8480fd5b6040513d84823e3d90fd5b8380fd5b9360011c936103af565b60405162461bcd60e51b815260206004820152601760248201527f506f6c6963795661756c743a206e6f74206661726d65720000000000000000006044820152606490fd5b60405162461bcd60e51b815260206004820152601c60248201527f506f6c6963795661756c743a206e6f20736576657269747920736574000000006044820152606490fd5b60405162461bcd60e51b815260206004820152601a60248201527f506f6c6963795661756c743a206e6f7420636c61696d61626c650000000000006044820152606490fd5b60405162461bcd60e51b815260206004820152601c60248201527f506f6c6963795661756c743a20616c726561647920636c61696d6564000000006044820152606490fd5b50346101095780600319360112610109576105b761122f565b6105bf611255565b805460ff60a01b1916600160a01b1781556040513381527f62e78cea01bee320cd4e420270b5ea74000d11b0c9f74754ebdbfc544b05a25890602090a180f35b50346101095760c036600319011261010957610619611272565b610621611255565b6024358015610b27576084358015610ae257633b9aca00820291808304633b9aca0003610ace5760043592600384101561046d5761065e846112aa565b60015460405163030710f160e51b815260a435600482015290606090829060249082906001600160a01b03165afa908115610ac357620f4240926106c79289928a91610a8d575b506106b2819315156111d0565b15610a84575b6106c2908561121c565b61121c565b0491600354935f198514610a0357600185016003556040516323b872dd60e01b8852336004523060245260448590527f000000000000000000000000000000000000000000000000000000000000000060208960648180855af160018a5114811615610a6e575b826040528960605215610a345760025463a9059cbb60e01b8a526001600160a01b0316600452602486905260208960448180855af160018a5114811615610a4f575b8260405215610a3457506002548891906001600160a01b0316803b15610a3057816024818580946343570be760e01b83528a60048401525af1801561047157610a17575b50504201804211610a035760405190610200820182811067ffffffffffffffff8211176109ef576040523382526107ea8761111d565b8660208301528260408301528460608301528360808301524260a083015260c082015260443560e0820152606435610100820152604661012082015260016101408201528661016082015286610180820152866101a082015260a4356101c0820152866101e08201528487526004602052600a6101e0604089209260018060a01b038151166bffffffffffffffffffffffff60a01b85541617845560208101516108938161111d565b61089c8161111d565b845460ff60a01b191660a091821b60ff60a01b16178555604082015160018601556060820151600286015560808201516003860155810151600485015560c0810151600585015560e0810151600685015561010081015160078501556101208101516008808601805461014085015161016086015161018087015163ffffffff1990931660ff969096169590951790151590931b61ff00169290921792151560101b62ff0000169290921790151560181b63ff000000161781556101a08201516109658161111d565b61096e8161111d565b64ff0000000082549160201b169064ff0000000019161790556101c081015160098501550151910155604051946109a48161111d565b85526020850152604084015260608301527f4922cc4ba5af57c06c26d02e17d09964049efe7919e9bba1118cb09aa33cfc9860803393a360015f5160206112db5f395f51905f525580f35b634e487b7160e01b89526041600452602489fd5b634e487b7160e01b87526011600452602487fd5b81610a219161117f565b610a2c57865f6107b4565b8680fd5b8280fd5b635274afe760e01b89526001600160a01b0316600452602488fd5b6001811516610a6557813b15153d151616610770565b823d8b823e3d90fd5b6001811516610a6557813b15153d15161661072e565b606491506106b8565b9050610ab291925060603d606011610abc575b610aaa818361117f565b8101906111b5565b929150915f6106a5565b503d610aa0565b6040513d89823e3d90fd5b634e487b7160e01b84526011600452602484fd5b60405162461bcd60e51b815260206004820152601760248201527f506f6c6963795661756c743a206475726174696f6e3d300000000000000000006044820152606490fd5b60405162461bcd60e51b81526020600482015260136024820152720506f6c6963795661756c743a2073697a653d3606c1b6044820152606490fd5b50346101095780600319360112610109576001546040516001600160a01b039091168152602090f35b5034610109576020366003190112610109576004356001600160a01b038116908190036101b257610bba61122f565b600180546001600160a01b031916821790557f3df77beb5db05fcdd70a30fc8adf3f83f9501b68579455adbd100b81809403948280a280f35b5034610109578060031936011261010957610c0c61122f565b80546001600160a01b03198116825581906001600160a01b03167f8be0079c531659141344cd1fd0a4f28419497f9722a3daafe3b4186f6b6457e08280a380f35b50346101095780600319360112610109576002546040516001600160a01b039091168152602090f35b503461010957806003193601126101095760ff6020915460a01c166040519015158152f35b5034610109578060031936011261010957610cb461122f565b805460ff8160a01c1615610cfa5760ff60a01b191681556040513381527f5db9ee0a495bf2e6ff9c91a7834c1ba4fdd244a5e8aa4e537bd38aeae4b073aa90602090a180f35b638dfc202b60e01b8252600482fd5b50346101095780600319360112610109576040517f00000000000000000000000000000000000000000000000000000000000000006001600160a01b03168152602090f35b5034610e33576020366003190112610e3357600435610d6b611255565b805f52600460205260405f20600881018054610d8c60ff8260081c1661113b565b6005830154421115610e9a5760ff8160181c16610e375761ff0019169055600360018060a01b0360025416910154813b15610e33575f91602483926040519485938492638d9a336560e01b845260048401525af18015610e2857610e13575b507fb22aa541487fc93d989bb5b17d1e3a967f649c4979cfd658c0849e070ae0dca08280a280f35b610e209192505f9061117f565b5f905f610deb565b6040513d5f823e3d90fd5b5f80fd5b60405162461bcd60e51b815260206004820152603560248201527f506f6c6963795661756c743a207472696767657220616374697665202d2066616044820152741c9b595c881b5d5cdd0818db185a5b48199a5c9cdd605a1b6064820152608490fd5b60405162461bcd60e51b815260206004820152601860248201527f506f6c6963795661756c743a206e6f74206578706972656400000000000000006044820152606490fd5b34610e33576020366003190112610e3357600435610efb611255565b805f52600460205260405f2060088101805491610f1d60ff8460081c1661113b565b60018060a01b0360015416926060600983015460246040518097819363030710f160e51b835260048301525afa8015610e28575f945f91611091575b50610f658115156111d0565b4203428111611027576202a3001061104c5760ff1683111561104357600a0180541561103b575b5462127500810180911161102757421015610fa357005b60ff817f61782cf7ed50c35f9220bd74184699a7a70a2a12ebe6747518406450eee749449360556020945491630100000063ff000000198416178455115f146110115750805464ff0000000019166402000000001781555b54821c166040519061100c8161111d565b8152a2005b64ffff0000001916640101000000178155610ffb565b634e487b7160e01b5f52601160045260245ffd5b428155610f8c565b5f600a90910155005b60405162461bcd60e51b815260206004820152601960248201527f506f6c6963795661756c743a207374616c65206f7261636c65000000000000006044820152606490fd5b90506110ad91945060603d606011610abc57610aaa818361117f565b5093909386610f59565b34610e33576020366003190112610e33576004356001600160a01b03811690819003610e33576110e561122f565b600280546001600160a01b031916821790557fedf1a035d265f6321083031b40acf4e5e06cd3e2e2025192fd308409b13b44c65f80a2005b6003111561112757565b634e487b7160e01b5f52602160045260245ffd5b1561114257565b60405162461bcd60e51b8152602060048201526015602482015274506f6c6963795661756c743a20696e61637469766560581b6044820152606490fd5b90601f8019910116810190811067ffffffffffffffff8211176111a157604052565b634e487b7160e01b5f52604160045260245ffd5b90816060910312610e33578051916040602083015192015190565b156111d757565b60405162461bcd60e51b815260206004820152601b60248201527f506f6c6963795661756c743a206e6f206f7261636c65206461746100000000006044820152606490fd5b8181029291811591840414171561102757565b5f546001600160a01b0316330361124257565b63118cdaa760e01b5f523360045260245ffd5b60ff5f5460a01c1661126357565b63d93c066560e01b5f5260045ffd5b60025f5160206112db5f395f51905f52541461129b5760025f5160206112db5f395f51905f5255565b633ee5aeb560e01b5f5260045ffd5b6112b38161111d565b600281146112d4576112c48161111d565b156112cf5761012c90565b60fa90565b5060c89056fe9b779b17422d0df92223018b32b4d1fa46e071723d6817e2486d003becc55f00a2646970667358221220ea72bc3594a83b28d57ead670d15b7afff1d59f6f8683f965ab5a3bbba03619264736f6c634300081c0033","opcodes":"PUSH1 0xA0 CALLVALUE PUSH2 0x19B JUMPI PUSH1 0x1F PUSH2 0x14F8 CODESIZE DUP2 SWAP1 SUB SWAP2 DUP3 ADD PUSH1 0x1F NOT AND DUP4 ADD SWAP2 PUSH1 0x1 PUSH1 0x1 PUSH1 0x40 SHL SUB DUP4 GT DUP5 DUP5 LT OR PUSH2 0x19F JUMPI DUP1 DUP5 SWAP3 PUSH1 0x80 SWAP5 PUSH1 0x40 MSTORE DUP4 CODECOPY DUP2 ADD SUB SLT PUSH2 0x19B JUMPI PUSH2 0x47 DUP2 PUSH2 0x1B3 JUMP JUMPDEST SWAP1 PUSH2 0x54 PUSH1 0x20 DUP3 ADD PUSH2 0x1B3 JUMP JUMPDEST PUSH2 0x60 PUSH1 0x40 DUP4 ADD PUSH2 0x1B3 JUMP JUMPDEST SWAP2 PUSH1 0x1 PUSH1 0x1 PUSH1 0xA0 SHL SUB SWAP1 PUSH2 0x76 SWAP1 PUSH1 0x60 ADD PUSH2 0x1B3 JUMP JUMPDEST AND SWAP3 DUP4 ISZERO PUSH2 0x188 JUMPI PUSH0 DUP1 SLOAD PUSH1 0x1 PUSH1 0x1 PUSH1 0xA0 SHL SUB NOT DUP2 AND DUP7 OR DUP3 SSTORE PUSH1 0x40 MLOAD SWAP6 SWAP2 PUSH1 0x1 PUSH1 0x1 PUSH1 0xA0 SHL SUB SWAP1 SWAP2 AND SWAP1 PUSH32 0x8BE0079C531659141344CD1FD0A4F28419497F9722A3DAAFE3B4186F6B6457E0 SWAP1 DUP1 LOG3 PUSH1 0x1 PUSH32 0x9B779B17422D0DF92223018B32B4D1FA46E071723D6817E2486D003BECC55F00 DUP2 SWAP1 SSTORE PUSH1 0x3 DUP2 SWAP1 SSTORE PUSH1 0x1 PUSH1 0x1 PUSH1 0xA0 SHL SUB SWAP2 DUP3 AND PUSH1 0x80 MSTORE DUP1 SLOAD SWAP3 DUP3 AND PUSH1 0x1 PUSH1 0x1 PUSH1 0xA0 SHL SUB NOT SWAP4 DUP5 AND DUP2 OR SWAP1 SWAP2 SSTORE PUSH1 0x2 DUP1 SLOAD SWAP5 SWAP1 SWAP3 AND SWAP4 SWAP1 SWAP3 AND DUP4 OR SWAP1 SSTORE PUSH32 0x3DF77BEB5DB05FCDD70A30FC8ADF3F83F9501B68579455ADBD100B8180940394 PUSH0 DUP1 LOG2 PUSH32 0xEDF1A035D265F6321083031B40ACF4E5E06CD3E2E2025192FD308409B13B44C6 PUSH0 DUP1 LOG2 PUSH2 0x1330 SWAP1 DUP2 PUSH2 0x1C8 DUP3 CODECOPY PUSH1 0x80 MLOAD DUP2 DUP2 DUP2 PUSH2 0x6F8 ADD MSTORE PUSH2 0xD1F ADD MSTORE RETURN JUMPDEST PUSH4 0x1E4FBDF7 PUSH1 0xE0 SHL PUSH0 MSTORE PUSH0 PUSH1 0x4 MSTORE PUSH1 0x24 PUSH0 REVERT JUMPDEST PUSH0 DUP1 REVERT JUMPDEST PUSH4 0x4E487B71 PUSH1 0xE0 SHL PUSH0 MSTORE PUSH1 0x41 PUSH1 0x4 MSTORE PUSH1 0x24 PUSH0 REVERT JUMPDEST MLOAD SWAP1 PUSH1 0x1 PUSH1 0x1 PUSH1 0xA0 SHL SUB DUP3 AND DUP3 SUB PUSH2 0x19B JUMPI JUMP INVALID PUSH1 0x80 PUSH1 0x40 MSTORE PUSH1 0x4 CALLDATASIZE LT ISZERO PUSH2 0x11 JUMPI PUSH0 DUP1 REVERT JUMPDEST PUSH0 PUSH0 CALLDATALOAD PUSH1 0xE0 SHR DUP1 PUSH4 0x1877020 EQ PUSH2 0x10B7 JUMPI DUP1 PUSH4 0x20AE9A7D EQ PUSH2 0xEDF JUMPI DUP1 PUSH4 0x3037E4CD EQ PUSH2 0xD4E JUMPI DUP1 PUSH4 0x3E413BEE EQ PUSH2 0xD09 JUMPI DUP1 PUSH4 0x3F4BA83A EQ PUSH2 0xC9B JUMPI DUP1 PUSH4 0x5C975ABB EQ PUSH2 0xC76 JUMPI DUP1 PUSH4 0x665A11CA EQ PUSH2 0xC4D JUMPI DUP1 PUSH4 0x715018A6 EQ PUSH2 0xBF3 JUMPI DUP1 PUSH4 0x7ADBF973 EQ PUSH2 0xB8B JUMPI DUP1 PUSH4 0x7DC0D1D0 EQ PUSH2 0xB62 JUMPI DUP1 PUSH4 0x83B4B1E4 EQ PUSH2 0x5FF JUMPI DUP1 PUSH4 0x8456CB59 EQ PUSH2 0x59E JUMPI DUP1 PUSH4 0x8A69614E EQ PUSH2 0x2F7 JUMPI DUP1 PUSH4 0x8DA5CB5B EQ PUSH2 0x2D0 JUMPI DUP1 PUSH4 0xCAD0B8DB EQ PUSH2 0x2B2 JUMPI DUP1 PUSH4 0xD3E89483 EQ PUSH2 0x1B6 JUMPI DUP1 PUSH4 0xF2FDE38B EQ PUSH2 0x128 JUMPI DUP1 PUSH4 0xFD9C611E EQ PUSH2 0x10C JUMPI PUSH4 0xFF08A419 EQ PUSH2 0xEB JUMPI PUSH0 DUP1 REVERT JUMPDEST CALLVALUE PUSH2 0x109 JUMPI DUP1 PUSH1 0x3 NOT CALLDATASIZE ADD SLT PUSH2 0x109 JUMPI PUSH1 0x20 PUSH1 0x40 MLOAD PUSH4 0x3B9ACA00 DUP2 MSTORE RETURN JUMPDEST DUP1 REVERT JUMPDEST POP CALLVALUE PUSH2 0x109 JUMPI DUP1 PUSH1 0x3 NOT CALLDATASIZE ADD SLT PUSH2 0x109 JUMPI PUSH1 0x20 PUSH1 0x40 MLOAD PUSH1 0xE DUP2 MSTORE RETURN JUMPDEST POP CALLVALUE PUSH2 0x109 JUMPI PUSH1 0x20 CALLDATASIZE PUSH1 0x3 NOT ADD SLT PUSH2 0x109 JUMPI PUSH1 0x4 CALLDATALOAD PUSH1 0x1 PUSH1 0x1 PUSH1 0xA0 SHL SUB DUP2 AND SWAP1 DUP2 SWAP1 SUB PUSH2 0x1B2 JUMPI PUSH2 0x157 PUSH2 0x122F JUMP JUMPDEST DUP1 ISZERO PUSH2 0x19E JUMPI DUP2 SLOAD PUSH1 0x1 PUSH1 0x1 PUSH1 0xA0 SHL SUB NOT DUP2 AND DUP3 OR DUP4 SSTORE PUSH1 0x1 PUSH1 0x1 PUSH1 0xA0 SHL SUB AND PUSH32 0x8BE0079C531659141344CD1FD0A4F28419497F9722A3DAAFE3B4186F6B6457E0 DUP4 DUP1 LOG3 DUP1 RETURN JUMPDEST PUSH4 0x1E4FBDF7 PUSH1 0xE0 SHL DUP3 MSTORE PUSH1 0x4 DUP3 SWAP1 MSTORE PUSH1 0x24 DUP3 REVERT JUMPDEST POP DUP1 REVERT JUMPDEST POP CALLVALUE PUSH2 0x109 JUMPI PUSH1 0x20 CALLDATASIZE PUSH1 0x3 NOT ADD SLT PUSH2 0x109 JUMPI PUSH1 0x40 PUSH2 0x200 SWAP2 PUSH1 0x4 CALLDATALOAD DUP2 MSTORE PUSH1 0x4 PUSH1 0x20 MSTORE KECCAK256 DUP1 SLOAD SWAP1 PUSH1 0xFF DUP3 PUSH1 0xA0 SHR AND SWAP1 PUSH1 0x1 DUP2 ADD SLOAD PUSH1 0xFF PUSH1 0x2 DUP4 ADD SLOAD PUSH1 0x3 DUP5 ADD SLOAD PUSH1 0x4 DUP6 ADD SLOAD PUSH1 0x5 DUP7 ADD SLOAD PUSH1 0x6 DUP8 ADD SLOAD SWAP2 PUSH1 0x7 DUP9 ADD SLOAD SWAP4 PUSH1 0x8 DUP10 ADD SLOAD SWAP6 DUP8 DUP8 PUSH1 0x20 SHR AND SWAP9 PUSH1 0xA PUSH1 0x9 DUP13 ADD SLOAD SWAP12 ADD SLOAD SWAP12 PUSH1 0x20 PUSH1 0x40 MLOAD SWAP15 DUP16 SWAP1 PUSH1 0x1 DUP1 PUSH1 0xA0 SHL SUB AND DUP2 MSTORE PUSH2 0x23E DUP4 PUSH2 0x111D JUMP JUMPDEST ADD MSTORE PUSH1 0x40 DUP14 ADD MSTORE PUSH1 0x60 DUP13 ADD MSTORE PUSH1 0x80 DUP12 ADD MSTORE PUSH1 0xA0 DUP11 ADD MSTORE PUSH1 0xC0 DUP10 ADD MSTORE PUSH1 0xE0 DUP9 ADD MSTORE PUSH2 0x100 DUP8 ADD MSTORE DUP2 DUP2 AND PUSH2 0x120 DUP8 ADD MSTORE DUP2 DUP2 PUSH1 0x8 SHR AND ISZERO ISZERO PUSH2 0x140 DUP8 ADD MSTORE DUP2 DUP2 PUSH1 0x10 SHR AND ISZERO ISZERO PUSH2 0x160 DUP8 ADD MSTORE PUSH1 0x18 SHR AND ISZERO ISZERO PUSH2 0x180 DUP6 ADD MSTORE PUSH2 0x29E DUP2 PUSH2 0x111D JUMP JUMPDEST PUSH2 0x1A0 DUP5 ADD MSTORE PUSH2 0x1C0 DUP4 ADD MSTORE PUSH2 0x1E0 DUP3 ADD MSTORE RETURN JUMPDEST POP CALLVALUE PUSH2 0x109 JUMPI DUP1 PUSH1 0x3 NOT CALLDATASIZE ADD SLT PUSH2 0x109 JUMPI PUSH1 0x20 PUSH1 0x3 SLOAD PUSH1 0x40 MLOAD SWAP1 DUP2 MSTORE RETURN JUMPDEST POP CALLVALUE PUSH2 0x109 JUMPI DUP1 PUSH1 0x3 NOT CALLDATASIZE ADD SLT PUSH2 0x109 JUMPI SLOAD PUSH1 0x40 MLOAD PUSH1 0x1 PUSH1 0x1 PUSH1 0xA0 SHL SUB SWAP1 SWAP2 AND DUP2 MSTORE PUSH1 0x20 SWAP1 RETURN JUMPDEST POP CALLVALUE PUSH2 0x109 JUMPI PUSH1 0x20 CALLDATASIZE PUSH1 0x3 NOT ADD SLT PUSH2 0x109 JUMPI PUSH1 0x4 CALLDATALOAD PUSH2 0x314 PUSH2 0x1272 JUMP JUMPDEST PUSH2 0x31C PUSH2 0x1255 JUMP JUMPDEST DUP1 DUP3 MSTORE PUSH1 0x4 PUSH1 0x20 MSTORE PUSH1 0x40 DUP3 KECCAK256 SWAP1 PUSH1 0x8 DUP3 ADD SWAP2 DUP3 SLOAD SWAP1 PUSH2 0x340 PUSH1 0xFF DUP4 PUSH1 0x8 SHR AND PUSH2 0x113B JUMP JUMPDEST PUSH1 0xFF DUP3 PUSH1 0x10 SHR AND PUSH2 0x559 JUMPI PUSH1 0xFF DUP3 PUSH1 0x18 SHR AND ISZERO PUSH2 0x514 JUMPI PUSH1 0xFF DUP3 PUSH1 0x20 SHR AND PUSH2 0x367 DUP2 PUSH2 0x111D JUMP JUMPDEST ISZERO PUSH2 0x4CF JUMPI DUP1 SLOAD PUSH1 0x1 PUSH1 0x1 PUSH1 0xA0 SHL SUB AND SWAP2 CALLER DUP4 SWAP1 SUB PUSH2 0x48A JUMPI PUSH3 0x10000 DUP7 SWAP2 PUSH3 0xFFFF00 NOT AND OR DUP1 DUP7 SSTORE PUSH1 0x3 DUP4 ADD SLOAD SWAP4 PUSH1 0x1 PUSH1 0xFF DUP7 SWAP4 PUSH1 0x20 SHR AND PUSH2 0x3A9 DUP2 PUSH2 0x111D JUMP JUMPDEST EQ PUSH2 0x480 JUMPI JUMPDEST PUSH1 0x2 SLOAD PUSH1 0x1 PUSH1 0x1 PUSH1 0xA0 SHL SUB AND SWAP2 DUP3 EXTCODESIZE ISZERO PUSH2 0x47C JUMPI PUSH1 0x64 DUP5 SWAP3 DUP4 PUSH1 0x40 MLOAD SWAP6 DUP7 SWAP5 DUP6 SWAP4 PUSH4 0x258F6CB PUSH1 0xE1 SHL DUP6 MSTORE PUSH1 0x4 DUP6 ADD MSTORE DUP11 PUSH1 0x24 DUP6 ADD MSTORE PUSH1 0x44 DUP5 ADD MSTORE GAS CALL DUP1 ISZERO PUSH2 0x471 JUMPI PUSH2 0x458 JUMPI JUMPDEST POP POP PUSH32 0xEF4040F84A7E4FA3B292A9B9057D33B14470726F672FBFEB4A552945B1345E9E SWAP2 PUSH1 0xFF PUSH1 0x40 SWAP3 PUSH1 0x1 DUP1 PUSH1 0xA0 SHL SUB SWAP1 SLOAD AND SWAP6 SLOAD PUSH1 0x20 SHR AND DUP3 MLOAD SWAP2 DUP3 MSTORE PUSH2 0x43E DUP2 PUSH2 0x111D JUMP JUMPDEST PUSH1 0x20 DUP3 ADD MSTORE LOG3 PUSH1 0x1 PUSH0 MLOAD PUSH1 0x20 PUSH2 0x12DB PUSH0 CODECOPY PUSH0 MLOAD SWAP1 PUSH0 MSTORE SSTORE DUP1 RETURN JUMPDEST DUP2 PUSH2 0x462 SWAP2 PUSH2 0x117F JUMP JUMPDEST PUSH2 0x46D JUMPI DUP5 PUSH0 PUSH2 0x3F7 JUMP JUMPDEST DUP5 DUP1 REVERT JUMPDEST PUSH1 0x40 MLOAD RETURNDATASIZE DUP5 DUP3 RETURNDATACOPY RETURNDATASIZE SWAP1 REVERT JUMPDEST DUP4 DUP1 REVERT JUMPDEST SWAP4 PUSH1 0x1 SHR SWAP4 PUSH2 0x3AF JUMP JUMPDEST PUSH1 0x40 MLOAD PUSH3 0x461BCD PUSH1 0xE5 SHL DUP2 MSTORE PUSH1 0x20 PUSH1 0x4 DUP3 ADD MSTORE PUSH1 0x17 PUSH1 0x24 DUP3 ADD MSTORE PUSH32 0x506F6C6963795661756C743A206E6F74206661726D6572000000000000000000 PUSH1 0x44 DUP3 ADD MSTORE PUSH1 0x64 SWAP1 REVERT JUMPDEST PUSH1 0x40 MLOAD PUSH3 0x461BCD PUSH1 0xE5 SHL DUP2 MSTORE PUSH1 0x20 PUSH1 0x4 DUP3 ADD MSTORE PUSH1 0x1C PUSH1 0x24 DUP3 ADD MSTORE PUSH32 0x506F6C6963795661756C743A206E6F2073657665726974792073657400000000 PUSH1 0x44 DUP3 ADD MSTORE PUSH1 0x64 SWAP1 REVERT JUMPDEST PUSH1 0x40 MLOAD PUSH3 0x461BCD PUSH1 0xE5 SHL DUP2 MSTORE PUSH1 0x20 PUSH1 0x4 DUP3 ADD MSTORE PUSH1 0x1A PUSH1 0x24 DUP3 ADD MSTORE PUSH32 0x506F6C6963795661756C743A206E6F7420636C61696D61626C65000000000000 PUSH1 0x44 DUP3 ADD MSTORE PUSH1 0x64 SWAP1 REVERT JUMPDEST PUSH1 0x40 MLOAD PUSH3 0x461BCD PUSH1 0xE5 SHL DUP2 MSTORE PUSH1 0x20 PUSH1 0x4 DUP3 ADD MSTORE PUSH1 0x1C PUSH1 0x24 DUP3 ADD MSTORE PUSH32 0x506F6C6963795661756C743A20616C726561647920636C61696D656400000000 PUSH1 0x44 DUP3 ADD MSTORE PUSH1 0x64 SWAP1 REVERT JUMPDEST POP CALLVALUE PUSH2 0x109 JUMPI DUP1 PUSH1 0x3 NOT CALLDATASIZE ADD SLT PUSH2 0x109 JUMPI PUSH2 0x5B7 PUSH2 0x122F JUMP JUMPDEST PUSH2 0x5BF PUSH2 0x1255 JUMP JUMPDEST DUP1 SLOAD PUSH1 0xFF PUSH1 0xA0 SHL NOT AND PUSH1 0x1 PUSH1 0xA0 SHL OR DUP2 SSTORE PUSH1 0x40 MLOAD CALLER DUP2 MSTORE PUSH32 0x62E78CEA01BEE320CD4E420270B5EA74000D11B0C9F74754EBDBFC544B05A258 SWAP1 PUSH1 0x20 SWAP1 LOG1 DUP1 RETURN JUMPDEST POP CALLVALUE PUSH2 0x109 JUMPI PUSH1 0xC0 CALLDATASIZE PUSH1 0x3 NOT ADD SLT PUSH2 0x109 JUMPI PUSH2 0x619 PUSH2 0x1272 JUMP JUMPDEST PUSH2 0x621 PUSH2 0x1255 JUMP JUMPDEST PUSH1 0x24 CALLDATALOAD DUP1 ISZERO PUSH2 0xB27 JUMPI PUSH1 0x84 CALLDATALOAD DUP1 ISZERO PUSH2 0xAE2 JUMPI PUSH4 0x3B9ACA00 DUP3 MUL SWAP2 DUP1 DUP4 DIV PUSH4 0x3B9ACA00 SUB PUSH2 0xACE JUMPI PUSH1 0x4 CALLDATALOAD SWAP3 PUSH1 0x3 DUP5 LT ISZERO PUSH2 0x46D JUMPI PUSH2 0x65E DUP5 PUSH2 0x12AA JUMP JUMPDEST PUSH1 0x1 SLOAD PUSH1 0x40 MLOAD PUSH4 0x30710F1 PUSH1 0xE5 SHL DUP2 MSTORE PUSH1 0xA4 CALLDATALOAD PUSH1 0x4 DUP3 ADD MSTORE SWAP1 PUSH1 0x60 SWAP1 DUP3 SWAP1 PUSH1 0x24 SWAP1 DUP3 SWAP1 PUSH1 0x1 PUSH1 0x1 PUSH1 0xA0 SHL SUB AND GAS STATICCALL SWAP1 DUP2 ISZERO PUSH2 0xAC3 JUMPI PUSH3 0xF4240 SWAP3 PUSH2 0x6C7 SWAP3 DUP10 SWAP3 DUP11 SWAP2 PUSH2 0xA8D JUMPI JUMPDEST POP PUSH2 0x6B2 DUP2 SWAP4 ISZERO ISZERO PUSH2 0x11D0 JUMP JUMPDEST ISZERO PUSH2 0xA84 JUMPI JUMPDEST PUSH2 0x6C2 SWAP1 DUP6 PUSH2 0x121C JUMP JUMPDEST PUSH2 0x121C JUMP JUMPDEST DIV SWAP2 PUSH1 0x3 SLOAD SWAP4 PUSH0 NOT DUP6 EQ PUSH2 0xA03 JUMPI PUSH1 0x1 DUP6 ADD PUSH1 0x3 SSTORE PUSH1 0x40 MLOAD PUSH4 0x23B872DD PUSH1 0xE0 SHL DUP9 MSTORE CALLER PUSH1 0x4 MSTORE ADDRESS PUSH1 0x24 MSTORE PUSH1 0x44 DUP6 SWAP1 MSTORE PUSH32 0x0 PUSH1 0x20 DUP10 PUSH1 0x64 DUP2 DUP1 DUP6 GAS CALL PUSH1 0x1 DUP11 MLOAD EQ DUP2 AND ISZERO PUSH2 0xA6E JUMPI JUMPDEST DUP3 PUSH1 0x40 MSTORE DUP10 PUSH1 0x60 MSTORE ISZERO PUSH2 0xA34 JUMPI PUSH1 0x2 SLOAD PUSH4 0xA9059CBB PUSH1 0xE0 SHL DUP11 MSTORE PUSH1 0x1 PUSH1 0x1 PUSH1 0xA0 SHL SUB AND PUSH1 0x4 MSTORE PUSH1 0x24 DUP7 SWAP1 MSTORE PUSH1 0x20 DUP10 PUSH1 0x44 DUP2 DUP1 DUP6 GAS CALL PUSH1 0x1 DUP11 MLOAD EQ DUP2 AND ISZERO PUSH2 0xA4F JUMPI JUMPDEST DUP3 PUSH1 0x40 MSTORE ISZERO PUSH2 0xA34 JUMPI POP PUSH1 0x2 SLOAD DUP9 SWAP2 SWAP1 PUSH1 0x1 PUSH1 0x1 PUSH1 0xA0 SHL SUB AND DUP1 EXTCODESIZE ISZERO PUSH2 0xA30 JUMPI DUP2 PUSH1 0x24 DUP2 DUP6 DUP1 SWAP5 PUSH4 0x43570BE7 PUSH1 0xE0 SHL DUP4 MSTORE DUP11 PUSH1 0x4 DUP5 ADD MSTORE GAS CALL DUP1 ISZERO PUSH2 0x471 JUMPI PUSH2 0xA17 JUMPI JUMPDEST POP POP TIMESTAMP ADD DUP1 TIMESTAMP GT PUSH2 0xA03 JUMPI PUSH1 0x40 MLOAD SWAP1 PUSH2 0x200 DUP3 ADD DUP3 DUP2 LT PUSH8 0xFFFFFFFFFFFFFFFF DUP3 GT OR PUSH2 0x9EF JUMPI PUSH1 0x40 MSTORE CALLER DUP3 MSTORE PUSH2 0x7EA DUP8 PUSH2 0x111D JUMP JUMPDEST DUP7 PUSH1 0x20 DUP4 ADD MSTORE DUP3 PUSH1 0x40 DUP4 ADD MSTORE DUP5 PUSH1 0x60 DUP4 ADD MSTORE DUP4 PUSH1 0x80 DUP4 ADD MSTORE TIMESTAMP PUSH1 0xA0 DUP4 ADD MSTORE PUSH1 0xC0 DUP3 ADD MSTORE PUSH1 0x44 CALLDATALOAD PUSH1 0xE0 DUP3 ADD MSTORE PUSH1 0x64 CALLDATALOAD PUSH2 0x100 DUP3 ADD MSTORE PUSH1 0x46 PUSH2 0x120 DUP3 ADD MSTORE PUSH1 0x1 PUSH2 0x140 DUP3 ADD MSTORE DUP7 PUSH2 0x160 DUP3 ADD MSTORE DUP7 PUSH2 0x180 DUP3 ADD MSTORE DUP7 PUSH2 0x1A0 DUP3 ADD MSTORE PUSH1 0xA4 CALLDATALOAD PUSH2 0x1C0 DUP3 ADD MSTORE DUP7 PUSH2 0x1E0 DUP3 ADD MSTORE DUP5 DUP8 MSTORE PUSH1 0x4 PUSH1 0x20 MSTORE PUSH1 0xA PUSH2 0x1E0 PUSH1 0x40 DUP10 KECCAK256 SWAP3 PUSH1 0x1 DUP1 PUSH1 0xA0 SHL SUB DUP2 MLOAD AND PUSH12 0xFFFFFFFFFFFFFFFFFFFFFFFF PUSH1 0xA0 SHL DUP6 SLOAD AND OR DUP5 SSTORE PUSH1 0x20 DUP2 ADD MLOAD PUSH2 0x893 DUP2 PUSH2 0x111D JUMP JUMPDEST PUSH2 0x89C DUP2 PUSH2 0x111D JUMP JUMPDEST DUP5 SLOAD PUSH1 0xFF PUSH1 0xA0 SHL NOT AND PUSH1 0xA0 SWAP2 DUP3 SHL PUSH1 0xFF PUSH1 0xA0 SHL AND OR DUP6 SSTORE PUSH1 0x40 DUP3 ADD MLOAD PUSH1 0x1 DUP7 ADD SSTORE PUSH1 0x60 DUP3 ADD MLOAD PUSH1 0x2 DUP7 ADD SSTORE PUSH1 0x80 DUP3 ADD MLOAD PUSH1 0x3 DUP7 ADD SSTORE DUP2 ADD MLOAD PUSH1 0x4 DUP6 ADD SSTORE PUSH1 0xC0 DUP2 ADD MLOAD PUSH1 0x5 DUP6 ADD SSTORE PUSH1 0xE0 DUP2 ADD MLOAD PUSH1 0x6 DUP6 ADD SSTORE PUSH2 0x100 DUP2 ADD MLOAD PUSH1 0x7 DUP6 ADD SSTORE PUSH2 0x120 DUP2 ADD MLOAD PUSH1 0x8 DUP1 DUP7 ADD DUP1 SLOAD PUSH2 0x140 DUP6 ADD MLOAD PUSH2 0x160 DUP7 ADD MLOAD PUSH2 0x180 DUP8 ADD MLOAD PUSH4 0xFFFFFFFF NOT SWAP1 SWAP4 AND PUSH1 0xFF SWAP7 SWAP1 SWAP7 AND SWAP6 SWAP1 SWAP6 OR SWAP1 ISZERO ISZERO SWAP1 SWAP4 SHL PUSH2 0xFF00 AND SWAP3 SWAP1 SWAP3 OR SWAP3 ISZERO ISZERO PUSH1 0x10 SHL PUSH3 0xFF0000 AND SWAP3 SWAP1 SWAP3 OR SWAP1 ISZERO ISZERO PUSH1 0x18 SHL PUSH4 0xFF000000 AND OR DUP2 SSTORE PUSH2 0x1A0 DUP3 ADD MLOAD PUSH2 0x965 DUP2 PUSH2 0x111D JUMP JUMPDEST PUSH2 0x96E DUP2 PUSH2 0x111D JUMP JUMPDEST PUSH5 0xFF00000000 DUP3 SLOAD SWAP2 PUSH1 0x20 SHL AND SWAP1 PUSH5 0xFF00000000 NOT AND OR SWAP1 SSTORE PUSH2 0x1C0 DUP2 ADD MLOAD PUSH1 0x9 DUP6 ADD SSTORE ADD MLOAD SWAP2 ADD SSTORE PUSH1 0x40 MLOAD SWAP5 PUSH2 0x9A4 DUP2 PUSH2 0x111D JUMP JUMPDEST DUP6 MSTORE PUSH1 0x20 DUP6 ADD MSTORE PUSH1 0x40 DUP5 ADD MSTORE PUSH1 0x60 DUP4 ADD MSTORE PUSH32 0x4922CC4BA5AF57C06C26D02E17D09964049EFE7919E9BBA1118CB09AA33CFC98 PUSH1 0x80 CALLER SWAP4 LOG3 PUSH1 0x1 PUSH0 MLOAD PUSH1 0x20 PUSH2 0x12DB PUSH0 CODECOPY PUSH0 MLOAD SWAP1 PUSH0 MSTORE SSTORE DUP1 RETURN JUMPDEST PUSH4 0x4E487B71 PUSH1 0xE0 SHL DUP10 MSTORE PUSH1 0x41 PUSH1 0x4 MSTORE PUSH1 0x24 DUP10 REVERT JUMPDEST PUSH4 0x4E487B71 PUSH1 0xE0 SHL DUP8 MSTORE PUSH1 0x11 PUSH1 0x4 MSTORE PUSH1 0x24 DUP8 REVERT JUMPDEST DUP2 PUSH2 0xA21 SWAP2 PUSH2 0x117F JUMP JUMPDEST PUSH2 0xA2C JUMPI DUP7 PUSH0 PUSH2 0x7B4 JUMP JUMPDEST DUP7 DUP1 REVERT JUMPDEST DUP3 DUP1 REVERT JUMPDEST PUSH4 0x5274AFE7 PUSH1 0xE0 SHL DUP10 MSTORE PUSH1 0x1 PUSH1 0x1 PUSH1 0xA0 SHL SUB AND PUSH1 0x4 MSTORE PUSH1 0x24 DUP9 REVERT JUMPDEST PUSH1 0x1 DUP2 ISZERO AND PUSH2 0xA65 JUMPI DUP2 EXTCODESIZE ISZERO ISZERO RETURNDATASIZE ISZERO AND AND PUSH2 0x770 JUMP JUMPDEST DUP3 RETURNDATASIZE DUP12 DUP3 RETURNDATACOPY RETURNDATASIZE SWAP1 REVERT JUMPDEST PUSH1 0x1 DUP2 ISZERO AND PUSH2 0xA65 JUMPI DUP2 EXTCODESIZE ISZERO ISZERO RETURNDATASIZE ISZERO AND AND PUSH2 0x72E JUMP JUMPDEST PUSH1 0x64 SWAP2 POP PUSH2 0x6B8 JUMP JUMPDEST SWAP1 POP PUSH2 0xAB2 SWAP2 SWAP3 POP PUSH1 0x60 RETURNDATASIZE PUSH1 0x60 GT PUSH2 0xABC JUMPI JUMPDEST PUSH2 0xAAA DUP2 DUP4 PUSH2 0x117F JUMP JUMPDEST DUP2 ADD SWAP1 PUSH2 0x11B5 JUMP JUMPDEST SWAP3 SWAP2 POP SWAP2 PUSH0 PUSH2 0x6A5 JUMP JUMPDEST POP RETURNDATASIZE PUSH2 0xAA0 JUMP JUMPDEST PUSH1 0x40 MLOAD RETURNDATASIZE DUP10 DUP3 RETURNDATACOPY RETURNDATASIZE SWAP1 REVERT JUMPDEST PUSH4 0x4E487B71 PUSH1 0xE0 SHL DUP5 MSTORE PUSH1 0x11 PUSH1 0x4 MSTORE PUSH1 0x24 DUP5 REVERT JUMPDEST PUSH1 0x40 MLOAD PUSH3 0x461BCD PUSH1 0xE5 SHL DUP2 MSTORE PUSH1 0x20 PUSH1 0x4 DUP3 ADD MSTORE PUSH1 0x17 PUSH1 0x24 DUP3 ADD MSTORE PUSH32 0x506F6C6963795661756C743A206475726174696F6E3D30000000000000000000 PUSH1 0x44 DUP3 ADD MSTORE PUSH1 0x64 SWAP1 REVERT JUMPDEST PUSH1 0x40 MLOAD PUSH3 0x461BCD PUSH1 0xE5 SHL DUP2 MSTORE PUSH1 0x20 PUSH1 0x4 DUP3 ADD MSTORE PUSH1 0x13 PUSH1 0x24 DUP3 ADD MSTORE PUSH19 0x506F6C6963795661756C743A2073697A653D3 PUSH1 0x6C SHL PUSH1 0x44 DUP3 ADD MSTORE PUSH1 0x64 SWAP1 REVERT JUMPDEST POP CALLVALUE PUSH2 0x109 JUMPI DUP1 PUSH1 0x3 NOT CALLDATASIZE ADD SLT PUSH2 0x109 JUMPI PUSH1 0x1 SLOAD PUSH1 0x40 MLOAD PUSH1 0x1 PUSH1 0x1 PUSH1 0xA0 SHL SUB SWAP1 SWAP2 AND DUP2 MSTORE PUSH1 0x20 SWAP1 RETURN JUMPDEST POP CALLVALUE PUSH2 0x109 JUMPI PUSH1 0x20 CALLDATASIZE PUSH1 0x3 NOT ADD SLT PUSH2 0x109 JUMPI PUSH1 0x4 CALLDATALOAD PUSH1 0x1 PUSH1 0x1 PUSH1 0xA0 SHL SUB DUP2 AND SWAP1 DUP2 SWAP1 SUB PUSH2 0x1B2 JUMPI PUSH2 0xBBA PUSH2 0x122F JUMP JUMPDEST PUSH1 0x1 DUP1 SLOAD PUSH1 0x1 PUSH1 0x1 PUSH1 0xA0 SHL SUB NOT AND DUP3 OR SWAP1 SSTORE PUSH32 0x3DF77BEB5DB05FCDD70A30FC8ADF3F83F9501B68579455ADBD100B8180940394 DUP3 DUP1 LOG2 DUP1 RETURN JUMPDEST POP CALLVALUE PUSH2 0x109 JUMPI DUP1 PUSH1 0x3 NOT CALLDATASIZE ADD SLT PUSH2 0x109 JUMPI PUSH2 0xC0C PUSH2 0x122F JUMP JUMPDEST DUP1 SLOAD PUSH1 0x1 PUSH1 0x1 PUSH1 0xA0 SHL SUB NOT DUP2 AND DUP3 SSTORE DUP2 SWAP1 PUSH1 0x1 PUSH1 0x1 PUSH1 0xA0 SHL SUB AND PUSH32 0x8BE0079C531659141344CD1FD0A4F28419497F9722A3DAAFE3B4186F6B6457E0 DUP3 DUP1 LOG3 DUP1 RETURN JUMPDEST POP CALLVALUE PUSH2 0x109 JUMPI DUP1 PUSH1 0x3 NOT CALLDATASIZE ADD SLT PUSH2 0x109 JUMPI PUSH1 0x2 SLOAD PUSH1 0x40 MLOAD PUSH1 0x1 PUSH1 0x1 PUSH1 0xA0 SHL SUB SWAP1 SWAP2 AND DUP2 MSTORE PUSH1 0x20 SWAP1 RETURN JUMPDEST POP CALLVALUE PUSH2 0x109 JUMPI DUP1 PUSH1 0x3 NOT CALLDATASIZE ADD SLT PUSH2 0x109 JUMPI PUSH1 0xFF PUSH1 0x20 SWAP2 SLOAD PUSH1 0xA0 SHR AND PUSH1 0x40 MLOAD SWAP1 ISZERO ISZERO DUP2 MSTORE RETURN JUMPDEST POP CALLVALUE PUSH2 0x109 JUMPI DUP1 PUSH1 0x3 NOT CALLDATASIZE ADD SLT PUSH2 0x109 JUMPI PUSH2 0xCB4 PUSH2 0x122F JUMP JUMPDEST DUP1 SLOAD PUSH1 0xFF DUP2 PUSH1 0xA0 SHR AND ISZERO PUSH2 0xCFA JUMPI PUSH1 0xFF PUSH1 0xA0 SHL NOT AND DUP2 SSTORE PUSH1 0x40 MLOAD CALLER DUP2 MSTORE PUSH32 0x5DB9EE0A495BF2E6FF9C91A7834C1BA4FDD244A5E8AA4E537BD38AEAE4B073AA SWAP1 PUSH1 0x20 SWAP1 LOG1 DUP1 RETURN JUMPDEST PUSH4 0x8DFC202B PUSH1 0xE0 SHL DUP3 MSTORE PUSH1 0x4 DUP3 REVERT JUMPDEST POP CALLVALUE PUSH2 0x109 JUMPI DUP1 PUSH1 0x3 NOT CALLDATASIZE ADD SLT PUSH2 0x109 JUMPI PUSH1 0x40 MLOAD PUSH32 0x0 PUSH1 0x1 PUSH1 0x1 PUSH1 0xA0 SHL SUB AND DUP2 MSTORE PUSH1 0x20 SWAP1 RETURN JUMPDEST POP CALLVALUE PUSH2 0xE33 JUMPI PUSH1 0x20 CALLDATASIZE PUSH1 0x3 NOT ADD SLT PUSH2 0xE33 JUMPI PUSH1 0x4 CALLDATALOAD PUSH2 0xD6B PUSH2 0x1255 JUMP JUMPDEST DUP1 PUSH0 MSTORE PUSH1 0x4 PUSH1 0x20 MSTORE PUSH1 0x40 PUSH0 KECCAK256 PUSH1 0x8 DUP2 ADD DUP1 SLOAD PUSH2 0xD8C PUSH1 0xFF DUP3 PUSH1 0x8 SHR AND PUSH2 0x113B JUMP JUMPDEST PUSH1 0x5 DUP4 ADD SLOAD TIMESTAMP GT ISZERO PUSH2 0xE9A JUMPI PUSH1 0xFF DUP2 PUSH1 0x18 SHR AND PUSH2 0xE37 JUMPI PUSH2 0xFF00 NOT AND SWAP1 SSTORE PUSH1 0x3 PUSH1 0x1 DUP1 PUSH1 0xA0 SHL SUB PUSH1 0x2 SLOAD AND SWAP2 ADD SLOAD DUP2 EXTCODESIZE ISZERO PUSH2 0xE33 JUMPI PUSH0 SWAP2 PUSH1 0x24 DUP4 SWAP3 PUSH1 0x40 MLOAD SWAP5 DUP6 SWAP4 DUP5 SWAP3 PUSH4 0x8D9A3365 PUSH1 0xE0 SHL DUP5 MSTORE PUSH1 0x4 DUP5 ADD MSTORE GAS CALL DUP1 ISZERO PUSH2 0xE28 JUMPI PUSH2 0xE13 JUMPI JUMPDEST POP PUSH32 0xB22AA541487FC93D989BB5B17D1E3A967F649C4979CFD658C0849E070AE0DCA0 DUP3 DUP1 LOG2 DUP1 RETURN JUMPDEST PUSH2 0xE20 SWAP2 SWAP3 POP PUSH0 SWAP1 PUSH2 0x117F JUMP JUMPDEST PUSH0 SWAP1 PUSH0 PUSH2 0xDEB JUMP JUMPDEST PUSH1 0x40 MLOAD RETURNDATASIZE PUSH0 DUP3 RETURNDATACOPY RETURNDATASIZE SWAP1 REVERT JUMPDEST PUSH0 DUP1 REVERT JUMPDEST PUSH1 0x40 MLOAD PUSH3 0x461BCD PUSH1 0xE5 SHL DUP2 MSTORE PUSH1 0x20 PUSH1 0x4 DUP3 ADD MSTORE PUSH1 0x35 PUSH1 0x24 DUP3 ADD MSTORE PUSH32 0x506F6C6963795661756C743A207472696767657220616374697665202D206661 PUSH1 0x44 DUP3 ADD MSTORE PUSH21 0x1C9B595C881B5D5CDD0818DB185A5B48199A5C9CDD PUSH1 0x5A SHL PUSH1 0x64 DUP3 ADD MSTORE PUSH1 0x84 SWAP1 REVERT JUMPDEST PUSH1 0x40 MLOAD PUSH3 0x461BCD PUSH1 0xE5 SHL DUP2 MSTORE PUSH1 0x20 PUSH1 0x4 DUP3 ADD MSTORE PUSH1 0x18 PUSH1 0x24 DUP3 ADD MSTORE PUSH32 0x506F6C6963795661756C743A206E6F7420657870697265640000000000000000 PUSH1 0x44 DUP3 ADD MSTORE PUSH1 0x64 SWAP1 REVERT JUMPDEST CALLVALUE PUSH2 0xE33 JUMPI PUSH1 0x20 CALLDATASIZE PUSH1 0x3 NOT ADD SLT PUSH2 0xE33 JUMPI PUSH1 0x4 CALLDATALOAD PUSH2 0xEFB PUSH2 0x1255 JUMP JUMPDEST DUP1 PUSH0 MSTORE PUSH1 0x4 PUSH1 0x20 MSTORE PUSH1 0x40 PUSH0 KECCAK256 PUSH1 0x8 DUP2 ADD DUP1 SLOAD SWAP2 PUSH2 0xF1D PUSH1 0xFF DUP5 PUSH1 0x8 SHR AND PUSH2 0x113B JUMP JUMPDEST PUSH1 0x1 DUP1 PUSH1 0xA0 SHL SUB PUSH1 0x1 SLOAD AND SWAP3 PUSH1 0x60 PUSH1 0x9 DUP4 ADD SLOAD PUSH1 0x24 PUSH1 0x40 MLOAD DUP1 SWAP8 DUP2 SWAP4 PUSH4 0x30710F1 PUSH1 0xE5 SHL DUP4 MSTORE PUSH1 0x4 DUP4 ADD MSTORE GAS STATICCALL DUP1 ISZERO PUSH2 0xE28 JUMPI PUSH0 SWAP5 PUSH0 SWAP2 PUSH2 0x1091 JUMPI JUMPDEST POP PUSH2 0xF65 DUP2 ISZERO ISZERO PUSH2 0x11D0 JUMP JUMPDEST TIMESTAMP SUB TIMESTAMP DUP2 GT PUSH2 0x1027 JUMPI PUSH3 0x2A300 LT PUSH2 0x104C JUMPI PUSH1 0xFF AND DUP4 GT ISZERO PUSH2 0x1043 JUMPI PUSH1 0xA ADD DUP1 SLOAD ISZERO PUSH2 0x103B JUMPI JUMPDEST SLOAD PUSH3 0x127500 DUP2 ADD DUP1 SWAP2 GT PUSH2 0x1027 JUMPI TIMESTAMP LT ISZERO PUSH2 0xFA3 JUMPI STOP JUMPDEST PUSH1 0xFF DUP2 PUSH32 0x61782CF7ED50C35F9220BD74184699A7A70A2A12EBE6747518406450EEE74944 SWAP4 PUSH1 0x55 PUSH1 0x20 SWAP5 SLOAD SWAP2 PUSH4 0x1000000 PUSH4 0xFF000000 NOT DUP5 AND OR DUP5 SSTORE GT PUSH0 EQ PUSH2 0x1011 JUMPI POP DUP1 SLOAD PUSH5 0xFF00000000 NOT AND PUSH5 0x200000000 OR DUP2 SSTORE JUMPDEST SLOAD DUP3 SHR AND PUSH1 0x40 MLOAD SWAP1 PUSH2 0x100C DUP2 PUSH2 0x111D JUMP JUMPDEST DUP2 MSTORE LOG2 STOP JUMPDEST PUSH5 0xFFFF000000 NOT AND PUSH5 0x101000000 OR DUP2 SSTORE PUSH2 0xFFB JUMP JUMPDEST PUSH4 0x4E487B71 PUSH1 0xE0 SHL PUSH0 MSTORE PUSH1 0x11 PUSH1 0x4 MSTORE PUSH1 0x24 PUSH0 REVERT JUMPDEST TIMESTAMP DUP2 SSTORE PUSH2 0xF8C JUMP JUMPDEST PUSH0 PUSH1 0xA SWAP1 SWAP2 ADD SSTORE STOP JUMPDEST PUSH1 0x40 MLOAD PUSH3 0x461BCD PUSH1 0xE5 SHL DUP2 MSTORE PUSH1 0x20 PUSH1 0x4 DUP3 ADD MSTORE PUSH1 0x19 PUSH1 0x24 DUP3 ADD MSTORE PUSH32 0x506F6C6963795661756C743A207374616C65206F7261636C6500000000000000 PUSH1 0x44 DUP3 ADD MSTORE PUSH1 0x64 SWAP1 REVERT JUMPDEST SWAP1 POP PUSH2 0x10AD SWAP2 SWAP5 POP PUSH1 0x60 RETURNDATASIZE PUSH1 0x60 GT PUSH2 0xABC JUMPI PUSH2 0xAAA DUP2 DUP4 PUSH2 0x117F JUMP JUMPDEST POP SWAP4 SWAP1 SWAP4 DUP7 PUSH2 0xF59 JUMP JUMPDEST CALLVALUE PUSH2 0xE33 JUMPI PUSH1 0x20 CALLDATASIZE PUSH1 0x3 NOT ADD SLT PUSH2 0xE33 JUMPI PUSH1 0x4 CALLDATALOAD PUSH1 0x1 PUSH1 0x1 PUSH1 0xA0 SHL SUB DUP2 AND SWAP1 DUP2 SWAP1 SUB PUSH2 0xE33 JUMPI PUSH2 0x10E5 PUSH2 0x122F JUMP JUMPDEST PUSH1 0x2 DUP1 SLOAD PUSH1 0x1 PUSH1 0x1 PUSH1 0xA0 SHL SUB NOT AND DUP3 OR SWAP1 SSTORE PUSH32 0xEDF1A035D265F6321083031B40ACF4E5E06CD3E2E2025192FD308409B13B44C6 PUSH0 DUP1 LOG2 STOP JUMPDEST PUSH1 0x3 GT ISZERO PUSH2 0x1127 JUMPI JUMP JUMPDEST PUSH4 0x4E487B71 PUSH1 0xE0 SHL PUSH0 MSTORE PUSH1 0x21 PUSH1 0x4 MSTORE PUSH1 0x24 PUSH0 REVERT JUMPDEST ISZERO PUSH2 0x1142 JUMPI JUMP JUMPDEST PUSH1 0x40 MLOAD PUSH3 0x461BCD PUSH1 0xE5 SHL DUP2 MSTORE PUSH1 0x20 PUSH1 0x4 DUP3 ADD MSTORE PUSH1 0x15 PUSH1 0x24 DUP3 ADD MSTORE PUSH21 0x506F6C6963795661756C743A20696E616374697665 PUSH1 0x58 SHL PUSH1 0x44 DUP3 ADD MSTORE PUSH1 0x64 SWAP1 REVERT JUMPDEST SWAP1 PUSH1 0x1F DUP1 NOT SWAP2 ADD AND DUP2 ADD SWAP1 DUP2 LT PUSH8 0xFFFFFFFFFFFFFFFF DUP3 GT OR PUSH2 0x11A1 JUMPI PUSH1 0x40 MSTORE JUMP JUMPDEST PUSH4 0x4E487B71 PUSH1 0xE0 SHL PUSH0 MSTORE PUSH1 0x41 PUSH1 0x4 MSTORE PUSH1 0x24 PUSH0 REVERT JUMPDEST SWAP1 DUP2 PUSH1 0x60 SWAP2 SUB SLT PUSH2 0xE33 JUMPI DUP1 MLOAD SWAP2 PUSH1 0x40 PUSH1 0x20 DUP4 ADD MLOAD SWAP3 ADD MLOAD SWAP1 JUMP JUMPDEST ISZERO PUSH2 0x11D7 JUMPI JUMP JUMPDEST PUSH1 0x40 MLOAD PUSH3 0x461BCD PUSH1 0xE5 SHL DUP2 MSTORE PUSH1 0x20 PUSH1 0x4 DUP3 ADD MSTORE PUSH1 0x1B PUSH1 0x24 DUP3 ADD MSTORE PUSH32 0x506F6C6963795661756C743A206E6F206F7261636C6520646174610000000000 PUSH1 0x44 DUP3 ADD MSTORE PUSH1 0x64 SWAP1 REVERT JUMPDEST DUP2 DUP2 MUL SWAP3 SWAP2 DUP2 ISZERO SWAP2 DUP5 DIV EQ OR ISZERO PUSH2 0x1027 JUMPI JUMP JUMPDEST PUSH0 SLOAD PUSH1 0x1 PUSH1 0x1 PUSH1 0xA0 SHL SUB AND CALLER SUB PUSH2 0x1242 JUMPI JUMP JUMPDEST PUSH4 0x118CDAA7 PUSH1 0xE0 SHL PUSH0 MSTORE CALLER PUSH1 0x4 MSTORE PUSH1 0x24 PUSH0 REVERT JUMPDEST PUSH1 0xFF PUSH0 SLOAD PUSH1 0xA0 SHR AND PUSH2 0x1263 JUMPI JUMP JUMPDEST PUSH4 0xD93C0665 PUSH1 0xE0 SHL PUSH0 MSTORE PUSH1 0x4 PUSH0 REVERT JUMPDEST PUSH1 0x2 PUSH0 MLOAD PUSH1 0x20 PUSH2 0x12DB PUSH0 CODECOPY PUSH0 MLOAD SWAP1 PUSH0 MSTORE SLOAD EQ PUSH2 0x129B JUMPI PUSH1 0x2 PUSH0 MLOAD PUSH1 0x20 PUSH2 0x12DB PUSH0 CODECOPY PUSH0 MLOAD SWAP1 PUSH0 MSTORE SSTORE JUMP JUMPDEST PUSH4 0x3EE5AEB5 PUSH1 0xE0 SHL PUSH0 MSTORE PUSH1 0x4 PUSH0 REVERT JUMPDEST PUSH2 0x12B3 DUP2 PUSH2 0x111D JUMP JUMPDEST PUSH1 0x2 DUP2 EQ PUSH2 0x12D4 JUMPI PUSH2 0x12C4 DUP2 PUSH2 0x111D JUMP JUMPDEST ISZERO PUSH2 0x12CF JUMPI PUSH2 0x12C SWAP1 JUMP JUMPDEST PUSH1 0xFA SWAP1 JUMP JUMPDEST POP PUSH1 0xC8 SWAP1 JUMP INVALID SWAP12 PUSH24 0x9B17422D0DF92223018B32B4D1FA46E071723D6817E2486D STOP EXTCODESIZE 0xEC 0xC5 PUSH0 STOP LOG2 PUSH5 0x6970667358 0x22 SLT KECCAK256 0xEA PUSH19 0xBC3594A83B28D57EAD670D15B7AFFF1D59F6F8 PUSH9 0x3F965AB5A3BBBA0361 SWAP3 PUSH5 0x736F6C6343 STOP ADDMOD SHR STOP CALLER "},"methodIdentifiers":{"MAX_COVERAGE_PER_HECTARE()":"ff08a419","MIN_TRIGGER_DAYS()":"fd9c611e","claimPayout(uint256)":"8a69614e","createPolicy((uint8,uint256,int256,int256,uint256,bytes32))":"83b4b1e4","evaluateTrigger(uint256)":"20ae9a7d","expirePolicy(uint256)":"3037e4cd","liquidityPool()":"665a11ca","nextPolicyId()":"cad0b8db","oracle()":"7dc0d1d0","owner()":"8da5cb5b","pause()":"8456cb59","paused()":"5c975abb","policies(uint256)":"d3e89483","renounceOwnership()":"715018a6","setLiquidityPool(address)":"01877020","setOracle(address)":"7adbf973","transferOwnership(address)":"f2fde38b","unpause()":"3f4ba83a","usdc()":"3e413bee"}}}}}