{"contracts/LiquidityPool.sol":{"LiquidityPool":{"abi":[{"inputs":[{"internalType":"address","name":"_usdc","type":"address"},{"internalType":"address","name":"_owner","type":"address"}],"stateMutability":"nonpayable","type":"constructor"},{"inputs":[{"internalType":"address","name":"owner","type":"address"}],"name":"OwnableInvalidOwner","type":"error"},{"inputs":[{"internalType":"address","name":"account","type":"address"}],"name":"OwnableUnauthorizedAccount","type":"error"},{"inputs":[],"name":"ReentrancyGuardReentrantCall","type":"error"},{"inputs":[{"internalType":"address","name":"token","type":"address"}],"name":"SafeERC20FailedOperation","type":"error"},{"anonymous":false,"inputs":[{"indexed":false,"internalType":"uint256","name":"amount","type":"uint256"}],"name":"CapitalLocked","type":"event"},{"anonymous":false,"inputs":[{"indexed":false,"internalType":"uint256","name":"amount","type":"uint256"}],"name":"CapitalReleased","type":"event"},{"anonymous":false,"inputs":[{"indexed":true,"internalType":"address","name":"previousOwner","type":"address"},{"indexed":true,"internalType":"address","name":"newOwner","type":"address"}],"name":"OwnershipTransferred","type":"event"},{"anonymous":false,"inputs":[{"indexed":true,"internalType":"address","name":"lp","type":"address"},{"indexed":false,"internalType":"uint256","name":"amount","type":"uint256"},{"indexed":false,"internalType":"uint256","name":"sharesMinted","type":"uint256"}],"name":"Staked","type":"event"},{"anonymous":false,"inputs":[{"indexed":true,"internalType":"address","name":"lp","type":"address"},{"indexed":false,"internalType":"uint256","name":"sharesBurned","type":"uint256"},{"indexed":false,"internalType":"uint256","name":"amountReturned","type":"uint256"}],"name":"Withdrawn","type":"event"},{"inputs":[{"internalType":"address","name":"","type":"address"}],"name":"depositTime","outputs":[{"internalType":"uint256","name":"","type":"uint256"}],"stateMutability":"view","type":"function"},{"inputs":[],"name":"getUtilizationRate","outputs":[{"internalType":"uint256","name":"","type":"uint256"}],"stateMutability":"view","type":"function"},{"inputs":[{"internalType":"uint256","name":"amount","type":"uint256"}],"name":"lockCapital","outputs":[],"stateMutability":"nonpayable","type":"function"},{"inputs":[],"name":"owner","outputs":[{"internalType":"address","name":"","type":"address"}],"stateMutability":"view","type":"function"},{"inputs":[],"name":"policyVault","outputs":[{"internalType":"address","name":"","type":"address"}],"stateMutability":"view","type":"function"},{"inputs":[{"internalType":"uint256","name":"amount","type":"uint256"}],"name":"releaseCapital","outputs":[],"stateMutability":"nonpayable","type":"function"},{"inputs":[],"name":"renounceOwnership","outputs":[],"stateMutability":"nonpayable","type":"function"},{"inputs":[{"internalType":"address","name":"to","type":"address"},{"internalType":"uint256","name":"payoutAmount","type":"uint256"},{"internalType":"uint256","name":"liabilityAmount","type":"uint256"}],"name":"sendPayout","outputs":[],"stateMutability":"nonpayable","type":"function"},{"inputs":[{"internalType":"address","name":"_vault","type":"address"}],"name":"setPolicyVault","outputs":[],"stateMutability":"nonpayable","type":"function"},{"inputs":[{"internalType":"address","name":"","type":"address"}],"name":"sharesOf","outputs":[{"internalType":"uint256","name":"","type":"uint256"}],"stateMutability":"view","type":"function"},{"inputs":[{"internalType":"uint256","name":"amount","type":"uint256"}],"name":"stake","outputs":[],"stateMutability":"nonpayable","type":"function"},{"inputs":[],"name":"totalLiabilities","outputs":[{"internalType":"uint256","name":"","type":"uint256"}],"stateMutability":"view","type":"function"},{"inputs":[],"name":"totalShares","outputs":[{"internalType":"uint256","name":"","type":"uint256"}],"stateMutability":"view","type":"function"},{"inputs":[{"internalType":"address","name":"newOwner","type":"address"}],"name":"transferOwnership","outputs":[],"stateMutability":"nonpayable","type":"function"},{"inputs":[],"name":"usdc","outputs":[{"internalType":"contract IERC20","name":"","type":"address"}],"stateMutability":"view","type":"function"},{"inputs":[{"internalType":"uint256","name":"shares","type":"uint256"}],"name":"withdraw","outputs":[],"stateMutability":"nonpayable","type":"function"}],"evm":{"bytecode":{"linkReferences":{},"object":"60a03461012657601f610ed838819003918201601f19168301916001600160401b0383118484101761012a578084926040948552833981010312610126576100468161013e565b906001600160a01b039061005c9060200161013e565b16908115610113575f80546001600160a01b031981168417825560405193916001600160a01b03909116907f8be0079c531659141344cd1fd0a4f28419497f9722a3daafe3b4186f6b6457e09080a360017f9b779b17422d0df92223018b32b4d1fa46e071723d6817e2486d003becc55f00556001600160a01b0316608052610d8590816101538239608051818181610221015281816105af015281816106e8015281816107a001528181610a890152610bb70152f35b631e4fbdf760e01b5f525f60045260245ffd5b5f80fd5b634e487b7160e01b5f52604160045260245ffd5b51906001600160a01b03821682036101265756fe60806040526004361015610011575f80fd5b5f3560e01c806304b1ed9614610a36578063211cd78e14610a0e5780632e1a7d4d146107345780633a98ef39146107175780633e413bee146106d357806343570be71461055957806346c64873146105215780634a417a53146104ff578063715018a6146104a85780638d9a3365146104315780638da5cb5b1461040a578063a694fc3a146101ea578063f2fde38b14610165578063f5eb42dc1461012d578063f73579a9146101105763f9042265146100c9575f80fd5b3461010c57602036600319011261010c576100e2610ab9565b6100ea610d09565b600580546001600160a01b0319166001600160a01b0392909216919091179055005b5f80fd5b3461010c575f36600319011261010c576020600354604051908152f35b3461010c57602036600319011261010c576001600160a01b0361014e610ab9565b165f526002602052602060405f2054604051908152f35b3461010c57602036600319011261010c5761017e610ab9565b610186610d09565b6001600160a01b031680156101d7575f80546001600160a01b03198116831782556001600160a01b0316907f8be0079c531659141344cd1fd0a4f28419497f9722a3daafe3b4186f6b6457e09080a3005b631e4fbdf760e01b5f525f60045260245ffd5b3461010c57602036600319011261010c57600435610206610cd1565b80156103c5576040516370a0823160e01b81523060048201527f00000000000000000000000000000000000000000000000000000000000000006001600160a01b03811690602083602481855afa9283156103ba575f93610386575b50604051906323b872dd60e01b5f5233600452306024528460445260205f60648180855af19060015f5114821615610367575b50906040525f606052156103555750600154908115801561034d575b1561033057506102c2828092610b28565b600155335f52600260205260405f206102dc828254610b28565b9055335f5260046020524260405f205560405191825260208201527f1449c6dd7851abc30abf37f57715f492010519147cc2652fbc38202c18a6ee9060403392a260015f516020610d305f395f51905f5255005b6103466102c2916103418486610b6b565b610b7e565b8092610b28565b5080156102b1565b635274afe760e01b5f5260045260245ffd5b600182151661037d573b15153d15161685610295565b823d5f823e3d90fd5b9092506020813d6020116103b2575b816103a260209383610b35565b8101031261010c57519184610262565b3d9150610395565b6040513d5f823e3d90fd5b60405162461bcd60e51b815260206004820152601760248201527f4c6971756964697479506f6f6c3a20616d6f756e743d300000000000000000006044820152606490fd5b3461010c575f36600319011261010c575f546040516001600160a01b039091168152602090f35b3461010c57602036600319011261010c577ff2eaad86bd62238503feb1b3d2c1bee7846707a0777cf1b3e1b1f8ba8618daa0602060043561047d60018060a01b03600554163314610acf565b600354811161049f5761049281600354610b1b565b6003555b604051908152a1005b5f600355610496565b3461010c575f36600319011261010c576104c0610d09565b5f80546001600160a01b0319811682556001600160a01b03167f8be0079c531659141344cd1fd0a4f28419497f9722a3daafe3b4186f6b6457e08280a3005b3461010c575f36600319011261010c576020610519610b9c565b604051908152f35b3461010c57602036600319011261010c576001600160a01b03610542610ab9565b165f526004602052602060405f2054604051908152f35b3461010c57602036600319011261010c5760043561058260018060a01b03600554163314610acf565b61058e81600354610b28565b60038190556040516370a0823160e01b8152306004820152906020826024817f00000000000000000000000000000000000000000000000000000000000000006001600160a01b03165afa9182156103ba575f9261069f575b5060788102908082046078149015171561068b5760649004116106315760207fd2ce56bfc5f3b60a7274fc932af1dab3504bfc9be4839328aa35a3333fc3e63891604051908152a1005b60405162461bcd60e51b815260206004820152602c60248201527f4c6971756964697479506f6f6c3a20696e73756666696369656e7420636f6c6c60448201526b61746572616c20726174696f60a01b6064820152608490fd5b634e487b7160e01b5f52601160045260245ffd5b9091506020813d6020116106cb575b816106bb60209383610b35565b8101031261010c575190836105e7565b3d91506106ae565b3461010c575f36600319011261010c576040517f00000000000000000000000000000000000000000000000000000000000000006001600160a01b03168152602090f35b3461010c575f36600319011261010c576020600154604051908152f35b3461010c57602036600319011261010c57600435610750610cd1565b80156109c957335f52600260205260405f205481811061097957335f52600460205260405f205462093a80810180911161068b574210610929576040516370a0823160e01b8152306004820152907f0000000000000000000000000000000000000000000000000000000000000000906020836024816001600160a01b0386165afa80156103ba5784935f916108f0575b5090816108086108006107f78761082996610b6b565b60015490610b7e565b958693610b1b565b335f52600260205260405f205561082186600154610b1b565b600155610b1b565b60035460788102908082046078149015171561068b5760649004116108985781610854913390610c50565b60405191825260208201527f92ccf450a286a957af52509bc1c9939d1a6a481783e142e41e2499f0bb66ebc660403392a260015f516020610d305f395f51905f5255005b60405162461bcd60e51b815260206004820152602a60248201527f4c6971756964697479506f6f6c3a207769746864726177616c2062726561636860448201526932b990189918129021a960b11b6064820152608490fd5b919350506020813d602011610921575b8161090d60209383610b35565b8101031261010c57518392906108296107e1565b3d9150610900565b60405162461bcd60e51b815260206004820152602260248201527f4c6971756964697479506f6f6c3a20372d646179206c6f636b75702061637469604482015261766560f01b6064820152608490fd5b60405162461bcd60e51b815260206004820152602260248201527f4c6971756964697479506f6f6c3a20696e73756666696369656e742073686172604482015261657360f01b6064820152608490fd5b60405162461bcd60e51b815260206004820152601760248201527f4c6971756964697479506f6f6c3a207368617265733d300000000000000000006044820152606490fd5b3461010c575f36600319011261010c576005546040516001600160a01b039091168152602090f35b3461010c57606036600319011261010c57610aad610a52610ab9565b604435610a6a60018060a01b03600554163314610acf565b6003548111610aaf57610a7f90600354610b1b565b6003555b602435907f0000000000000000000000000000000000000000000000000000000000000000610c50565b005b505f600355610a83565b600435906001600160a01b038216820361010c57565b15610ad657565b60405162461bcd60e51b815260206004820152601f60248201527f4c6971756964697479506f6f6c3a206e6f7420706f6c696379207661756c74006044820152606490fd5b9190820391821161068b57565b9190820180921161068b57565b90601f8019910116810190811067ffffffffffffffff821117610b5757604052565b634e487b7160e01b5f52604160045260245ffd5b8181029291811591840414171561068b57565b8115610b88570490565b634e487b7160e01b5f52601260045260245ffd5b6040516370a0823160e01b81523060048201526020816024817f00000000000000000000000000000000000000000000000000000000000000006001600160a01b03165afa9081156103ba575f91610c1e575b508015610c19576003549060648202918083046064149015171561068b57610c1691610b7e565b90565b505f90565b90506020813d602011610c48575b81610c3960209383610b35565b8101031261010c57515f610bef565b3d9150610c2c565b916040519163a9059cbb60e01b5f5260018060a01b031660045260245260205f60448180865af19060015f5114821615610cb0575b60405215610c905750565b635274afe760e01b5f9081526001600160a01b0391909116600452602490fd5b906001811516610cc857823b15153d15161690610c85565b503d5f823e3d90fd5b60025f516020610d305f395f51905f525414610cfa5760025f516020610d305f395f51905f5255565b633ee5aeb560e01b5f5260045ffd5b5f546001600160a01b03163303610d1c57565b63118cdaa760e01b5f523360045260245ffdfe9b779b17422d0df92223018b32b4d1fa46e071723d6817e2486d003becc55f00a26469706673582212202a989ec42c5074938023158cb46557c817599e00de218a93d4d5a1886ffbeb2b64736f6c634300081c0033","opcodes":"PUSH1 0xA0 CALLVALUE PUSH2 0x126 JUMPI PUSH1 0x1F PUSH2 0xED8 CODESIZE DUP2 SWAP1 SUB SWAP2 DUP3 ADD PUSH1 0x1F NOT AND DUP4 ADD SWAP2 PUSH1 0x1 PUSH1 0x1 PUSH1 0x40 SHL SUB DUP4 GT DUP5 DUP5 LT OR PUSH2 0x12A JUMPI DUP1 DUP5 SWAP3 PUSH1 0x40 SWAP5 DUP6 MSTORE DUP4 CODECOPY DUP2 ADD SUB SLT PUSH2 0x126 JUMPI PUSH2 0x46 DUP2 PUSH2 0x13E JUMP JUMPDEST SWAP1 PUSH1 0x1 PUSH1 0x1 PUSH1 0xA0 SHL SUB SWAP1 PUSH2 0x5C SWAP1 PUSH1 0x20 ADD PUSH2 0x13E JUMP JUMPDEST AND SWAP1 DUP2 ISZERO PUSH2 0x113 JUMPI PUSH0 DUP1 SLOAD PUSH1 0x1 PUSH1 0x1 PUSH1 0xA0 SHL SUB NOT DUP2 AND DUP5 OR DUP3 SSTORE PUSH1 0x40 MLOAD SWAP4 SWAP2 PUSH1 0x1 PUSH1 0x1 PUSH1 0xA0 SHL SUB SWAP1 SWAP2 AND SWAP1 PUSH32 0x8BE0079C531659141344CD1FD0A4F28419497F9722A3DAAFE3B4186F6B6457E0 SWAP1 DUP1 LOG3 PUSH1 0x1 PUSH32 0x9B779B17422D0DF92223018B32B4D1FA46E071723D6817E2486D003BECC55F00 SSTORE PUSH1 0x1 PUSH1 0x1 PUSH1 0xA0 SHL SUB AND PUSH1 0x80 MSTORE PUSH2 0xD85 SWAP1 DUP2 PUSH2 0x153 DUP3 CODECOPY PUSH1 0x80 MLOAD DUP2 DUP2 DUP2 PUSH2 0x221 ADD MSTORE DUP2 DUP2 PUSH2 0x5AF ADD MSTORE DUP2 DUP2 PUSH2 0x6E8 ADD MSTORE DUP2 DUP2 PUSH2 0x7A0 ADD MSTORE DUP2 DUP2 PUSH2 0xA89 ADD MSTORE PUSH2 0xBB7 ADD MSTORE RETURN JUMPDEST PUSH4 0x1E4FBDF7 PUSH1 0xE0 SHL PUSH0 MSTORE PUSH0 PUSH1 0x4 MSTORE PUSH1 0x24 PUSH0 REVERT JUMPDEST PUSH0 DUP1 REVERT JUMPDEST PUSH4 0x4E487B71 PUSH1 0xE0 SHL PUSH0 MSTORE PUSH1 0x41 PUSH1 0x4 MSTORE PUSH1 0x24 PUSH0 REVERT JUMPDEST MLOAD SWAP1 PUSH1 0x1 PUSH1 0x1 PUSH1 0xA0 SHL SUB DUP3 AND DUP3 SUB PUSH2 0x126 JUMPI JUMP INVALID PUSH1 0x80 PUSH1 0x40 MSTORE PUSH1 0x4 CALLDATASIZE LT ISZERO PUSH2 0x11 JUMPI PUSH0 DUP1 REVERT JUMPDEST PUSH0 CALLDATALOAD PUSH1 0xE0 SHR DUP1 PUSH4 0x4B1ED96 EQ PUSH2 0xA36 JUMPI DUP1 PUSH4 0x211CD78E EQ PUSH2 0xA0E JUMPI DUP1 PUSH4 0x2E1A7D4D EQ PUSH2 0x734 JUMPI DUP1 PUSH4 0x3A98EF39 EQ PUSH2 0x717 JUMPI DUP1 PUSH4 0x3E413BEE EQ PUSH2 0x6D3 JUMPI DUP1 PUSH4 0x43570BE7 EQ PUSH2 0x559 JUMPI DUP1 PUSH4 0x46C64873 EQ PUSH2 0x521 JUMPI DUP1 PUSH4 0x4A417A53 EQ PUSH2 0x4FF JUMPI DUP1 PUSH4 0x715018A6 EQ PUSH2 0x4A8 JUMPI DUP1 PUSH4 0x8D9A3365 EQ PUSH2 0x431 JUMPI DUP1 PUSH4 0x8DA5CB5B EQ PUSH2 0x40A JUMPI DUP1 PUSH4 0xA694FC3A EQ PUSH2 0x1EA JUMPI DUP1 PUSH4 0xF2FDE38B EQ PUSH2 0x165 JUMPI DUP1 PUSH4 0xF5EB42DC EQ PUSH2 0x12D JUMPI DUP1 PUSH4 0xF73579A9 EQ PUSH2 0x110 JUMPI PUSH4 0xF9042265 EQ PUSH2 0xC9 JUMPI PUSH0 DUP1 REVERT JUMPDEST CALLVALUE PUSH2 0x10C JUMPI PUSH1 0x20 CALLDATASIZE PUSH1 0x3 NOT ADD SLT PUSH2 0x10C JUMPI PUSH2 0xE2 PUSH2 0xAB9 JUMP JUMPDEST PUSH2 0xEA PUSH2 0xD09 JUMP JUMPDEST PUSH1 0x5 DUP1 SLOAD PUSH1 0x1 PUSH1 0x1 PUSH1 0xA0 SHL SUB NOT AND PUSH1 0x1 PUSH1 0x1 PUSH1 0xA0 SHL SUB SWAP3 SWAP1 SWAP3 AND SWAP2 SWAP1 SWAP2 OR SWAP1 SSTORE STOP JUMPDEST PUSH0 DUP1 REVERT JUMPDEST CALLVALUE PUSH2 0x10C JUMPI PUSH0 CALLDATASIZE PUSH1 0x3 NOT ADD SLT PUSH2 0x10C JUMPI PUSH1 0x20 PUSH1 0x3 SLOAD PUSH1 0x40 MLOAD SWAP1 DUP2 MSTORE RETURN JUMPDEST CALLVALUE PUSH2 0x10C JUMPI PUSH1 0x20 CALLDATASIZE PUSH1 0x3 NOT ADD SLT PUSH2 0x10C JUMPI PUSH1 0x1 PUSH1 0x1 PUSH1 0xA0 SHL SUB PUSH2 0x14E PUSH2 0xAB9 JUMP JUMPDEST AND PUSH0 MSTORE PUSH1 0x2 PUSH1 0x20 MSTORE PUSH1 0x20 PUSH1 0x40 PUSH0 KECCAK256 SLOAD PUSH1 0x40 MLOAD SWAP1 DUP2 MSTORE RETURN JUMPDEST CALLVALUE PUSH2 0x10C JUMPI PUSH1 0x20 CALLDATASIZE PUSH1 0x3 NOT ADD SLT PUSH2 0x10C JUMPI PUSH2 0x17E PUSH2 0xAB9 JUMP JUMPDEST PUSH2 0x186 PUSH2 0xD09 JUMP JUMPDEST PUSH1 0x1 PUSH1 0x1 PUSH1 0xA0 SHL SUB AND DUP1 ISZERO PUSH2 0x1D7 JUMPI PUSH0 DUP1 SLOAD PUSH1 0x1 PUSH1 0x1 PUSH1 0xA0 SHL SUB NOT DUP2 AND DUP4 OR DUP3 SSTORE PUSH1 0x1 PUSH1 0x1 PUSH1 0xA0 SHL SUB AND SWAP1 PUSH32 0x8BE0079C531659141344CD1FD0A4F28419497F9722A3DAAFE3B4186F6B6457E0 SWAP1 DUP1 LOG3 STOP JUMPDEST PUSH4 0x1E4FBDF7 PUSH1 0xE0 SHL PUSH0 MSTORE PUSH0 PUSH1 0x4 MSTORE PUSH1 0x24 PUSH0 REVERT JUMPDEST CALLVALUE PUSH2 0x10C JUMPI PUSH1 0x20 CALLDATASIZE PUSH1 0x3 NOT ADD SLT PUSH2 0x10C JUMPI PUSH1 0x4 CALLDATALOAD PUSH2 0x206 PUSH2 0xCD1 JUMP JUMPDEST DUP1 ISZERO PUSH2 0x3C5 JUMPI PUSH1 0x40 MLOAD PUSH4 0x70A08231 PUSH1 0xE0 SHL DUP2 MSTORE ADDRESS PUSH1 0x4 DUP3 ADD MSTORE PUSH32 0x0 PUSH1 0x1 PUSH1 0x1 PUSH1 0xA0 SHL SUB DUP2 AND SWAP1 PUSH1 0x20 DUP4 PUSH1 0x24 DUP2 DUP6 GAS STATICCALL SWAP3 DUP4 ISZERO PUSH2 0x3BA JUMPI PUSH0 SWAP4 PUSH2 0x386 JUMPI JUMPDEST POP PUSH1 0x40 MLOAD SWAP1 PUSH4 0x23B872DD PUSH1 0xE0 SHL PUSH0 MSTORE CALLER PUSH1 0x4 MSTORE ADDRESS PUSH1 0x24 MSTORE DUP5 PUSH1 0x44 MSTORE PUSH1 0x20 PUSH0 PUSH1 0x64 DUP2 DUP1 DUP6 GAS CALL SWAP1 PUSH1 0x1 PUSH0 MLOAD EQ DUP3 AND ISZERO PUSH2 0x367 JUMPI JUMPDEST POP SWAP1 PUSH1 0x40 MSTORE PUSH0 PUSH1 0x60 MSTORE ISZERO PUSH2 0x355 JUMPI POP PUSH1 0x1 SLOAD SWAP1 DUP2 ISZERO DUP1 ISZERO PUSH2 0x34D JUMPI JUMPDEST ISZERO PUSH2 0x330 JUMPI POP PUSH2 0x2C2 DUP3 DUP1 SWAP3 PUSH2 0xB28 JUMP JUMPDEST PUSH1 0x1 SSTORE CALLER PUSH0 MSTORE PUSH1 0x2 PUSH1 0x20 MSTORE PUSH1 0x40 PUSH0 KECCAK256 PUSH2 0x2DC DUP3 DUP3 SLOAD PUSH2 0xB28 JUMP JUMPDEST SWAP1 SSTORE CALLER PUSH0 MSTORE PUSH1 0x4 PUSH1 0x20 MSTORE TIMESTAMP PUSH1 0x40 PUSH0 KECCAK256 SSTORE PUSH1 0x40 MLOAD SWAP2 DUP3 MSTORE PUSH1 0x20 DUP3 ADD MSTORE PUSH32 0x1449C6DD7851ABC30ABF37F57715F492010519147CC2652FBC38202C18A6EE90 PUSH1 0x40 CALLER SWAP3 LOG2 PUSH1 0x1 PUSH0 MLOAD PUSH1 0x20 PUSH2 0xD30 PUSH0 CODECOPY PUSH0 MLOAD SWAP1 PUSH0 MSTORE SSTORE STOP JUMPDEST PUSH2 0x346 PUSH2 0x2C2 SWAP2 PUSH2 0x341 DUP5 DUP7 PUSH2 0xB6B JUMP JUMPDEST PUSH2 0xB7E JUMP JUMPDEST DUP1 SWAP3 PUSH2 0xB28 JUMP JUMPDEST POP DUP1 ISZERO PUSH2 0x2B1 JUMP JUMPDEST PUSH4 0x5274AFE7 PUSH1 0xE0 SHL PUSH0 MSTORE PUSH1 0x4 MSTORE PUSH1 0x24 PUSH0 REVERT JUMPDEST PUSH1 0x1 DUP3 ISZERO AND PUSH2 0x37D JUMPI EXTCODESIZE ISZERO ISZERO RETURNDATASIZE ISZERO AND AND DUP6 PUSH2 0x295 JUMP JUMPDEST DUP3 RETURNDATASIZE PUSH0 DUP3 RETURNDATACOPY RETURNDATASIZE SWAP1 REVERT JUMPDEST SWAP1 SWAP3 POP PUSH1 0x20 DUP2 RETURNDATASIZE PUSH1 0x20 GT PUSH2 0x3B2 JUMPI JUMPDEST DUP2 PUSH2 0x3A2 PUSH1 0x20 SWAP4 DUP4 PUSH2 0xB35 JUMP JUMPDEST DUP2 ADD SUB SLT PUSH2 0x10C JUMPI MLOAD SWAP2 DUP5 PUSH2 0x262 JUMP JUMPDEST RETURNDATASIZE SWAP2 POP PUSH2 0x395 JUMP JUMPDEST PUSH1 0x40 MLOAD RETURNDATASIZE PUSH0 DUP3 RETURNDATACOPY RETURNDATASIZE SWAP1 REVERT JUMPDEST PUSH1 0x40 MLOAD PUSH3 0x461BCD PUSH1 0xE5 SHL DUP2 MSTORE PUSH1 0x20 PUSH1 0x4 DUP3 ADD MSTORE PUSH1 0x17 PUSH1 0x24 DUP3 ADD MSTORE PUSH32 0x4C6971756964697479506F6F6C3A20616D6F756E743D30000000000000000000 PUSH1 0x44 DUP3 ADD MSTORE PUSH1 0x64 SWAP1 REVERT JUMPDEST CALLVALUE PUSH2 0x10C JUMPI PUSH0 CALLDATASIZE PUSH1 0x3 NOT ADD SLT PUSH2 0x10C JUMPI PUSH0 SLOAD PUSH1 0x40 MLOAD PUSH1 0x1 PUSH1 0x1 PUSH1 0xA0 SHL SUB SWAP1 SWAP2 AND DUP2 MSTORE PUSH1 0x20 SWAP1 RETURN JUMPDEST CALLVALUE PUSH2 0x10C JUMPI PUSH1 0x20 CALLDATASIZE PUSH1 0x3 NOT ADD SLT PUSH2 0x10C JUMPI PUSH32 0xF2EAAD86BD62238503FEB1B3D2C1BEE7846707A0777CF1B3E1B1F8BA8618DAA0 PUSH1 0x20 PUSH1 0x4 CALLDATALOAD PUSH2 0x47D PUSH1 0x1 DUP1 PUSH1 0xA0 SHL SUB PUSH1 0x5 SLOAD AND CALLER EQ PUSH2 0xACF JUMP JUMPDEST PUSH1 0x3 SLOAD DUP2 GT PUSH2 0x49F JUMPI PUSH2 0x492 DUP2 PUSH1 0x3 SLOAD PUSH2 0xB1B JUMP JUMPDEST PUSH1 0x3 SSTORE JUMPDEST PUSH1 0x40 MLOAD SWAP1 DUP2 MSTORE LOG1 STOP JUMPDEST PUSH0 PUSH1 0x3 SSTORE PUSH2 0x496 JUMP JUMPDEST CALLVALUE PUSH2 0x10C JUMPI PUSH0 CALLDATASIZE PUSH1 0x3 NOT ADD SLT PUSH2 0x10C JUMPI PUSH2 0x4C0 PUSH2 0xD09 JUMP JUMPDEST PUSH0 DUP1 SLOAD PUSH1 0x1 PUSH1 0x1 PUSH1 0xA0 SHL SUB NOT DUP2 AND DUP3 SSTORE PUSH1 0x1 PUSH1 0x1 PUSH1 0xA0 SHL SUB AND PUSH32 0x8BE0079C531659141344CD1FD0A4F28419497F9722A3DAAFE3B4186F6B6457E0 DUP3 DUP1 LOG3 STOP JUMPDEST CALLVALUE PUSH2 0x10C JUMPI PUSH0 CALLDATASIZE PUSH1 0x3 NOT ADD SLT PUSH2 0x10C JUMPI PUSH1 0x20 PUSH2 0x519 PUSH2 0xB9C JUMP JUMPDEST PUSH1 0x40 MLOAD SWAP1 DUP2 MSTORE RETURN JUMPDEST CALLVALUE PUSH2 0x10C JUMPI PUSH1 0x20 CALLDATASIZE PUSH1 0x3 NOT ADD SLT PUSH2 0x10C JUMPI PUSH1 0x1 PUSH1 0x1 PUSH1 0xA0 SHL SUB PUSH2 0x542 PUSH2 0xAB9 JUMP JUMPDEST AND PUSH0 MSTORE PUSH1 0x4 PUSH1 0x20 MSTORE PUSH1 0x20 PUSH1 0x40 PUSH0 KECCAK256 SLOAD PUSH1 0x40 MLOAD SWAP1 DUP2 MSTORE RETURN JUMPDEST CALLVALUE PUSH2 0x10C JUMPI PUSH1 0x20 CALLDATASIZE PUSH1 0x3 NOT ADD SLT PUSH2 0x10C JUMPI PUSH1 0x4 CALLDATALOAD PUSH2 0x582 PUSH1 0x1 DUP1 PUSH1 0xA0 SHL SUB PUSH1 0x5 SLOAD AND CALLER EQ PUSH2 0xACF JUMP JUMPDEST PUSH2 0x58E DUP2 PUSH1 0x3 SLOAD PUSH2 0xB28 JUMP JUMPDEST PUSH1 0x3 DUP2 SWAP1 SSTORE PUSH1 0x40 MLOAD PUSH4 0x70A08231 PUSH1 0xE0 SHL DUP2 MSTORE ADDRESS PUSH1 0x4 DUP3 ADD MSTORE SWAP1 PUSH1 0x20 DUP3 PUSH1 0x24 DUP2 PUSH32 0x0 PUSH1 0x1 PUSH1 0x1 PUSH1 0xA0 SHL SUB AND GAS STATICCALL SWAP2 DUP3 ISZERO PUSH2 0x3BA JUMPI PUSH0 SWAP3 PUSH2 0x69F JUMPI JUMPDEST POP PUSH1 0x78 DUP2 MUL SWAP1 DUP1 DUP3 DIV PUSH1 0x78 EQ SWAP1 ISZERO OR ISZERO PUSH2 0x68B JUMPI PUSH1 0x64 SWAP1 DIV GT PUSH2 0x631 JUMPI PUSH1 0x20 PUSH32 0xD2CE56BFC5F3B60A7274FC932AF1DAB3504BFC9BE4839328AA35A3333FC3E638 SWAP2 PUSH1 0x40 MLOAD SWAP1 DUP2 MSTORE LOG1 STOP JUMPDEST PUSH1 0x40 MLOAD PUSH3 0x461BCD PUSH1 0xE5 SHL DUP2 MSTORE PUSH1 0x20 PUSH1 0x4 DUP3 ADD MSTORE PUSH1 0x2C PUSH1 0x24 DUP3 ADD MSTORE PUSH32 0x4C6971756964697479506F6F6C3A20696E73756666696369656E7420636F6C6C PUSH1 0x44 DUP3 ADD MSTORE PUSH12 0x61746572616C20726174696F PUSH1 0xA0 SHL PUSH1 0x64 DUP3 ADD MSTORE PUSH1 0x84 SWAP1 REVERT JUMPDEST PUSH4 0x4E487B71 PUSH1 0xE0 SHL PUSH0 MSTORE PUSH1 0x11 PUSH1 0x4 MSTORE PUSH1 0x24 PUSH0 REVERT JUMPDEST SWAP1 SWAP2 POP PUSH1 0x20 DUP2 RETURNDATASIZE PUSH1 0x20 GT PUSH2 0x6CB JUMPI JUMPDEST DUP2 PUSH2 0x6BB PUSH1 0x20 SWAP4 DUP4 PUSH2 0xB35 JUMP JUMPDEST DUP2 ADD SUB SLT PUSH2 0x10C JUMPI MLOAD SWAP1 DUP4 PUSH2 0x5E7 JUMP JUMPDEST RETURNDATASIZE SWAP2 POP PUSH2 0x6AE JUMP JUMPDEST CALLVALUE PUSH2 0x10C JUMPI PUSH0 CALLDATASIZE PUSH1 0x3 NOT ADD SLT PUSH2 0x10C JUMPI PUSH1 0x40 MLOAD PUSH32 0x0 PUSH1 0x1 PUSH1 0x1 PUSH1 0xA0 SHL SUB AND DUP2 MSTORE PUSH1 0x20 SWAP1 RETURN JUMPDEST CALLVALUE PUSH2 0x10C JUMPI PUSH0 CALLDATASIZE PUSH1 0x3 NOT ADD SLT PUSH2 0x10C JUMPI PUSH1 0x20 PUSH1 0x1 SLOAD PUSH1 0x40 MLOAD SWAP1 DUP2 MSTORE RETURN JUMPDEST CALLVALUE PUSH2 0x10C JUMPI PUSH1 0x20 CALLDATASIZE PUSH1 0x3 NOT ADD SLT PUSH2 0x10C JUMPI PUSH1 0x4 CALLDATALOAD PUSH2 0x750 PUSH2 0xCD1 JUMP JUMPDEST DUP1 ISZERO PUSH2 0x9C9 JUMPI CALLER PUSH0 MSTORE PUSH1 0x2 PUSH1 0x20 MSTORE PUSH1 0x40 PUSH0 KECCAK256 SLOAD DUP2 DUP2 LT PUSH2 0x979 JUMPI CALLER PUSH0 MSTORE PUSH1 0x4 PUSH1 0x20 MSTORE PUSH1 0x40 PUSH0 KECCAK256 SLOAD PUSH3 0x93A80 DUP2 ADD DUP1 SWAP2 GT PUSH2 0x68B JUMPI TIMESTAMP LT PUSH2 0x929 JUMPI PUSH1 0x40 MLOAD PUSH4 0x70A08231 PUSH1 0xE0 SHL DUP2 MSTORE ADDRESS PUSH1 0x4 DUP3 ADD MSTORE SWAP1 PUSH32 0x0 SWAP1 PUSH1 0x20 DUP4 PUSH1 0x24 DUP2 PUSH1 0x1 PUSH1 0x1 PUSH1 0xA0 SHL SUB DUP7 AND GAS STATICCALL DUP1 ISZERO PUSH2 0x3BA JUMPI DUP5 SWAP4 PUSH0 SWAP2 PUSH2 0x8F0 JUMPI JUMPDEST POP SWAP1 DUP2 PUSH2 0x808 PUSH2 0x800 PUSH2 0x7F7 DUP8 PUSH2 0x829 SWAP7 PUSH2 0xB6B JUMP JUMPDEST PUSH1 0x1 SLOAD SWAP1 PUSH2 0xB7E JUMP JUMPDEST SWAP6 DUP7 SWAP4 PUSH2 0xB1B JUMP JUMPDEST CALLER PUSH0 MSTORE PUSH1 0x2 PUSH1 0x20 MSTORE PUSH1 0x40 PUSH0 KECCAK256 SSTORE PUSH2 0x821 DUP7 PUSH1 0x1 SLOAD PUSH2 0xB1B JUMP JUMPDEST PUSH1 0x1 SSTORE PUSH2 0xB1B JUMP JUMPDEST PUSH1 0x3 SLOAD PUSH1 0x78 DUP2 MUL SWAP1 DUP1 DUP3 DIV PUSH1 0x78 EQ SWAP1 ISZERO OR ISZERO PUSH2 0x68B JUMPI PUSH1 0x64 SWAP1 DIV GT PUSH2 0x898 JUMPI DUP2 PUSH2 0x854 SWAP2 CALLER SWAP1 PUSH2 0xC50 JUMP JUMPDEST PUSH1 0x40 MLOAD SWAP2 DUP3 MSTORE PUSH1 0x20 DUP3 ADD MSTORE PUSH32 0x92CCF450A286A957AF52509BC1C9939D1A6A481783E142E41E2499F0BB66EBC6 PUSH1 0x40 CALLER SWAP3 LOG2 PUSH1 0x1 PUSH0 MLOAD PUSH1 0x20 PUSH2 0xD30 PUSH0 CODECOPY PUSH0 MLOAD SWAP1 PUSH0 MSTORE SSTORE STOP JUMPDEST PUSH1 0x40 MLOAD PUSH3 0x461BCD PUSH1 0xE5 SHL DUP2 MSTORE PUSH1 0x20 PUSH1 0x4 DUP3 ADD MSTORE PUSH1 0x2A PUSH1 0x24 DUP3 ADD MSTORE PUSH32 0x4C6971756964697479506F6F6C3A207769746864726177616C20627265616368 PUSH1 0x44 DUP3 ADD MSTORE PUSH10 0x32B990189918129021A9 PUSH1 0xB1 SHL PUSH1 0x64 DUP3 ADD MSTORE PUSH1 0x84 SWAP1 REVERT JUMPDEST SWAP2 SWAP4 POP POP PUSH1 0x20 DUP2 RETURNDATASIZE PUSH1 0x20 GT PUSH2 0x921 JUMPI JUMPDEST DUP2 PUSH2 0x90D PUSH1 0x20 SWAP4 DUP4 PUSH2 0xB35 JUMP JUMPDEST DUP2 ADD SUB SLT PUSH2 0x10C JUMPI MLOAD DUP4 SWAP3 SWAP1 PUSH2 0x829 PUSH2 0x7E1 JUMP JUMPDEST RETURNDATASIZE SWAP2 POP PUSH2 0x900 JUMP JUMPDEST PUSH1 0x40 MLOAD PUSH3 0x461BCD PUSH1 0xE5 SHL DUP2 MSTORE PUSH1 0x20 PUSH1 0x4 DUP3 ADD MSTORE PUSH1 0x22 PUSH1 0x24 DUP3 ADD MSTORE PUSH32 0x4C6971756964697479506F6F6C3A20372D646179206C6F636B75702061637469 PUSH1 0x44 DUP3 ADD MSTORE PUSH2 0x7665 PUSH1 0xF0 SHL PUSH1 0x64 DUP3 ADD MSTORE PUSH1 0x84 SWAP1 REVERT JUMPDEST PUSH1 0x40 MLOAD PUSH3 0x461BCD PUSH1 0xE5 SHL DUP2 MSTORE PUSH1 0x20 PUSH1 0x4 DUP3 ADD MSTORE PUSH1 0x22 PUSH1 0x24 DUP3 ADD MSTORE PUSH32 0x4C6971756964697479506F6F6C3A20696E73756666696369656E742073686172 PUSH1 0x44 DUP3 ADD MSTORE PUSH2 0x6573 PUSH1 0xF0 SHL PUSH1 0x64 DUP3 ADD MSTORE PUSH1 0x84 SWAP1 REVERT JUMPDEST PUSH1 0x40 MLOAD PUSH3 0x461BCD PUSH1 0xE5 SHL DUP2 MSTORE PUSH1 0x20 PUSH1 0x4 DUP3 ADD MSTORE PUSH1 0x17 PUSH1 0x24 DUP3 ADD MSTORE PUSH32 0x4C6971756964697479506F6F6C3A207368617265733D30000000000000000000 PUSH1 0x44 DUP3 ADD MSTORE PUSH1 0x64 SWAP1 REVERT JUMPDEST CALLVALUE PUSH2 0x10C JUMPI PUSH0 CALLDATASIZE PUSH1 0x3 NOT ADD SLT PUSH2 0x10C JUMPI PUSH1 0x5 SLOAD PUSH1 0x40 MLOAD PUSH1 0x1 PUSH1 0x1 PUSH1 0xA0 SHL SUB SWAP1 SWAP2 AND DUP2 MSTORE PUSH1 0x20 SWAP1 RETURN JUMPDEST CALLVALUE PUSH2 0x10C JUMPI PUSH1 0x60 CALLDATASIZE PUSH1 0x3 NOT ADD SLT PUSH2 0x10C JUMPI PUSH2 0xAAD PUSH2 0xA52 PUSH2 0xAB9 JUMP JUMPDEST PUSH1 0x44 CALLDATALOAD PUSH2 0xA6A PUSH1 0x1 DUP1 PUSH1 0xA0 SHL SUB PUSH1 0x5 SLOAD AND CALLER EQ PUSH2 0xACF JUMP JUMPDEST PUSH1 0x3 SLOAD DUP2 GT PUSH2 0xAAF JUMPI PUSH2 0xA7F SWAP1 PUSH1 0x3 SLOAD PUSH2 0xB1B JUMP JUMPDEST PUSH1 0x3 SSTORE JUMPDEST PUSH1 0x24 CALLDATALOAD SWAP1 PUSH32 0x0 PUSH2 0xC50 JUMP JUMPDEST STOP JUMPDEST POP PUSH0 PUSH1 0x3 SSTORE PUSH2 0xA83 JUMP JUMPDEST PUSH1 0x4 CALLDATALOAD SWAP1 PUSH1 0x1 PUSH1 0x1 PUSH1 0xA0 SHL SUB DUP3 AND DUP3 SUB PUSH2 0x10C JUMPI JUMP JUMPDEST ISZERO PUSH2 0xAD6 JUMPI JUMP JUMPDEST PUSH1 0x40 MLOAD PUSH3 0x461BCD PUSH1 0xE5 SHL DUP2 MSTORE PUSH1 0x20 PUSH1 0x4 DUP3 ADD MSTORE PUSH1 0x1F PUSH1 0x24 DUP3 ADD MSTORE PUSH32 0x4C6971756964697479506F6F6C3A206E6F7420706F6C696379207661756C7400 PUSH1 0x44 DUP3 ADD MSTORE PUSH1 0x64 SWAP1 REVERT JUMPDEST SWAP2 SWAP1 DUP3 SUB SWAP2 DUP3 GT PUSH2 0x68B JUMPI JUMP JUMPDEST SWAP2 SWAP1 DUP3 ADD DUP1 SWAP3 GT PUSH2 0x68B JUMPI JUMP JUMPDEST SWAP1 PUSH1 0x1F DUP1 NOT SWAP2 ADD AND DUP2 ADD SWAP1 DUP2 LT PUSH8 0xFFFFFFFFFFFFFFFF DUP3 GT OR PUSH2 0xB57 JUMPI PUSH1 0x40 MSTORE JUMP JUMPDEST PUSH4 0x4E487B71 PUSH1 0xE0 SHL PUSH0 MSTORE PUSH1 0x41 PUSH1 0x4 MSTORE PUSH1 0x24 PUSH0 REVERT JUMPDEST DUP2 DUP2 MUL SWAP3 SWAP2 DUP2 ISZERO SWAP2 DUP5 DIV EQ OR ISZERO PUSH2 0x68B JUMPI JUMP JUMPDEST DUP2 ISZERO PUSH2 0xB88 JUMPI DIV SWAP1 JUMP JUMPDEST PUSH4 0x4E487B71 PUSH1 0xE0 SHL PUSH0 MSTORE PUSH1 0x12 PUSH1 0x4 MSTORE PUSH1 0x24 PUSH0 REVERT JUMPDEST PUSH1 0x40 MLOAD PUSH4 0x70A08231 PUSH1 0xE0 SHL DUP2 MSTORE ADDRESS PUSH1 0x4 DUP3 ADD MSTORE PUSH1 0x20 DUP2 PUSH1 0x24 DUP2 PUSH32 0x0 PUSH1 0x1 PUSH1 0x1 PUSH1 0xA0 SHL SUB AND GAS STATICCALL SWAP1 DUP2 ISZERO PUSH2 0x3BA JUMPI PUSH0 SWAP2 PUSH2 0xC1E JUMPI JUMPDEST POP DUP1 ISZERO PUSH2 0xC19 JUMPI PUSH1 0x3 SLOAD SWAP1 PUSH1 0x64 DUP3 MUL SWAP2 DUP1 DUP4 DIV PUSH1 0x64 EQ SWAP1 ISZERO OR ISZERO PUSH2 0x68B JUMPI PUSH2 0xC16 SWAP2 PUSH2 0xB7E JUMP JUMPDEST SWAP1 JUMP JUMPDEST POP PUSH0 SWAP1 JUMP JUMPDEST SWAP1 POP PUSH1 0x20 DUP2 RETURNDATASIZE PUSH1 0x20 GT PUSH2 0xC48 JUMPI JUMPDEST DUP2 PUSH2 0xC39 PUSH1 0x20 SWAP4 DUP4 PUSH2 0xB35 JUMP JUMPDEST DUP2 ADD SUB SLT PUSH2 0x10C JUMPI MLOAD PUSH0 PUSH2 0xBEF JUMP JUMPDEST RETURNDATASIZE SWAP2 POP PUSH2 0xC2C JUMP JUMPDEST SWAP2 PUSH1 0x40 MLOAD SWAP2 PUSH4 0xA9059CBB PUSH1 0xE0 SHL PUSH0 MSTORE PUSH1 0x1 DUP1 PUSH1 0xA0 SHL SUB AND PUSH1 0x4 MSTORE PUSH1 0x24 MSTORE PUSH1 0x20 PUSH0 PUSH1 0x44 DUP2 DUP1 DUP7 GAS CALL SWAP1 PUSH1 0x1 PUSH0 MLOAD EQ DUP3 AND ISZERO PUSH2 0xCB0 JUMPI JUMPDEST PUSH1 0x40 MSTORE ISZERO PUSH2 0xC90 JUMPI POP JUMP JUMPDEST PUSH4 0x5274AFE7 PUSH1 0xE0 SHL PUSH0 SWAP1 DUP2 MSTORE PUSH1 0x1 PUSH1 0x1 PUSH1 0xA0 SHL SUB SWAP2 SWAP1 SWAP2 AND PUSH1 0x4 MSTORE PUSH1 0x24 SWAP1 REVERT JUMPDEST SWAP1 PUSH1 0x1 DUP2 ISZERO AND PUSH2 0xCC8 JUMPI DUP3 EXTCODESIZE ISZERO ISZERO RETURNDATASIZE ISZERO AND AND SWAP1 PUSH2 0xC85 JUMP JUMPDEST POP RETURNDATASIZE PUSH0 DUP3 RETURNDATACOPY RETURNDATASIZE SWAP1 REVERT JUMPDEST PUSH1 0x2 PUSH0 MLOAD PUSH1 0x20 PUSH2 0xD30 PUSH0 CODECOPY PUSH0 MLOAD SWAP1 PUSH0 MSTORE SLOAD EQ PUSH2 0xCFA JUMPI PUSH1 0x2 PUSH0 MLOAD PUSH1 0x20 PUSH2 0xD30 PUSH0 CODECOPY PUSH0 MLOAD SWAP1 PUSH0 MSTORE SSTORE JUMP JUMPDEST PUSH4 0x3EE5AEB5 PUSH1 0xE0 SHL PUSH0 MSTORE PUSH1 0x4 PUSH0 REVERT JUMPDEST PUSH0 SLOAD PUSH1 0x1 PUSH1 0x1 PUSH1 0xA0 SHL SUB AND CALLER SUB PUSH2 0xD1C JUMPI JUMP JUMPDEST PUSH4 0x118CDAA7 PUSH1 0xE0 SHL PUSH0 MSTORE CALLER PUSH1 0x4 MSTORE PUSH1 0x24 PUSH0 REVERT INVALID SWAP12 PUSH24 0x9B17422D0DF92223018B32B4D1FA46E071723D6817E2486D STOP EXTCODESIZE 0xEC 0xC5 PUSH0 STOP LOG2 PUSH5 0x6970667358 0x22 SLT KECCAK256 0x2A SWAP9 SWAP15 0xC4 0x2C POP PUSH21 0x938023158CB46557C817599E00DE218A93D4D5A188 PUSH16 0xFBEB2B64736F6C634300081C00330000 "},"methodIdentifiers":{"depositTime(address)":"46c64873","getUtilizationRate()":"4a417a53","lockCapital(uint256)":"43570be7","owner()":"8da5cb5b","policyVault()":"211cd78e","releaseCapital(uint256)":"8d9a3365","renounceOwnership()":"715018a6","sendPayout(address,uint256,uint256)":"04b1ed96","setPolicyVault(address)":"f9042265","sharesOf(address)":"f5eb42dc","stake(uint256)":"a694fc3a","totalLiabilities()":"f73579a9","totalShares()":"3a98ef39","transferOwnership(address)":"f2fde38b","usdc()":"3e413bee","withdraw(uint256)":"2e1a7d4d"}}}}}