{"contracts/LiquidityPool.sol":{"LiquidityPool":{"abi":[{"inputs":[{"internalType":"address","name":"_usdc","type":"address"},{"internalType":"address","name":"_owner","type":"address"}],"stateMutability":"nonpayable","type":"constructor"},{"inputs":[{"internalType":"address","name":"owner","type":"address"}],"name":"OwnableInvalidOwner","type":"error"},{"inputs":[{"internalType":"address","name":"account","type":"address"}],"name":"OwnableUnauthorizedAccount","type":"error"},{"inputs":[],"name":"ReentrancyGuardReentrantCall","type":"error"},{"inputs":[{"internalType":"address","name":"token","type":"address"}],"name":"SafeERC20FailedOperation","type":"error"},{"anonymous":false,"inputs":[{"indexed":false,"internalType":"uint256","name":"amount","type":"uint256"}],"name":"CapitalLocked","type":"event"},{"anonymous":false,"inputs":[{"indexed":false,"internalType":"uint256","name":"amount","type":"uint256"}],"name":"CapitalReleased","type":"event"},{"anonymous":false,"inputs":[{"indexed":true,"internalType":"address","name":"previousOwner","type":"address"},{"indexed":true,"internalType":"address","name":"newOwner","type":"address"}],"name":"OwnershipTransferred","type":"event"},{"anonymous":false,"inputs":[{"indexed":true,"internalType":"address","name":"lp","type":"address"},{"indexed":false,"internalType":"uint256","name":"amount","type":"uint256"},{"indexed":false,"internalType":"uint256","name":"sharesMinted","type":"uint256"}],"name":"Staked","type":"event"},{"anonymous":false,"inputs":[{"indexed":true,"internalType":"address","name":"lp","type":"address"},{"indexed":false,"internalType":"uint256","name":"sharesBurned","type":"uint256"},{"indexed":false,"internalType":"uint256","name":"amountReturned","type":"uint256"}],"name":"Withdrawn","type":"event"},{"inputs":[{"internalType":"address","name":"","type":"address"}],"name":"depositTime","outputs":[{"internalType":"uint256","name":"","type":"uint256"}],"stateMutability":"view","type":"function"},{"inputs":[],"name":"getUtilizationRate","outputs":[{"internalType":"uint256","name":"","type":"uint256"}],"stateMutability":"view","type":"function"},{"inputs":[{"internalType":"uint256","name":"amount","type":"uint256"}],"name":"lockCapital","outputs":[],"stateMutability":"nonpayable","type":"function"},{"inputs":[],"name":"owner","outputs":[{"internalType":"address","name":"","type":"address"}],"stateMutability":"view","type":"function"},{"inputs":[],"name":"policyVault","outputs":[{"internalType":"address","name":"","type":"address"}],"stateMutability":"view","type":"function"},{"inputs":[],"name":"reinsurancePool","outputs":[{"internalType":"address","name":"","type":"address"}],"stateMutability":"view","type":"function"},{"inputs":[{"internalType":"uint256","name":"amount","type":"uint256"}],"name":"releaseCapital","outputs":[],"stateMutability":"nonpayable","type":"function"},{"inputs":[],"name":"renounceOwnership","outputs":[],"stateMutability":"nonpayable","type":"function"},{"inputs":[{"internalType":"address","name":"to","type":"address"},{"internalType":"uint256","name":"payoutAmount","type":"uint256"},{"internalType":"uint256","name":"liabilityAmount","type":"uint256"}],"name":"sendPayout","outputs":[],"stateMutability":"nonpayable","type":"function"},{"inputs":[{"internalType":"address","name":"_vault","type":"address"}],"name":"setPolicyVault","outputs":[],"stateMutability":"nonpayable","type":"function"},{"inputs":[{"internalType":"address","name":"_reinsurancePool","type":"address"}],"name":"setReinsurancePool","outputs":[],"stateMutability":"nonpayable","type":"function"},{"inputs":[{"internalType":"address","name":"","type":"address"}],"name":"sharesOf","outputs":[{"internalType":"uint256","name":"","type":"uint256"}],"stateMutability":"view","type":"function"},{"inputs":[{"internalType":"uint256","name":"amount","type":"uint256"}],"name":"stake","outputs":[],"stateMutability":"nonpayable","type":"function"},{"inputs":[],"name":"totalLiabilities","outputs":[{"internalType":"uint256","name":"","type":"uint256"}],"stateMutability":"view","type":"function"},{"inputs":[],"name":"totalShares","outputs":[{"internalType":"uint256","name":"","type":"uint256"}],"stateMutability":"view","type":"function"},{"inputs":[{"internalType":"address","name":"newOwner","type":"address"}],"name":"transferOwnership","outputs":[],"stateMutability":"nonpayable","type":"function"},{"inputs":[],"name":"usdc","outputs":[{"internalType":"contract IERC20","name":"","type":"address"}],"stateMutability":"view","type":"function"},{"inputs":[{"internalType":"uint256","name":"shares","type":"uint256"}],"name":"withdraw","outputs":[],"stateMutability":"nonpayable","type":"function"}],"evm":{"bytecode":{"linkReferences":{},"object":"60a03461012657601f61111738819003918201601f19168301916001600160401b0383118484101761012a578084926040948552833981010312610126576100468161013e565b906001600160a01b039061005c9060200161013e565b16908115610113575f80546001600160a01b031981168417825560405193916001600160a01b03909116907f8be0079c531659141344cd1fd0a4f28419497f9722a3daafe3b4186f6b6457e09080a360017f9b779b17422d0df92223018b32b4d1fa46e071723d6817e2486d003becc55f00556001600160a01b0316608052610fc49081610153823960805181818161023c015281816105d80152818161071e0152818161080101528181610b560152610df60152f35b631e4fbdf760e01b5f525f60045260245ffd5b5f80fd5b634e487b7160e01b5f52604160045260245ffd5b51906001600160a01b03821682036101265756fe60806040526004361015610011575f80fd5b5f5f3560e01c806304b1ed9614610af25780630a2c433d14610aad578063211cd78e14610a845780632e1a7d4d146107945780632fbac6d71461076b5780633a98ef391461074d5780633e413bee1461070857806343570be71461058157806346c64873146105485780634a417a5314610525578063715018a6146104cb5780638d9a3365146104525780638da5cb5b1461042b578063a694fc3a14610204578063f2fde38b1461017e578063f5eb42dc14610145578063f73579a9146101275763f9042265146100e0575f80fd5b34610124576020366003190112610124576100f9610ce4565b610101610f10565b60018060a01b03166bffffffffffffffffffffffff60a01b600554161760055580f35b80fd5b50346101245780600319360112610124576020600354604051908152f35b5034610124576020366003190112610124576020906040906001600160a01b0361016d610ce4565b168152600283522054604051908152f35b503461012457602036600319011261012457610198610ce4565b6101a0610f10565b6001600160a01b031680156101f05781546001600160a01b03198116821783556001600160a01b03167f8be0079c531659141344cd1fd0a4f28419497f9722a3daafe3b4186f6b6457e08380a380f35b631e4fbdf760e01b82526004829052602482fd5b503461012457602036600319011261012457600435610221610f36565b80156103e6576040516370a0823160e01b81523060048201527f00000000000000000000000000000000000000000000000000000000000000006001600160a01b03811690602083602481855afa9283156103db5785936103a3575b506040516323b872dd60e01b8652336004523060245260448590529060208660648180855af1906001875114821615610384575b509060405284606052156103725750600154908115801561036a575b1561034d57506102de828092610d9d565b6001553383526002602052604083206102f8828254610d9d565b9055338352600460205242604084205560405191825260208201527f1449c6dd7851abc30abf37f57715f492010519147cc2652fbc38202c18a6ee9060403392a260015f516020610f6f5f395f51905f525580f35b6103636102de9161035e8486610daa565b610dbd565b8092610d9d565b5080156102cd565b635274afe760e01b8452600452602483fd5b600182151661039a573b15153d1516165f6102b1565b823d88823e3d90fd5b9092506020813d6020116103d3575b816103bf60209383610d67565b810103126103cf5751915f61027d565b5f80fd5b3d91506103b2565b6040513d87823e3d90fd5b60405162461bcd60e51b815260206004820152601760248201527f4c6971756964697479506f6f6c3a20616d6f756e743d300000000000000000006044820152606490fd5b5034610124578060031936011261012457546040516001600160a01b039091168152602090f35b5034610124576020366003190112610124577ff2eaad86bd62238503feb1b3d2c1bee7846707a0777cf1b3e1b1f8ba8618daa0602060043561049f60018060a01b03600554163314610cfa565b60035481116104c2576104b481600354610d46565b6003555b604051908152a180f35b836003556104b8565b50346101245780600319360112610124576104e4610f10565b80546001600160a01b03198116825581906001600160a01b03167f8be0079c531659141344cd1fd0a4f28419497f9722a3daafe3b4186f6b6457e08280a380f35b50346101245780600319360112610124576020610540610ddb565b604051908152f35b5034610124576020366003190112610124576020906040906001600160a01b03610570610ce4565b168152600483522054604051908152f35b5034610124576020366003190112610124576004356105ab60018060a01b03600554163314610cfa565b6105b781600354610d9d565b60038190556040516370a0823160e01b8152306004820152906020826024817f00000000000000000000000000000000000000000000000000000000000000006001600160a01b03165afa9182156106fd5784926106c9575b506078810290808204607814901517156106b557606490041161065b5760207fd2ce56bfc5f3b60a7274fc932af1dab3504bfc9be4839328aa35a3333fc3e63891604051908152a180f35b60405162461bcd60e51b815260206004820152602c60248201527f4c6971756964697479506f6f6c3a20696e73756666696369656e7420636f6c6c60448201526b61746572616c20726174696f60a01b6064820152608490fd5b634e487b7160e01b84526011600452602484fd5b9091506020813d6020116106f5575b816106e560209383610d67565b810103126103cf5751905f610610565b3d91506106d8565b6040513d86823e3d90fd5b50346101245780600319360112610124576040517f00000000000000000000000000000000000000000000000000000000000000006001600160a01b03168152602090f35b50346101245780600319360112610124576020600154604051908152f35b50346101245780600319360112610124576006546040516001600160a01b039091168152602090f35b5034610124576020366003190112610124576004356107b1610f36565b8015610a3f57338252600260205260408220548181106109ef573383526004602052604083205462093a8081018091116106b557421061099f576040516370a0823160e01b8152306004820152907f0000000000000000000000000000000000000000000000000000000000000000906020836024816001600160a01b0386165afa80156103db5784938691610966575b5090816108696108616108588761088a96610daa565b60015490610dbd565b958693610d46565b3388526002602052604088205561088286600154610d46565b600155610d46565b6003546078810290808204607814901517156109525760649004116108fa57816108b5913390610e8f565b60405191825260208201527f92ccf450a286a957af52509bc1c9939d1a6a481783e142e41e2499f0bb66ebc660403392a260015f516020610f6f5f395f51905f525580f35b60405162461bcd60e51b815260206004820152602a60248201527f4c6971756964697479506f6f6c3a207769746864726177616c2062726561636860448201526932b990189918129021a960b11b6064820152608490fd5b634e487b7160e01b86526011600452602486fd5b919350506020813d602011610997575b8161098360209383610d67565b810103126103cf575183929061088a610842565b3d9150610976565b60405162461bcd60e51b815260206004820152602260248201527f4c6971756964697479506f6f6c3a20372d646179206c6f636b75702061637469604482015261766560f01b6064820152608490fd5b60405162461bcd60e51b815260206004820152602260248201527f4c6971756964697479506f6f6c3a20696e73756666696369656e742073686172604482015261657360f01b6064820152608490fd5b60405162461bcd60e51b815260206004820152601760248201527f4c6971756964697479506f6f6c3a207368617265733d300000000000000000006044820152606490fd5b50346101245780600319360112610124576005546040516001600160a01b039091168152602090f35b503461012457602036600319011261012457610ac7610ce4565b610acf610f10565b60018060a01b03166bffffffffffffffffffffffff60a01b600654161760065580f35b50346103cf5760603660031901126103cf57610b0c610ce4565b90602435604435610b2860018060a01b03600554163314610cfa565b6003548111610cda57610b3d90600354610d46565b6003555b6040516370a0823160e01b81523060048201527f00000000000000000000000000000000000000000000000000000000000000006001600160a01b0381169491602081602481895afa908115610c89575f91610ca8575b5083811080610c94575b610c29575b50602060249495604051958680926370a0823160e01b82523060048301525afa9283156103db578593610bf3575b610be89450808411610beb575b50610e8f565b80f35b92505f610be2565b92506020843d602011610c21575b81610c0e60209383610d67565b810103126103cf57610be8935192610bd5565b3d9150610c01565b610c339084610d46565b6006546001600160a01b031690813b156103cf575f9160248392604051948593849263d768c90d60e01b845260048401525af18015610c895715610ba757602494505f610c7f91610d67565b60205f9450610ba7565b6040513d5f823e3d90fd5b506006546001600160a01b03161515610ba2565b90506020813d602011610cd2575b81610cc360209383610d67565b810103126103cf57515f610b98565b3d9150610cb6565b505f600355610b41565b600435906001600160a01b03821682036103cf57565b15610d0157565b60405162461bcd60e51b815260206004820152601f60248201527f4c6971756964697479506f6f6c3a206e6f7420706f6c696379207661756c74006044820152606490fd5b91908203918211610d5357565b634e487b7160e01b5f52601160045260245ffd5b90601f8019910116810190811067ffffffffffffffff821117610d8957604052565b634e487b7160e01b5f52604160045260245ffd5b91908201809211610d5357565b81810292918115918404141715610d5357565b8115610dc7570490565b634e487b7160e01b5f52601260045260245ffd5b6040516370a0823160e01b81523060048201526020816024817f00000000000000000000000000000000000000000000000000000000000000006001600160a01b03165afa908115610c89575f91610e5d575b508015610e585760035490606482029180830460641490151715610d5357610e5591610dbd565b90565b505f90565b90506020813d602011610e87575b81610e7860209383610d67565b810103126103cf57515f610e2e565b3d9150610e6b565b916040519163a9059cbb60e01b5f5260018060a01b031660045260245260205f60448180865af19060015f5114821615610eef575b60405215610ecf5750565b635274afe760e01b5f9081526001600160a01b0391909116600452602490fd5b906001811516610f0757823b15153d15161690610ec4565b503d5f823e3d90fd5b5f546001600160a01b03163303610f2357565b63118cdaa760e01b5f523360045260245ffd5b60025f516020610f6f5f395f51905f525414610f5f5760025f516020610f6f5f395f51905f5255565b633ee5aeb560e01b5f5260045ffdfe9b779b17422d0df92223018b32b4d1fa46e071723d6817e2486d003becc55f00a264697066735822122036bbfbec2b8f648d1575ba42b96c71926a4cfea237701a2660c69df7bd67aa1f64736f6c634300081c0033","opcodes":"PUSH1 0xA0 CALLVALUE PUSH2 0x126 JUMPI PUSH1 0x1F PUSH2 0x1117 CODESIZE DUP2 SWAP1 SUB SWAP2 DUP3 ADD PUSH1 0x1F NOT AND DUP4 ADD SWAP2 PUSH1 0x1 PUSH1 0x1 PUSH1 0x40 SHL SUB DUP4 GT DUP5 DUP5 LT OR PUSH2 0x12A JUMPI DUP1 DUP5 SWAP3 PUSH1 0x40 SWAP5 DUP6 MSTORE DUP4 CODECOPY DUP2 ADD SUB SLT PUSH2 0x126 JUMPI PUSH2 0x46 DUP2 PUSH2 0x13E JUMP JUMPDEST SWAP1 PUSH1 0x1 PUSH1 0x1 PUSH1 0xA0 SHL SUB SWAP1 PUSH2 0x5C SWAP1 PUSH1 0x20 ADD PUSH2 0x13E JUMP JUMPDEST AND SWAP1 DUP2 ISZERO PUSH2 0x113 JUMPI PUSH0 DUP1 SLOAD PUSH1 0x1 PUSH1 0x1 PUSH1 0xA0 SHL SUB NOT DUP2 AND DUP5 OR DUP3 SSTORE PUSH1 0x40 MLOAD SWAP4 SWAP2 PUSH1 0x1 PUSH1 0x1 PUSH1 0xA0 SHL SUB SWAP1 SWAP2 AND SWAP1 PUSH32 0x8BE0079C531659141344CD1FD0A4F28419497F9722A3DAAFE3B4186F6B6457E0 SWAP1 DUP1 LOG3 PUSH1 0x1 PUSH32 0x9B779B17422D0DF92223018B32B4D1FA46E071723D6817E2486D003BECC55F00 SSTORE PUSH1 0x1 PUSH1 0x1 PUSH1 0xA0 SHL SUB AND PUSH1 0x80 MSTORE PUSH2 0xFC4 SWAP1 DUP2 PUSH2 0x153 DUP3 CODECOPY PUSH1 0x80 MLOAD DUP2 DUP2 DUP2 PUSH2 0x23C ADD MSTORE DUP2 DUP2 PUSH2 0x5D8 ADD MSTORE DUP2 DUP2 PUSH2 0x71E ADD MSTORE DUP2 DUP2 PUSH2 0x801 ADD MSTORE DUP2 DUP2 PUSH2 0xB56 ADD MSTORE PUSH2 0xDF6 ADD MSTORE RETURN JUMPDEST PUSH4 0x1E4FBDF7 PUSH1 0xE0 SHL PUSH0 MSTORE PUSH0 PUSH1 0x4 MSTORE PUSH1 0x24 PUSH0 REVERT JUMPDEST PUSH0 DUP1 REVERT JUMPDEST PUSH4 0x4E487B71 PUSH1 0xE0 SHL PUSH0 MSTORE PUSH1 0x41 PUSH1 0x4 MSTORE PUSH1 0x24 PUSH0 REVERT JUMPDEST MLOAD SWAP1 PUSH1 0x1 PUSH1 0x1 PUSH1 0xA0 SHL SUB DUP3 AND DUP3 SUB PUSH2 0x126 JUMPI JUMP INVALID PUSH1 0x80 PUSH1 0x40 MSTORE PUSH1 0x4 CALLDATASIZE LT ISZERO PUSH2 0x11 JUMPI PUSH0 DUP1 REVERT JUMPDEST PUSH0 PUSH0 CALLDATALOAD PUSH1 0xE0 SHR DUP1 PUSH4 0x4B1ED96 EQ PUSH2 0xAF2 JUMPI DUP1 PUSH4 0xA2C433D EQ PUSH2 0xAAD JUMPI DUP1 PUSH4 0x211CD78E EQ PUSH2 0xA84 JUMPI DUP1 PUSH4 0x2E1A7D4D EQ PUSH2 0x794 JUMPI DUP1 PUSH4 0x2FBAC6D7 EQ PUSH2 0x76B JUMPI DUP1 PUSH4 0x3A98EF39 EQ PUSH2 0x74D JUMPI DUP1 PUSH4 0x3E413BEE EQ PUSH2 0x708 JUMPI DUP1 PUSH4 0x43570BE7 EQ PUSH2 0x581 JUMPI DUP1 PUSH4 0x46C64873 EQ PUSH2 0x548 JUMPI DUP1 PUSH4 0x4A417A53 EQ PUSH2 0x525 JUMPI DUP1 PUSH4 0x715018A6 EQ PUSH2 0x4CB JUMPI DUP1 PUSH4 0x8D9A3365 EQ PUSH2 0x452 JUMPI DUP1 PUSH4 0x8DA5CB5B EQ PUSH2 0x42B JUMPI DUP1 PUSH4 0xA694FC3A EQ PUSH2 0x204 JUMPI DUP1 PUSH4 0xF2FDE38B EQ PUSH2 0x17E JUMPI DUP1 PUSH4 0xF5EB42DC EQ PUSH2 0x145 JUMPI DUP1 PUSH4 0xF73579A9 EQ PUSH2 0x127 JUMPI PUSH4 0xF9042265 EQ PUSH2 0xE0 JUMPI PUSH0 DUP1 REVERT JUMPDEST CALLVALUE PUSH2 0x124 JUMPI PUSH1 0x20 CALLDATASIZE PUSH1 0x3 NOT ADD SLT PUSH2 0x124 JUMPI PUSH2 0xF9 PUSH2 0xCE4 JUMP JUMPDEST PUSH2 0x101 PUSH2 0xF10 JUMP JUMPDEST PUSH1 0x1 DUP1 PUSH1 0xA0 SHL SUB AND PUSH12 0xFFFFFFFFFFFFFFFFFFFFFFFF PUSH1 0xA0 SHL PUSH1 0x5 SLOAD AND OR PUSH1 0x5 SSTORE DUP1 RETURN JUMPDEST DUP1 REVERT JUMPDEST POP CALLVALUE PUSH2 0x124 JUMPI DUP1 PUSH1 0x3 NOT CALLDATASIZE ADD SLT PUSH2 0x124 JUMPI PUSH1 0x20 PUSH1 0x3 SLOAD PUSH1 0x40 MLOAD SWAP1 DUP2 MSTORE RETURN JUMPDEST POP CALLVALUE PUSH2 0x124 JUMPI PUSH1 0x20 CALLDATASIZE PUSH1 0x3 NOT ADD SLT PUSH2 0x124 JUMPI PUSH1 0x20 SWAP1 PUSH1 0x40 SWAP1 PUSH1 0x1 PUSH1 0x1 PUSH1 0xA0 SHL SUB PUSH2 0x16D PUSH2 0xCE4 JUMP JUMPDEST AND DUP2 MSTORE PUSH1 0x2 DUP4 MSTORE KECCAK256 SLOAD PUSH1 0x40 MLOAD SWAP1 DUP2 MSTORE RETURN JUMPDEST POP CALLVALUE PUSH2 0x124 JUMPI PUSH1 0x20 CALLDATASIZE PUSH1 0x3 NOT ADD SLT PUSH2 0x124 JUMPI PUSH2 0x198 PUSH2 0xCE4 JUMP JUMPDEST PUSH2 0x1A0 PUSH2 0xF10 JUMP JUMPDEST PUSH1 0x1 PUSH1 0x1 PUSH1 0xA0 SHL SUB AND DUP1 ISZERO PUSH2 0x1F0 JUMPI DUP2 SLOAD PUSH1 0x1 PUSH1 0x1 PUSH1 0xA0 SHL SUB NOT DUP2 AND DUP3 OR DUP4 SSTORE PUSH1 0x1 PUSH1 0x1 PUSH1 0xA0 SHL SUB AND PUSH32 0x8BE0079C531659141344CD1FD0A4F28419497F9722A3DAAFE3B4186F6B6457E0 DUP4 DUP1 LOG3 DUP1 RETURN JUMPDEST PUSH4 0x1E4FBDF7 PUSH1 0xE0 SHL DUP3 MSTORE PUSH1 0x4 DUP3 SWAP1 MSTORE PUSH1 0x24 DUP3 REVERT JUMPDEST POP CALLVALUE PUSH2 0x124 JUMPI PUSH1 0x20 CALLDATASIZE PUSH1 0x3 NOT ADD SLT PUSH2 0x124 JUMPI PUSH1 0x4 CALLDATALOAD PUSH2 0x221 PUSH2 0xF36 JUMP JUMPDEST DUP1 ISZERO PUSH2 0x3E6 JUMPI PUSH1 0x40 MLOAD PUSH4 0x70A08231 PUSH1 0xE0 SHL DUP2 MSTORE ADDRESS PUSH1 0x4 DUP3 ADD MSTORE PUSH32 0x0 PUSH1 0x1 PUSH1 0x1 PUSH1 0xA0 SHL SUB DUP2 AND SWAP1 PUSH1 0x20 DUP4 PUSH1 0x24 DUP2 DUP6 GAS STATICCALL SWAP3 DUP4 ISZERO PUSH2 0x3DB JUMPI DUP6 SWAP4 PUSH2 0x3A3 JUMPI JUMPDEST POP PUSH1 0x40 MLOAD PUSH4 0x23B872DD PUSH1 0xE0 SHL DUP7 MSTORE CALLER PUSH1 0x4 MSTORE ADDRESS PUSH1 0x24 MSTORE PUSH1 0x44 DUP6 SWAP1 MSTORE SWAP1 PUSH1 0x20 DUP7 PUSH1 0x64 DUP2 DUP1 DUP6 GAS CALL SWAP1 PUSH1 0x1 DUP8 MLOAD EQ DUP3 AND ISZERO PUSH2 0x384 JUMPI JUMPDEST POP SWAP1 PUSH1 0x40 MSTORE DUP5 PUSH1 0x60 MSTORE ISZERO PUSH2 0x372 JUMPI POP PUSH1 0x1 SLOAD SWAP1 DUP2 ISZERO DUP1 ISZERO PUSH2 0x36A JUMPI JUMPDEST ISZERO PUSH2 0x34D JUMPI POP PUSH2 0x2DE DUP3 DUP1 SWAP3 PUSH2 0xD9D JUMP JUMPDEST PUSH1 0x1 SSTORE CALLER DUP4 MSTORE PUSH1 0x2 PUSH1 0x20 MSTORE PUSH1 0x40 DUP4 KECCAK256 PUSH2 0x2F8 DUP3 DUP3 SLOAD PUSH2 0xD9D JUMP JUMPDEST SWAP1 SSTORE CALLER DUP4 MSTORE PUSH1 0x4 PUSH1 0x20 MSTORE TIMESTAMP PUSH1 0x40 DUP5 KECCAK256 SSTORE PUSH1 0x40 MLOAD SWAP2 DUP3 MSTORE PUSH1 0x20 DUP3 ADD MSTORE PUSH32 0x1449C6DD7851ABC30ABF37F57715F492010519147CC2652FBC38202C18A6EE90 PUSH1 0x40 CALLER SWAP3 LOG2 PUSH1 0x1 PUSH0 MLOAD PUSH1 0x20 PUSH2 0xF6F PUSH0 CODECOPY PUSH0 MLOAD SWAP1 PUSH0 MSTORE SSTORE DUP1 RETURN JUMPDEST PUSH2 0x363 PUSH2 0x2DE SWAP2 PUSH2 0x35E DUP5 DUP7 PUSH2 0xDAA JUMP JUMPDEST PUSH2 0xDBD JUMP JUMPDEST DUP1 SWAP3 PUSH2 0xD9D JUMP JUMPDEST POP DUP1 ISZERO PUSH2 0x2CD JUMP JUMPDEST PUSH4 0x5274AFE7 PUSH1 0xE0 SHL DUP5 MSTORE PUSH1 0x4 MSTORE PUSH1 0x24 DUP4 REVERT JUMPDEST PUSH1 0x1 DUP3 ISZERO AND PUSH2 0x39A JUMPI EXTCODESIZE ISZERO ISZERO RETURNDATASIZE ISZERO AND AND PUSH0 PUSH2 0x2B1 JUMP JUMPDEST DUP3 RETURNDATASIZE DUP9 DUP3 RETURNDATACOPY RETURNDATASIZE SWAP1 REVERT JUMPDEST SWAP1 SWAP3 POP PUSH1 0x20 DUP2 RETURNDATASIZE PUSH1 0x20 GT PUSH2 0x3D3 JUMPI JUMPDEST DUP2 PUSH2 0x3BF PUSH1 0x20 SWAP4 DUP4 PUSH2 0xD67 JUMP JUMPDEST DUP2 ADD SUB SLT PUSH2 0x3CF JUMPI MLOAD SWAP2 PUSH0 PUSH2 0x27D JUMP JUMPDEST PUSH0 DUP1 REVERT JUMPDEST RETURNDATASIZE SWAP2 POP PUSH2 0x3B2 JUMP JUMPDEST PUSH1 0x40 MLOAD RETURNDATASIZE DUP8 DUP3 RETURNDATACOPY RETURNDATASIZE SWAP1 REVERT JUMPDEST PUSH1 0x40 MLOAD PUSH3 0x461BCD PUSH1 0xE5 SHL DUP2 MSTORE PUSH1 0x20 PUSH1 0x4 DUP3 ADD MSTORE PUSH1 0x17 PUSH1 0x24 DUP3 ADD MSTORE PUSH32 0x4C6971756964697479506F6F6C3A20616D6F756E743D30000000000000000000 PUSH1 0x44 DUP3 ADD MSTORE PUSH1 0x64 SWAP1 REVERT JUMPDEST POP CALLVALUE PUSH2 0x124 JUMPI DUP1 PUSH1 0x3 NOT CALLDATASIZE ADD SLT PUSH2 0x124 JUMPI SLOAD PUSH1 0x40 MLOAD PUSH1 0x1 PUSH1 0x1 PUSH1 0xA0 SHL SUB SWAP1 SWAP2 AND DUP2 MSTORE PUSH1 0x20 SWAP1 RETURN JUMPDEST POP CALLVALUE PUSH2 0x124 JUMPI PUSH1 0x20 CALLDATASIZE PUSH1 0x3 NOT ADD SLT PUSH2 0x124 JUMPI PUSH32 0xF2EAAD86BD62238503FEB1B3D2C1BEE7846707A0777CF1B3E1B1F8BA8618DAA0 PUSH1 0x20 PUSH1 0x4 CALLDATALOAD PUSH2 0x49F PUSH1 0x1 DUP1 PUSH1 0xA0 SHL SUB PUSH1 0x5 SLOAD AND CALLER EQ PUSH2 0xCFA JUMP JUMPDEST PUSH1 0x3 SLOAD DUP2 GT PUSH2 0x4C2 JUMPI PUSH2 0x4B4 DUP2 PUSH1 0x3 SLOAD PUSH2 0xD46 JUMP JUMPDEST PUSH1 0x3 SSTORE JUMPDEST PUSH1 0x40 MLOAD SWAP1 DUP2 MSTORE LOG1 DUP1 RETURN JUMPDEST DUP4 PUSH1 0x3 SSTORE PUSH2 0x4B8 JUMP JUMPDEST POP CALLVALUE PUSH2 0x124 JUMPI DUP1 PUSH1 0x3 NOT CALLDATASIZE ADD SLT PUSH2 0x124 JUMPI PUSH2 0x4E4 PUSH2 0xF10 JUMP JUMPDEST DUP1 SLOAD PUSH1 0x1 PUSH1 0x1 PUSH1 0xA0 SHL SUB NOT DUP2 AND DUP3 SSTORE DUP2 SWAP1 PUSH1 0x1 PUSH1 0x1 PUSH1 0xA0 SHL SUB AND PUSH32 0x8BE0079C531659141344CD1FD0A4F28419497F9722A3DAAFE3B4186F6B6457E0 DUP3 DUP1 LOG3 DUP1 RETURN JUMPDEST POP CALLVALUE PUSH2 0x124 JUMPI DUP1 PUSH1 0x3 NOT CALLDATASIZE ADD SLT PUSH2 0x124 JUMPI PUSH1 0x20 PUSH2 0x540 PUSH2 0xDDB JUMP JUMPDEST PUSH1 0x40 MLOAD SWAP1 DUP2 MSTORE RETURN JUMPDEST POP CALLVALUE PUSH2 0x124 JUMPI PUSH1 0x20 CALLDATASIZE PUSH1 0x3 NOT ADD SLT PUSH2 0x124 JUMPI PUSH1 0x20 SWAP1 PUSH1 0x40 SWAP1 PUSH1 0x1 PUSH1 0x1 PUSH1 0xA0 SHL SUB PUSH2 0x570 PUSH2 0xCE4 JUMP JUMPDEST AND DUP2 MSTORE PUSH1 0x4 DUP4 MSTORE KECCAK256 SLOAD PUSH1 0x40 MLOAD SWAP1 DUP2 MSTORE RETURN JUMPDEST POP CALLVALUE PUSH2 0x124 JUMPI PUSH1 0x20 CALLDATASIZE PUSH1 0x3 NOT ADD SLT PUSH2 0x124 JUMPI PUSH1 0x4 CALLDATALOAD PUSH2 0x5AB PUSH1 0x1 DUP1 PUSH1 0xA0 SHL SUB PUSH1 0x5 SLOAD AND CALLER EQ PUSH2 0xCFA JUMP JUMPDEST PUSH2 0x5B7 DUP2 PUSH1 0x3 SLOAD PUSH2 0xD9D JUMP JUMPDEST PUSH1 0x3 DUP2 SWAP1 SSTORE PUSH1 0x40 MLOAD PUSH4 0x70A08231 PUSH1 0xE0 SHL DUP2 MSTORE ADDRESS PUSH1 0x4 DUP3 ADD MSTORE SWAP1 PUSH1 0x20 DUP3 PUSH1 0x24 DUP2 PUSH32 0x0 PUSH1 0x1 PUSH1 0x1 PUSH1 0xA0 SHL SUB AND GAS STATICCALL SWAP2 DUP3 ISZERO PUSH2 0x6FD JUMPI DUP5 SWAP3 PUSH2 0x6C9 JUMPI JUMPDEST POP PUSH1 0x78 DUP2 MUL SWAP1 DUP1 DUP3 DIV PUSH1 0x78 EQ SWAP1 ISZERO OR ISZERO PUSH2 0x6B5 JUMPI PUSH1 0x64 SWAP1 DIV GT PUSH2 0x65B JUMPI PUSH1 0x20 PUSH32 0xD2CE56BFC5F3B60A7274FC932AF1DAB3504BFC9BE4839328AA35A3333FC3E638 SWAP2 PUSH1 0x40 MLOAD SWAP1 DUP2 MSTORE LOG1 DUP1 RETURN JUMPDEST PUSH1 0x40 MLOAD PUSH3 0x461BCD PUSH1 0xE5 SHL DUP2 MSTORE PUSH1 0x20 PUSH1 0x4 DUP3 ADD MSTORE PUSH1 0x2C PUSH1 0x24 DUP3 ADD MSTORE PUSH32 0x4C6971756964697479506F6F6C3A20696E73756666696369656E7420636F6C6C PUSH1 0x44 DUP3 ADD MSTORE PUSH12 0x61746572616C20726174696F PUSH1 0xA0 SHL PUSH1 0x64 DUP3 ADD MSTORE PUSH1 0x84 SWAP1 REVERT JUMPDEST PUSH4 0x4E487B71 PUSH1 0xE0 SHL DUP5 MSTORE PUSH1 0x11 PUSH1 0x4 MSTORE PUSH1 0x24 DUP5 REVERT JUMPDEST SWAP1 SWAP2 POP PUSH1 0x20 DUP2 RETURNDATASIZE PUSH1 0x20 GT PUSH2 0x6F5 JUMPI JUMPDEST DUP2 PUSH2 0x6E5 PUSH1 0x20 SWAP4 DUP4 PUSH2 0xD67 JUMP JUMPDEST DUP2 ADD SUB SLT PUSH2 0x3CF JUMPI MLOAD SWAP1 PUSH0 PUSH2 0x610 JUMP JUMPDEST RETURNDATASIZE SWAP2 POP PUSH2 0x6D8 JUMP JUMPDEST PUSH1 0x40 MLOAD RETURNDATASIZE DUP7 DUP3 RETURNDATACOPY RETURNDATASIZE SWAP1 REVERT JUMPDEST POP CALLVALUE PUSH2 0x124 JUMPI DUP1 PUSH1 0x3 NOT CALLDATASIZE ADD SLT PUSH2 0x124 JUMPI PUSH1 0x40 MLOAD PUSH32 0x0 PUSH1 0x1 PUSH1 0x1 PUSH1 0xA0 SHL SUB AND DUP2 MSTORE PUSH1 0x20 SWAP1 RETURN JUMPDEST POP CALLVALUE PUSH2 0x124 JUMPI DUP1 PUSH1 0x3 NOT CALLDATASIZE ADD SLT PUSH2 0x124 JUMPI PUSH1 0x20 PUSH1 0x1 SLOAD PUSH1 0x40 MLOAD SWAP1 DUP2 MSTORE RETURN JUMPDEST POP CALLVALUE PUSH2 0x124 JUMPI DUP1 PUSH1 0x3 NOT CALLDATASIZE ADD SLT PUSH2 0x124 JUMPI PUSH1 0x6 SLOAD PUSH1 0x40 MLOAD PUSH1 0x1 PUSH1 0x1 PUSH1 0xA0 SHL SUB SWAP1 SWAP2 AND DUP2 MSTORE PUSH1 0x20 SWAP1 RETURN JUMPDEST POP CALLVALUE PUSH2 0x124 JUMPI PUSH1 0x20 CALLDATASIZE PUSH1 0x3 NOT ADD SLT PUSH2 0x124 JUMPI PUSH1 0x4 CALLDATALOAD PUSH2 0x7B1 PUSH2 0xF36 JUMP JUMPDEST DUP1 ISZERO PUSH2 0xA3F JUMPI CALLER DUP3 MSTORE PUSH1 0x2 PUSH1 0x20 MSTORE PUSH1 0x40 DUP3 KECCAK256 SLOAD DUP2 DUP2 LT PUSH2 0x9EF JUMPI CALLER DUP4 MSTORE PUSH1 0x4 PUSH1 0x20 MSTORE PUSH1 0x40 DUP4 KECCAK256 SLOAD PUSH3 0x93A80 DUP2 ADD DUP1 SWAP2 GT PUSH2 0x6B5 JUMPI TIMESTAMP LT PUSH2 0x99F JUMPI PUSH1 0x40 MLOAD PUSH4 0x70A08231 PUSH1 0xE0 SHL DUP2 MSTORE ADDRESS PUSH1 0x4 DUP3 ADD MSTORE SWAP1 PUSH32 0x0 SWAP1 PUSH1 0x20 DUP4 PUSH1 0x24 DUP2 PUSH1 0x1 PUSH1 0x1 PUSH1 0xA0 SHL SUB DUP7 AND GAS STATICCALL DUP1 ISZERO PUSH2 0x3DB JUMPI DUP5 SWAP4 DUP7 SWAP2 PUSH2 0x966 JUMPI JUMPDEST POP SWAP1 DUP2 PUSH2 0x869 PUSH2 0x861 PUSH2 0x858 DUP8 PUSH2 0x88A SWAP7 PUSH2 0xDAA JUMP JUMPDEST PUSH1 0x1 SLOAD SWAP1 PUSH2 0xDBD JUMP JUMPDEST SWAP6 DUP7 SWAP4 PUSH2 0xD46 JUMP JUMPDEST CALLER DUP9 MSTORE PUSH1 0x2 PUSH1 0x20 MSTORE PUSH1 0x40 DUP9 KECCAK256 SSTORE PUSH2 0x882 DUP7 PUSH1 0x1 SLOAD PUSH2 0xD46 JUMP JUMPDEST PUSH1 0x1 SSTORE PUSH2 0xD46 JUMP JUMPDEST PUSH1 0x3 SLOAD PUSH1 0x78 DUP2 MUL SWAP1 DUP1 DUP3 DIV PUSH1 0x78 EQ SWAP1 ISZERO OR ISZERO PUSH2 0x952 JUMPI PUSH1 0x64 SWAP1 DIV GT PUSH2 0x8FA JUMPI DUP2 PUSH2 0x8B5 SWAP2 CALLER SWAP1 PUSH2 0xE8F JUMP JUMPDEST PUSH1 0x40 MLOAD SWAP2 DUP3 MSTORE PUSH1 0x20 DUP3 ADD MSTORE PUSH32 0x92CCF450A286A957AF52509BC1C9939D1A6A481783E142E41E2499F0BB66EBC6 PUSH1 0x40 CALLER SWAP3 LOG2 PUSH1 0x1 PUSH0 MLOAD PUSH1 0x20 PUSH2 0xF6F PUSH0 CODECOPY PUSH0 MLOAD SWAP1 PUSH0 MSTORE SSTORE DUP1 RETURN JUMPDEST PUSH1 0x40 MLOAD PUSH3 0x461BCD PUSH1 0xE5 SHL DUP2 MSTORE PUSH1 0x20 PUSH1 0x4 DUP3 ADD MSTORE PUSH1 0x2A PUSH1 0x24 DUP3 ADD MSTORE PUSH32 0x4C6971756964697479506F6F6C3A207769746864726177616C20627265616368 PUSH1 0x44 DUP3 ADD MSTORE PUSH10 0x32B990189918129021A9 PUSH1 0xB1 SHL PUSH1 0x64 DUP3 ADD MSTORE PUSH1 0x84 SWAP1 REVERT JUMPDEST PUSH4 0x4E487B71 PUSH1 0xE0 SHL DUP7 MSTORE PUSH1 0x11 PUSH1 0x4 MSTORE PUSH1 0x24 DUP7 REVERT JUMPDEST SWAP2 SWAP4 POP POP PUSH1 0x20 DUP2 RETURNDATASIZE PUSH1 0x20 GT PUSH2 0x997 JUMPI JUMPDEST DUP2 PUSH2 0x983 PUSH1 0x20 SWAP4 DUP4 PUSH2 0xD67 JUMP JUMPDEST DUP2 ADD SUB SLT PUSH2 0x3CF JUMPI MLOAD DUP4 SWAP3 SWAP1 PUSH2 0x88A PUSH2 0x842 JUMP JUMPDEST RETURNDATASIZE SWAP2 POP PUSH2 0x976 JUMP JUMPDEST PUSH1 0x40 MLOAD PUSH3 0x461BCD PUSH1 0xE5 SHL DUP2 MSTORE PUSH1 0x20 PUSH1 0x4 DUP3 ADD MSTORE PUSH1 0x22 PUSH1 0x24 DUP3 ADD MSTORE PUSH32 0x4C6971756964697479506F6F6C3A20372D646179206C6F636B75702061637469 PUSH1 0x44 DUP3 ADD MSTORE PUSH2 0x7665 PUSH1 0xF0 SHL PUSH1 0x64 DUP3 ADD MSTORE PUSH1 0x84 SWAP1 REVERT JUMPDEST PUSH1 0x40 MLOAD PUSH3 0x461BCD PUSH1 0xE5 SHL DUP2 MSTORE PUSH1 0x20 PUSH1 0x4 DUP3 ADD MSTORE PUSH1 0x22 PUSH1 0x24 DUP3 ADD MSTORE PUSH32 0x4C6971756964697479506F6F6C3A20696E73756666696369656E742073686172 PUSH1 0x44 DUP3 ADD MSTORE PUSH2 0x6573 PUSH1 0xF0 SHL PUSH1 0x64 DUP3 ADD MSTORE PUSH1 0x84 SWAP1 REVERT JUMPDEST PUSH1 0x40 MLOAD PUSH3 0x461BCD PUSH1 0xE5 SHL DUP2 MSTORE PUSH1 0x20 PUSH1 0x4 DUP3 ADD MSTORE PUSH1 0x17 PUSH1 0x24 DUP3 ADD MSTORE PUSH32 0x4C6971756964697479506F6F6C3A207368617265733D30000000000000000000 PUSH1 0x44 DUP3 ADD MSTORE PUSH1 0x64 SWAP1 REVERT JUMPDEST POP CALLVALUE PUSH2 0x124 JUMPI DUP1 PUSH1 0x3 NOT CALLDATASIZE ADD SLT PUSH2 0x124 JUMPI PUSH1 0x5 SLOAD PUSH1 0x40 MLOAD PUSH1 0x1 PUSH1 0x1 PUSH1 0xA0 SHL SUB SWAP1 SWAP2 AND DUP2 MSTORE PUSH1 0x20 SWAP1 RETURN JUMPDEST POP CALLVALUE PUSH2 0x124 JUMPI PUSH1 0x20 CALLDATASIZE PUSH1 0x3 NOT ADD SLT PUSH2 0x124 JUMPI PUSH2 0xAC7 PUSH2 0xCE4 JUMP JUMPDEST PUSH2 0xACF PUSH2 0xF10 JUMP JUMPDEST PUSH1 0x1 DUP1 PUSH1 0xA0 SHL SUB AND PUSH12 0xFFFFFFFFFFFFFFFFFFFFFFFF PUSH1 0xA0 SHL PUSH1 0x6 SLOAD AND OR PUSH1 0x6 SSTORE DUP1 RETURN JUMPDEST POP CALLVALUE PUSH2 0x3CF JUMPI PUSH1 0x60 CALLDATASIZE PUSH1 0x3 NOT ADD SLT PUSH2 0x3CF JUMPI PUSH2 0xB0C PUSH2 0xCE4 JUMP JUMPDEST SWAP1 PUSH1 0x24 CALLDATALOAD PUSH1 0x44 CALLDATALOAD PUSH2 0xB28 PUSH1 0x1 DUP1 PUSH1 0xA0 SHL SUB PUSH1 0x5 SLOAD AND CALLER EQ PUSH2 0xCFA JUMP JUMPDEST PUSH1 0x3 SLOAD DUP2 GT PUSH2 0xCDA JUMPI PUSH2 0xB3D SWAP1 PUSH1 0x3 SLOAD PUSH2 0xD46 JUMP JUMPDEST PUSH1 0x3 SSTORE JUMPDEST PUSH1 0x40 MLOAD PUSH4 0x70A08231 PUSH1 0xE0 SHL DUP2 MSTORE ADDRESS PUSH1 0x4 DUP3 ADD MSTORE PUSH32 0x0 PUSH1 0x1 PUSH1 0x1 PUSH1 0xA0 SHL SUB DUP2 AND SWAP5 SWAP2 PUSH1 0x20 DUP2 PUSH1 0x24 DUP2 DUP10 GAS STATICCALL SWAP1 DUP2 ISZERO PUSH2 0xC89 JUMPI PUSH0 SWAP2 PUSH2 0xCA8 JUMPI JUMPDEST POP DUP4 DUP2 LT DUP1 PUSH2 0xC94 JUMPI JUMPDEST PUSH2 0xC29 JUMPI JUMPDEST POP PUSH1 0x20 PUSH1 0x24 SWAP5 SWAP6 PUSH1 0x40 MLOAD SWAP6 DUP7 DUP1 SWAP3 PUSH4 0x70A08231 PUSH1 0xE0 SHL DUP3 MSTORE ADDRESS PUSH1 0x4 DUP4 ADD MSTORE GAS STATICCALL SWAP3 DUP4 ISZERO PUSH2 0x3DB JUMPI DUP6 SWAP4 PUSH2 0xBF3 JUMPI JUMPDEST PUSH2 0xBE8 SWAP5 POP DUP1 DUP5 GT PUSH2 0xBEB JUMPI JUMPDEST POP PUSH2 0xE8F JUMP JUMPDEST DUP1 RETURN JUMPDEST SWAP3 POP PUSH0 PUSH2 0xBE2 JUMP JUMPDEST SWAP3 POP PUSH1 0x20 DUP5 RETURNDATASIZE PUSH1 0x20 GT PUSH2 0xC21 JUMPI JUMPDEST DUP2 PUSH2 0xC0E PUSH1 0x20 SWAP4 DUP4 PUSH2 0xD67 JUMP JUMPDEST DUP2 ADD SUB SLT PUSH2 0x3CF JUMPI PUSH2 0xBE8 SWAP4 MLOAD SWAP3 PUSH2 0xBD5 JUMP JUMPDEST RETURNDATASIZE SWAP2 POP PUSH2 0xC01 JUMP JUMPDEST PUSH2 0xC33 SWAP1 DUP5 PUSH2 0xD46 JUMP JUMPDEST PUSH1 0x6 SLOAD PUSH1 0x1 PUSH1 0x1 PUSH1 0xA0 SHL SUB AND SWAP1 DUP2 EXTCODESIZE ISZERO PUSH2 0x3CF JUMPI PUSH0 SWAP2 PUSH1 0x24 DUP4 SWAP3 PUSH1 0x40 MLOAD SWAP5 DUP6 SWAP4 DUP5 SWAP3 PUSH4 0xD768C90D PUSH1 0xE0 SHL DUP5 MSTORE PUSH1 0x4 DUP5 ADD MSTORE GAS CALL DUP1 ISZERO PUSH2 0xC89 JUMPI ISZERO PUSH2 0xBA7 JUMPI PUSH1 0x24 SWAP5 POP PUSH0 PUSH2 0xC7F SWAP2 PUSH2 0xD67 JUMP JUMPDEST PUSH1 0x20 PUSH0 SWAP5 POP PUSH2 0xBA7 JUMP JUMPDEST PUSH1 0x40 MLOAD RETURNDATASIZE PUSH0 DUP3 RETURNDATACOPY RETURNDATASIZE SWAP1 REVERT JUMPDEST POP PUSH1 0x6 SLOAD PUSH1 0x1 PUSH1 0x1 PUSH1 0xA0 SHL SUB AND ISZERO ISZERO PUSH2 0xBA2 JUMP JUMPDEST SWAP1 POP PUSH1 0x20 DUP2 RETURNDATASIZE PUSH1 0x20 GT PUSH2 0xCD2 JUMPI JUMPDEST DUP2 PUSH2 0xCC3 PUSH1 0x20 SWAP4 DUP4 PUSH2 0xD67 JUMP JUMPDEST DUP2 ADD SUB SLT PUSH2 0x3CF JUMPI MLOAD PUSH0 PUSH2 0xB98 JUMP JUMPDEST RETURNDATASIZE SWAP2 POP PUSH2 0xCB6 JUMP JUMPDEST POP PUSH0 PUSH1 0x3 SSTORE PUSH2 0xB41 JUMP JUMPDEST PUSH1 0x4 CALLDATALOAD SWAP1 PUSH1 0x1 PUSH1 0x1 PUSH1 0xA0 SHL SUB DUP3 AND DUP3 SUB PUSH2 0x3CF JUMPI JUMP JUMPDEST ISZERO PUSH2 0xD01 JUMPI JUMP JUMPDEST PUSH1 0x40 MLOAD PUSH3 0x461BCD PUSH1 0xE5 SHL DUP2 MSTORE PUSH1 0x20 PUSH1 0x4 DUP3 ADD MSTORE PUSH1 0x1F PUSH1 0x24 DUP3 ADD MSTORE PUSH32 0x4C6971756964697479506F6F6C3A206E6F7420706F6C696379207661756C7400 PUSH1 0x44 DUP3 ADD MSTORE PUSH1 0x64 SWAP1 REVERT JUMPDEST SWAP2 SWAP1 DUP3 SUB SWAP2 DUP3 GT PUSH2 0xD53 JUMPI JUMP JUMPDEST PUSH4 0x4E487B71 PUSH1 0xE0 SHL PUSH0 MSTORE PUSH1 0x11 PUSH1 0x4 MSTORE PUSH1 0x24 PUSH0 REVERT JUMPDEST SWAP1 PUSH1 0x1F DUP1 NOT SWAP2 ADD AND DUP2 ADD SWAP1 DUP2 LT PUSH8 0xFFFFFFFFFFFFFFFF DUP3 GT OR PUSH2 0xD89 JUMPI PUSH1 0x40 MSTORE JUMP JUMPDEST PUSH4 0x4E487B71 PUSH1 0xE0 SHL PUSH0 MSTORE PUSH1 0x41 PUSH1 0x4 MSTORE PUSH1 0x24 PUSH0 REVERT JUMPDEST SWAP2 SWAP1 DUP3 ADD DUP1 SWAP3 GT PUSH2 0xD53 JUMPI JUMP JUMPDEST DUP2 DUP2 MUL SWAP3 SWAP2 DUP2 ISZERO SWAP2 DUP5 DIV EQ OR ISZERO PUSH2 0xD53 JUMPI JUMP JUMPDEST DUP2 ISZERO PUSH2 0xDC7 JUMPI DIV SWAP1 JUMP JUMPDEST PUSH4 0x4E487B71 PUSH1 0xE0 SHL PUSH0 MSTORE PUSH1 0x12 PUSH1 0x4 MSTORE PUSH1 0x24 PUSH0 REVERT JUMPDEST PUSH1 0x40 MLOAD PUSH4 0x70A08231 PUSH1 0xE0 SHL DUP2 MSTORE ADDRESS PUSH1 0x4 DUP3 ADD MSTORE PUSH1 0x20 DUP2 PUSH1 0x24 DUP2 PUSH32 0x0 PUSH1 0x1 PUSH1 0x1 PUSH1 0xA0 SHL SUB AND GAS STATICCALL SWAP1 DUP2 ISZERO PUSH2 0xC89 JUMPI PUSH0 SWAP2 PUSH2 0xE5D JUMPI JUMPDEST POP DUP1 ISZERO PUSH2 0xE58 JUMPI PUSH1 0x3 SLOAD SWAP1 PUSH1 0x64 DUP3 MUL SWAP2 DUP1 DUP4 DIV PUSH1 0x64 EQ SWAP1 ISZERO OR ISZERO PUSH2 0xD53 JUMPI PUSH2 0xE55 SWAP2 PUSH2 0xDBD JUMP JUMPDEST SWAP1 JUMP JUMPDEST POP PUSH0 SWAP1 JUMP JUMPDEST SWAP1 POP PUSH1 0x20 DUP2 RETURNDATASIZE PUSH1 0x20 GT PUSH2 0xE87 JUMPI JUMPDEST DUP2 PUSH2 0xE78 PUSH1 0x20 SWAP4 DUP4 PUSH2 0xD67 JUMP JUMPDEST DUP2 ADD SUB SLT PUSH2 0x3CF JUMPI MLOAD PUSH0 PUSH2 0xE2E JUMP JUMPDEST RETURNDATASIZE SWAP2 POP PUSH2 0xE6B JUMP JUMPDEST SWAP2 PUSH1 0x40 MLOAD SWAP2 PUSH4 0xA9059CBB PUSH1 0xE0 SHL PUSH0 MSTORE PUSH1 0x1 DUP1 PUSH1 0xA0 SHL SUB AND PUSH1 0x4 MSTORE PUSH1 0x24 MSTORE PUSH1 0x20 PUSH0 PUSH1 0x44 DUP2 DUP1 DUP7 GAS CALL SWAP1 PUSH1 0x1 PUSH0 MLOAD EQ DUP3 AND ISZERO PUSH2 0xEEF JUMPI JUMPDEST PUSH1 0x40 MSTORE ISZERO PUSH2 0xECF JUMPI POP JUMP JUMPDEST PUSH4 0x5274AFE7 PUSH1 0xE0 SHL PUSH0 SWAP1 DUP2 MSTORE PUSH1 0x1 PUSH1 0x1 PUSH1 0xA0 SHL SUB SWAP2 SWAP1 SWAP2 AND PUSH1 0x4 MSTORE PUSH1 0x24 SWAP1 REVERT JUMPDEST SWAP1 PUSH1 0x1 DUP2 ISZERO AND PUSH2 0xF07 JUMPI DUP3 EXTCODESIZE ISZERO ISZERO RETURNDATASIZE ISZERO AND AND SWAP1 PUSH2 0xEC4 JUMP JUMPDEST POP RETURNDATASIZE PUSH0 DUP3 RETURNDATACOPY RETURNDATASIZE SWAP1 REVERT JUMPDEST PUSH0 SLOAD PUSH1 0x1 PUSH1 0x1 PUSH1 0xA0 SHL SUB AND CALLER SUB PUSH2 0xF23 JUMPI JUMP JUMPDEST PUSH4 0x118CDAA7 PUSH1 0xE0 SHL PUSH0 MSTORE CALLER PUSH1 0x4 MSTORE PUSH1 0x24 PUSH0 REVERT JUMPDEST PUSH1 0x2 PUSH0 MLOAD PUSH1 0x20 PUSH2 0xF6F PUSH0 CODECOPY PUSH0 MLOAD SWAP1 PUSH0 MSTORE SLOAD EQ PUSH2 0xF5F JUMPI PUSH1 0x2 PUSH0 MLOAD PUSH1 0x20 PUSH2 0xF6F PUSH0 CODECOPY PUSH0 MLOAD SWAP1 PUSH0 MSTORE SSTORE JUMP JUMPDEST PUSH4 0x3EE5AEB5 PUSH1 0xE0 SHL PUSH0 MSTORE PUSH1 0x4 PUSH0 REVERT INVALID SWAP12 PUSH24 0x9B17422D0DF92223018B32B4D1FA46E071723D6817E2486D STOP EXTCODESIZE 0xEC 0xC5 PUSH0 STOP LOG2 PUSH5 0x6970667358 0x22 SLT KECCAK256 CALLDATASIZE 0xBB 0xFB 0xEC 0x2B DUP16 PUSH5 0x8D1575BA42 0xB9 PUSH13 0x71926A4CFEA237701A2660C69D 0xF7 0xBD PUSH8 0xAA1F64736F6C6343 STOP ADDMOD SHR STOP CALLER "},"methodIdentifiers":{"depositTime(address)":"46c64873","getUtilizationRate()":"4a417a53","lockCapital(uint256)":"43570be7","owner()":"8da5cb5b","policyVault()":"211cd78e","reinsurancePool()":"2fbac6d7","releaseCapital(uint256)":"8d9a3365","renounceOwnership()":"715018a6","sendPayout(address,uint256,uint256)":"04b1ed96","setPolicyVault(address)":"f9042265","setReinsurancePool(address)":"0a2c433d","sharesOf(address)":"f5eb42dc","stake(uint256)":"a694fc3a","totalLiabilities()":"f73579a9","totalShares()":"3a98ef39","transferOwnership(address)":"f2fde38b","usdc()":"3e413bee","withdraw(uint256)":"2e1a7d4d"}}}}}