{"contracts/OracleConsumer.sol":{"OracleConsumer":{"abi":[{"inputs":[{"internalType":"address","name":"_ftsoRegistry","type":"address"},{"internalType":"address","name":"_keeper","type":"address"}],"stateMutability":"nonpayable","type":"constructor"},{"anonymous":false,"inputs":[{"indexed":true,"internalType":"bytes32","name":"regionCode","type":"bytes32"},{"indexed":false,"internalType":"uint256","name":"index","type":"uint256"},{"indexed":false,"internalType":"uint256","name":"timestamp","type":"uint256"},{"indexed":false,"internalType":"uint256","name":"riskScore","type":"uint256"},{"indexed":false,"internalType":"enum OracleConsumer.DataConfidence","name":"confidence","type":"uint8"}],"name":"DroughtIndexUpdated","type":"event"},{"anonymous":false,"inputs":[{"indexed":true,"internalType":"address","name":"registry","type":"address"}],"name":"FtsoRegistryUpdated","type":"event"},{"anonymous":false,"inputs":[{"indexed":true,"internalType":"address","name":"keeper","type":"address"}],"name":"KeeperUpdated","type":"event"},{"inputs":[{"internalType":"bytes32","name":"","type":"bytes32"}],"name":"droughtByRegion","outputs":[{"internalType":"uint256","name":"index","type":"uint256"},{"internalType":"uint256","name":"timestamp","type":"uint256"},{"internalType":"uint256","name":"riskScore","type":"uint256"},{"internalType":"enum OracleConsumer.DataConfidence","name":"confidence","type":"uint8"}],"stateMutability":"view","type":"function"},{"inputs":[],"name":"ftsoRegistry","outputs":[{"internalType":"contract IFtsoRegistry","name":"","type":"address"}],"stateMutability":"view","type":"function"},{"inputs":[{"internalType":"bytes32","name":"regionCode","type":"bytes32"}],"name":"getDroughtIndex","outputs":[{"internalType":"uint256","name":"index","type":"uint256"},{"internalType":"uint256","name":"timestamp","type":"uint256"},{"internalType":"uint256","name":"riskScore","type":"uint256"}],"stateMutability":"view","type":"function"},{"inputs":[],"name":"keeper","outputs":[{"internalType":"address","name":"","type":"address"}],"stateMutability":"view","type":"function"},{"inputs":[{"internalType":"address","name":"_ftsoRegistry","type":"address"}],"name":"setFtsoRegistry","outputs":[],"stateMutability":"nonpayable","type":"function"},{"inputs":[{"internalType":"address","name":"_keeper","type":"address"}],"name":"setKeeper","outputs":[],"stateMutability":"nonpayable","type":"function"},{"inputs":[{"internalType":"bytes32","name":"regionCode","type":"bytes32"},{"internalType":"uint256","name":"noaa","type":"uint256"},{"internalType":"uint256","name":"ndvi","type":"uint256"},{"internalType":"uint256","name":"weather","type":"uint256"},{"internalType":"uint256","name":"riskScore","type":"uint256"}],"name":"updateDroughtIndex","outputs":[],"stateMutability":"nonpayable","type":"function"}],"evm":{"bytecode":{"linkReferences":{},"object":"6080346100da57601f6106bc38819003918201601f19168301916001600160401b038311848410176100de5780849260409485528339810103126100da57610052602061004b836100f2565b92016100f2565b5f80546001600160a01b03199081166001600160a01b0394851690811783556001805490921694909316938417905560405192907f0425bcd291db1d48816f2a98edc7ecaf6dd5c64b973d9e4b3b6b750763dc6c2e9080a27fe123745201fbaf8c6658a1c7e6477f1587c8105a23a4dd4339ea2ecc7328785a5f80a26105b590816101078239f35b5f80fd5b634e487b7160e01b5f52604160045260245ffd5b51906001600160a01b03821682036100da5756fe6080806040526004361015610012575f80fd5b5f3560e01c90816338b5f869146104ab575080635fc560141461043957806360e21e20146103c7578063748747e61461035457806392bdd6271461030c578063aced1661146102e45763b4a94dae14610069575f80fd5b346102e05760a03660031901126102e05760043560243560443590606435608435916100a060018060a01b036001541633146104f3565b6064811115806102d5575b806102ca575b1561027a5783811091821580610270575b801561025b575b156102195781945b8083111561020357818311156101fd57825b935b156101ed5750808210156101e657505b81039081116101d25760029060148111156101bd5750505f915b61011761054b565b928184526003602085019442865260408101858152606082019661013b858961053f565b885f52600260205260405f20925183555160018301555160028201550193519060038210156101a9577f46646844b6fecf7b48c5a3c0a8f810ed4eab3ee75eabd3fa2c176c517e2f2d4f946101a49260ff801983541691161790556040519384934290856104cd565b0390a2005b634e487b7160e01b5f52602160045260245ffd5b600a90939193111561010f576001925061010f565b634e487b7160e01b5f52601160045260245ffd5b90506100f5565b9150808210156101e657506100f5565b816100e3565b8181111561021357805b936100e5565b8161020d565b8185101580610251575b801561023c575b1561023557846100d1565b80946100d1565b5081851115801561022a57508085101561022a565b5080851115610223565b508482111580156100c95750808210156100c9565b50808211156100c2565b60405162461bcd60e51b815260206004820152602260248201527f4f7261636c65436f6e73756d65723a20696e646578206f7574206f662072616e604482015261676560f01b6064820152608490fd5b5060648211156100b1565b5060648411156100ab565b5f80fd5b346102e0575f3660031901126102e0576001546040516001600160a01b039091168152602090f35b346102e05760203660031901126102e0576004355f52600260205260405f20805461035060018301549260ff600360028301549201541690604051948594856104cd565b0390f35b346102e05760203660031901126102e0576004356001600160a01b038116908190036102e0576001548190610393336001600160a01b038316146104f3565b6001600160a01b031916176001557f0425bcd291db1d48816f2a98edc7ecaf6dd5c64b973d9e4b3b6b750763dc6c2e5f80a2005b346102e05760203660031901126102e0576004355f526002602052606060405f206103f061054b565b90805482526001810154916020810192835261042160ff60036002850154946040850195865201541685830161053f565b51915190519060405192835260208301526040820152f35b346102e05760203660031901126102e0576004356001600160a01b038116908190036102e05761047460018060a01b036001541633146104f3565b5f80546001600160a01b031916821781557fe123745201fbaf8c6658a1c7e6477f1587c8105a23a4dd4339ea2ecc7328785a9080a2005b346102e0575f3660031901126102e0575f546001600160a01b03168152602090f35b919493929094608083019583526020830152604082015260038210156101a95760600152565b156104fa57565b60405162461bcd60e51b815260206004820152601a60248201527f4f7261636c65436f6e73756d65723a206e6f74206b65657065720000000000006044820152606490fd5b60038210156101a95752565b604051906080820182811067ffffffffffffffff82111761056b57604052565b634e487b7160e01b5f52604160045260245ffdfea2646970667358221220cddd2cf495f12e21cdcfe8fb41ed69d578d4ec9655168180611efd066dcb7a9a64736f6c634300081c0033","opcodes":"PUSH1 0x80 CALLVALUE PUSH2 0xDA JUMPI PUSH1 0x1F PUSH2 0x6BC CODESIZE DUP2 SWAP1 SUB SWAP2 DUP3 ADD PUSH1 0x1F NOT AND DUP4 ADD SWAP2 PUSH1 0x1 PUSH1 0x1 PUSH1 0x40 SHL SUB DUP4 GT DUP5 DUP5 LT OR PUSH2 0xDE JUMPI DUP1 DUP5 SWAP3 PUSH1 0x40 SWAP5 DUP6 MSTORE DUP4 CODECOPY DUP2 ADD SUB SLT PUSH2 0xDA JUMPI PUSH2 0x52 PUSH1 0x20 PUSH2 0x4B DUP4 PUSH2 0xF2 JUMP JUMPDEST SWAP3 ADD PUSH2 0xF2 JUMP JUMPDEST PUSH0 DUP1 SLOAD PUSH1 0x1 PUSH1 0x1 PUSH1 0xA0 SHL SUB NOT SWAP1 DUP2 AND PUSH1 0x1 PUSH1 0x1 PUSH1 0xA0 SHL SUB SWAP5 DUP6 AND SWAP1 DUP2 OR DUP4 SSTORE PUSH1 0x1 DUP1 SLOAD SWAP1 SWAP3 AND SWAP5 SWAP1 SWAP4 AND SWAP4 DUP5 OR SWAP1 SSTORE PUSH1 0x40 MLOAD SWAP3 SWAP1 PUSH32 0x425BCD291DB1D48816F2A98EDC7ECAF6DD5C64B973D9E4B3B6B750763DC6C2E SWAP1 DUP1 LOG2 PUSH32 0xE123745201FBAF8C6658A1C7E6477F1587C8105A23A4DD4339EA2ECC7328785A PUSH0 DUP1 LOG2 PUSH2 0x5B5 SWAP1 DUP2 PUSH2 0x107 DUP3 CODECOPY RETURN JUMPDEST PUSH0 DUP1 REVERT JUMPDEST PUSH4 0x4E487B71 PUSH1 0xE0 SHL PUSH0 MSTORE PUSH1 0x41 PUSH1 0x4 MSTORE PUSH1 0x24 PUSH0 REVERT JUMPDEST MLOAD SWAP1 PUSH1 0x1 PUSH1 0x1 PUSH1 0xA0 SHL SUB DUP3 AND DUP3 SUB PUSH2 0xDA JUMPI JUMP INVALID PUSH1 0x80 DUP1 PUSH1 0x40 MSTORE PUSH1 0x4 CALLDATASIZE LT ISZERO PUSH2 0x12 JUMPI PUSH0 DUP1 REVERT JUMPDEST PUSH0 CALLDATALOAD PUSH1 0xE0 SHR SWAP1 DUP2 PUSH4 0x38B5F869 EQ PUSH2 0x4AB JUMPI POP DUP1 PUSH4 0x5FC56014 EQ PUSH2 0x439 JUMPI DUP1 PUSH4 0x60E21E20 EQ PUSH2 0x3C7 JUMPI DUP1 PUSH4 0x748747E6 EQ PUSH2 0x354 JUMPI DUP1 PUSH4 0x92BDD627 EQ PUSH2 0x30C JUMPI DUP1 PUSH4 0xACED1661 EQ PUSH2 0x2E4 JUMPI PUSH4 0xB4A94DAE EQ PUSH2 0x69 JUMPI PUSH0 DUP1 REVERT JUMPDEST CALLVALUE PUSH2 0x2E0 JUMPI PUSH1 0xA0 CALLDATASIZE PUSH1 0x3 NOT ADD SLT PUSH2 0x2E0 JUMPI PUSH1 0x4 CALLDATALOAD PUSH1 0x24 CALLDATALOAD PUSH1 0x44 CALLDATALOAD SWAP1 PUSH1 0x64 CALLDATALOAD PUSH1 0x84 CALLDATALOAD SWAP2 PUSH2 0xA0 PUSH1 0x1 DUP1 PUSH1 0xA0 SHL SUB PUSH1 0x1 SLOAD AND CALLER EQ PUSH2 0x4F3 JUMP JUMPDEST PUSH1 0x64 DUP2 GT ISZERO DUP1 PUSH2 0x2D5 JUMPI JUMPDEST DUP1 PUSH2 0x2CA JUMPI JUMPDEST ISZERO PUSH2 0x27A JUMPI DUP4 DUP2 LT SWAP2 DUP3 ISZERO DUP1 PUSH2 0x270 JUMPI JUMPDEST DUP1 ISZERO PUSH2 0x25B JUMPI JUMPDEST ISZERO PUSH2 0x219 JUMPI DUP2 SWAP5 JUMPDEST DUP1 DUP4 GT ISZERO PUSH2 0x203 JUMPI DUP2 DUP4 GT ISZERO PUSH2 0x1FD JUMPI DUP3 JUMPDEST SWAP4 JUMPDEST ISZERO PUSH2 0x1ED JUMPI POP DUP1 DUP3 LT ISZERO PUSH2 0x1E6 JUMPI POP JUMPDEST DUP2 SUB SWAP1 DUP2 GT PUSH2 0x1D2 JUMPI PUSH1 0x2 SWAP1 PUSH1 0x14 DUP2 GT ISZERO PUSH2 0x1BD JUMPI POP POP PUSH0 SWAP2 JUMPDEST PUSH2 0x117 PUSH2 0x54B JUMP JUMPDEST SWAP3 DUP2 DUP5 MSTORE PUSH1 0x3 PUSH1 0x20 DUP6 ADD SWAP5 TIMESTAMP DUP7 MSTORE PUSH1 0x40 DUP2 ADD DUP6 DUP2 MSTORE PUSH1 0x60 DUP3 ADD SWAP7 PUSH2 0x13B DUP6 DUP10 PUSH2 0x53F JUMP JUMPDEST DUP9 PUSH0 MSTORE PUSH1 0x2 PUSH1 0x20 MSTORE PUSH1 0x40 PUSH0 KECCAK256 SWAP3 MLOAD DUP4 SSTORE MLOAD PUSH1 0x1 DUP4 ADD SSTORE MLOAD PUSH1 0x2 DUP3 ADD SSTORE ADD SWAP4 MLOAD SWAP1 PUSH1 0x3 DUP3 LT ISZERO PUSH2 0x1A9 JUMPI PUSH32 0x46646844B6FECF7B48C5A3C0A8F810ED4EAB3EE75EABD3FA2C176C517E2F2D4F SWAP5 PUSH2 0x1A4 SWAP3 PUSH1 0xFF DUP1 NOT DUP4 SLOAD AND SWAP2 AND OR SWAP1 SSTORE PUSH1 0x40 MLOAD SWAP4 DUP5 SWAP4 TIMESTAMP SWAP1 DUP6 PUSH2 0x4CD JUMP JUMPDEST SUB SWAP1 LOG2 STOP JUMPDEST PUSH4 0x4E487B71 PUSH1 0xE0 SHL PUSH0 MSTORE PUSH1 0x21 PUSH1 0x4 MSTORE PUSH1 0x24 PUSH0 REVERT JUMPDEST PUSH1 0xA SWAP1 SWAP4 SWAP2 SWAP4 GT ISZERO PUSH2 0x10F JUMPI PUSH1 0x1 SWAP3 POP PUSH2 0x10F JUMP JUMPDEST PUSH4 0x4E487B71 PUSH1 0xE0 SHL PUSH0 MSTORE PUSH1 0x11 PUSH1 0x4 MSTORE PUSH1 0x24 PUSH0 REVERT JUMPDEST SWAP1 POP PUSH2 0xF5 JUMP JUMPDEST SWAP2 POP DUP1 DUP3 LT ISZERO PUSH2 0x1E6 JUMPI POP PUSH2 0xF5 JUMP JUMPDEST DUP2 PUSH2 0xE3 JUMP JUMPDEST DUP2 DUP2 GT ISZERO PUSH2 0x213 JUMPI DUP1 JUMPDEST SWAP4 PUSH2 0xE5 JUMP JUMPDEST DUP2 PUSH2 0x20D JUMP JUMPDEST DUP2 DUP6 LT ISZERO DUP1 PUSH2 0x251 JUMPI JUMPDEST DUP1 ISZERO PUSH2 0x23C JUMPI JUMPDEST ISZERO PUSH2 0x235 JUMPI DUP5 PUSH2 0xD1 JUMP JUMPDEST DUP1 SWAP5 PUSH2 0xD1 JUMP JUMPDEST POP DUP2 DUP6 GT ISZERO DUP1 ISZERO PUSH2 0x22A JUMPI POP DUP1 DUP6 LT ISZERO PUSH2 0x22A JUMP JUMPDEST POP DUP1 DUP6 GT ISZERO PUSH2 0x223 JUMP JUMPDEST POP DUP5 DUP3 GT ISZERO DUP1 ISZERO PUSH2 0xC9 JUMPI POP DUP1 DUP3 LT ISZERO PUSH2 0xC9 JUMP JUMPDEST POP DUP1 DUP3 GT ISZERO PUSH2 0xC2 JUMP JUMPDEST PUSH1 0x40 MLOAD PUSH3 0x461BCD PUSH1 0xE5 SHL DUP2 MSTORE PUSH1 0x20 PUSH1 0x4 DUP3 ADD MSTORE PUSH1 0x22 PUSH1 0x24 DUP3 ADD MSTORE PUSH32 0x4F7261636C65436F6E73756D65723A20696E646578206F7574206F662072616E PUSH1 0x44 DUP3 ADD MSTORE PUSH2 0x6765 PUSH1 0xF0 SHL PUSH1 0x64 DUP3 ADD MSTORE PUSH1 0x84 SWAP1 REVERT JUMPDEST POP PUSH1 0x64 DUP3 GT ISZERO PUSH2 0xB1 JUMP JUMPDEST POP PUSH1 0x64 DUP5 GT ISZERO PUSH2 0xAB JUMP JUMPDEST PUSH0 DUP1 REVERT JUMPDEST CALLVALUE PUSH2 0x2E0 JUMPI PUSH0 CALLDATASIZE PUSH1 0x3 NOT ADD SLT PUSH2 0x2E0 JUMPI PUSH1 0x1 SLOAD PUSH1 0x40 MLOAD PUSH1 0x1 PUSH1 0x1 PUSH1 0xA0 SHL SUB SWAP1 SWAP2 AND DUP2 MSTORE PUSH1 0x20 SWAP1 RETURN JUMPDEST CALLVALUE PUSH2 0x2E0 JUMPI PUSH1 0x20 CALLDATASIZE PUSH1 0x3 NOT ADD SLT PUSH2 0x2E0 JUMPI PUSH1 0x4 CALLDATALOAD PUSH0 MSTORE PUSH1 0x2 PUSH1 0x20 MSTORE PUSH1 0x40 PUSH0 KECCAK256 DUP1 SLOAD PUSH2 0x350 PUSH1 0x1 DUP4 ADD SLOAD SWAP3 PUSH1 0xFF PUSH1 0x3 PUSH1 0x2 DUP4 ADD SLOAD SWAP3 ADD SLOAD AND SWAP1 PUSH1 0x40 MLOAD SWAP5 DUP6 SWAP5 DUP6 PUSH2 0x4CD JUMP JUMPDEST SUB SWAP1 RETURN JUMPDEST CALLVALUE PUSH2 0x2E0 JUMPI PUSH1 0x20 CALLDATASIZE PUSH1 0x3 NOT ADD SLT PUSH2 0x2E0 JUMPI PUSH1 0x4 CALLDATALOAD PUSH1 0x1 PUSH1 0x1 PUSH1 0xA0 SHL SUB DUP2 AND SWAP1 DUP2 SWAP1 SUB PUSH2 0x2E0 JUMPI PUSH1 0x1 SLOAD DUP2 SWAP1 PUSH2 0x393 CALLER PUSH1 0x1 PUSH1 0x1 PUSH1 0xA0 SHL SUB DUP4 AND EQ PUSH2 0x4F3 JUMP JUMPDEST PUSH1 0x1 PUSH1 0x1 PUSH1 0xA0 SHL SUB NOT AND OR PUSH1 0x1 SSTORE PUSH32 0x425BCD291DB1D48816F2A98EDC7ECAF6DD5C64B973D9E4B3B6B750763DC6C2E PUSH0 DUP1 LOG2 STOP JUMPDEST CALLVALUE PUSH2 0x2E0 JUMPI PUSH1 0x20 CALLDATASIZE PUSH1 0x3 NOT ADD SLT PUSH2 0x2E0 JUMPI PUSH1 0x4 CALLDATALOAD PUSH0 MSTORE PUSH1 0x2 PUSH1 0x20 MSTORE PUSH1 0x60 PUSH1 0x40 PUSH0 KECCAK256 PUSH2 0x3F0 PUSH2 0x54B JUMP JUMPDEST SWAP1 DUP1 SLOAD DUP3 MSTORE PUSH1 0x1 DUP2 ADD SLOAD SWAP2 PUSH1 0x20 DUP2 ADD SWAP3 DUP4 MSTORE PUSH2 0x421 PUSH1 0xFF PUSH1 0x3 PUSH1 0x2 DUP6 ADD SLOAD SWAP5 PUSH1 0x40 DUP6 ADD SWAP6 DUP7 MSTORE ADD SLOAD AND DUP6 DUP4 ADD PUSH2 0x53F JUMP JUMPDEST MLOAD SWAP2 MLOAD SWAP1 MLOAD SWAP1 PUSH1 0x40 MLOAD SWAP3 DUP4 MSTORE PUSH1 0x20 DUP4 ADD MSTORE PUSH1 0x40 DUP3 ADD MSTORE RETURN JUMPDEST CALLVALUE PUSH2 0x2E0 JUMPI PUSH1 0x20 CALLDATASIZE PUSH1 0x3 NOT ADD SLT PUSH2 0x2E0 JUMPI PUSH1 0x4 CALLDATALOAD PUSH1 0x1 PUSH1 0x1 PUSH1 0xA0 SHL SUB DUP2 AND SWAP1 DUP2 SWAP1 SUB PUSH2 0x2E0 JUMPI PUSH2 0x474 PUSH1 0x1 DUP1 PUSH1 0xA0 SHL SUB PUSH1 0x1 SLOAD AND CALLER EQ PUSH2 0x4F3 JUMP JUMPDEST PUSH0 DUP1 SLOAD PUSH1 0x1 PUSH1 0x1 PUSH1 0xA0 SHL SUB NOT AND DUP3 OR DUP2 SSTORE PUSH32 0xE123745201FBAF8C6658A1C7E6477F1587C8105A23A4DD4339EA2ECC7328785A SWAP1 DUP1 LOG2 STOP JUMPDEST CALLVALUE PUSH2 0x2E0 JUMPI PUSH0 CALLDATASIZE PUSH1 0x3 NOT ADD SLT PUSH2 0x2E0 JUMPI PUSH0 SLOAD PUSH1 0x1 PUSH1 0x1 PUSH1 0xA0 SHL SUB AND DUP2 MSTORE PUSH1 0x20 SWAP1 RETURN JUMPDEST SWAP2 SWAP5 SWAP4 SWAP3 SWAP1 SWAP5 PUSH1 0x80 DUP4 ADD SWAP6 DUP4 MSTORE PUSH1 0x20 DUP4 ADD MSTORE PUSH1 0x40 DUP3 ADD MSTORE PUSH1 0x3 DUP3 LT ISZERO PUSH2 0x1A9 JUMPI PUSH1 0x60 ADD MSTORE JUMP JUMPDEST ISZERO PUSH2 0x4FA JUMPI JUMP JUMPDEST PUSH1 0x40 MLOAD PUSH3 0x461BCD PUSH1 0xE5 SHL DUP2 MSTORE PUSH1 0x20 PUSH1 0x4 DUP3 ADD MSTORE PUSH1 0x1A PUSH1 0x24 DUP3 ADD MSTORE PUSH32 0x4F7261636C65436F6E73756D65723A206E6F74206B6565706572000000000000 PUSH1 0x44 DUP3 ADD MSTORE PUSH1 0x64 SWAP1 REVERT JUMPDEST PUSH1 0x3 DUP3 LT ISZERO PUSH2 0x1A9 JUMPI MSTORE JUMP JUMPDEST PUSH1 0x40 MLOAD SWAP1 PUSH1 0x80 DUP3 ADD DUP3 DUP2 LT PUSH8 0xFFFFFFFFFFFFFFFF DUP3 GT OR PUSH2 0x56B JUMPI PUSH1 0x40 MSTORE JUMP JUMPDEST PUSH4 0x4E487B71 PUSH1 0xE0 SHL PUSH0 MSTORE PUSH1 0x41 PUSH1 0x4 MSTORE PUSH1 0x24 PUSH0 REVERT INVALID LOG2 PUSH5 0x6970667358 0x22 SLT KECCAK256 0xCD 0xDD 0x2C DELEGATECALL SWAP6 CALL 0x2E 0x21 0xCD 0xCF 0xE8 0xFB COINBASE 0xED PUSH10 0xD578D4EC965516818061 0x1E REVERT MOD PUSH14 0xCB7A9A64736F6C634300081C0033 "},"methodIdentifiers":{"droughtByRegion(bytes32)":"92bdd627","ftsoRegistry()":"38b5f869","getDroughtIndex(bytes32)":"60e21e20","keeper()":"aced1661","setFtsoRegistry(address)":"5fc56014","setKeeper(address)":"748747e6","updateDroughtIndex(bytes32,uint256,uint256,uint256,uint256)":"b4a94dae"}}}}}