{"contracts/PolicyVault.sol":{"PolicyVault":{"abi":[{"inputs":[{"internalType":"address","name":"sender","type":"address"},{"internalType":"uint256","name":"tokenId","type":"uint256"},{"internalType":"address","name":"owner","type":"address"}],"name":"ERC721IncorrectOwner","type":"error"},{"inputs":[{"internalType":"address","name":"operator","type":"address"},{"internalType":"uint256","name":"tokenId","type":"uint256"}],"name":"ERC721InsufficientApproval","type":"error"},{"inputs":[{"internalType":"address","name":"approver","type":"address"}],"name":"ERC721InvalidApprover","type":"error"},{"inputs":[{"internalType":"address","name":"operator","type":"address"}],"name":"ERC721InvalidOperator","type":"error"},{"inputs":[{"internalType":"address","name":"owner","type":"address"}],"name":"ERC721InvalidOwner","type":"error"},{"inputs":[{"internalType":"address","name":"receiver","type":"address"}],"name":"ERC721InvalidReceiver","type":"error"},{"inputs":[{"internalType":"address","name":"sender","type":"address"}],"name":"ERC721InvalidSender","type":"error"},{"inputs":[{"internalType":"uint256","name":"tokenId","type":"uint256"}],"name":"ERC721NonexistentToken","type":"error"},{"inputs":[],"name":"InvalidInitialization","type":"error"},{"inputs":[],"name":"NotInitializing","type":"error"},{"inputs":[{"internalType":"address","name":"owner","type":"address"}],"name":"OwnableInvalidOwner","type":"error"},{"inputs":[{"internalType":"address","name":"account","type":"address"}],"name":"OwnableUnauthorizedAccount","type":"error"},{"inputs":[{"internalType":"address","name":"token","type":"address"}],"name":"SafeERC20FailedOperation","type":"error"},{"anonymous":false,"inputs":[{"indexed":true,"internalType":"address","name":"owner","type":"address"},{"indexed":true,"internalType":"address","name":"approved","type":"address"},{"indexed":true,"internalType":"uint256","name":"tokenId","type":"uint256"}],"name":"Approval","type":"event"},{"anonymous":false,"inputs":[{"indexed":true,"internalType":"address","name":"owner","type":"address"},{"indexed":true,"internalType":"address","name":"operator","type":"address"},{"indexed":false,"internalType":"bool","name":"approved","type":"bool"}],"name":"ApprovalForAll","type":"event"},{"anonymous":false,"inputs":[{"indexed":false,"internalType":"uint64","name":"version","type":"uint64"}],"name":"Initialized","type":"event"},{"anonymous":false,"inputs":[{"indexed":true,"internalType":"address","name":"liquidityPool","type":"address"}],"name":"LiquidityPoolUpdated","type":"event"},{"anonymous":false,"inputs":[{"indexed":true,"internalType":"address","name":"oracle","type":"address"}],"name":"OracleUpdated","type":"event"},{"anonymous":false,"inputs":[{"indexed":true,"internalType":"address","name":"previousOwner","type":"address"},{"indexed":true,"internalType":"address","name":"newOwner","type":"address"}],"name":"OwnershipTransferred","type":"event"},{"anonymous":false,"inputs":[{"indexed":true,"internalType":"uint256","name":"policyId","type":"uint256"},{"indexed":false,"internalType":"enum PolicyVault.PayoutSeverity","name":"severity","type":"uint8"}],"name":"PolicyClaimable","type":"event"},{"anonymous":false,"inputs":[{"indexed":true,"internalType":"uint256","name":"policyId","type":"uint256"},{"indexed":true,"internalType":"address","name":"farmer","type":"address"},{"indexed":false,"internalType":"uint256","name":"payout","type":"uint256"},{"indexed":false,"internalType":"enum PolicyVault.PayoutSeverity","name":"severity","type":"uint8"}],"name":"PolicyClaimed","type":"event"},{"anonymous":false,"inputs":[{"indexed":true,"internalType":"uint256","name":"policyId","type":"uint256"},{"indexed":true,"internalType":"address","name":"farmer","type":"address"},{"indexed":false,"internalType":"enum PolicyVault.CropType","name":"crop","type":"uint8"},{"indexed":false,"internalType":"uint256","name":"hectares","type":"uint256"},{"indexed":false,"internalType":"uint256","name":"coverageAmount","type":"uint256"},{"indexed":false,"internalType":"uint256","name":"premium","type":"uint256"}],"name":"PolicyCreated","type":"event"},{"anonymous":false,"inputs":[{"indexed":true,"internalType":"uint256","name":"policyId","type":"uint256"}],"name":"PolicyExpired","type":"event"},{"anonymous":false,"inputs":[{"indexed":true,"internalType":"address","name":"from","type":"address"},{"indexed":true,"internalType":"address","name":"to","type":"address"},{"indexed":true,"internalType":"uint256","name":"tokenId","type":"uint256"}],"name":"Transfer","type":"event"},{"inputs":[],"name":"MAX_COVERAGE_PER_HECTARE","outputs":[{"internalType":"uint256","name":"","type":"uint256"}],"stateMutability":"view","type":"function"},{"inputs":[],"name":"MIN_TRIGGER_DAYS","outputs":[{"internalType":"uint256","name":"","type":"uint256"}],"stateMutability":"view","type":"function"},{"inputs":[{"internalType":"address","name":"to","type":"address"},{"internalType":"uint256","name":"tokenId","type":"uint256"}],"name":"approve","outputs":[],"stateMutability":"nonpayable","type":"function"},{"inputs":[{"internalType":"address","name":"owner","type":"address"}],"name":"balanceOf","outputs":[{"internalType":"uint256","name":"","type":"uint256"}],"stateMutability":"view","type":"function"},{"inputs":[{"internalType":"uint256","name":"policyId","type":"uint256"}],"name":"claimPayout","outputs":[],"stateMutability":"nonpayable","type":"function"},{"inputs":[{"components":[{"internalType":"enum PolicyVault.CropType","name":"crop","type":"uint8"},{"internalType":"uint256","name":"farmSizeHectares","type":"uint256"},{"internalType":"int256","name":"lat","type":"int256"},{"internalType":"int256","name":"lon","type":"int256"},{"internalType":"uint256","name":"duration","type":"uint256"},{"internalType":"bytes32","name":"regionCode","type":"bytes32"}],"internalType":"struct PolicyVault.CreatePolicyParams","name":"params","type":"tuple"}],"name":"createPolicy","outputs":[],"stateMutability":"nonpayable","type":"function"},{"inputs":[{"internalType":"uint256","name":"policyId","type":"uint256"}],"name":"evaluateTrigger","outputs":[],"stateMutability":"nonpayable","type":"function"},{"inputs":[{"internalType":"uint256","name":"policyId","type":"uint256"}],"name":"expirePolicy","outputs":[],"stateMutability":"nonpayable","type":"function"},{"inputs":[{"internalType":"uint256","name":"tokenId","type":"uint256"}],"name":"getApproved","outputs":[{"internalType":"address","name":"","type":"address"}],"stateMutability":"view","type":"function"},{"inputs":[{"internalType":"address","name":"_usdc","type":"address"},{"internalType":"address","name":"_oracle","type":"address"},{"internalType":"address","name":"_liquidityPool","type":"address"},{"internalType":"address","name":"_owner","type":"address"}],"name":"initialize","outputs":[],"stateMutability":"nonpayable","type":"function"},{"inputs":[{"internalType":"address","name":"owner","type":"address"},{"internalType":"address","name":"operator","type":"address"}],"name":"isApprovedForAll","outputs":[{"internalType":"bool","name":"","type":"bool"}],"stateMutability":"view","type":"function"},{"inputs":[],"name":"liquidityPool","outputs":[{"internalType":"address","name":"","type":"address"}],"stateMutability":"view","type":"function"},{"inputs":[],"name":"name","outputs":[{"internalType":"string","name":"","type":"string"}],"stateMutability":"view","type":"function"},{"inputs":[],"name":"nextPolicyId","outputs":[{"internalType":"uint256","name":"","type":"uint256"}],"stateMutability":"view","type":"function"},{"inputs":[],"name":"oracle","outputs":[{"internalType":"contract IOracleConsumer","name":"","type":"address"}],"stateMutability":"view","type":"function"},{"inputs":[],"name":"owner","outputs":[{"internalType":"address","name":"","type":"address"}],"stateMutability":"view","type":"function"},{"inputs":[{"internalType":"uint256","name":"tokenId","type":"uint256"}],"name":"ownerOf","outputs":[{"internalType":"address","name":"","type":"address"}],"stateMutability":"view","type":"function"},{"inputs":[],"name":"pause","outputs":[],"stateMutability":"nonpayable","type":"function"},{"inputs":[{"internalType":"uint256","name":"","type":"uint256"}],"name":"policies","outputs":[{"internalType":"address","name":"farmer","type":"address"},{"internalType":"enum PolicyVault.CropType","name":"crop","type":"uint8"},{"internalType":"uint256","name":"farmSizeHectares","type":"uint256"},{"internalType":"uint256","name":"premium","type":"uint256"},{"internalType":"uint256","name":"coverageAmount","type":"uint256"},{"internalType":"uint256","name":"startTime","type":"uint256"},{"internalType":"uint256","name":"endTime","type":"uint256"},{"internalType":"int256","name":"lat","type":"int256"},{"internalType":"int256","name":"lon","type":"int256"},{"internalType":"uint8","name":"triggerThreshold","type":"uint8"},{"internalType":"bool","name":"active","type":"bool"},{"internalType":"bool","name":"claimed","type":"bool"},{"internalType":"bool","name":"claimable","type":"bool"},{"internalType":"enum PolicyVault.PayoutSeverity","name":"severity","type":"uint8"},{"internalType":"bytes32","name":"regionCode","type":"bytes32"},{"internalType":"uint256","name":"triggerStartTimestamp","type":"uint256"}],"stateMutability":"view","type":"function"},{"inputs":[],"name":"renounceOwnership","outputs":[],"stateMutability":"nonpayable","type":"function"},{"inputs":[{"internalType":"address","name":"from","type":"address"},{"internalType":"address","name":"to","type":"address"},{"internalType":"uint256","name":"tokenId","type":"uint256"}],"name":"safeTransferFrom","outputs":[],"stateMutability":"nonpayable","type":"function"},{"inputs":[{"internalType":"address","name":"from","type":"address"},{"internalType":"address","name":"to","type":"address"},{"internalType":"uint256","name":"tokenId","type":"uint256"},{"internalType":"bytes","name":"data","type":"bytes"}],"name":"safeTransferFrom","outputs":[],"stateMutability":"nonpayable","type":"function"},{"inputs":[{"internalType":"address","name":"operator","type":"address"},{"internalType":"bool","name":"approved","type":"bool"}],"name":"setApprovalForAll","outputs":[],"stateMutability":"nonpayable","type":"function"},{"inputs":[{"internalType":"address","name":"_liquidityPool","type":"address"}],"name":"setLiquidityPool","outputs":[],"stateMutability":"nonpayable","type":"function"},{"inputs":[{"internalType":"address","name":"_oracle","type":"address"}],"name":"setOracle","outputs":[],"stateMutability":"nonpayable","type":"function"},{"inputs":[{"internalType":"bytes4","name":"interfaceId","type":"bytes4"}],"name":"supportsInterface","outputs":[{"internalType":"bool","name":"","type":"bool"}],"stateMutability":"view","type":"function"},{"inputs":[],"name":"symbol","outputs":[{"internalType":"string","name":"","type":"string"}],"stateMutability":"view","type":"function"},{"inputs":[{"internalType":"uint256","name":"tokenId","type":"uint256"}],"name":"tokenURI","outputs":[{"internalType":"string","name":"","type":"string"}],"stateMutability":"view","type":"function"},{"inputs":[{"internalType":"address","name":"from","type":"address"},{"internalType":"address","name":"to","type":"address"},{"internalType":"uint256","name":"tokenId","type":"uint256"}],"name":"transferFrom","outputs":[],"stateMutability":"nonpayable","type":"function"},{"inputs":[{"internalType":"address","name":"newOwner","type":"address"}],"name":"transferOwnership","outputs":[],"stateMutability":"nonpayable","type":"function"},{"inputs":[],"name":"unpause","outputs":[],"stateMutability":"nonpayable","type":"function"},{"inputs":[],"name":"usdc","outputs":[{"internalType":"contract IERC20","name":"","type":"address"}],"stateMutability":"view","type":"function"}],"evm":{"bytecode":{"linkReferences":{},"object":"60808060405234601a576001600455612595908161001f8239f35b5f80fdfe60806040526004361015610011575f80fd5b5f5f3560e01c80630187702014611ccd57806301ffc9a714611c5f57806306fdde0314611b90578063081812fc14611b47578063095ea7b314611a5b57806320ae9a7d146118ca57806323b872dd146118b15780633037e4cd1461171a5780633e413bee146116ed5780633f4ba83a146116c757806342842e0e1461169d5780636352211e1461166c578063665a11ca1461164357806370a08231146115f1578063715018a6146115885780637adbf973146115205780637dc0d1d0146114f757806383b4b1e414610e985780638456cb5914610e705780638a69614e14610bae5780638da5cb5b14610b7957806395d89b4114610a7e578063a22cb465146109c5578063b88d4fde14610933578063c87b56dd146108d8578063cad0b8db146108ba578063d3e89483146107be578063e985e9c514610771578063f2fde38b14610749578063f8c8765e146101b7578063fd9c611e1461019b5763ff08a4191461017a575f80fd5b346101985780600319360112610198576020604051633b9aca008152f35b80fd5b50346101985780600319360112610198576020604051600e8152f35b5034610198576080366003190112610198576101d1611d33565b6101d9611d49565b906044356001600160a01b0381169081900361074557606435926001600160a01b0384168403610745575f5160206125005f395f51905f52549260ff8460401c16159367ffffffffffffffff81168015908161073d575b6001149081610733575b15908161072a575b5061071b5767ffffffffffffffff1981166001175f5160206125005f395f51905f5255846106ef575b50604094855161027b8782611dbd565b601081526f4167726f436861696e20506f6c69637960801b60208201528651906102a58883611dbd565b60078252661051d493d413d360ca1b60208301526102c1612474565b6102c9612474565b80519067ffffffffffffffff82116106db5781906102f45f5160206124a05f395f51905f5254611e2d565b601f811161065d575b50602090601f83116001146105d6578b926105cb575b50508160011b915f199060031b1c1916175f5160206124a05f395f51905f52555b80519067ffffffffffffffff82116105b75761035d5f5160206125205f395f51905f5254611e2d565b601f8111610548575b50602090601f83116001146104c8576103b99392918a91836104bd575b50508160011b915f199060031b1c1916175f5160206125205f395f51905f52555b6103ac612474565b6103b4612474565b612338565b6001865560015490610100600160a81b039060081b16906affffffffffffffffffffff60a81b161760015560018060a01b031692836001600160601b0360a01b6002541617600255816001600160601b0360a01b600354161760035551927f3df77beb5db05fcdd70a30fc8adf3f83f9501b68579455adbd100b81809403948580a27fedf1a035d265f6321083031b40acf4e5e06cd3e2e2025192fd308409b13b44c68480a2610467575080f35b60207fc7f505b2f371ae2175ee4913f4499e1f2633a7b5936321eed1cdaeb6115181d29168ff0000000000000000195f5160206125005f395f51905f5254165f5160206125005f395f51905f525560018152a180f35b015190505f80610383565b5f5160206125205f395f51905f528a52818a209190601f1984168b5b81811061053057509160019391856103b997969410610518575b505050811b015f5160206125205f395f51905f52556103a4565b01515f1960f88460031b161c191690555f80806104fe565b929360206001819287860151815501950193016104e4565b5f5160206125205f395f51905f528a527ff4bad0a69248f59680a4f2b3000328cec71a413447c96781cfe5996daa8c456e601f840160051c810191602085106105ad575b601f0160051c01905b8181106105a25750610366565b8a8155600101610595565b909150819061058c565b634e487b7160e01b89526041600452602489fd5b015190505f80610313565b5f5160206124a05f395f51905f528c525f5160206125405f395f51905f529250601f1984168c5b818110610645575090846001959493921061062d575b505050811b015f5160206124a05f395f51905f5255610334565b01515f1960f88460031b161c191690555f8080610613565b929360206001819287860151815501950193016105fd565b9091505f5160206124a05f395f51905f528b52601f830160051c5f5160206125405f395f51905f520190602084106106c6575b90601f8493920160051c5f5160206125405f395f51905f5201905b8181106106b857506102fd565b8c81558493506001016106ab565b5f5160206125405f395f51905f529150610690565b634e487b7160e01b8a52604160045260248afd5b68ffffffffffffffffff191668010000000000000001175f5160206125005f395f51905f52555f61026b565b63f92ee8a960e01b8752600487fd5b9050155f610242565b303b15915061023a565b869150610230565b5f80fd5b50346101985760203660031901126101985761076e610766611d33565b6103b46123a9565b80f35b50346101985760403660031901126101985761078b611d33565b61079c610796611d49565b91612174565b9060018060a01b03165f52602052602060ff60405f2054166040519015158152f35b503461019857602036600319011261019857604061020091600435815260056020522080549060ff8260a01c1690600181015460ff6002830154600384015460048501546005860154600687015491600788015493600889015495878760201c1698600a60098c01549b01549b60206040519e8f9060018060a01b0316815261084683611e0f565b015260408d015260608c015260808b015260a08a015260c089015260e0880152610100870152818116610120870152818160081c161515610140870152818160101c16151561016087015260181c1615156101808501526108a681611e0f565b6101a08401526101c08301526101e0820152f35b50346101985780600319360112610198576020600454604051908152f35b5034610198576020366003190112610198576108f56004356123dc565b5080604051610905602082611dbd565b525061092f604051610918602082611dbd565b5f8152604051918291602083526020830190611d5f565b0390f35b50346101985760803660031901126101985761094d611d33565b610955611d49565b906064359067ffffffffffffffff82116109c157366023830112156109c1578160040135928461098485611df3565b936109926040519586611dbd565b85855236602487830101116109bd578561076e966024602093018388013785010152604435916121f8565b5080fd5b8380fd5b5034610198576040366003190112610198576109df611d33565b60243590811515809203610a7a573315610a66576001600160a01b0316908115610a5257610a0c33612174565b825f5260205260405f2060ff1981541660ff83161790556040519081527f17307eab39ab6107e8899845ad3d59bd9653f200f220920489ca2b5937696c3160203392a380f35b630b61174360e31b83526004829052602483fd5b63a9fbf51f60e01b83526004839052602483fd5b8280fd5b503461019857806003193601126101985760405190805f5160206125205f395f51905f525490610aad82611e2d565b8085529160018116908115610b525750600114610ae9575b61092f84610ad581860382611dbd565b604051918291602083526020830190611d5f565b5f5160206125205f395f51905f5281527ff4bad0a69248f59680a4f2b3000328cec71a413447c96781cfe5996daa8c456e939250905b808210610b3857509091508101602001610ad582610ac5565b919260018160209254838588010152019101909291610b1f565b60ff191660208087019190915292151560051b85019092019250610ad59150839050610ac5565b50346101985780600319360112610198575f5160206124c05f395f51905f52546040516001600160a01b039091168152602090f35b503461019857602036600319011261019857600435610bd16002835414156121ac565b60028255610be460ff6001541615611e65565b610bed816123dc565b336001600160a01b0390911603610e1d578082526005602052604082209060088201918254610c2160ff8260081c16611ea4565b60ff8160101c16610dd85760ff8160181c1615610d935760ff8160201c16610c4881611e0f565b15610d4e57620100009062ffff001916179081845584600382015492600160ff859260201c16610c7781611e0f565b14610d44575b60035483546001600160a01b0391821692911690823b156109c15760648492836040519586948593630258f6cb60e11b855260048501528a602485015260448401525af18015610d3957610d20575b50507fef4040f84a7e4fa3b292a9b9057d33b14470726f672fbfeb4a552945b1345e9e9160ff60409260018060a01b03905416955460201c168251918252610d1381611e0f565b6020820152a36001815580f35b81610d2a91611dbd565b610d3557845f610ccc565b8480fd5b6040513d84823e3d90fd5b9260011c92610c7d565b60405162461bcd60e51b815260206004820152601c60248201527f506f6c6963795661756c743a206e6f20736576657269747920736574000000006044820152606490fd5b60405162461bcd60e51b815260206004820152601a60248201527f506f6c6963795661756c743a206e6f7420636c61696d61626c650000000000006044820152606490fd5b60405162461bcd60e51b815260206004820152601c60248201527f506f6c6963795661756c743a20616c726561647920636c61696d6564000000006044820152606490fd5b60405162461bcd60e51b815260206004820152602560248201527f506f6c6963795661756c743a204f6e6c79204e4654206f776e65722063616e20604482015264636c61696d60d81b6064820152608490fd5b5034610198578060031936011261019857610e896123a9565b600160ff198154161760015580f35b50346101985760c036600319011261019857610eb86002825414156121ac565b60028155600154610ecc60ff821615611e65565b6024359081156114bc57608435801561147757633b9aca008302838104633b9aca00036114635760043593600385101561145f57610f098561240b565b60025460405163030710f160e51b815260a435600482015290606090829060249082906001600160a01b03165afa90811561145457620f424092610f72928a928b9161141e575b50610f5d81931515611f03565b15611415575b610f6d9086611f4f565b611f4f565b0492600454945f198614611401576001860160049081556040516323b872dd60e01b8a52339091523060245260448690529060081c6001600160a01b031660208960648180855af160018a51148116156113eb575b8260405289606052156113ba575060015460035463a9059cbb60e01b8a526001600160a01b03908116600452602487905260089190911c1660208960448180855af160018a51148116156113cc575b82604052156113ba57506003548891906001600160a01b0316803b15610a7a57816024818580946343570be760e01b83528a60048401525af18015610d39576113a1575b5050420180421161138d5760405190610200820182811067ffffffffffffffff8211176105b75760405233825261109087611e0f565b8660208301528260408301528460608301528360808301524260a083015260c082015260443560e0820152606435610100820152604661012082015260016101408201528661016082015286610180820152866101a082015260a4356101c0820152866101e08201528487526005602052600a6101e0604089209260018060a01b0360018060a01b03825116166001600160601b0360a01b855416178455602081015161113c81611e0f565b61114581611e0f565b845460ff60a01b191660a091821b60ff60a01b16178555604082015160018601556060820151600286015560808201516003860155810151600485015560c0810151600585015560e0810151600685015561010081015160078501556101208101516008808601805461014085015161016086015161018087015163ffffffff1990931660ff969096169590951790151590931b61ff00169290921792151560101b62ff0000169290921790151560181b63ff000000161781556101a082015161120e81611e0f565b61121781611e0f565b64ff0000000082549160201b169064ff0000000019161790556101c08101516009850155015191015533156113795761124f8461243b565b6001600160a01b038116801515919086908361133d575b61126f3361213c565b80546001019055818a527f80bb2b638cc20bc4d0a60d66940f3ab4a00c1d7b313497ca82fb0b4ab007930260205260408a2080546001600160a01b03191633908117909155907fddf252ad1be2c89b69c2b068fc378daa952ba7f163c4a11628f55a4df523b3ef8b80a45061132957604051946112eb81611e0f565b85526020850152604084015260608301527f4922cc4ba5af57c06c26d02e17d09964049efe7919e9bba1118cb09aa33cfc9860803393a36001815580f35b6339e3563760e11b86526004869052602486fd5b5f8281525f5160206124e05f395f51905f526020526040902080546001600160a01b031916905561136d8361213c565b80545f19019055611266565b633250574960e11b86526004869052602486fd5b634e487b7160e01b87526011600452602487fd5b816113ab91611dbd565b6113b657865f61105a565b8680fd5b635274afe760e01b8952600452602488fd5b60018115166113e257813b15153d151616611016565b823d8b823e3d90fd5b60018115166113e257813b15153d151616610fc7565b634e487b7160e01b88526011600452602488fd5b60649150610f63565b905061144391925060603d60601161144d575b61143b8183611dbd565b810190611ee8565b929150915f610f50565b503d611431565b6040513d8a823e3d90fd5b8580fd5b634e487b7160e01b85526011600452602485fd5b60405162461bcd60e51b815260206004820152601760248201527f506f6c6963795661756c743a206475726174696f6e3d300000000000000000006044820152606490fd5b60405162461bcd60e51b81526020600482015260136024820152720506f6c6963795661756c743a2073697a653d3606c1b6044820152606490fd5b50346101985780600319360112610198576002546040516001600160a01b039091168152602090f35b50346101985760203660031901126101985761153a611d33565b6115426123a9565b600280546001600160a01b0319166001600160a01b039290921691821790557f3df77beb5db05fcdd70a30fc8adf3f83f9501b68579455adbd100b81809403948280a280f35b50346101985780600319360112610198576115a16123a9565b5f5160206124c05f395f51905f5280546001600160a01b0319811690915581906001600160a01b03167f8be0079c531659141344cd1fd0a4f28419497f9722a3daafe3b4186f6b6457e08280a380f35b50346101985760203660031901126101985761160b611d33565b906001600160a01b0382161561162f5760206116268361213c565b54604051908152f35b6322718ad960e21b81526004819052602490fd5b50346101985780600319360112610198576003546040516001600160a01b039091168152602090f35b503461019857602036600319011261019857602061168b6004356123dc565b6040516001600160a01b039091168152f35b50346101985761076e6116af36611d83565b90604051926116bf602085611dbd565b8584526121f8565b50346101985780600319360112610198576116e06123a9565b60ff196001541660015580f35b503461019857806003193601126101985760015460405160089190911c6001600160a01b03168152602090f35b50346107455760203660031901126107455760043561173e60ff6001541615611e65565b805f52600560205260405f2060088101805461175f60ff8260081c16611ea4565b600583015442111561186c5760ff8160181c166118095761ff0019169055600380549101546001600160a01b0390911690813b15610745575f91602483926040519485938492638d9a336560e01b845260048401525af180156117fe576117e9575b507fb22aa541487fc93d989bb5b17d1e3a967f649c4979cfd658c0849e070ae0dca08280a280f35b6117f69192505f90611dbd565b5f905f6117c1565b6040513d5f823e3d90fd5b60405162461bcd60e51b815260206004820152603560248201527f506f6c6963795661756c743a207472696767657220616374697665202d2066616044820152741c9b595c881b5d5cdd0818db185a5b48199a5c9cdd605a1b6064820152608490fd5b60405162461bcd60e51b815260206004820152601860248201527f506f6c6963795661756c743a206e6f74206578706972656400000000000000006044820152606490fd5b34610745576118c86118c236611d83565b91611f62565b005b34610745576020366003190112610745576004356118ed60ff6001541615611e65565b805f52600560205260405f206008810180549161190f60ff8460081c16611ea4565b60018060a01b0360025416926060600983015460246040518097819363030710f160e51b835260048301525afa80156117fe575f945f91611a2d575b509061195a60ff921515611f03565b16831115611a2457600a01805415611a1c575b54621275008101809111611a085742101561198457005b60ff817f61782cf7ed50c35f9220bd74184699a7a70a2a12ebe6747518406450eee749449360556020945491630100000063ff000000198416178455115f146119f25750805464ff0000000019166402000000001781555b54821c16604051906119ed81611e0f565b8152a2005b64ffff00000019166401010000001781556119dc565b634e487b7160e01b5f52601160045260245ffd5b42815561196d565b5f600a90910155005b61195a955060ff929150611a4f9060603d60601161144d5761143b8183611dbd565b5095909591925061194b565b3461074557604036600319011261074557611a74611d33565b602435611a80816123dc565b33151580611b34575b80611b11575b611afe5781906001600160a01b0384811691167f8c5be1e5ebec7d5bd14f71427d1e84f3dd0314c0f7b2291e5b200ac8c7c3b9255f80a45f9081525f5160206124e05f395f51905f526020526040902080546001600160a01b0319166001600160a01b03909216919091179055005b63a9fbf51f60e01b5f523360045260245ffd5b50611b1b81612174565b335f908152602091909152604090205460ff1615611a8f565b506001600160a01b038116331415611a89565b3461074557602036600319011261074557602061168b600435611b69816123dc565b505f9081525f5160206124e05f395f51905f5260205260409020546001600160a01b031690565b34610745575f366003190112610745576040515f5f5160206124a05f395f51905f5254611bbc81611e2d565b8084529060018116908115611c3b5750600114611be4575b61092f83610ad581850382611dbd565b5f5160206124a05f395f51905f525f9081525f5160206125405f395f51905f52939250905b808210611c2157509091508101602001610ad5611bd4565b919260018160209254838588010152019101909291611c09565b60ff191660208086019190915291151560051b84019091019150610ad59050611bd4565b346107455760203660031901126107455760043563ffffffff60e01b8116809103610745576020906380ac58cd60e01b8114908115611cbc575b8115611cab575b506040519015158152f35b6301ffc9a760e01b14905082611ca0565b635b5e139f60e01b81149150611c99565b3461074557602036600319011261074557611ce6611d33565b611cee6123a9565b600380546001600160a01b0319166001600160a01b039290921691821790557fedf1a035d265f6321083031b40acf4e5e06cd3e2e2025192fd308409b13b44c65f80a2005b600435906001600160a01b038216820361074557565b602435906001600160a01b038216820361074557565b805180835260209291819084018484015e5f828201840152601f01601f1916010190565b6060906003190112610745576004356001600160a01b038116810361074557906024356001600160a01b0381168103610745579060443590565b90601f8019910116810190811067ffffffffffffffff821117611ddf57604052565b634e487b7160e01b5f52604160045260245ffd5b67ffffffffffffffff8111611ddf57601f01601f191660200190565b60031115611e1957565b634e487b7160e01b5f52602160045260245ffd5b90600182811c92168015611e5b575b6020831014611e4757565b634e487b7160e01b5f52602260045260245ffd5b91607f1691611e3c565b15611e6c57565b60405162461bcd60e51b815260206004820152601060248201526f14185d5cd8589b194e881c185d5cd95960821b6044820152606490fd5b15611eab57565b60405162461bcd60e51b8152602060048201526015602482015274506f6c6963795661756c743a20696e61637469766560581b6044820152606490fd5b90816060910312610745578051916040602083015192015190565b15611f0a57565b60405162461bcd60e51b815260206004820152601b60248201527f506f6c6963795661756c743a206e6f206f7261636c65206461746100000000006044820152606490fd5b81810292918115918404141715611a0857565b9091906001600160a01b03831680156121295782611f7f8161243b565b9133151580612076575b506001600160a01b03831695611fa3908761203a5761213c565b60018154019055815f527f80bb2b638cc20bc4d0a60d66940f3ab4a00c1d7b313497ca82fb0b4ab007930260205260405f20816001600160601b0360a01b825416179055857fddf252ad1be2c89b69c2b068fc378daa952ba7f163c4a11628f55a4df523b3ef5f80a4506001600160a01b031680830361202257505050565b6364283d7b60e01b5f5260045260245260445260645ffd5b5f8481525f5160206124e05f395f51905f526020526040902080546001600160a01b031916905561206a8561213c565b80545f1901905561213c565b909150806120c3575b1561208c5783905f611f89565b836001600160a01b0383166120ad57637e27328960e01b5f5260045260245ffd5b63177e802f60e01b5f523360045260245260445ffd5b506001600160a01b03821633148015612107575b8061207f57505f8481525f5160206124e05f395f51905f5260205260409020546001600160a01b0316331461207f565b5061211182612174565b335f908152602091909152604090205460ff166120d7565b633250574960e11b5f525f60045260245ffd5b6001600160a01b03165f9081527f80bb2b638cc20bc4d0a60d66940f3ab4a00c1d7b313497ca82fb0b4ab00793036020526040902090565b6001600160a01b03165f9081527f80bb2b638cc20bc4d0a60d66940f3ab4a00c1d7b313497ca82fb0b4ab00793056020526040902090565b156121b357565b60405162461bcd60e51b815260206004820152601f60248201527f5265656e7472616e637947756172643a207265656e7472616e742063616c6c006044820152606490fd5b9291612205818386611f62565b813b612212575b50505050565b604051630a85bd0160e11b81523360048201526001600160a01b039485166024820152604481019190915260806064820152921691906020908290819061225d906084830190611d5f565b03815f865af15f91816122f3575b506122c057503d156122b9573d61228181611df3565b9061228f6040519283611dbd565b81523d5f602083013e5b805190816122b45782633250574960e11b5f5260045260245ffd5b602001fd5b6060612299565b6001600160e01b03191663757a42ff60e11b016122e157505f80808061220c565b633250574960e11b5f5260045260245ffd5b9091506020813d602011612330575b8161230f60209383611dbd565b8101031261074557516001600160e01b03198116810361074557905f61226b565b3d9150612302565b6001600160a01b03168015612396575f5160206124c05f395f51905f5280546001600160a01b0319811683179091556001600160a01b03167f8be0079c531659141344cd1fd0a4f28419497f9722a3daafe3b4186f6b6457e05f80a3565b631e4fbdf760e01b5f525f60045260245ffd5b5f5160206124c05f395f51905f52546001600160a01b031633036123c957565b63118cdaa760e01b5f523360045260245ffd5b6123e58161243b565b906001600160a01b038216156123f9575090565b637e27328960e01b5f5260045260245ffd5b61241481611e0f565b600281146124355761242581611e0f565b156124305761012c90565b60fa90565b5060c890565b5f9081527f80bb2b638cc20bc4d0a60d66940f3ab4a00c1d7b313497ca82fb0b4ab007930260205260409020546001600160a01b031690565b60ff5f5160206125005f395f51905f525460401c161561249057565b631afcd79f60e31b5f5260045ffdfe80bb2b638cc20bc4d0a60d66940f3ab4a00c1d7b313497ca82fb0b4ab00793009016d09d72d40fdae2fd8ceac6b6234c7706214fd39c1cd1e609a0528c19930080bb2b638cc20bc4d0a60d66940f3ab4a00c1d7b313497ca82fb0b4ab0079304f0c57e16840df040f15088dc2f81fe391c3923bec73e23a9662efc9c229c6a0080bb2b638cc20bc4d0a60d66940f3ab4a00c1d7b313497ca82fb0b4ab007930137c58c799b6609234b945e882912ee9ad34948a1dfaa20a97485e1a7752bbf81a26469706673582212209d36a5622dffd72615f8e61e81e033e3a862a8a74e68d32814b020f26e5a379c64736f6c634300081c0033","opcodes":"PUSH1 0x80 DUP1 PUSH1 0x40 MSTORE CALLVALUE PUSH1 0x1A JUMPI PUSH1 0x1 PUSH1 0x4 SSTORE PUSH2 0x2595 SWAP1 DUP2 PUSH2 0x1F DUP3 CODECOPY RETURN JUMPDEST PUSH0 DUP1 REVERT INVALID PUSH1 0x80 PUSH1 0x40 MSTORE PUSH1 0x4 CALLDATASIZE LT ISZERO PUSH2 0x11 JUMPI PUSH0 DUP1 REVERT JUMPDEST PUSH0 PUSH0 CALLDATALOAD PUSH1 0xE0 SHR DUP1 PUSH4 0x1877020 EQ PUSH2 0x1CCD JUMPI DUP1 PUSH4 0x1FFC9A7 EQ PUSH2 0x1C5F JUMPI DUP1 PUSH4 0x6FDDE03 EQ PUSH2 0x1B90 JUMPI DUP1 PUSH4 0x81812FC EQ PUSH2 0x1B47 JUMPI DUP1 PUSH4 0x95EA7B3 EQ PUSH2 0x1A5B JUMPI DUP1 PUSH4 0x20AE9A7D EQ PUSH2 0x18CA JUMPI DUP1 PUSH4 0x23B872DD EQ PUSH2 0x18B1 JUMPI DUP1 PUSH4 0x3037E4CD EQ PUSH2 0x171A JUMPI DUP1 PUSH4 0x3E413BEE EQ PUSH2 0x16ED JUMPI DUP1 PUSH4 0x3F4BA83A EQ PUSH2 0x16C7 JUMPI DUP1 PUSH4 0x42842E0E EQ PUSH2 0x169D JUMPI DUP1 PUSH4 0x6352211E EQ PUSH2 0x166C JUMPI DUP1 PUSH4 0x665A11CA EQ PUSH2 0x1643 JUMPI DUP1 PUSH4 0x70A08231 EQ PUSH2 0x15F1 JUMPI DUP1 PUSH4 0x715018A6 EQ PUSH2 0x1588 JUMPI DUP1 PUSH4 0x7ADBF973 EQ PUSH2 0x1520 JUMPI DUP1 PUSH4 0x7DC0D1D0 EQ PUSH2 0x14F7 JUMPI DUP1 PUSH4 0x83B4B1E4 EQ PUSH2 0xE98 JUMPI DUP1 PUSH4 0x8456CB59 EQ PUSH2 0xE70 JUMPI DUP1 PUSH4 0x8A69614E EQ PUSH2 0xBAE JUMPI DUP1 PUSH4 0x8DA5CB5B EQ PUSH2 0xB79 JUMPI DUP1 PUSH4 0x95D89B41 EQ PUSH2 0xA7E JUMPI DUP1 PUSH4 0xA22CB465 EQ PUSH2 0x9C5 JUMPI DUP1 PUSH4 0xB88D4FDE EQ PUSH2 0x933 JUMPI DUP1 PUSH4 0xC87B56DD EQ PUSH2 0x8D8 JUMPI DUP1 PUSH4 0xCAD0B8DB EQ PUSH2 0x8BA JUMPI DUP1 PUSH4 0xD3E89483 EQ PUSH2 0x7BE JUMPI DUP1 PUSH4 0xE985E9C5 EQ PUSH2 0x771 JUMPI DUP1 PUSH4 0xF2FDE38B EQ PUSH2 0x749 JUMPI DUP1 PUSH4 0xF8C8765E EQ PUSH2 0x1B7 JUMPI DUP1 PUSH4 0xFD9C611E EQ PUSH2 0x19B JUMPI PUSH4 0xFF08A419 EQ PUSH2 0x17A JUMPI PUSH0 DUP1 REVERT JUMPDEST CALLVALUE PUSH2 0x198 JUMPI DUP1 PUSH1 0x3 NOT CALLDATASIZE ADD SLT PUSH2 0x198 JUMPI PUSH1 0x20 PUSH1 0x40 MLOAD PUSH4 0x3B9ACA00 DUP2 MSTORE RETURN JUMPDEST DUP1 REVERT JUMPDEST POP CALLVALUE PUSH2 0x198 JUMPI DUP1 PUSH1 0x3 NOT CALLDATASIZE ADD SLT PUSH2 0x198 JUMPI PUSH1 0x20 PUSH1 0x40 MLOAD PUSH1 0xE DUP2 MSTORE RETURN JUMPDEST POP CALLVALUE PUSH2 0x198 JUMPI PUSH1 0x80 CALLDATASIZE PUSH1 0x3 NOT ADD SLT PUSH2 0x198 JUMPI PUSH2 0x1D1 PUSH2 0x1D33 JUMP JUMPDEST PUSH2 0x1D9 PUSH2 0x1D49 JUMP JUMPDEST SWAP1 PUSH1 0x44 CALLDATALOAD PUSH1 0x1 PUSH1 0x1 PUSH1 0xA0 SHL SUB DUP2 AND SWAP1 DUP2 SWAP1 SUB PUSH2 0x745 JUMPI PUSH1 0x64 CALLDATALOAD SWAP3 PUSH1 0x1 PUSH1 0x1 PUSH1 0xA0 SHL SUB DUP5 AND DUP5 SUB PUSH2 0x745 JUMPI PUSH0 MLOAD PUSH1 0x20 PUSH2 0x2500 PUSH0 CODECOPY PUSH0 MLOAD SWAP1 PUSH0 MSTORE SLOAD SWAP3 PUSH1 0xFF DUP5 PUSH1 0x40 SHR AND ISZERO SWAP4 PUSH8 0xFFFFFFFFFFFFFFFF DUP2 AND DUP1 ISZERO SWAP1 DUP2 PUSH2 0x73D JUMPI JUMPDEST PUSH1 0x1 EQ SWAP1 DUP2 PUSH2 0x733 JUMPI JUMPDEST ISZERO SWAP1 DUP2 PUSH2 0x72A JUMPI JUMPDEST POP PUSH2 0x71B JUMPI PUSH8 0xFFFFFFFFFFFFFFFF NOT DUP2 AND PUSH1 0x1 OR PUSH0 MLOAD PUSH1 0x20 PUSH2 0x2500 PUSH0 CODECOPY PUSH0 MLOAD SWAP1 PUSH0 MSTORE SSTORE DUP5 PUSH2 0x6EF JUMPI JUMPDEST POP PUSH1 0x40 SWAP5 DUP6 MLOAD PUSH2 0x27B DUP8 DUP3 PUSH2 0x1DBD JUMP JUMPDEST PUSH1 0x10 DUP2 MSTORE PUSH16 0x4167726F436861696E20506F6C696379 PUSH1 0x80 SHL PUSH1 0x20 DUP3 ADD MSTORE DUP7 MLOAD SWAP1 PUSH2 0x2A5 DUP9 DUP4 PUSH2 0x1DBD JUMP JUMPDEST PUSH1 0x7 DUP3 MSTORE PUSH7 0x1051D493D413D3 PUSH1 0xCA SHL PUSH1 0x20 DUP4 ADD MSTORE PUSH2 0x2C1 PUSH2 0x2474 JUMP JUMPDEST PUSH2 0x2C9 PUSH2 0x2474 JUMP JUMPDEST DUP1 MLOAD SWAP1 PUSH8 0xFFFFFFFFFFFFFFFF DUP3 GT PUSH2 0x6DB JUMPI DUP2 SWAP1 PUSH2 0x2F4 PUSH0 MLOAD PUSH1 0x20 PUSH2 0x24A0 PUSH0 CODECOPY PUSH0 MLOAD SWAP1 PUSH0 MSTORE SLOAD PUSH2 0x1E2D JUMP JUMPDEST PUSH1 0x1F DUP2 GT PUSH2 0x65D JUMPI JUMPDEST POP PUSH1 0x20 SWAP1 PUSH1 0x1F DUP4 GT PUSH1 0x1 EQ PUSH2 0x5D6 JUMPI DUP12 SWAP3 PUSH2 0x5CB JUMPI JUMPDEST POP POP DUP2 PUSH1 0x1 SHL SWAP2 PUSH0 NOT SWAP1 PUSH1 0x3 SHL SHR NOT AND OR PUSH0 MLOAD PUSH1 0x20 PUSH2 0x24A0 PUSH0 CODECOPY PUSH0 MLOAD SWAP1 PUSH0 MSTORE SSTORE JUMPDEST DUP1 MLOAD SWAP1 PUSH8 0xFFFFFFFFFFFFFFFF DUP3 GT PUSH2 0x5B7 JUMPI PUSH2 0x35D PUSH0 MLOAD PUSH1 0x20 PUSH2 0x2520 PUSH0 CODECOPY PUSH0 MLOAD SWAP1 PUSH0 MSTORE SLOAD PUSH2 0x1E2D JUMP JUMPDEST PUSH1 0x1F DUP2 GT PUSH2 0x548 JUMPI JUMPDEST POP PUSH1 0x20 SWAP1 PUSH1 0x1F DUP4 GT PUSH1 0x1 EQ PUSH2 0x4C8 JUMPI PUSH2 0x3B9 SWAP4 SWAP3 SWAP2 DUP11 SWAP2 DUP4 PUSH2 0x4BD JUMPI JUMPDEST POP POP DUP2 PUSH1 0x1 SHL SWAP2 PUSH0 NOT SWAP1 PUSH1 0x3 SHL SHR NOT AND OR PUSH0 MLOAD PUSH1 0x20 PUSH2 0x2520 PUSH0 CODECOPY PUSH0 MLOAD SWAP1 PUSH0 MSTORE SSTORE JUMPDEST PUSH2 0x3AC PUSH2 0x2474 JUMP JUMPDEST PUSH2 0x3B4 PUSH2 0x2474 JUMP JUMPDEST PUSH2 0x2338 JUMP JUMPDEST PUSH1 0x1 DUP7 SSTORE PUSH1 0x1 SLOAD SWAP1 PUSH2 0x100 PUSH1 0x1 PUSH1 0xA8 SHL SUB SWAP1 PUSH1 0x8 SHL AND SWAP1 PUSH11 0xFFFFFFFFFFFFFFFFFFFFFF PUSH1 0xA8 SHL AND OR PUSH1 0x1 SSTORE PUSH1 0x1 DUP1 PUSH1 0xA0 SHL SUB AND SWAP3 DUP4 PUSH1 0x1 PUSH1 0x1 PUSH1 0x60 SHL SUB PUSH1 0xA0 SHL PUSH1 0x2 SLOAD AND OR PUSH1 0x2 SSTORE DUP2 PUSH1 0x1 PUSH1 0x1 PUSH1 0x60 SHL SUB PUSH1 0xA0 SHL PUSH1 0x3 SLOAD AND OR PUSH1 0x3 SSTORE MLOAD SWAP3 PUSH32 0x3DF77BEB5DB05FCDD70A30FC8ADF3F83F9501B68579455ADBD100B8180940394 DUP6 DUP1 LOG2 PUSH32 0xEDF1A035D265F6321083031B40ACF4E5E06CD3E2E2025192FD308409B13B44C6 DUP5 DUP1 LOG2 PUSH2 0x467 JUMPI POP DUP1 RETURN JUMPDEST PUSH1 0x20 PUSH32 0xC7F505B2F371AE2175EE4913F4499E1F2633A7B5936321EED1CDAEB6115181D2 SWAP2 PUSH9 0xFF0000000000000000 NOT PUSH0 MLOAD PUSH1 0x20 PUSH2 0x2500 PUSH0 CODECOPY PUSH0 MLOAD SWAP1 PUSH0 MSTORE SLOAD AND PUSH0 MLOAD PUSH1 0x20 PUSH2 0x2500 PUSH0 CODECOPY PUSH0 MLOAD SWAP1 PUSH0 MSTORE SSTORE PUSH1 0x1 DUP2 MSTORE LOG1 DUP1 RETURN JUMPDEST ADD MLOAD SWAP1 POP PUSH0 DUP1 PUSH2 0x383 JUMP JUMPDEST PUSH0 MLOAD PUSH1 0x20 PUSH2 0x2520 PUSH0 CODECOPY PUSH0 MLOAD SWAP1 PUSH0 MSTORE DUP11 MSTORE DUP2 DUP11 KECCAK256 SWAP2 SWAP1 PUSH1 0x1F NOT DUP5 AND DUP12 JUMPDEST DUP2 DUP2 LT PUSH2 0x530 JUMPI POP SWAP2 PUSH1 0x1 SWAP4 SWAP2 DUP6 PUSH2 0x3B9 SWAP8 SWAP7 SWAP5 LT PUSH2 0x518 JUMPI JUMPDEST POP POP POP DUP2 SHL ADD PUSH0 MLOAD PUSH1 0x20 PUSH2 0x2520 PUSH0 CODECOPY PUSH0 MLOAD SWAP1 PUSH0 MSTORE SSTORE PUSH2 0x3A4 JUMP JUMPDEST ADD MLOAD PUSH0 NOT PUSH1 0xF8 DUP5 PUSH1 0x3 SHL AND SHR NOT AND SWAP1 SSTORE PUSH0 DUP1 DUP1 PUSH2 0x4FE JUMP JUMPDEST SWAP3 SWAP4 PUSH1 0x20 PUSH1 0x1 DUP2 SWAP3 DUP8 DUP7 ADD MLOAD DUP2 SSTORE ADD SWAP6 ADD SWAP4 ADD PUSH2 0x4E4 JUMP JUMPDEST PUSH0 MLOAD PUSH1 0x20 PUSH2 0x2520 PUSH0 CODECOPY PUSH0 MLOAD SWAP1 PUSH0 MSTORE DUP11 MSTORE PUSH32 0xF4BAD0A69248F59680A4F2B3000328CEC71A413447C96781CFE5996DAA8C456E PUSH1 0x1F DUP5 ADD PUSH1 0x5 SHR DUP2 ADD SWAP2 PUSH1 0x20 DUP6 LT PUSH2 0x5AD JUMPI JUMPDEST PUSH1 0x1F ADD PUSH1 0x5 SHR ADD SWAP1 JUMPDEST DUP2 DUP2 LT PUSH2 0x5A2 JUMPI POP PUSH2 0x366 JUMP JUMPDEST DUP11 DUP2 SSTORE PUSH1 0x1 ADD PUSH2 0x595 JUMP JUMPDEST SWAP1 SWAP2 POP DUP2 SWAP1 PUSH2 0x58C JUMP JUMPDEST PUSH4 0x4E487B71 PUSH1 0xE0 SHL DUP10 MSTORE PUSH1 0x41 PUSH1 0x4 MSTORE PUSH1 0x24 DUP10 REVERT JUMPDEST ADD MLOAD SWAP1 POP PUSH0 DUP1 PUSH2 0x313 JUMP JUMPDEST PUSH0 MLOAD PUSH1 0x20 PUSH2 0x24A0 PUSH0 CODECOPY PUSH0 MLOAD SWAP1 PUSH0 MSTORE DUP13 MSTORE PUSH0 MLOAD PUSH1 0x20 PUSH2 0x2540 PUSH0 CODECOPY PUSH0 MLOAD SWAP1 PUSH0 MSTORE SWAP3 POP PUSH1 0x1F NOT DUP5 AND DUP13 JUMPDEST DUP2 DUP2 LT PUSH2 0x645 JUMPI POP SWAP1 DUP5 PUSH1 0x1 SWAP6 SWAP5 SWAP4 SWAP3 LT PUSH2 0x62D JUMPI JUMPDEST POP POP POP DUP2 SHL ADD PUSH0 MLOAD PUSH1 0x20 PUSH2 0x24A0 PUSH0 CODECOPY PUSH0 MLOAD SWAP1 PUSH0 MSTORE SSTORE PUSH2 0x334 JUMP JUMPDEST ADD MLOAD PUSH0 NOT PUSH1 0xF8 DUP5 PUSH1 0x3 SHL AND SHR NOT AND SWAP1 SSTORE PUSH0 DUP1 DUP1 PUSH2 0x613 JUMP JUMPDEST SWAP3 SWAP4 PUSH1 0x20 PUSH1 0x1 DUP2 SWAP3 DUP8 DUP7 ADD MLOAD DUP2 SSTORE ADD SWAP6 ADD SWAP4 ADD PUSH2 0x5FD JUMP JUMPDEST SWAP1 SWAP2 POP PUSH0 MLOAD PUSH1 0x20 PUSH2 0x24A0 PUSH0 CODECOPY PUSH0 MLOAD SWAP1 PUSH0 MSTORE DUP12 MSTORE PUSH1 0x1F DUP4 ADD PUSH1 0x5 SHR PUSH0 MLOAD PUSH1 0x20 PUSH2 0x2540 PUSH0 CODECOPY PUSH0 MLOAD SWAP1 PUSH0 MSTORE ADD SWAP1 PUSH1 0x20 DUP5 LT PUSH2 0x6C6 JUMPI JUMPDEST SWAP1 PUSH1 0x1F DUP5 SWAP4 SWAP3 ADD PUSH1 0x5 SHR PUSH0 MLOAD PUSH1 0x20 PUSH2 0x2540 PUSH0 CODECOPY PUSH0 MLOAD SWAP1 PUSH0 MSTORE ADD SWAP1 JUMPDEST DUP2 DUP2 LT PUSH2 0x6B8 JUMPI POP PUSH2 0x2FD JUMP JUMPDEST DUP13 DUP2 SSTORE DUP5 SWAP4 POP PUSH1 0x1 ADD PUSH2 0x6AB JUMP JUMPDEST PUSH0 MLOAD PUSH1 0x20 PUSH2 0x2540 PUSH0 CODECOPY PUSH0 MLOAD SWAP1 PUSH0 MSTORE SWAP2 POP PUSH2 0x690 JUMP JUMPDEST PUSH4 0x4E487B71 PUSH1 0xE0 SHL DUP11 MSTORE PUSH1 0x41 PUSH1 0x4 MSTORE PUSH1 0x24 DUP11 REVERT JUMPDEST PUSH9 0xFFFFFFFFFFFFFFFFFF NOT AND PUSH9 0x10000000000000001 OR PUSH0 MLOAD PUSH1 0x20 PUSH2 0x2500 PUSH0 CODECOPY PUSH0 MLOAD SWAP1 PUSH0 MSTORE SSTORE PUSH0 PUSH2 0x26B JUMP JUMPDEST PUSH4 0xF92EE8A9 PUSH1 0xE0 SHL DUP8 MSTORE PUSH1 0x4 DUP8 REVERT JUMPDEST SWAP1 POP ISZERO PUSH0 PUSH2 0x242 JUMP JUMPDEST ADDRESS EXTCODESIZE ISZERO SWAP2 POP PUSH2 0x23A JUMP JUMPDEST DUP7 SWAP2 POP PUSH2 0x230 JUMP JUMPDEST PUSH0 DUP1 REVERT JUMPDEST POP CALLVALUE PUSH2 0x198 JUMPI PUSH1 0x20 CALLDATASIZE PUSH1 0x3 NOT ADD SLT PUSH2 0x198 JUMPI PUSH2 0x76E PUSH2 0x766 PUSH2 0x1D33 JUMP JUMPDEST PUSH2 0x3B4 PUSH2 0x23A9 JUMP JUMPDEST DUP1 RETURN JUMPDEST POP CALLVALUE PUSH2 0x198 JUMPI PUSH1 0x40 CALLDATASIZE PUSH1 0x3 NOT ADD SLT PUSH2 0x198 JUMPI PUSH2 0x78B PUSH2 0x1D33 JUMP JUMPDEST PUSH2 0x79C PUSH2 0x796 PUSH2 0x1D49 JUMP JUMPDEST SWAP2 PUSH2 0x2174 JUMP JUMPDEST SWAP1 PUSH1 0x1 DUP1 PUSH1 0xA0 SHL SUB AND PUSH0 MSTORE PUSH1 0x20 MSTORE PUSH1 0x20 PUSH1 0xFF PUSH1 0x40 PUSH0 KECCAK256 SLOAD AND PUSH1 0x40 MLOAD SWAP1 ISZERO ISZERO DUP2 MSTORE RETURN JUMPDEST POP CALLVALUE PUSH2 0x198 JUMPI PUSH1 0x20 CALLDATASIZE PUSH1 0x3 NOT ADD SLT PUSH2 0x198 JUMPI PUSH1 0x40 PUSH2 0x200 SWAP2 PUSH1 0x4 CALLDATALOAD DUP2 MSTORE PUSH1 0x5 PUSH1 0x20 MSTORE KECCAK256 DUP1 SLOAD SWAP1 PUSH1 0xFF DUP3 PUSH1 0xA0 SHR AND SWAP1 PUSH1 0x1 DUP2 ADD SLOAD PUSH1 0xFF PUSH1 0x2 DUP4 ADD SLOAD PUSH1 0x3 DUP5 ADD SLOAD PUSH1 0x4 DUP6 ADD SLOAD PUSH1 0x5 DUP7 ADD SLOAD PUSH1 0x6 DUP8 ADD SLOAD SWAP2 PUSH1 0x7 DUP9 ADD SLOAD SWAP4 PUSH1 0x8 DUP10 ADD SLOAD SWAP6 DUP8 DUP8 PUSH1 0x20 SHR AND SWAP9 PUSH1 0xA PUSH1 0x9 DUP13 ADD SLOAD SWAP12 ADD SLOAD SWAP12 PUSH1 0x20 PUSH1 0x40 MLOAD SWAP15 DUP16 SWAP1 PUSH1 0x1 DUP1 PUSH1 0xA0 SHL SUB AND DUP2 MSTORE PUSH2 0x846 DUP4 PUSH2 0x1E0F JUMP JUMPDEST ADD MSTORE PUSH1 0x40 DUP14 ADD MSTORE PUSH1 0x60 DUP13 ADD MSTORE PUSH1 0x80 DUP12 ADD MSTORE PUSH1 0xA0 DUP11 ADD MSTORE PUSH1 0xC0 DUP10 ADD MSTORE PUSH1 0xE0 DUP9 ADD MSTORE PUSH2 0x100 DUP8 ADD MSTORE DUP2 DUP2 AND PUSH2 0x120 DUP8 ADD MSTORE DUP2 DUP2 PUSH1 0x8 SHR AND ISZERO ISZERO PUSH2 0x140 DUP8 ADD MSTORE DUP2 DUP2 PUSH1 0x10 SHR AND ISZERO ISZERO PUSH2 0x160 DUP8 ADD MSTORE PUSH1 0x18 SHR AND ISZERO ISZERO PUSH2 0x180 DUP6 ADD MSTORE PUSH2 0x8A6 DUP2 PUSH2 0x1E0F JUMP JUMPDEST PUSH2 0x1A0 DUP5 ADD MSTORE PUSH2 0x1C0 DUP4 ADD MSTORE PUSH2 0x1E0 DUP3 ADD MSTORE RETURN JUMPDEST POP CALLVALUE PUSH2 0x198 JUMPI DUP1 PUSH1 0x3 NOT CALLDATASIZE ADD SLT PUSH2 0x198 JUMPI PUSH1 0x20 PUSH1 0x4 SLOAD PUSH1 0x40 MLOAD SWAP1 DUP2 MSTORE RETURN JUMPDEST POP CALLVALUE PUSH2 0x198 JUMPI PUSH1 0x20 CALLDATASIZE PUSH1 0x3 NOT ADD SLT PUSH2 0x198 JUMPI PUSH2 0x8F5 PUSH1 0x4 CALLDATALOAD PUSH2 0x23DC JUMP JUMPDEST POP DUP1 PUSH1 0x40 MLOAD PUSH2 0x905 PUSH1 0x20 DUP3 PUSH2 0x1DBD JUMP JUMPDEST MSTORE POP PUSH2 0x92F PUSH1 0x40 MLOAD PUSH2 0x918 PUSH1 0x20 DUP3 PUSH2 0x1DBD JUMP JUMPDEST PUSH0 DUP2 MSTORE PUSH1 0x40 MLOAD SWAP2 DUP3 SWAP2 PUSH1 0x20 DUP4 MSTORE PUSH1 0x20 DUP4 ADD SWAP1 PUSH2 0x1D5F JUMP JUMPDEST SUB SWAP1 RETURN JUMPDEST POP CALLVALUE PUSH2 0x198 JUMPI PUSH1 0x80 CALLDATASIZE PUSH1 0x3 NOT ADD SLT PUSH2 0x198 JUMPI PUSH2 0x94D PUSH2 0x1D33 JUMP JUMPDEST PUSH2 0x955 PUSH2 0x1D49 JUMP JUMPDEST SWAP1 PUSH1 0x64 CALLDATALOAD SWAP1 PUSH8 0xFFFFFFFFFFFFFFFF DUP3 GT PUSH2 0x9C1 JUMPI CALLDATASIZE PUSH1 0x23 DUP4 ADD SLT ISZERO PUSH2 0x9C1 JUMPI DUP2 PUSH1 0x4 ADD CALLDATALOAD SWAP3 DUP5 PUSH2 0x984 DUP6 PUSH2 0x1DF3 JUMP JUMPDEST SWAP4 PUSH2 0x992 PUSH1 0x40 MLOAD SWAP6 DUP7 PUSH2 0x1DBD JUMP JUMPDEST DUP6 DUP6 MSTORE CALLDATASIZE PUSH1 0x24 DUP8 DUP4 ADD ADD GT PUSH2 0x9BD JUMPI DUP6 PUSH2 0x76E SWAP7 PUSH1 0x24 PUSH1 0x20 SWAP4 ADD DUP4 DUP9 ADD CALLDATACOPY DUP6 ADD ADD MSTORE PUSH1 0x44 CALLDATALOAD SWAP2 PUSH2 0x21F8 JUMP JUMPDEST POP DUP1 REVERT JUMPDEST DUP4 DUP1 REVERT JUMPDEST POP CALLVALUE PUSH2 0x198 JUMPI PUSH1 0x40 CALLDATASIZE PUSH1 0x3 NOT ADD SLT PUSH2 0x198 JUMPI PUSH2 0x9DF PUSH2 0x1D33 JUMP JUMPDEST PUSH1 0x24 CALLDATALOAD SWAP1 DUP2 ISZERO ISZERO DUP1 SWAP3 SUB PUSH2 0xA7A JUMPI CALLER ISZERO PUSH2 0xA66 JUMPI PUSH1 0x1 PUSH1 0x1 PUSH1 0xA0 SHL SUB AND SWAP1 DUP2 ISZERO PUSH2 0xA52 JUMPI PUSH2 0xA0C CALLER PUSH2 0x2174 JUMP JUMPDEST DUP3 PUSH0 MSTORE PUSH1 0x20 MSTORE PUSH1 0x40 PUSH0 KECCAK256 PUSH1 0xFF NOT DUP2 SLOAD AND PUSH1 0xFF DUP4 AND OR SWAP1 SSTORE PUSH1 0x40 MLOAD SWAP1 DUP2 MSTORE PUSH32 0x17307EAB39AB6107E8899845AD3D59BD9653F200F220920489CA2B5937696C31 PUSH1 0x20 CALLER SWAP3 LOG3 DUP1 RETURN JUMPDEST PUSH4 0xB611743 PUSH1 0xE3 SHL DUP4 MSTORE PUSH1 0x4 DUP3 SWAP1 MSTORE PUSH1 0x24 DUP4 REVERT JUMPDEST PUSH4 0xA9FBF51F PUSH1 0xE0 SHL DUP4 MSTORE PUSH1 0x4 DUP4 SWAP1 MSTORE PUSH1 0x24 DUP4 REVERT JUMPDEST DUP3 DUP1 REVERT JUMPDEST POP CALLVALUE PUSH2 0x198 JUMPI DUP1 PUSH1 0x3 NOT CALLDATASIZE ADD SLT PUSH2 0x198 JUMPI PUSH1 0x40 MLOAD SWAP1 DUP1 PUSH0 MLOAD PUSH1 0x20 PUSH2 0x2520 PUSH0 CODECOPY PUSH0 MLOAD SWAP1 PUSH0 MSTORE SLOAD SWAP1 PUSH2 0xAAD DUP3 PUSH2 0x1E2D JUMP JUMPDEST DUP1 DUP6 MSTORE SWAP2 PUSH1 0x1 DUP2 AND SWAP1 DUP2 ISZERO PUSH2 0xB52 JUMPI POP PUSH1 0x1 EQ PUSH2 0xAE9 JUMPI JUMPDEST PUSH2 0x92F DUP5 PUSH2 0xAD5 DUP2 DUP7 SUB DUP3 PUSH2 0x1DBD JUMP JUMPDEST PUSH1 0x40 MLOAD SWAP2 DUP3 SWAP2 PUSH1 0x20 DUP4 MSTORE PUSH1 0x20 DUP4 ADD SWAP1 PUSH2 0x1D5F JUMP JUMPDEST PUSH0 MLOAD PUSH1 0x20 PUSH2 0x2520 PUSH0 CODECOPY PUSH0 MLOAD SWAP1 PUSH0 MSTORE DUP2 MSTORE PUSH32 0xF4BAD0A69248F59680A4F2B3000328CEC71A413447C96781CFE5996DAA8C456E SWAP4 SWAP3 POP SWAP1 JUMPDEST DUP1 DUP3 LT PUSH2 0xB38 JUMPI POP SWAP1 SWAP2 POP DUP2 ADD PUSH1 0x20 ADD PUSH2 0xAD5 DUP3 PUSH2 0xAC5 JUMP JUMPDEST SWAP2 SWAP3 PUSH1 0x1 DUP2 PUSH1 0x20 SWAP3 SLOAD DUP4 DUP6 DUP9 ADD ADD MSTORE ADD SWAP2 ADD SWAP1 SWAP3 SWAP2 PUSH2 0xB1F JUMP JUMPDEST PUSH1 0xFF NOT AND PUSH1 0x20 DUP1 DUP8 ADD SWAP2 SWAP1 SWAP2 MSTORE SWAP3 ISZERO ISZERO PUSH1 0x5 SHL DUP6 ADD SWAP1 SWAP3 ADD SWAP3 POP PUSH2 0xAD5 SWAP2 POP DUP4 SWAP1 POP PUSH2 0xAC5 JUMP JUMPDEST POP CALLVALUE PUSH2 0x198 JUMPI DUP1 PUSH1 0x3 NOT CALLDATASIZE ADD SLT PUSH2 0x198 JUMPI PUSH0 MLOAD PUSH1 0x20 PUSH2 0x24C0 PUSH0 CODECOPY PUSH0 MLOAD SWAP1 PUSH0 MSTORE SLOAD PUSH1 0x40 MLOAD PUSH1 0x1 PUSH1 0x1 PUSH1 0xA0 SHL SUB SWAP1 SWAP2 AND DUP2 MSTORE PUSH1 0x20 SWAP1 RETURN JUMPDEST POP CALLVALUE PUSH2 0x198 JUMPI PUSH1 0x20 CALLDATASIZE PUSH1 0x3 NOT ADD SLT PUSH2 0x198 JUMPI PUSH1 0x4 CALLDATALOAD PUSH2 0xBD1 PUSH1 0x2 DUP4 SLOAD EQ ISZERO PUSH2 0x21AC JUMP JUMPDEST PUSH1 0x2 DUP3 SSTORE PUSH2 0xBE4 PUSH1 0xFF PUSH1 0x1 SLOAD AND ISZERO PUSH2 0x1E65 JUMP JUMPDEST PUSH2 0xBED DUP2 PUSH2 0x23DC JUMP JUMPDEST CALLER PUSH1 0x1 PUSH1 0x1 PUSH1 0xA0 SHL SUB SWAP1 SWAP2 AND SUB PUSH2 0xE1D JUMPI DUP1 DUP3 MSTORE PUSH1 0x5 PUSH1 0x20 MSTORE PUSH1 0x40 DUP3 KECCAK256 SWAP1 PUSH1 0x8 DUP3 ADD SWAP2 DUP3 SLOAD PUSH2 0xC21 PUSH1 0xFF DUP3 PUSH1 0x8 SHR AND PUSH2 0x1EA4 JUMP JUMPDEST PUSH1 0xFF DUP2 PUSH1 0x10 SHR AND PUSH2 0xDD8 JUMPI PUSH1 0xFF DUP2 PUSH1 0x18 SHR AND ISZERO PUSH2 0xD93 JUMPI PUSH1 0xFF DUP2 PUSH1 0x20 SHR AND PUSH2 0xC48 DUP2 PUSH2 0x1E0F JUMP JUMPDEST ISZERO PUSH2 0xD4E JUMPI PUSH3 0x10000 SWAP1 PUSH3 0xFFFF00 NOT AND OR SWAP1 DUP2 DUP5 SSTORE DUP5 PUSH1 0x3 DUP3 ADD SLOAD SWAP3 PUSH1 0x1 PUSH1 0xFF DUP6 SWAP3 PUSH1 0x20 SHR AND PUSH2 0xC77 DUP2 PUSH2 0x1E0F JUMP JUMPDEST EQ PUSH2 0xD44 JUMPI JUMPDEST PUSH1 0x3 SLOAD DUP4 SLOAD PUSH1 0x1 PUSH1 0x1 PUSH1 0xA0 SHL SUB SWAP2 DUP3 AND SWAP3 SWAP2 AND SWAP1 DUP3 EXTCODESIZE ISZERO PUSH2 0x9C1 JUMPI PUSH1 0x64 DUP5 SWAP3 DUP4 PUSH1 0x40 MLOAD SWAP6 DUP7 SWAP5 DUP6 SWAP4 PUSH4 0x258F6CB PUSH1 0xE1 SHL DUP6 MSTORE PUSH1 0x4 DUP6 ADD MSTORE DUP11 PUSH1 0x24 DUP6 ADD MSTORE PUSH1 0x44 DUP5 ADD MSTORE GAS CALL DUP1 ISZERO PUSH2 0xD39 JUMPI PUSH2 0xD20 JUMPI JUMPDEST POP POP PUSH32 0xEF4040F84A7E4FA3B292A9B9057D33B14470726F672FBFEB4A552945B1345E9E SWAP2 PUSH1 0xFF PUSH1 0x40 SWAP3 PUSH1 0x1 DUP1 PUSH1 0xA0 SHL SUB SWAP1 SLOAD AND SWAP6 SLOAD PUSH1 0x20 SHR AND DUP3 MLOAD SWAP2 DUP3 MSTORE PUSH2 0xD13 DUP2 PUSH2 0x1E0F JUMP JUMPDEST PUSH1 0x20 DUP3 ADD MSTORE LOG3 PUSH1 0x1 DUP2 SSTORE DUP1 RETURN JUMPDEST DUP2 PUSH2 0xD2A SWAP2 PUSH2 0x1DBD JUMP JUMPDEST PUSH2 0xD35 JUMPI DUP5 PUSH0 PUSH2 0xCCC JUMP JUMPDEST DUP5 DUP1 REVERT JUMPDEST PUSH1 0x40 MLOAD RETURNDATASIZE DUP5 DUP3 RETURNDATACOPY RETURNDATASIZE SWAP1 REVERT JUMPDEST SWAP3 PUSH1 0x1 SHR SWAP3 PUSH2 0xC7D JUMP JUMPDEST PUSH1 0x40 MLOAD PUSH3 0x461BCD PUSH1 0xE5 SHL DUP2 MSTORE PUSH1 0x20 PUSH1 0x4 DUP3 ADD MSTORE PUSH1 0x1C PUSH1 0x24 DUP3 ADD MSTORE PUSH32 0x506F6C6963795661756C743A206E6F2073657665726974792073657400000000 PUSH1 0x44 DUP3 ADD MSTORE PUSH1 0x64 SWAP1 REVERT JUMPDEST PUSH1 0x40 MLOAD PUSH3 0x461BCD PUSH1 0xE5 SHL DUP2 MSTORE PUSH1 0x20 PUSH1 0x4 DUP3 ADD MSTORE PUSH1 0x1A PUSH1 0x24 DUP3 ADD MSTORE PUSH32 0x506F6C6963795661756C743A206E6F7420636C61696D61626C65000000000000 PUSH1 0x44 DUP3 ADD MSTORE PUSH1 0x64 SWAP1 REVERT JUMPDEST PUSH1 0x40 MLOAD PUSH3 0x461BCD PUSH1 0xE5 SHL DUP2 MSTORE PUSH1 0x20 PUSH1 0x4 DUP3 ADD MSTORE PUSH1 0x1C PUSH1 0x24 DUP3 ADD MSTORE PUSH32 0x506F6C6963795661756C743A20616C726561647920636C61696D656400000000 PUSH1 0x44 DUP3 ADD MSTORE PUSH1 0x64 SWAP1 REVERT JUMPDEST PUSH1 0x40 MLOAD PUSH3 0x461BCD PUSH1 0xE5 SHL DUP2 MSTORE PUSH1 0x20 PUSH1 0x4 DUP3 ADD MSTORE PUSH1 0x25 PUSH1 0x24 DUP3 ADD MSTORE PUSH32 0x506F6C6963795661756C743A204F6E6C79204E4654206F776E65722063616E20 PUSH1 0x44 DUP3 ADD MSTORE PUSH5 0x636C61696D PUSH1 0xD8 SHL PUSH1 0x64 DUP3 ADD MSTORE PUSH1 0x84 SWAP1 REVERT JUMPDEST POP CALLVALUE PUSH2 0x198 JUMPI DUP1 PUSH1 0x3 NOT CALLDATASIZE ADD SLT PUSH2 0x198 JUMPI PUSH2 0xE89 PUSH2 0x23A9 JUMP JUMPDEST PUSH1 0x1 PUSH1 0xFF NOT DUP2 SLOAD AND OR PUSH1 0x1 SSTORE DUP1 RETURN JUMPDEST POP CALLVALUE PUSH2 0x198 JUMPI PUSH1 0xC0 CALLDATASIZE PUSH1 0x3 NOT ADD SLT PUSH2 0x198 JUMPI PUSH2 0xEB8 PUSH1 0x2 DUP3 SLOAD EQ ISZERO PUSH2 0x21AC JUMP JUMPDEST PUSH1 0x2 DUP2 SSTORE PUSH1 0x1 SLOAD PUSH2 0xECC PUSH1 0xFF DUP3 AND ISZERO PUSH2 0x1E65 JUMP JUMPDEST PUSH1 0x24 CALLDATALOAD SWAP1 DUP2 ISZERO PUSH2 0x14BC JUMPI PUSH1 0x84 CALLDATALOAD DUP1 ISZERO PUSH2 0x1477 JUMPI PUSH4 0x3B9ACA00 DUP4 MUL DUP4 DUP2 DIV PUSH4 0x3B9ACA00 SUB PUSH2 0x1463 JUMPI PUSH1 0x4 CALLDATALOAD SWAP4 PUSH1 0x3 DUP6 LT ISZERO PUSH2 0x145F JUMPI PUSH2 0xF09 DUP6 PUSH2 0x240B JUMP JUMPDEST PUSH1 0x2 SLOAD PUSH1 0x40 MLOAD PUSH4 0x30710F1 PUSH1 0xE5 SHL DUP2 MSTORE PUSH1 0xA4 CALLDATALOAD PUSH1 0x4 DUP3 ADD MSTORE SWAP1 PUSH1 0x60 SWAP1 DUP3 SWAP1 PUSH1 0x24 SWAP1 DUP3 SWAP1 PUSH1 0x1 PUSH1 0x1 PUSH1 0xA0 SHL SUB AND GAS STATICCALL SWAP1 DUP2 ISZERO PUSH2 0x1454 JUMPI PUSH3 0xF4240 SWAP3 PUSH2 0xF72 SWAP3 DUP11 SWAP3 DUP12 SWAP2 PUSH2 0x141E JUMPI JUMPDEST POP PUSH2 0xF5D DUP2 SWAP4 ISZERO ISZERO PUSH2 0x1F03 JUMP JUMPDEST ISZERO PUSH2 0x1415 JUMPI JUMPDEST PUSH2 0xF6D SWAP1 DUP7 PUSH2 0x1F4F JUMP JUMPDEST PUSH2 0x1F4F JUMP JUMPDEST DIV SWAP3 PUSH1 0x4 SLOAD SWAP5 PUSH0 NOT DUP7 EQ PUSH2 0x1401 JUMPI PUSH1 0x1 DUP7 ADD PUSH1 0x4 SWAP1 DUP2 SSTORE PUSH1 0x40 MLOAD PUSH4 0x23B872DD PUSH1 0xE0 SHL DUP11 MSTORE CALLER SWAP1 SWAP2 MSTORE ADDRESS PUSH1 0x24 MSTORE PUSH1 0x44 DUP7 SWAP1 MSTORE SWAP1 PUSH1 0x8 SHR PUSH1 0x1 PUSH1 0x1 PUSH1 0xA0 SHL SUB AND PUSH1 0x20 DUP10 PUSH1 0x64 DUP2 DUP1 DUP6 GAS CALL PUSH1 0x1 DUP11 MLOAD EQ DUP2 AND ISZERO PUSH2 0x13EB JUMPI JUMPDEST DUP3 PUSH1 0x40 MSTORE DUP10 PUSH1 0x60 MSTORE ISZERO PUSH2 0x13BA JUMPI POP PUSH1 0x1 SLOAD PUSH1 0x3 SLOAD PUSH4 0xA9059CBB PUSH1 0xE0 SHL DUP11 MSTORE PUSH1 0x1 PUSH1 0x1 PUSH1 0xA0 SHL SUB SWAP1 DUP2 AND PUSH1 0x4 MSTORE PUSH1 0x24 DUP8 SWAP1 MSTORE PUSH1 0x8 SWAP2 SWAP1 SWAP2 SHR AND PUSH1 0x20 DUP10 PUSH1 0x44 DUP2 DUP1 DUP6 GAS CALL PUSH1 0x1 DUP11 MLOAD EQ DUP2 AND ISZERO PUSH2 0x13CC JUMPI JUMPDEST DUP3 PUSH1 0x40 MSTORE ISZERO PUSH2 0x13BA JUMPI POP PUSH1 0x3 SLOAD DUP9 SWAP2 SWAP1 PUSH1 0x1 PUSH1 0x1 PUSH1 0xA0 SHL SUB AND DUP1 EXTCODESIZE ISZERO PUSH2 0xA7A JUMPI DUP2 PUSH1 0x24 DUP2 DUP6 DUP1 SWAP5 PUSH4 0x43570BE7 PUSH1 0xE0 SHL DUP4 MSTORE DUP11 PUSH1 0x4 DUP5 ADD MSTORE GAS CALL DUP1 ISZERO PUSH2 0xD39 JUMPI PUSH2 0x13A1 JUMPI JUMPDEST POP POP TIMESTAMP ADD DUP1 TIMESTAMP GT PUSH2 0x138D JUMPI PUSH1 0x40 MLOAD SWAP1 PUSH2 0x200 DUP3 ADD DUP3 DUP2 LT PUSH8 0xFFFFFFFFFFFFFFFF DUP3 GT OR PUSH2 0x5B7 JUMPI PUSH1 0x40 MSTORE CALLER DUP3 MSTORE PUSH2 0x1090 DUP8 PUSH2 0x1E0F JUMP JUMPDEST DUP7 PUSH1 0x20 DUP4 ADD MSTORE DUP3 PUSH1 0x40 DUP4 ADD MSTORE DUP5 PUSH1 0x60 DUP4 ADD MSTORE DUP4 PUSH1 0x80 DUP4 ADD MSTORE TIMESTAMP PUSH1 0xA0 DUP4 ADD MSTORE PUSH1 0xC0 DUP3 ADD MSTORE PUSH1 0x44 CALLDATALOAD PUSH1 0xE0 DUP3 ADD MSTORE PUSH1 0x64 CALLDATALOAD PUSH2 0x100 DUP3 ADD MSTORE PUSH1 0x46 PUSH2 0x120 DUP3 ADD MSTORE PUSH1 0x1 PUSH2 0x140 DUP3 ADD MSTORE DUP7 PUSH2 0x160 DUP3 ADD MSTORE DUP7 PUSH2 0x180 DUP3 ADD MSTORE DUP7 PUSH2 0x1A0 DUP3 ADD MSTORE PUSH1 0xA4 CALLDATALOAD PUSH2 0x1C0 DUP3 ADD MSTORE DUP7 PUSH2 0x1E0 DUP3 ADD MSTORE DUP5 DUP8 MSTORE PUSH1 0x5 PUSH1 0x20 MSTORE PUSH1 0xA PUSH2 0x1E0 PUSH1 0x40 DUP10 KECCAK256 SWAP3 PUSH1 0x1 DUP1 PUSH1 0xA0 SHL SUB PUSH1 0x1 DUP1 PUSH1 0xA0 SHL SUB DUP3 MLOAD AND AND PUSH1 0x1 PUSH1 0x1 PUSH1 0x60 SHL SUB PUSH1 0xA0 SHL DUP6 SLOAD AND OR DUP5 SSTORE PUSH1 0x20 DUP2 ADD MLOAD PUSH2 0x113C DUP2 PUSH2 0x1E0F JUMP JUMPDEST PUSH2 0x1145 DUP2 PUSH2 0x1E0F JUMP JUMPDEST DUP5 SLOAD PUSH1 0xFF PUSH1 0xA0 SHL NOT AND PUSH1 0xA0 SWAP2 DUP3 SHL PUSH1 0xFF PUSH1 0xA0 SHL AND OR DUP6 SSTORE PUSH1 0x40 DUP3 ADD MLOAD PUSH1 0x1 DUP7 ADD SSTORE PUSH1 0x60 DUP3 ADD MLOAD PUSH1 0x2 DUP7 ADD SSTORE PUSH1 0x80 DUP3 ADD MLOAD PUSH1 0x3 DUP7 ADD SSTORE DUP2 ADD MLOAD PUSH1 0x4 DUP6 ADD SSTORE PUSH1 0xC0 DUP2 ADD MLOAD PUSH1 0x5 DUP6 ADD SSTORE PUSH1 0xE0 DUP2 ADD MLOAD PUSH1 0x6 DUP6 ADD SSTORE PUSH2 0x100 DUP2 ADD MLOAD PUSH1 0x7 DUP6 ADD SSTORE PUSH2 0x120 DUP2 ADD MLOAD PUSH1 0x8 DUP1 DUP7 ADD DUP1 SLOAD PUSH2 0x140 DUP6 ADD MLOAD PUSH2 0x160 DUP7 ADD MLOAD PUSH2 0x180 DUP8 ADD MLOAD PUSH4 0xFFFFFFFF NOT SWAP1 SWAP4 AND PUSH1 0xFF SWAP7 SWAP1 SWAP7 AND SWAP6 SWAP1 SWAP6 OR SWAP1 ISZERO ISZERO SWAP1 SWAP4 SHL PUSH2 0xFF00 AND SWAP3 SWAP1 SWAP3 OR SWAP3 ISZERO ISZERO PUSH1 0x10 SHL PUSH3 0xFF0000 AND SWAP3 SWAP1 SWAP3 OR SWAP1 ISZERO ISZERO PUSH1 0x18 SHL PUSH4 0xFF000000 AND OR DUP2 SSTORE PUSH2 0x1A0 DUP3 ADD MLOAD PUSH2 0x120E DUP2 PUSH2 0x1E0F JUMP JUMPDEST PUSH2 0x1217 DUP2 PUSH2 0x1E0F JUMP JUMPDEST PUSH5 0xFF00000000 DUP3 SLOAD SWAP2 PUSH1 0x20 SHL AND SWAP1 PUSH5 0xFF00000000 NOT AND OR SWAP1 SSTORE PUSH2 0x1C0 DUP2 ADD MLOAD PUSH1 0x9 DUP6 ADD SSTORE ADD MLOAD SWAP2 ADD SSTORE CALLER ISZERO PUSH2 0x1379 JUMPI PUSH2 0x124F DUP5 PUSH2 0x243B JUMP JUMPDEST PUSH1 0x1 PUSH1 0x1 PUSH1 0xA0 SHL SUB DUP2 AND DUP1 ISZERO ISZERO SWAP2 SWAP1 DUP7 SWAP1 DUP4 PUSH2 0x133D JUMPI JUMPDEST PUSH2 0x126F CALLER PUSH2 0x213C JUMP JUMPDEST DUP1 SLOAD PUSH1 0x1 ADD SWAP1 SSTORE DUP2 DUP11 MSTORE PUSH32 0x80BB2B638CC20BC4D0A60D66940F3AB4A00C1D7B313497CA82FB0B4AB0079302 PUSH1 0x20 MSTORE PUSH1 0x40 DUP11 KECCAK256 DUP1 SLOAD PUSH1 0x1 PUSH1 0x1 PUSH1 0xA0 SHL SUB NOT AND CALLER SWAP1 DUP2 OR SWAP1 SWAP2 SSTORE SWAP1 PUSH32 0xDDF252AD1BE2C89B69C2B068FC378DAA952BA7F163C4A11628F55A4DF523B3EF DUP12 DUP1 LOG4 POP PUSH2 0x1329 JUMPI PUSH1 0x40 MLOAD SWAP5 PUSH2 0x12EB DUP2 PUSH2 0x1E0F JUMP JUMPDEST DUP6 MSTORE PUSH1 0x20 DUP6 ADD MSTORE PUSH1 0x40 DUP5 ADD MSTORE PUSH1 0x60 DUP4 ADD MSTORE PUSH32 0x4922CC4BA5AF57C06C26D02E17D09964049EFE7919E9BBA1118CB09AA33CFC98 PUSH1 0x80 CALLER SWAP4 LOG3 PUSH1 0x1 DUP2 SSTORE DUP1 RETURN JUMPDEST PUSH4 0x39E35637 PUSH1 0xE1 SHL DUP7 MSTORE PUSH1 0x4 DUP7 SWAP1 MSTORE PUSH1 0x24 DUP7 REVERT JUMPDEST PUSH0 DUP3 DUP2 MSTORE PUSH0 MLOAD PUSH1 0x20 PUSH2 0x24E0 PUSH0 CODECOPY PUSH0 MLOAD SWAP1 PUSH0 MSTORE PUSH1 0x20 MSTORE PUSH1 0x40 SWAP1 KECCAK256 DUP1 SLOAD PUSH1 0x1 PUSH1 0x1 PUSH1 0xA0 SHL SUB NOT AND SWAP1 SSTORE PUSH2 0x136D DUP4 PUSH2 0x213C JUMP JUMPDEST DUP1 SLOAD PUSH0 NOT ADD SWAP1 SSTORE PUSH2 0x1266 JUMP JUMPDEST PUSH4 0x32505749 PUSH1 0xE1 SHL DUP7 MSTORE PUSH1 0x4 DUP7 SWAP1 MSTORE PUSH1 0x24 DUP7 REVERT JUMPDEST PUSH4 0x4E487B71 PUSH1 0xE0 SHL DUP8 MSTORE PUSH1 0x11 PUSH1 0x4 MSTORE PUSH1 0x24 DUP8 REVERT JUMPDEST DUP2 PUSH2 0x13AB SWAP2 PUSH2 0x1DBD JUMP JUMPDEST PUSH2 0x13B6 JUMPI DUP7 PUSH0 PUSH2 0x105A JUMP JUMPDEST DUP7 DUP1 REVERT JUMPDEST PUSH4 0x5274AFE7 PUSH1 0xE0 SHL DUP10 MSTORE PUSH1 0x4 MSTORE PUSH1 0x24 DUP9 REVERT JUMPDEST PUSH1 0x1 DUP2 ISZERO AND PUSH2 0x13E2 JUMPI DUP2 EXTCODESIZE ISZERO ISZERO RETURNDATASIZE ISZERO AND AND PUSH2 0x1016 JUMP JUMPDEST DUP3 RETURNDATASIZE DUP12 DUP3 RETURNDATACOPY RETURNDATASIZE SWAP1 REVERT JUMPDEST PUSH1 0x1 DUP2 ISZERO AND PUSH2 0x13E2 JUMPI DUP2 EXTCODESIZE ISZERO ISZERO RETURNDATASIZE ISZERO AND AND PUSH2 0xFC7 JUMP JUMPDEST PUSH4 0x4E487B71 PUSH1 0xE0 SHL DUP9 MSTORE PUSH1 0x11 PUSH1 0x4 MSTORE PUSH1 0x24 DUP9 REVERT JUMPDEST PUSH1 0x64 SWAP2 POP PUSH2 0xF63 JUMP JUMPDEST SWAP1 POP PUSH2 0x1443 SWAP2 SWAP3 POP PUSH1 0x60 RETURNDATASIZE PUSH1 0x60 GT PUSH2 0x144D JUMPI JUMPDEST PUSH2 0x143B DUP2 DUP4 PUSH2 0x1DBD JUMP JUMPDEST DUP2 ADD SWAP1 PUSH2 0x1EE8 JUMP JUMPDEST SWAP3 SWAP2 POP SWAP2 PUSH0 PUSH2 0xF50 JUMP JUMPDEST POP RETURNDATASIZE PUSH2 0x1431 JUMP JUMPDEST PUSH1 0x40 MLOAD RETURNDATASIZE DUP11 DUP3 RETURNDATACOPY RETURNDATASIZE SWAP1 REVERT JUMPDEST DUP6 DUP1 REVERT JUMPDEST PUSH4 0x4E487B71 PUSH1 0xE0 SHL DUP6 MSTORE PUSH1 0x11 PUSH1 0x4 MSTORE PUSH1 0x24 DUP6 REVERT JUMPDEST PUSH1 0x40 MLOAD PUSH3 0x461BCD PUSH1 0xE5 SHL DUP2 MSTORE PUSH1 0x20 PUSH1 0x4 DUP3 ADD MSTORE PUSH1 0x17 PUSH1 0x24 DUP3 ADD MSTORE PUSH32 0x506F6C6963795661756C743A206475726174696F6E3D30000000000000000000 PUSH1 0x44 DUP3 ADD MSTORE PUSH1 0x64 SWAP1 REVERT JUMPDEST PUSH1 0x40 MLOAD PUSH3 0x461BCD PUSH1 0xE5 SHL DUP2 MSTORE PUSH1 0x20 PUSH1 0x4 DUP3 ADD MSTORE PUSH1 0x13 PUSH1 0x24 DUP3 ADD MSTORE PUSH19 0x506F6C6963795661756C743A2073697A653D3 PUSH1 0x6C SHL PUSH1 0x44 DUP3 ADD MSTORE PUSH1 0x64 SWAP1 REVERT JUMPDEST POP CALLVALUE PUSH2 0x198 JUMPI DUP1 PUSH1 0x3 NOT CALLDATASIZE ADD SLT PUSH2 0x198 JUMPI PUSH1 0x2 SLOAD PUSH1 0x40 MLOAD PUSH1 0x1 PUSH1 0x1 PUSH1 0xA0 SHL SUB SWAP1 SWAP2 AND DUP2 MSTORE PUSH1 0x20 SWAP1 RETURN JUMPDEST POP CALLVALUE PUSH2 0x198 JUMPI PUSH1 0x20 CALLDATASIZE PUSH1 0x3 NOT ADD SLT PUSH2 0x198 JUMPI PUSH2 0x153A PUSH2 0x1D33 JUMP JUMPDEST PUSH2 0x1542 PUSH2 0x23A9 JUMP JUMPDEST PUSH1 0x2 DUP1 SLOAD PUSH1 0x1 PUSH1 0x1 PUSH1 0xA0 SHL SUB NOT AND PUSH1 0x1 PUSH1 0x1 PUSH1 0xA0 SHL SUB SWAP3 SWAP1 SWAP3 AND SWAP2 DUP3 OR SWAP1 SSTORE PUSH32 0x3DF77BEB5DB05FCDD70A30FC8ADF3F83F9501B68579455ADBD100B8180940394 DUP3 DUP1 LOG2 DUP1 RETURN JUMPDEST POP CALLVALUE PUSH2 0x198 JUMPI DUP1 PUSH1 0x3 NOT CALLDATASIZE ADD SLT PUSH2 0x198 JUMPI PUSH2 0x15A1 PUSH2 0x23A9 JUMP JUMPDEST PUSH0 MLOAD PUSH1 0x20 PUSH2 0x24C0 PUSH0 CODECOPY PUSH0 MLOAD SWAP1 PUSH0 MSTORE DUP1 SLOAD PUSH1 0x1 PUSH1 0x1 PUSH1 0xA0 SHL SUB NOT DUP2 AND SWAP1 SWAP2 SSTORE DUP2 SWAP1 PUSH1 0x1 PUSH1 0x1 PUSH1 0xA0 SHL SUB AND PUSH32 0x8BE0079C531659141344CD1FD0A4F28419497F9722A3DAAFE3B4186F6B6457E0 DUP3 DUP1 LOG3 DUP1 RETURN JUMPDEST POP CALLVALUE PUSH2 0x198 JUMPI PUSH1 0x20 CALLDATASIZE PUSH1 0x3 NOT ADD SLT PUSH2 0x198 JUMPI PUSH2 0x160B PUSH2 0x1D33 JUMP JUMPDEST SWAP1 PUSH1 0x1 PUSH1 0x1 PUSH1 0xA0 SHL SUB DUP3 AND ISZERO PUSH2 0x162F JUMPI PUSH1 0x20 PUSH2 0x1626 DUP4 PUSH2 0x213C JUMP JUMPDEST SLOAD PUSH1 0x40 MLOAD SWAP1 DUP2 MSTORE RETURN JUMPDEST PUSH4 0x22718AD9 PUSH1 0xE2 SHL DUP2 MSTORE PUSH1 0x4 DUP2 SWAP1 MSTORE PUSH1 0x24 SWAP1 REVERT JUMPDEST POP CALLVALUE PUSH2 0x198 JUMPI DUP1 PUSH1 0x3 NOT CALLDATASIZE ADD SLT PUSH2 0x198 JUMPI PUSH1 0x3 SLOAD PUSH1 0x40 MLOAD PUSH1 0x1 PUSH1 0x1 PUSH1 0xA0 SHL SUB SWAP1 SWAP2 AND DUP2 MSTORE PUSH1 0x20 SWAP1 RETURN JUMPDEST POP CALLVALUE PUSH2 0x198 JUMPI PUSH1 0x20 CALLDATASIZE PUSH1 0x3 NOT ADD SLT PUSH2 0x198 JUMPI PUSH1 0x20 PUSH2 0x168B PUSH1 0x4 CALLDATALOAD PUSH2 0x23DC JUMP JUMPDEST PUSH1 0x40 MLOAD PUSH1 0x1 PUSH1 0x1 PUSH1 0xA0 SHL SUB SWAP1 SWAP2 AND DUP2 MSTORE RETURN JUMPDEST POP CALLVALUE PUSH2 0x198 JUMPI PUSH2 0x76E PUSH2 0x16AF CALLDATASIZE PUSH2 0x1D83 JUMP JUMPDEST SWAP1 PUSH1 0x40 MLOAD SWAP3 PUSH2 0x16BF PUSH1 0x20 DUP6 PUSH2 0x1DBD JUMP JUMPDEST DUP6 DUP5 MSTORE PUSH2 0x21F8 JUMP JUMPDEST POP CALLVALUE PUSH2 0x198 JUMPI DUP1 PUSH1 0x3 NOT CALLDATASIZE ADD SLT PUSH2 0x198 JUMPI PUSH2 0x16E0 PUSH2 0x23A9 JUMP JUMPDEST PUSH1 0xFF NOT PUSH1 0x1 SLOAD AND PUSH1 0x1 SSTORE DUP1 RETURN JUMPDEST POP CALLVALUE PUSH2 0x198 JUMPI DUP1 PUSH1 0x3 NOT CALLDATASIZE ADD SLT PUSH2 0x198 JUMPI PUSH1 0x1 SLOAD PUSH1 0x40 MLOAD PUSH1 0x8 SWAP2 SWAP1 SWAP2 SHR PUSH1 0x1 PUSH1 0x1 PUSH1 0xA0 SHL SUB AND DUP2 MSTORE PUSH1 0x20 SWAP1 RETURN JUMPDEST POP CALLVALUE PUSH2 0x745 JUMPI PUSH1 0x20 CALLDATASIZE PUSH1 0x3 NOT ADD SLT PUSH2 0x745 JUMPI PUSH1 0x4 CALLDATALOAD PUSH2 0x173E PUSH1 0xFF PUSH1 0x1 SLOAD AND ISZERO PUSH2 0x1E65 JUMP JUMPDEST DUP1 PUSH0 MSTORE PUSH1 0x5 PUSH1 0x20 MSTORE PUSH1 0x40 PUSH0 KECCAK256 PUSH1 0x8 DUP2 ADD DUP1 SLOAD PUSH2 0x175F PUSH1 0xFF DUP3 PUSH1 0x8 SHR AND PUSH2 0x1EA4 JUMP JUMPDEST PUSH1 0x5 DUP4 ADD SLOAD TIMESTAMP GT ISZERO PUSH2 0x186C JUMPI PUSH1 0xFF DUP2 PUSH1 0x18 SHR AND PUSH2 0x1809 JUMPI PUSH2 0xFF00 NOT AND SWAP1 SSTORE PUSH1 0x3 DUP1 SLOAD SWAP2 ADD SLOAD PUSH1 0x1 PUSH1 0x1 PUSH1 0xA0 SHL SUB SWAP1 SWAP2 AND SWAP1 DUP2 EXTCODESIZE ISZERO PUSH2 0x745 JUMPI PUSH0 SWAP2 PUSH1 0x24 DUP4 SWAP3 PUSH1 0x40 MLOAD SWAP5 DUP6 SWAP4 DUP5 SWAP3 PUSH4 0x8D9A3365 PUSH1 0xE0 SHL DUP5 MSTORE PUSH1 0x4 DUP5 ADD MSTORE GAS CALL DUP1 ISZERO PUSH2 0x17FE JUMPI PUSH2 0x17E9 JUMPI JUMPDEST POP PUSH32 0xB22AA541487FC93D989BB5B17D1E3A967F649C4979CFD658C0849E070AE0DCA0 DUP3 DUP1 LOG2 DUP1 RETURN JUMPDEST PUSH2 0x17F6 SWAP2 SWAP3 POP PUSH0 SWAP1 PUSH2 0x1DBD JUMP JUMPDEST PUSH0 SWAP1 PUSH0 PUSH2 0x17C1 JUMP JUMPDEST PUSH1 0x40 MLOAD RETURNDATASIZE PUSH0 DUP3 RETURNDATACOPY RETURNDATASIZE SWAP1 REVERT JUMPDEST PUSH1 0x40 MLOAD PUSH3 0x461BCD PUSH1 0xE5 SHL DUP2 MSTORE PUSH1 0x20 PUSH1 0x4 DUP3 ADD MSTORE PUSH1 0x35 PUSH1 0x24 DUP3 ADD MSTORE PUSH32 0x506F6C6963795661756C743A207472696767657220616374697665202D206661 PUSH1 0x44 DUP3 ADD MSTORE PUSH21 0x1C9B595C881B5D5CDD0818DB185A5B48199A5C9CDD PUSH1 0x5A SHL PUSH1 0x64 DUP3 ADD MSTORE PUSH1 0x84 SWAP1 REVERT JUMPDEST PUSH1 0x40 MLOAD PUSH3 0x461BCD PUSH1 0xE5 SHL DUP2 MSTORE PUSH1 0x20 PUSH1 0x4 DUP3 ADD MSTORE PUSH1 0x18 PUSH1 0x24 DUP3 ADD MSTORE PUSH32 0x506F6C6963795661756C743A206E6F7420657870697265640000000000000000 PUSH1 0x44 DUP3 ADD MSTORE PUSH1 0x64 SWAP1 REVERT JUMPDEST CALLVALUE PUSH2 0x745 JUMPI PUSH2 0x18C8 PUSH2 0x18C2 CALLDATASIZE PUSH2 0x1D83 JUMP JUMPDEST SWAP2 PUSH2 0x1F62 JUMP JUMPDEST STOP JUMPDEST CALLVALUE PUSH2 0x745 JUMPI PUSH1 0x20 CALLDATASIZE PUSH1 0x3 NOT ADD SLT PUSH2 0x745 JUMPI PUSH1 0x4 CALLDATALOAD PUSH2 0x18ED PUSH1 0xFF PUSH1 0x1 SLOAD AND ISZERO PUSH2 0x1E65 JUMP JUMPDEST DUP1 PUSH0 MSTORE PUSH1 0x5 PUSH1 0x20 MSTORE PUSH1 0x40 PUSH0 KECCAK256 PUSH1 0x8 DUP2 ADD DUP1 SLOAD SWAP2 PUSH2 0x190F PUSH1 0xFF DUP5 PUSH1 0x8 SHR AND PUSH2 0x1EA4 JUMP JUMPDEST PUSH1 0x1 DUP1 PUSH1 0xA0 SHL SUB PUSH1 0x2 SLOAD AND SWAP3 PUSH1 0x60 PUSH1 0x9 DUP4 ADD SLOAD PUSH1 0x24 PUSH1 0x40 MLOAD DUP1 SWAP8 DUP2 SWAP4 PUSH4 0x30710F1 PUSH1 0xE5 SHL DUP4 MSTORE PUSH1 0x4 DUP4 ADD MSTORE GAS STATICCALL DUP1 ISZERO PUSH2 0x17FE JUMPI PUSH0 SWAP5 PUSH0 SWAP2 PUSH2 0x1A2D JUMPI JUMPDEST POP SWAP1 PUSH2 0x195A PUSH1 0xFF SWAP3 ISZERO ISZERO PUSH2 0x1F03 JUMP JUMPDEST AND DUP4 GT ISZERO PUSH2 0x1A24 JUMPI PUSH1 0xA ADD DUP1 SLOAD ISZERO PUSH2 0x1A1C JUMPI JUMPDEST SLOAD PUSH3 0x127500 DUP2 ADD DUP1 SWAP2 GT PUSH2 0x1A08 JUMPI TIMESTAMP LT ISZERO PUSH2 0x1984 JUMPI STOP JUMPDEST PUSH1 0xFF DUP2 PUSH32 0x61782CF7ED50C35F9220BD74184699A7A70A2A12EBE6747518406450EEE74944 SWAP4 PUSH1 0x55 PUSH1 0x20 SWAP5 SLOAD SWAP2 PUSH4 0x1000000 PUSH4 0xFF000000 NOT DUP5 AND OR DUP5 SSTORE GT PUSH0 EQ PUSH2 0x19F2 JUMPI POP DUP1 SLOAD PUSH5 0xFF00000000 NOT AND PUSH5 0x200000000 OR DUP2 SSTORE JUMPDEST SLOAD DUP3 SHR AND PUSH1 0x40 MLOAD SWAP1 PUSH2 0x19ED DUP2 PUSH2 0x1E0F JUMP JUMPDEST DUP2 MSTORE LOG2 STOP JUMPDEST PUSH5 0xFFFF000000 NOT AND PUSH5 0x101000000 OR DUP2 SSTORE PUSH2 0x19DC JUMP JUMPDEST PUSH4 0x4E487B71 PUSH1 0xE0 SHL PUSH0 MSTORE PUSH1 0x11 PUSH1 0x4 MSTORE PUSH1 0x24 PUSH0 REVERT JUMPDEST TIMESTAMP DUP2 SSTORE PUSH2 0x196D JUMP JUMPDEST PUSH0 PUSH1 0xA SWAP1 SWAP2 ADD SSTORE STOP JUMPDEST PUSH2 0x195A SWAP6 POP PUSH1 0xFF SWAP3 SWAP2 POP PUSH2 0x1A4F SWAP1 PUSH1 0x60 RETURNDATASIZE PUSH1 0x60 GT PUSH2 0x144D JUMPI PUSH2 0x143B DUP2 DUP4 PUSH2 0x1DBD JUMP JUMPDEST POP SWAP6 SWAP1 SWAP6 SWAP2 SWAP3 POP PUSH2 0x194B JUMP JUMPDEST CALLVALUE PUSH2 0x745 JUMPI PUSH1 0x40 CALLDATASIZE PUSH1 0x3 NOT ADD SLT PUSH2 0x745 JUMPI PUSH2 0x1A74 PUSH2 0x1D33 JUMP JUMPDEST PUSH1 0x24 CALLDATALOAD PUSH2 0x1A80 DUP2 PUSH2 0x23DC JUMP JUMPDEST CALLER ISZERO ISZERO DUP1 PUSH2 0x1B34 JUMPI JUMPDEST DUP1 PUSH2 0x1B11 JUMPI JUMPDEST PUSH2 0x1AFE JUMPI DUP2 SWAP1 PUSH1 0x1 PUSH1 0x1 PUSH1 0xA0 SHL SUB DUP5 DUP2 AND SWAP2 AND PUSH32 0x8C5BE1E5EBEC7D5BD14F71427D1E84F3DD0314C0F7B2291E5B200AC8C7C3B925 PUSH0 DUP1 LOG4 PUSH0 SWAP1 DUP2 MSTORE PUSH0 MLOAD PUSH1 0x20 PUSH2 0x24E0 PUSH0 CODECOPY PUSH0 MLOAD SWAP1 PUSH0 MSTORE PUSH1 0x20 MSTORE PUSH1 0x40 SWAP1 KECCAK256 DUP1 SLOAD PUSH1 0x1 PUSH1 0x1 PUSH1 0xA0 SHL SUB NOT AND PUSH1 0x1 PUSH1 0x1 PUSH1 0xA0 SHL SUB SWAP1 SWAP3 AND SWAP2 SWAP1 SWAP2 OR SWAP1 SSTORE STOP JUMPDEST PUSH4 0xA9FBF51F PUSH1 0xE0 SHL PUSH0 MSTORE CALLER PUSH1 0x4 MSTORE PUSH1 0x24 PUSH0 REVERT JUMPDEST POP PUSH2 0x1B1B DUP2 PUSH2 0x2174 JUMP JUMPDEST CALLER PUSH0 SWAP1 DUP2 MSTORE PUSH1 0x20 SWAP2 SWAP1 SWAP2 MSTORE PUSH1 0x40 SWAP1 KECCAK256 SLOAD PUSH1 0xFF AND ISZERO PUSH2 0x1A8F JUMP JUMPDEST POP PUSH1 0x1 PUSH1 0x1 PUSH1 0xA0 SHL SUB DUP2 AND CALLER EQ ISZERO PUSH2 0x1A89 JUMP JUMPDEST CALLVALUE PUSH2 0x745 JUMPI PUSH1 0x20 CALLDATASIZE PUSH1 0x3 NOT ADD SLT PUSH2 0x745 JUMPI PUSH1 0x20 PUSH2 0x168B PUSH1 0x4 CALLDATALOAD PUSH2 0x1B69 DUP2 PUSH2 0x23DC JUMP JUMPDEST POP PUSH0 SWAP1 DUP2 MSTORE PUSH0 MLOAD PUSH1 0x20 PUSH2 0x24E0 PUSH0 CODECOPY PUSH0 MLOAD SWAP1 PUSH0 MSTORE PUSH1 0x20 MSTORE PUSH1 0x40 SWAP1 KECCAK256 SLOAD PUSH1 0x1 PUSH1 0x1 PUSH1 0xA0 SHL SUB AND SWAP1 JUMP JUMPDEST CALLVALUE PUSH2 0x745 JUMPI PUSH0 CALLDATASIZE PUSH1 0x3 NOT ADD SLT PUSH2 0x745 JUMPI PUSH1 0x40 MLOAD PUSH0 PUSH0 MLOAD PUSH1 0x20 PUSH2 0x24A0 PUSH0 CODECOPY PUSH0 MLOAD SWAP1 PUSH0 MSTORE SLOAD PUSH2 0x1BBC DUP2 PUSH2 0x1E2D JUMP JUMPDEST DUP1 DUP5 MSTORE SWAP1 PUSH1 0x1 DUP2 AND SWAP1 DUP2 ISZERO PUSH2 0x1C3B JUMPI POP PUSH1 0x1 EQ PUSH2 0x1BE4 JUMPI JUMPDEST PUSH2 0x92F DUP4 PUSH2 0xAD5 DUP2 DUP6 SUB DUP3 PUSH2 0x1DBD JUMP JUMPDEST PUSH0 MLOAD PUSH1 0x20 PUSH2 0x24A0 PUSH0 CODECOPY PUSH0 MLOAD SWAP1 PUSH0 MSTORE PUSH0 SWAP1 DUP2 MSTORE PUSH0 MLOAD PUSH1 0x20 PUSH2 0x2540 PUSH0 CODECOPY PUSH0 MLOAD SWAP1 PUSH0 MSTORE SWAP4 SWAP3 POP SWAP1 JUMPDEST DUP1 DUP3 LT PUSH2 0x1C21 JUMPI POP SWAP1 SWAP2 POP DUP2 ADD PUSH1 0x20 ADD PUSH2 0xAD5 PUSH2 0x1BD4 JUMP JUMPDEST SWAP2 SWAP3 PUSH1 0x1 DUP2 PUSH1 0x20 SWAP3 SLOAD DUP4 DUP6 DUP9 ADD ADD MSTORE ADD SWAP2 ADD SWAP1 SWAP3 SWAP2 PUSH2 0x1C09 JUMP JUMPDEST PUSH1 0xFF NOT AND PUSH1 0x20 DUP1 DUP7 ADD SWAP2 SWAP1 SWAP2 MSTORE SWAP2 ISZERO ISZERO PUSH1 0x5 SHL DUP5 ADD SWAP1 SWAP2 ADD SWAP2 POP PUSH2 0xAD5 SWAP1 POP PUSH2 0x1BD4 JUMP JUMPDEST CALLVALUE PUSH2 0x745 JUMPI PUSH1 0x20 CALLDATASIZE PUSH1 0x3 NOT ADD SLT PUSH2 0x745 JUMPI PUSH1 0x4 CALLDATALOAD PUSH4 0xFFFFFFFF PUSH1 0xE0 SHL DUP2 AND DUP1 SWAP2 SUB PUSH2 0x745 JUMPI PUSH1 0x20 SWAP1 PUSH4 0x80AC58CD PUSH1 0xE0 SHL DUP2 EQ SWAP1 DUP2 ISZERO PUSH2 0x1CBC JUMPI JUMPDEST DUP2 ISZERO PUSH2 0x1CAB JUMPI JUMPDEST POP PUSH1 0x40 MLOAD SWAP1 ISZERO ISZERO DUP2 MSTORE RETURN JUMPDEST PUSH4 0x1FFC9A7 PUSH1 0xE0 SHL EQ SWAP1 POP DUP3 PUSH2 0x1CA0 JUMP JUMPDEST PUSH4 0x5B5E139F PUSH1 0xE0 SHL DUP2 EQ SWAP2 POP PUSH2 0x1C99 JUMP JUMPDEST CALLVALUE PUSH2 0x745 JUMPI PUSH1 0x20 CALLDATASIZE PUSH1 0x3 NOT ADD SLT PUSH2 0x745 JUMPI PUSH2 0x1CE6 PUSH2 0x1D33 JUMP JUMPDEST PUSH2 0x1CEE PUSH2 0x23A9 JUMP JUMPDEST PUSH1 0x3 DUP1 SLOAD PUSH1 0x1 PUSH1 0x1 PUSH1 0xA0 SHL SUB NOT AND PUSH1 0x1 PUSH1 0x1 PUSH1 0xA0 SHL SUB SWAP3 SWAP1 SWAP3 AND SWAP2 DUP3 OR SWAP1 SSTORE PUSH32 0xEDF1A035D265F6321083031B40ACF4E5E06CD3E2E2025192FD308409B13B44C6 PUSH0 DUP1 LOG2 STOP JUMPDEST PUSH1 0x4 CALLDATALOAD SWAP1 PUSH1 0x1 PUSH1 0x1 PUSH1 0xA0 SHL SUB DUP3 AND DUP3 SUB PUSH2 0x745 JUMPI JUMP JUMPDEST PUSH1 0x24 CALLDATALOAD SWAP1 PUSH1 0x1 PUSH1 0x1 PUSH1 0xA0 SHL SUB DUP3 AND DUP3 SUB PUSH2 0x745 JUMPI JUMP JUMPDEST DUP1 MLOAD DUP1 DUP4 MSTORE PUSH1 0x20 SWAP3 SWAP2 DUP2 SWAP1 DUP5 ADD DUP5 DUP5 ADD MCOPY PUSH0 DUP3 DUP3 ADD DUP5 ADD MSTORE PUSH1 0x1F ADD PUSH1 0x1F NOT AND ADD ADD SWAP1 JUMP JUMPDEST PUSH1 0x60 SWAP1 PUSH1 0x3 NOT ADD SLT PUSH2 0x745 JUMPI PUSH1 0x4 CALLDATALOAD PUSH1 0x1 PUSH1 0x1 PUSH1 0xA0 SHL SUB DUP2 AND DUP2 SUB PUSH2 0x745 JUMPI SWAP1 PUSH1 0x24 CALLDATALOAD PUSH1 0x1 PUSH1 0x1 PUSH1 0xA0 SHL SUB DUP2 AND DUP2 SUB PUSH2 0x745 JUMPI SWAP1 PUSH1 0x44 CALLDATALOAD SWAP1 JUMP JUMPDEST SWAP1 PUSH1 0x1F DUP1 NOT SWAP2 ADD AND DUP2 ADD SWAP1 DUP2 LT PUSH8 0xFFFFFFFFFFFFFFFF DUP3 GT OR PUSH2 0x1DDF JUMPI PUSH1 0x40 MSTORE JUMP JUMPDEST PUSH4 0x4E487B71 PUSH1 0xE0 SHL PUSH0 MSTORE PUSH1 0x41 PUSH1 0x4 MSTORE PUSH1 0x24 PUSH0 REVERT JUMPDEST PUSH8 0xFFFFFFFFFFFFFFFF DUP2 GT PUSH2 0x1DDF JUMPI PUSH1 0x1F ADD PUSH1 0x1F NOT AND PUSH1 0x20 ADD SWAP1 JUMP JUMPDEST PUSH1 0x3 GT ISZERO PUSH2 0x1E19 JUMPI JUMP JUMPDEST PUSH4 0x4E487B71 PUSH1 0xE0 SHL PUSH0 MSTORE PUSH1 0x21 PUSH1 0x4 MSTORE PUSH1 0x24 PUSH0 REVERT JUMPDEST SWAP1 PUSH1 0x1 DUP3 DUP2 SHR SWAP3 AND DUP1 ISZERO PUSH2 0x1E5B JUMPI JUMPDEST PUSH1 0x20 DUP4 LT EQ PUSH2 0x1E47 JUMPI JUMP JUMPDEST PUSH4 0x4E487B71 PUSH1 0xE0 SHL PUSH0 MSTORE PUSH1 0x22 PUSH1 0x4 MSTORE PUSH1 0x24 PUSH0 REVERT JUMPDEST SWAP2 PUSH1 0x7F AND SWAP2 PUSH2 0x1E3C JUMP JUMPDEST ISZERO PUSH2 0x1E6C JUMPI JUMP JUMPDEST PUSH1 0x40 MLOAD PUSH3 0x461BCD PUSH1 0xE5 SHL DUP2 MSTORE PUSH1 0x20 PUSH1 0x4 DUP3 ADD MSTORE PUSH1 0x10 PUSH1 0x24 DUP3 ADD MSTORE PUSH16 0x14185D5CD8589B194E881C185D5CD959 PUSH1 0x82 SHL PUSH1 0x44 DUP3 ADD MSTORE PUSH1 0x64 SWAP1 REVERT JUMPDEST ISZERO PUSH2 0x1EAB JUMPI JUMP JUMPDEST PUSH1 0x40 MLOAD PUSH3 0x461BCD PUSH1 0xE5 SHL DUP2 MSTORE PUSH1 0x20 PUSH1 0x4 DUP3 ADD MSTORE PUSH1 0x15 PUSH1 0x24 DUP3 ADD MSTORE PUSH21 0x506F6C6963795661756C743A20696E616374697665 PUSH1 0x58 SHL PUSH1 0x44 DUP3 ADD MSTORE PUSH1 0x64 SWAP1 REVERT JUMPDEST SWAP1 DUP2 PUSH1 0x60 SWAP2 SUB SLT PUSH2 0x745 JUMPI DUP1 MLOAD SWAP2 PUSH1 0x40 PUSH1 0x20 DUP4 ADD MLOAD SWAP3 ADD MLOAD SWAP1 JUMP JUMPDEST ISZERO PUSH2 0x1F0A JUMPI JUMP JUMPDEST PUSH1 0x40 MLOAD PUSH3 0x461BCD PUSH1 0xE5 SHL DUP2 MSTORE PUSH1 0x20 PUSH1 0x4 DUP3 ADD MSTORE PUSH1 0x1B PUSH1 0x24 DUP3 ADD MSTORE PUSH32 0x506F6C6963795661756C743A206E6F206F7261636C6520646174610000000000 PUSH1 0x44 DUP3 ADD MSTORE PUSH1 0x64 SWAP1 REVERT JUMPDEST DUP2 DUP2 MUL SWAP3 SWAP2 DUP2 ISZERO SWAP2 DUP5 DIV EQ OR ISZERO PUSH2 0x1A08 JUMPI JUMP JUMPDEST SWAP1 SWAP2 SWAP1 PUSH1 0x1 PUSH1 0x1 PUSH1 0xA0 SHL SUB DUP4 AND DUP1 ISZERO PUSH2 0x2129 JUMPI DUP3 PUSH2 0x1F7F DUP2 PUSH2 0x243B JUMP JUMPDEST SWAP2 CALLER ISZERO ISZERO DUP1 PUSH2 0x2076 JUMPI JUMPDEST POP PUSH1 0x1 PUSH1 0x1 PUSH1 0xA0 SHL SUB DUP4 AND SWAP6 PUSH2 0x1FA3 SWAP1 DUP8 PUSH2 0x203A JUMPI PUSH2 0x213C JUMP JUMPDEST PUSH1 0x1 DUP2 SLOAD ADD SWAP1 SSTORE DUP2 PUSH0 MSTORE PUSH32 0x80BB2B638CC20BC4D0A60D66940F3AB4A00C1D7B313497CA82FB0B4AB0079302 PUSH1 0x20 MSTORE PUSH1 0x40 PUSH0 KECCAK256 DUP2 PUSH1 0x1 PUSH1 0x1 PUSH1 0x60 SHL SUB PUSH1 0xA0 SHL DUP3 SLOAD AND OR SWAP1 SSTORE DUP6 PUSH32 0xDDF252AD1BE2C89B69C2B068FC378DAA952BA7F163C4A11628F55A4DF523B3EF PUSH0 DUP1 LOG4 POP PUSH1 0x1 PUSH1 0x1 PUSH1 0xA0 SHL SUB AND DUP1 DUP4 SUB PUSH2 0x2022 JUMPI POP POP POP JUMP JUMPDEST PUSH4 0x64283D7B PUSH1 0xE0 SHL PUSH0 MSTORE PUSH1 0x4 MSTORE PUSH1 0x24 MSTORE PUSH1 0x44 MSTORE PUSH1 0x64 PUSH0 REVERT JUMPDEST PUSH0 DUP5 DUP2 MSTORE PUSH0 MLOAD PUSH1 0x20 PUSH2 0x24E0 PUSH0 CODECOPY PUSH0 MLOAD SWAP1 PUSH0 MSTORE PUSH1 0x20 MSTORE PUSH1 0x40 SWAP1 KECCAK256 DUP1 SLOAD PUSH1 0x1 PUSH1 0x1 PUSH1 0xA0 SHL SUB NOT AND SWAP1 SSTORE PUSH2 0x206A DUP6 PUSH2 0x213C JUMP JUMPDEST DUP1 SLOAD PUSH0 NOT ADD SWAP1 SSTORE PUSH2 0x213C JUMP JUMPDEST SWAP1 SWAP2 POP DUP1 PUSH2 0x20C3 JUMPI JUMPDEST ISZERO PUSH2 0x208C JUMPI DUP4 SWAP1 PUSH0 PUSH2 0x1F89 JUMP JUMPDEST DUP4 PUSH1 0x1 PUSH1 0x1 PUSH1 0xA0 SHL SUB DUP4 AND PUSH2 0x20AD JUMPI PUSH4 0x7E273289 PUSH1 0xE0 SHL PUSH0 MSTORE PUSH1 0x4 MSTORE PUSH1 0x24 PUSH0 REVERT JUMPDEST PUSH4 0x177E802F PUSH1 0xE0 SHL PUSH0 MSTORE CALLER PUSH1 0x4 MSTORE PUSH1 0x24 MSTORE PUSH1 0x44 PUSH0 REVERT JUMPDEST POP PUSH1 0x1 PUSH1 0x1 PUSH1 0xA0 SHL SUB DUP3 AND CALLER EQ DUP1 ISZERO PUSH2 0x2107 JUMPI JUMPDEST DUP1 PUSH2 0x207F JUMPI POP PUSH0 DUP5 DUP2 MSTORE PUSH0 MLOAD PUSH1 0x20 PUSH2 0x24E0 PUSH0 CODECOPY PUSH0 MLOAD SWAP1 PUSH0 MSTORE PUSH1 0x20 MSTORE PUSH1 0x40 SWAP1 KECCAK256 SLOAD PUSH1 0x1 PUSH1 0x1 PUSH1 0xA0 SHL SUB AND CALLER EQ PUSH2 0x207F JUMP JUMPDEST POP PUSH2 0x2111 DUP3 PUSH2 0x2174 JUMP JUMPDEST CALLER PUSH0 SWAP1 DUP2 MSTORE PUSH1 0x20 SWAP2 SWAP1 SWAP2 MSTORE PUSH1 0x40 SWAP1 KECCAK256 SLOAD PUSH1 0xFF AND PUSH2 0x20D7 JUMP JUMPDEST PUSH4 0x32505749 PUSH1 0xE1 SHL PUSH0 MSTORE PUSH0 PUSH1 0x4 MSTORE PUSH1 0x24 PUSH0 REVERT JUMPDEST PUSH1 0x1 PUSH1 0x1 PUSH1 0xA0 SHL SUB AND PUSH0 SWAP1 DUP2 MSTORE PUSH32 0x80BB2B638CC20BC4D0A60D66940F3AB4A00C1D7B313497CA82FB0B4AB0079303 PUSH1 0x20 MSTORE PUSH1 0x40 SWAP1 KECCAK256 SWAP1 JUMP JUMPDEST PUSH1 0x1 PUSH1 0x1 PUSH1 0xA0 SHL SUB AND PUSH0 SWAP1 DUP2 MSTORE PUSH32 0x80BB2B638CC20BC4D0A60D66940F3AB4A00C1D7B313497CA82FB0B4AB0079305 PUSH1 0x20 MSTORE PUSH1 0x40 SWAP1 KECCAK256 SWAP1 JUMP JUMPDEST ISZERO PUSH2 0x21B3 JUMPI JUMP JUMPDEST PUSH1 0x40 MLOAD PUSH3 0x461BCD PUSH1 0xE5 SHL DUP2 MSTORE PUSH1 0x20 PUSH1 0x4 DUP3 ADD MSTORE PUSH1 0x1F PUSH1 0x24 DUP3 ADD MSTORE PUSH32 0x5265656E7472616E637947756172643A207265656E7472616E742063616C6C00 PUSH1 0x44 DUP3 ADD MSTORE PUSH1 0x64 SWAP1 REVERT JUMPDEST SWAP3 SWAP2 PUSH2 0x2205 DUP2 DUP4 DUP7 PUSH2 0x1F62 JUMP JUMPDEST DUP2 EXTCODESIZE PUSH2 0x2212 JUMPI JUMPDEST POP POP POP POP JUMP JUMPDEST PUSH1 0x40 MLOAD PUSH4 0xA85BD01 PUSH1 0xE1 SHL DUP2 MSTORE CALLER PUSH1 0x4 DUP3 ADD MSTORE PUSH1 0x1 PUSH1 0x1 PUSH1 0xA0 SHL SUB SWAP5 DUP6 AND PUSH1 0x24 DUP3 ADD MSTORE PUSH1 0x44 DUP2 ADD SWAP2 SWAP1 SWAP2 MSTORE PUSH1 0x80 PUSH1 0x64 DUP3 ADD MSTORE SWAP3 AND SWAP2 SWAP1 PUSH1 0x20 SWAP1 DUP3 SWAP1 DUP2 SWAP1 PUSH2 0x225D SWAP1 PUSH1 0x84 DUP4 ADD SWAP1 PUSH2 0x1D5F JUMP JUMPDEST SUB DUP2 PUSH0 DUP7 GAS CALL PUSH0 SWAP2 DUP2 PUSH2 0x22F3 JUMPI JUMPDEST POP PUSH2 0x22C0 JUMPI POP RETURNDATASIZE ISZERO PUSH2 0x22B9 JUMPI RETURNDATASIZE PUSH2 0x2281 DUP2 PUSH2 0x1DF3 JUMP JUMPDEST SWAP1 PUSH2 0x228F PUSH1 0x40 MLOAD SWAP3 DUP4 PUSH2 0x1DBD JUMP JUMPDEST DUP2 MSTORE RETURNDATASIZE PUSH0 PUSH1 0x20 DUP4 ADD RETURNDATACOPY JUMPDEST DUP1 MLOAD SWAP1 DUP2 PUSH2 0x22B4 JUMPI DUP3 PUSH4 0x32505749 PUSH1 0xE1 SHL PUSH0 MSTORE PUSH1 0x4 MSTORE PUSH1 0x24 PUSH0 REVERT JUMPDEST PUSH1 0x20 ADD REVERT JUMPDEST PUSH1 0x60 PUSH2 0x2299 JUMP JUMPDEST PUSH1 0x1 PUSH1 0x1 PUSH1 0xE0 SHL SUB NOT AND PUSH4 0x757A42FF PUSH1 0xE1 SHL ADD PUSH2 0x22E1 JUMPI POP PUSH0 DUP1 DUP1 DUP1 PUSH2 0x220C JUMP JUMPDEST PUSH4 0x32505749 PUSH1 0xE1 SHL PUSH0 MSTORE PUSH1 0x4 MSTORE PUSH1 0x24 PUSH0 REVERT JUMPDEST SWAP1 SWAP2 POP PUSH1 0x20 DUP2 RETURNDATASIZE PUSH1 0x20 GT PUSH2 0x2330 JUMPI JUMPDEST DUP2 PUSH2 0x230F PUSH1 0x20 SWAP4 DUP4 PUSH2 0x1DBD JUMP JUMPDEST DUP2 ADD SUB SLT PUSH2 0x745 JUMPI MLOAD PUSH1 0x1 PUSH1 0x1 PUSH1 0xE0 SHL SUB NOT DUP2 AND DUP2 SUB PUSH2 0x745 JUMPI SWAP1 PUSH0 PUSH2 0x226B JUMP JUMPDEST RETURNDATASIZE SWAP2 POP PUSH2 0x2302 JUMP JUMPDEST PUSH1 0x1 PUSH1 0x1 PUSH1 0xA0 SHL SUB AND DUP1 ISZERO PUSH2 0x2396 JUMPI PUSH0 MLOAD PUSH1 0x20 PUSH2 0x24C0 PUSH0 CODECOPY PUSH0 MLOAD SWAP1 PUSH0 MSTORE DUP1 SLOAD PUSH1 0x1 PUSH1 0x1 PUSH1 0xA0 SHL SUB NOT DUP2 AND DUP4 OR SWAP1 SWAP2 SSTORE PUSH1 0x1 PUSH1 0x1 PUSH1 0xA0 SHL SUB AND PUSH32 0x8BE0079C531659141344CD1FD0A4F28419497F9722A3DAAFE3B4186F6B6457E0 PUSH0 DUP1 LOG3 JUMP JUMPDEST PUSH4 0x1E4FBDF7 PUSH1 0xE0 SHL PUSH0 MSTORE PUSH0 PUSH1 0x4 MSTORE PUSH1 0x24 PUSH0 REVERT JUMPDEST PUSH0 MLOAD PUSH1 0x20 PUSH2 0x24C0 PUSH0 CODECOPY PUSH0 MLOAD SWAP1 PUSH0 MSTORE SLOAD PUSH1 0x1 PUSH1 0x1 PUSH1 0xA0 SHL SUB AND CALLER SUB PUSH2 0x23C9 JUMPI JUMP JUMPDEST PUSH4 0x118CDAA7 PUSH1 0xE0 SHL PUSH0 MSTORE CALLER PUSH1 0x4 MSTORE PUSH1 0x24 PUSH0 REVERT JUMPDEST PUSH2 0x23E5 DUP2 PUSH2 0x243B JUMP JUMPDEST SWAP1 PUSH1 0x1 PUSH1 0x1 PUSH1 0xA0 SHL SUB DUP3 AND ISZERO PUSH2 0x23F9 JUMPI POP SWAP1 JUMP JUMPDEST PUSH4 0x7E273289 PUSH1 0xE0 SHL PUSH0 MSTORE PUSH1 0x4 MSTORE PUSH1 0x24 PUSH0 REVERT JUMPDEST PUSH2 0x2414 DUP2 PUSH2 0x1E0F JUMP JUMPDEST PUSH1 0x2 DUP2 EQ PUSH2 0x2435 JUMPI PUSH2 0x2425 DUP2 PUSH2 0x1E0F JUMP JUMPDEST ISZERO PUSH2 0x2430 JUMPI PUSH2 0x12C SWAP1 JUMP JUMPDEST PUSH1 0xFA SWAP1 JUMP JUMPDEST POP PUSH1 0xC8 SWAP1 JUMP JUMPDEST PUSH0 SWAP1 DUP2 MSTORE PUSH32 0x80BB2B638CC20BC4D0A60D66940F3AB4A00C1D7B313497CA82FB0B4AB0079302 PUSH1 0x20 MSTORE PUSH1 0x40 SWAP1 KECCAK256 SLOAD PUSH1 0x1 PUSH1 0x1 PUSH1 0xA0 SHL SUB AND SWAP1 JUMP JUMPDEST PUSH1 0xFF PUSH0 MLOAD PUSH1 0x20 PUSH2 0x2500 PUSH0 CODECOPY PUSH0 MLOAD SWAP1 PUSH0 MSTORE SLOAD PUSH1 0x40 SHR AND ISZERO PUSH2 0x2490 JUMPI JUMP JUMPDEST PUSH4 0x1AFCD79F PUSH1 0xE3 SHL PUSH0 MSTORE PUSH1 0x4 PUSH0 REVERT INVALID DUP1 0xBB 0x2B PUSH4 0x8CC20BC4 0xD0 0xA6 0xD PUSH7 0x940F3AB4A00C1D PUSH28 0x313497CA82FB0B4AB00793009016D09D72D40FDAE2FD8CEAC6B6234C PUSH24 0x6214FD39C1CD1E609A0528C19930080BB2B638CC20BC4D0 0xA6 0xD PUSH7 0x940F3AB4A00C1D PUSH28 0x313497CA82FB0B4AB0079304F0C57E16840DF040F15088DC2F81FE39 SHR CODECOPY 0x23 0xBE 0xC7 RETURNDATACOPY 0x23 0xA9 PUSH7 0x2EFC9C229C6A00 DUP1 0xBB 0x2B PUSH4 0x8CC20BC4 0xD0 0xA6 0xD PUSH7 0x940F3AB4A00C1D PUSH28 0x313497CA82FB0B4AB007930137C58C799B6609234B945E882912EE9A 0xD3 BLOBHASH BASEFEE LOG1 0xDF 0xAA KECCAK256 0xA9 PUSH21 0x85E1A7752BBF81A26469706673582212209D36A562 0x2D SELFDESTRUCT 0xD7 0x26 ISZERO 0xF8 0xE6 0x1E DUP2 0xE0 CALLER 0xE3 0xA8 PUSH3 0xA8A74E PUSH9 0xD32814B020F26E5A37 SWAP13 PUSH5 0x736F6C6343 STOP ADDMOD SHR STOP CALLER "},"methodIdentifiers":{"MAX_COVERAGE_PER_HECTARE()":"ff08a419","MIN_TRIGGER_DAYS()":"fd9c611e","approve(address,uint256)":"095ea7b3","balanceOf(address)":"70a08231","claimPayout(uint256)":"8a69614e","createPolicy((uint8,uint256,int256,int256,uint256,bytes32))":"83b4b1e4","evaluateTrigger(uint256)":"20ae9a7d","expirePolicy(uint256)":"3037e4cd","getApproved(uint256)":"081812fc","initialize(address,address,address,address)":"f8c8765e","isApprovedForAll(address,address)":"e985e9c5","liquidityPool()":"665a11ca","name()":"06fdde03","nextPolicyId()":"cad0b8db","oracle()":"7dc0d1d0","owner()":"8da5cb5b","ownerOf(uint256)":"6352211e","pause()":"8456cb59","policies(uint256)":"d3e89483","renounceOwnership()":"715018a6","safeTransferFrom(address,address,uint256)":"42842e0e","safeTransferFrom(address,address,uint256,bytes)":"b88d4fde","setApprovalForAll(address,bool)":"a22cb465","setLiquidityPool(address)":"01877020","setOracle(address)":"7adbf973","supportsInterface(bytes4)":"01ffc9a7","symbol()":"95d89b41","tokenURI(uint256)":"c87b56dd","transferFrom(address,address,uint256)":"23b872dd","transferOwnership(address)":"f2fde38b","unpause()":"3f4ba83a","usdc()":"3e413bee"}}}}}