{"contracts/ReinsurancePool.sol":{"ReinsurancePool":{"abi":[{"inputs":[{"internalType":"address","name":"_usdc","type":"address"},{"internalType":"address","name":"_owner","type":"address"}],"stateMutability":"nonpayable","type":"constructor"},{"inputs":[{"internalType":"address","name":"owner","type":"address"}],"name":"OwnableInvalidOwner","type":"error"},{"inputs":[{"internalType":"address","name":"account","type":"address"}],"name":"OwnableUnauthorizedAccount","type":"error"},{"inputs":[],"name":"ReentrancyGuardReentrantCall","type":"error"},{"inputs":[{"internalType":"address","name":"token","type":"address"}],"name":"SafeERC20FailedOperation","type":"error"},{"anonymous":false,"inputs":[{"indexed":false,"internalType":"uint256","name":"amount","type":"uint256"}],"name":"DrawdownTriggered","type":"event"},{"anonymous":false,"inputs":[{"indexed":true,"internalType":"address","name":"previousOwner","type":"address"},{"indexed":true,"internalType":"address","name":"newOwner","type":"address"}],"name":"OwnershipTransferred","type":"event"},{"anonymous":false,"inputs":[{"indexed":true,"internalType":"address","name":"pool","type":"address"}],"name":"PrimaryPoolSet","type":"event"},{"anonymous":false,"inputs":[{"indexed":true,"internalType":"address","name":"lp","type":"address"},{"indexed":false,"internalType":"uint256","name":"amount","type":"uint256"}],"name":"Staked","type":"event"},{"anonymous":false,"inputs":[{"indexed":true,"internalType":"address","name":"lp","type":"address"},{"indexed":false,"internalType":"uint256","name":"amount","type":"uint256"}],"name":"Withdrawn","type":"event"},{"inputs":[{"internalType":"address","name":"","type":"address"}],"name":"depositTime","outputs":[{"internalType":"uint256","name":"","type":"uint256"}],"stateMutability":"view","type":"function"},{"inputs":[],"name":"owner","outputs":[{"internalType":"address","name":"","type":"address"}],"stateMutability":"view","type":"function"},{"inputs":[],"name":"primaryPool","outputs":[{"internalType":"address","name":"","type":"address"}],"stateMutability":"view","type":"function"},{"inputs":[],"name":"renounceOwnership","outputs":[],"stateMutability":"nonpayable","type":"function"},{"inputs":[{"internalType":"uint256","name":"deficit","type":"uint256"}],"name":"requestDrawdown","outputs":[],"stateMutability":"nonpayable","type":"function"},{"inputs":[{"internalType":"address","name":"_primaryPool","type":"address"}],"name":"setPrimaryPool","outputs":[],"stateMutability":"nonpayable","type":"function"},{"inputs":[{"internalType":"address","name":"","type":"address"}],"name":"sharesOf","outputs":[{"internalType":"uint256","name":"","type":"uint256"}],"stateMutability":"view","type":"function"},{"inputs":[{"internalType":"uint256","name":"amount","type":"uint256"}],"name":"stake","outputs":[],"stateMutability":"nonpayable","type":"function"},{"inputs":[],"name":"totalShares","outputs":[{"internalType":"uint256","name":"","type":"uint256"}],"stateMutability":"view","type":"function"},{"inputs":[{"internalType":"address","name":"newOwner","type":"address"}],"name":"transferOwnership","outputs":[],"stateMutability":"nonpayable","type":"function"},{"inputs":[],"name":"usdc","outputs":[{"internalType":"contract IERC20","name":"","type":"address"}],"stateMutability":"view","type":"function"},{"inputs":[{"internalType":"uint256","name":"shares","type":"uint256"}],"name":"withdraw","outputs":[],"stateMutability":"nonpayable","type":"function"}],"evm":{"bytecode":{"linkReferences":{},"object":"60a03461011857601f610c0838819003918201601f19168301916001600160401b0383118484101761011c5780849260409485528339810103126101185761004681610130565b906001600160a01b039061005c90602001610130565b16908115610105575f80546001600160a01b031981168417825560405193916001600160a01b03909116907f8be0079c531659141344cd1fd0a4f28419497f9722a3daafe3b4186f6b6457e09080a360017f9b779b17422d0df92223018b32b4d1fa46e071723d6817e2486d003becc55f00556001600160a01b0316608052610ac3908161014582396080518181816101a3015281816103430152818161067101526107270152f35b631e4fbdf760e01b5f525f60045260245ffd5b5f80fd5b634e487b7160e01b5f52604160045260245ffd5b51906001600160a01b03821682036101185756fe60806040526004361015610011575f80fd5b5f3560e01c80632e1a7d4d146106bd5780633a98ef39146106a05780633e413bee1461065c5780633f91d69d146105f657806346c64873146105ba578063715018a6146105635780638da5cb5b1461053c5780639be3d69c14610514578063a694fc3a1461030c578063d768c90d14610166578063f2fde38b146100dd5763f5eb42dc1461009d575f80fd5b346100d95760203660031901126100d9576004356001600160a01b038116908190036100d9575f526003602052602060405f2054604051908152f35b5f80fd5b346100d95760203660031901126100d9576004356001600160a01b038116908190036100d95761010b610a47565b8015610153575f80546001600160a01b03198116831782556001600160a01b0316907f8be0079c531659141344cd1fd0a4f28419497f9722a3daafe3b4186f6b6457e09080a3005b631e4fbdf760e01b5f525f60045260245ffd5b346100d95760203660031901126100d9576001546001600160a01b0316600435338290036102c7576040516370a0823160e01b81523060048201527f00000000000000000000000000000000000000000000000000000000000000009290916020836024816001600160a01b0388165afa9283156102bc575f93610288575b508215610239577fc13627a0906158af00730245b26fbcc9e6aad2962b127dc117f86e583f71c9db93602093610226928181111561022f57509283916109c6565b604051908152a1005b90509283916109c6565b60405162461bcd60e51b815260206004820152602160248201527f5265696e737572616e63653a206e6f206361706974616c20617661696c61626c6044820152606560f81b6064820152608490fd5b9092506020813d6020116102b4575b816102a46020938361091a565b810103126100d9575191846101e5565b3d9150610297565b6040513d5f823e3d90fd5b60405162461bcd60e51b815260206004820152601d60248201527f5265696e737572616e63653a206e6f74207072696d61727920706f6f6c0000006044820152606490fd5b346100d95760203660031901126100d95760043561032861098e565b80156104d7576040516370a0823160e01b81523060048201527f00000000000000000000000000000000000000000000000000000000000000006001600160a01b03811690602083602481855afa9283156102bc575f936104a3575b50604051906323b872dd60e01b5f5233600452306024528460445260205f60648180855af19060015f5114821615610484575b50906040525f606052156104725750600254908115801561046a575b1561044d57506103e482809261090d565b600255335f5260036020526103fe60405f2091825461090d565b9055335f5260046020524260405f20556040519081527f9e71bc8eea02a63969f509818f2dafb9254532904319f9dbda79b67bd34a5f3d60203392a260015f516020610a6e5f395f51905f5255005b6104636103e49161045e8486610950565b610963565b809261090d565b5080156103d3565b635274afe760e01b5f5260045260245ffd5b600182151661049a573b15153d151616856103b7565b823d5f823e3d90fd5b9092506020813d6020116104cf575b816104bf6020938361091a565b810103126100d957519184610384565b3d91506104b2565b60405162461bcd60e51b815260206004820152601560248201527405265696e737572616e63653a20616d6f756e743d3605c1b6044820152606490fd5b346100d9575f3660031901126100d9576001546040516001600160a01b039091168152602090f35b346100d9575f3660031901126100d9575f546040516001600160a01b039091168152602090f35b346100d9575f3660031901126100d95761057b610a47565b5f80546001600160a01b0319811682556001600160a01b03167f8be0079c531659141344cd1fd0a4f28419497f9722a3daafe3b4186f6b6457e08280a3005b346100d95760203660031901126100d9576004356001600160a01b038116908190036100d9575f526004602052602060405f2054604051908152f35b346100d95760203660031901126100d9576004356001600160a01b038116908190036100d957610624610a47565b600180546001600160a01b031916821790557f29defaeeec5505d275c25799ebadb74d01c7b5fb5a5606502048d24144ee46715f80a2005b346100d9575f3660031901126100d9576040517f00000000000000000000000000000000000000000000000000000000000000006001600160a01b03168152602090f35b346100d9575f3660031901126100d9576020600254604051908152f35b346100d95760203660031901126100d9576004356106d961098e565b80156108d057335f5260036020528060405f20541061088c57335f52600460205260405f205462278d008101809111610878574210610829576040516370a0823160e01b81523060048201527f000000000000000000000000000000000000000000000000000000000000000091906020816024816001600160a01b0387165afa9081156102bc575f916107f3575b6107aa6107b4848661078661077d8388610950565b60025490610963565b938492335f52600360205260405f206107a0828254610981565b9055600254610981565b60025533906109c6565b6040519081527f7084f5476618d8e60b11ef0d7d3f06914655adb8793e28ff7f018d4c76d505d560203392a260015f516020610a6e5f395f51905f5255005b9190506020823d602011610821575b8161080f6020938361091a565b810103126100d95790516107aa610768565b3d9150610802565b60405162461bcd60e51b815260206004820152602160248201527f5265696e737572616e63653a2033302d646179206c6f636b75702061637469766044820152606560f81b6064820152608490fd5b634e487b7160e01b5f52601160045260245ffd5b606460405162461bcd60e51b815260206004820152602060248201527f5265696e737572616e63653a20696e73756666696369656e74207368617265736044820152fd5b60405162461bcd60e51b815260206004820152601560248201527405265696e737572616e63653a207368617265733d3605c1b6044820152606490fd5b9190820180921161087857565b90601f8019910116810190811067ffffffffffffffff82111761093c57604052565b634e487b7160e01b5f52604160045260245ffd5b8181029291811591840414171561087857565b811561096d570490565b634e487b7160e01b5f52601260045260245ffd5b9190820391821161087857565b60025f516020610a6e5f395f51905f5254146109b75760025f516020610a6e5f395f51905f5255565b633ee5aeb560e01b5f5260045ffd5b916040519163a9059cbb60e01b5f5260018060a01b031660045260245260205f60448180865af19060015f5114821615610a26575b60405215610a065750565b635274afe760e01b5f9081526001600160a01b0391909116600452602490fd5b906001811516610a3e57823b15153d151616906109fb565b503d5f823e3d90fd5b5f546001600160a01b03163303610a5a57565b63118cdaa760e01b5f523360045260245ffdfe9b779b17422d0df92223018b32b4d1fa46e071723d6817e2486d003becc55f00a264697066735822122014140c58eca086ec509e86d5447ad97c452b93cc5c799989b70140348bb468df64736f6c634300081c0033","opcodes":"PUSH1 0xA0 CALLVALUE PUSH2 0x118 JUMPI PUSH1 0x1F PUSH2 0xC08 CODESIZE DUP2 SWAP1 SUB SWAP2 DUP3 ADD PUSH1 0x1F NOT AND DUP4 ADD SWAP2 PUSH1 0x1 PUSH1 0x1 PUSH1 0x40 SHL SUB DUP4 GT DUP5 DUP5 LT OR PUSH2 0x11C JUMPI DUP1 DUP5 SWAP3 PUSH1 0x40 SWAP5 DUP6 MSTORE DUP4 CODECOPY DUP2 ADD SUB SLT PUSH2 0x118 JUMPI PUSH2 0x46 DUP2 PUSH2 0x130 JUMP JUMPDEST SWAP1 PUSH1 0x1 PUSH1 0x1 PUSH1 0xA0 SHL SUB SWAP1 PUSH2 0x5C SWAP1 PUSH1 0x20 ADD PUSH2 0x130 JUMP JUMPDEST AND SWAP1 DUP2 ISZERO PUSH2 0x105 JUMPI PUSH0 DUP1 SLOAD PUSH1 0x1 PUSH1 0x1 PUSH1 0xA0 SHL SUB NOT DUP2 AND DUP5 OR DUP3 SSTORE PUSH1 0x40 MLOAD SWAP4 SWAP2 PUSH1 0x1 PUSH1 0x1 PUSH1 0xA0 SHL SUB SWAP1 SWAP2 AND SWAP1 PUSH32 0x8BE0079C531659141344CD1FD0A4F28419497F9722A3DAAFE3B4186F6B6457E0 SWAP1 DUP1 LOG3 PUSH1 0x1 PUSH32 0x9B779B17422D0DF92223018B32B4D1FA46E071723D6817E2486D003BECC55F00 SSTORE PUSH1 0x1 PUSH1 0x1 PUSH1 0xA0 SHL SUB AND PUSH1 0x80 MSTORE PUSH2 0xAC3 SWAP1 DUP2 PUSH2 0x145 DUP3 CODECOPY PUSH1 0x80 MLOAD DUP2 DUP2 DUP2 PUSH2 0x1A3 ADD MSTORE DUP2 DUP2 PUSH2 0x343 ADD MSTORE DUP2 DUP2 PUSH2 0x671 ADD MSTORE PUSH2 0x727 ADD MSTORE RETURN JUMPDEST PUSH4 0x1E4FBDF7 PUSH1 0xE0 SHL PUSH0 MSTORE PUSH0 PUSH1 0x4 MSTORE PUSH1 0x24 PUSH0 REVERT JUMPDEST PUSH0 DUP1 REVERT JUMPDEST PUSH4 0x4E487B71 PUSH1 0xE0 SHL PUSH0 MSTORE PUSH1 0x41 PUSH1 0x4 MSTORE PUSH1 0x24 PUSH0 REVERT JUMPDEST MLOAD SWAP1 PUSH1 0x1 PUSH1 0x1 PUSH1 0xA0 SHL SUB DUP3 AND DUP3 SUB PUSH2 0x118 JUMPI JUMP INVALID PUSH1 0x80 PUSH1 0x40 MSTORE PUSH1 0x4 CALLDATASIZE LT ISZERO PUSH2 0x11 JUMPI PUSH0 DUP1 REVERT JUMPDEST PUSH0 CALLDATALOAD PUSH1 0xE0 SHR DUP1 PUSH4 0x2E1A7D4D EQ PUSH2 0x6BD JUMPI DUP1 PUSH4 0x3A98EF39 EQ PUSH2 0x6A0 JUMPI DUP1 PUSH4 0x3E413BEE EQ PUSH2 0x65C JUMPI DUP1 PUSH4 0x3F91D69D EQ PUSH2 0x5F6 JUMPI DUP1 PUSH4 0x46C64873 EQ PUSH2 0x5BA JUMPI DUP1 PUSH4 0x715018A6 EQ PUSH2 0x563 JUMPI DUP1 PUSH4 0x8DA5CB5B EQ PUSH2 0x53C JUMPI DUP1 PUSH4 0x9BE3D69C EQ PUSH2 0x514 JUMPI DUP1 PUSH4 0xA694FC3A EQ PUSH2 0x30C JUMPI DUP1 PUSH4 0xD768C90D EQ PUSH2 0x166 JUMPI DUP1 PUSH4 0xF2FDE38B EQ PUSH2 0xDD JUMPI PUSH4 0xF5EB42DC EQ PUSH2 0x9D JUMPI PUSH0 DUP1 REVERT JUMPDEST CALLVALUE PUSH2 0xD9 JUMPI PUSH1 0x20 CALLDATASIZE PUSH1 0x3 NOT ADD SLT PUSH2 0xD9 JUMPI PUSH1 0x4 CALLDATALOAD PUSH1 0x1 PUSH1 0x1 PUSH1 0xA0 SHL SUB DUP2 AND SWAP1 DUP2 SWAP1 SUB PUSH2 0xD9 JUMPI PUSH0 MSTORE PUSH1 0x3 PUSH1 0x20 MSTORE PUSH1 0x20 PUSH1 0x40 PUSH0 KECCAK256 SLOAD PUSH1 0x40 MLOAD SWAP1 DUP2 MSTORE RETURN JUMPDEST PUSH0 DUP1 REVERT JUMPDEST CALLVALUE PUSH2 0xD9 JUMPI PUSH1 0x20 CALLDATASIZE PUSH1 0x3 NOT ADD SLT PUSH2 0xD9 JUMPI PUSH1 0x4 CALLDATALOAD PUSH1 0x1 PUSH1 0x1 PUSH1 0xA0 SHL SUB DUP2 AND SWAP1 DUP2 SWAP1 SUB PUSH2 0xD9 JUMPI PUSH2 0x10B PUSH2 0xA47 JUMP JUMPDEST DUP1 ISZERO PUSH2 0x153 JUMPI PUSH0 DUP1 SLOAD PUSH1 0x1 PUSH1 0x1 PUSH1 0xA0 SHL SUB NOT DUP2 AND DUP4 OR DUP3 SSTORE PUSH1 0x1 PUSH1 0x1 PUSH1 0xA0 SHL SUB AND SWAP1 PUSH32 0x8BE0079C531659141344CD1FD0A4F28419497F9722A3DAAFE3B4186F6B6457E0 SWAP1 DUP1 LOG3 STOP JUMPDEST PUSH4 0x1E4FBDF7 PUSH1 0xE0 SHL PUSH0 MSTORE PUSH0 PUSH1 0x4 MSTORE PUSH1 0x24 PUSH0 REVERT JUMPDEST CALLVALUE PUSH2 0xD9 JUMPI PUSH1 0x20 CALLDATASIZE PUSH1 0x3 NOT ADD SLT PUSH2 0xD9 JUMPI PUSH1 0x1 SLOAD PUSH1 0x1 PUSH1 0x1 PUSH1 0xA0 SHL SUB AND PUSH1 0x4 CALLDATALOAD CALLER DUP3 SWAP1 SUB PUSH2 0x2C7 JUMPI PUSH1 0x40 MLOAD PUSH4 0x70A08231 PUSH1 0xE0 SHL DUP2 MSTORE ADDRESS PUSH1 0x4 DUP3 ADD MSTORE PUSH32 0x0 SWAP3 SWAP1 SWAP2 PUSH1 0x20 DUP4 PUSH1 0x24 DUP2 PUSH1 0x1 PUSH1 0x1 PUSH1 0xA0 SHL SUB DUP9 AND GAS STATICCALL SWAP3 DUP4 ISZERO PUSH2 0x2BC JUMPI PUSH0 SWAP4 PUSH2 0x288 JUMPI JUMPDEST POP DUP3 ISZERO PUSH2 0x239 JUMPI PUSH32 0xC13627A0906158AF00730245B26FBCC9E6AAD2962B127DC117F86E583F71C9DB SWAP4 PUSH1 0x20 SWAP4 PUSH2 0x226 SWAP3 DUP2 DUP2 GT ISZERO PUSH2 0x22F JUMPI POP SWAP3 DUP4 SWAP2 PUSH2 0x9C6 JUMP JUMPDEST PUSH1 0x40 MLOAD SWAP1 DUP2 MSTORE LOG1 STOP JUMPDEST SWAP1 POP SWAP3 DUP4 SWAP2 PUSH2 0x9C6 JUMP JUMPDEST PUSH1 0x40 MLOAD PUSH3 0x461BCD PUSH1 0xE5 SHL DUP2 MSTORE PUSH1 0x20 PUSH1 0x4 DUP3 ADD MSTORE PUSH1 0x21 PUSH1 0x24 DUP3 ADD MSTORE PUSH32 0x5265696E737572616E63653A206E6F206361706974616C20617661696C61626C PUSH1 0x44 DUP3 ADD MSTORE PUSH1 0x65 PUSH1 0xF8 SHL PUSH1 0x64 DUP3 ADD MSTORE PUSH1 0x84 SWAP1 REVERT JUMPDEST SWAP1 SWAP3 POP PUSH1 0x20 DUP2 RETURNDATASIZE PUSH1 0x20 GT PUSH2 0x2B4 JUMPI JUMPDEST DUP2 PUSH2 0x2A4 PUSH1 0x20 SWAP4 DUP4 PUSH2 0x91A JUMP JUMPDEST DUP2 ADD SUB SLT PUSH2 0xD9 JUMPI MLOAD SWAP2 DUP5 PUSH2 0x1E5 JUMP JUMPDEST RETURNDATASIZE SWAP2 POP PUSH2 0x297 JUMP JUMPDEST PUSH1 0x40 MLOAD RETURNDATASIZE PUSH0 DUP3 RETURNDATACOPY RETURNDATASIZE SWAP1 REVERT JUMPDEST PUSH1 0x40 MLOAD PUSH3 0x461BCD PUSH1 0xE5 SHL DUP2 MSTORE PUSH1 0x20 PUSH1 0x4 DUP3 ADD MSTORE PUSH1 0x1D PUSH1 0x24 DUP3 ADD MSTORE PUSH32 0x5265696E737572616E63653A206E6F74207072696D61727920706F6F6C000000 PUSH1 0x44 DUP3 ADD MSTORE PUSH1 0x64 SWAP1 REVERT JUMPDEST CALLVALUE PUSH2 0xD9 JUMPI PUSH1 0x20 CALLDATASIZE PUSH1 0x3 NOT ADD SLT PUSH2 0xD9 JUMPI PUSH1 0x4 CALLDATALOAD PUSH2 0x328 PUSH2 0x98E JUMP JUMPDEST DUP1 ISZERO PUSH2 0x4D7 JUMPI PUSH1 0x40 MLOAD PUSH4 0x70A08231 PUSH1 0xE0 SHL DUP2 MSTORE ADDRESS PUSH1 0x4 DUP3 ADD MSTORE PUSH32 0x0 PUSH1 0x1 PUSH1 0x1 PUSH1 0xA0 SHL SUB DUP2 AND SWAP1 PUSH1 0x20 DUP4 PUSH1 0x24 DUP2 DUP6 GAS STATICCALL SWAP3 DUP4 ISZERO PUSH2 0x2BC JUMPI PUSH0 SWAP4 PUSH2 0x4A3 JUMPI JUMPDEST POP PUSH1 0x40 MLOAD SWAP1 PUSH4 0x23B872DD PUSH1 0xE0 SHL PUSH0 MSTORE CALLER PUSH1 0x4 MSTORE ADDRESS PUSH1 0x24 MSTORE DUP5 PUSH1 0x44 MSTORE PUSH1 0x20 PUSH0 PUSH1 0x64 DUP2 DUP1 DUP6 GAS CALL SWAP1 PUSH1 0x1 PUSH0 MLOAD EQ DUP3 AND ISZERO PUSH2 0x484 JUMPI JUMPDEST POP SWAP1 PUSH1 0x40 MSTORE PUSH0 PUSH1 0x60 MSTORE ISZERO PUSH2 0x472 JUMPI POP PUSH1 0x2 SLOAD SWAP1 DUP2 ISZERO DUP1 ISZERO PUSH2 0x46A JUMPI JUMPDEST ISZERO PUSH2 0x44D JUMPI POP PUSH2 0x3E4 DUP3 DUP1 SWAP3 PUSH2 0x90D JUMP JUMPDEST PUSH1 0x2 SSTORE CALLER PUSH0 MSTORE PUSH1 0x3 PUSH1 0x20 MSTORE PUSH2 0x3FE PUSH1 0x40 PUSH0 KECCAK256 SWAP2 DUP3 SLOAD PUSH2 0x90D JUMP JUMPDEST SWAP1 SSTORE CALLER PUSH0 MSTORE PUSH1 0x4 PUSH1 0x20 MSTORE TIMESTAMP PUSH1 0x40 PUSH0 KECCAK256 SSTORE PUSH1 0x40 MLOAD SWAP1 DUP2 MSTORE PUSH32 0x9E71BC8EEA02A63969F509818F2DAFB9254532904319F9DBDA79B67BD34A5F3D PUSH1 0x20 CALLER SWAP3 LOG2 PUSH1 0x1 PUSH0 MLOAD PUSH1 0x20 PUSH2 0xA6E PUSH0 CODECOPY PUSH0 MLOAD SWAP1 PUSH0 MSTORE SSTORE STOP JUMPDEST PUSH2 0x463 PUSH2 0x3E4 SWAP2 PUSH2 0x45E DUP5 DUP7 PUSH2 0x950 JUMP JUMPDEST PUSH2 0x963 JUMP JUMPDEST DUP1 SWAP3 PUSH2 0x90D JUMP JUMPDEST POP DUP1 ISZERO PUSH2 0x3D3 JUMP JUMPDEST PUSH4 0x5274AFE7 PUSH1 0xE0 SHL PUSH0 MSTORE PUSH1 0x4 MSTORE PUSH1 0x24 PUSH0 REVERT JUMPDEST PUSH1 0x1 DUP3 ISZERO AND PUSH2 0x49A JUMPI EXTCODESIZE ISZERO ISZERO RETURNDATASIZE ISZERO AND AND DUP6 PUSH2 0x3B7 JUMP JUMPDEST DUP3 RETURNDATASIZE PUSH0 DUP3 RETURNDATACOPY RETURNDATASIZE SWAP1 REVERT JUMPDEST SWAP1 SWAP3 POP PUSH1 0x20 DUP2 RETURNDATASIZE PUSH1 0x20 GT PUSH2 0x4CF JUMPI JUMPDEST DUP2 PUSH2 0x4BF PUSH1 0x20 SWAP4 DUP4 PUSH2 0x91A JUMP JUMPDEST DUP2 ADD SUB SLT PUSH2 0xD9 JUMPI MLOAD SWAP2 DUP5 PUSH2 0x384 JUMP JUMPDEST RETURNDATASIZE SWAP2 POP PUSH2 0x4B2 JUMP JUMPDEST PUSH1 0x40 MLOAD PUSH3 0x461BCD PUSH1 0xE5 SHL DUP2 MSTORE PUSH1 0x20 PUSH1 0x4 DUP3 ADD MSTORE PUSH1 0x15 PUSH1 0x24 DUP3 ADD MSTORE PUSH21 0x5265696E737572616E63653A20616D6F756E743D3 PUSH1 0x5C SHL PUSH1 0x44 DUP3 ADD MSTORE PUSH1 0x64 SWAP1 REVERT JUMPDEST CALLVALUE PUSH2 0xD9 JUMPI PUSH0 CALLDATASIZE PUSH1 0x3 NOT ADD SLT PUSH2 0xD9 JUMPI PUSH1 0x1 SLOAD PUSH1 0x40 MLOAD PUSH1 0x1 PUSH1 0x1 PUSH1 0xA0 SHL SUB SWAP1 SWAP2 AND DUP2 MSTORE PUSH1 0x20 SWAP1 RETURN JUMPDEST CALLVALUE PUSH2 0xD9 JUMPI PUSH0 CALLDATASIZE PUSH1 0x3 NOT ADD SLT PUSH2 0xD9 JUMPI PUSH0 SLOAD PUSH1 0x40 MLOAD PUSH1 0x1 PUSH1 0x1 PUSH1 0xA0 SHL SUB SWAP1 SWAP2 AND DUP2 MSTORE PUSH1 0x20 SWAP1 RETURN JUMPDEST CALLVALUE PUSH2 0xD9 JUMPI PUSH0 CALLDATASIZE PUSH1 0x3 NOT ADD SLT PUSH2 0xD9 JUMPI PUSH2 0x57B PUSH2 0xA47 JUMP JUMPDEST PUSH0 DUP1 SLOAD PUSH1 0x1 PUSH1 0x1 PUSH1 0xA0 SHL SUB NOT DUP2 AND DUP3 SSTORE PUSH1 0x1 PUSH1 0x1 PUSH1 0xA0 SHL SUB AND PUSH32 0x8BE0079C531659141344CD1FD0A4F28419497F9722A3DAAFE3B4186F6B6457E0 DUP3 DUP1 LOG3 STOP JUMPDEST CALLVALUE PUSH2 0xD9 JUMPI PUSH1 0x20 CALLDATASIZE PUSH1 0x3 NOT ADD SLT PUSH2 0xD9 JUMPI PUSH1 0x4 CALLDATALOAD PUSH1 0x1 PUSH1 0x1 PUSH1 0xA0 SHL SUB DUP2 AND SWAP1 DUP2 SWAP1 SUB PUSH2 0xD9 JUMPI PUSH0 MSTORE PUSH1 0x4 PUSH1 0x20 MSTORE PUSH1 0x20 PUSH1 0x40 PUSH0 KECCAK256 SLOAD PUSH1 0x40 MLOAD SWAP1 DUP2 MSTORE RETURN JUMPDEST CALLVALUE PUSH2 0xD9 JUMPI PUSH1 0x20 CALLDATASIZE PUSH1 0x3 NOT ADD SLT PUSH2 0xD9 JUMPI PUSH1 0x4 CALLDATALOAD PUSH1 0x1 PUSH1 0x1 PUSH1 0xA0 SHL SUB DUP2 AND SWAP1 DUP2 SWAP1 SUB PUSH2 0xD9 JUMPI PUSH2 0x624 PUSH2 0xA47 JUMP JUMPDEST PUSH1 0x1 DUP1 SLOAD PUSH1 0x1 PUSH1 0x1 PUSH1 0xA0 SHL SUB NOT AND DUP3 OR SWAP1 SSTORE PUSH32 0x29DEFAEEEC5505D275C25799EBADB74D01C7B5FB5A5606502048D24144EE4671 PUSH0 DUP1 LOG2 STOP JUMPDEST CALLVALUE PUSH2 0xD9 JUMPI PUSH0 CALLDATASIZE PUSH1 0x3 NOT ADD SLT PUSH2 0xD9 JUMPI PUSH1 0x40 MLOAD PUSH32 0x0 PUSH1 0x1 PUSH1 0x1 PUSH1 0xA0 SHL SUB AND DUP2 MSTORE PUSH1 0x20 SWAP1 RETURN JUMPDEST CALLVALUE PUSH2 0xD9 JUMPI PUSH0 CALLDATASIZE PUSH1 0x3 NOT ADD SLT PUSH2 0xD9 JUMPI PUSH1 0x20 PUSH1 0x2 SLOAD PUSH1 0x40 MLOAD SWAP1 DUP2 MSTORE RETURN JUMPDEST CALLVALUE PUSH2 0xD9 JUMPI PUSH1 0x20 CALLDATASIZE PUSH1 0x3 NOT ADD SLT PUSH2 0xD9 JUMPI PUSH1 0x4 CALLDATALOAD PUSH2 0x6D9 PUSH2 0x98E JUMP JUMPDEST DUP1 ISZERO PUSH2 0x8D0 JUMPI CALLER PUSH0 MSTORE PUSH1 0x3 PUSH1 0x20 MSTORE DUP1 PUSH1 0x40 PUSH0 KECCAK256 SLOAD LT PUSH2 0x88C JUMPI CALLER PUSH0 MSTORE PUSH1 0x4 PUSH1 0x20 MSTORE PUSH1 0x40 PUSH0 KECCAK256 SLOAD PUSH3 0x278D00 DUP2 ADD DUP1 SWAP2 GT PUSH2 0x878 JUMPI TIMESTAMP LT PUSH2 0x829 JUMPI PUSH1 0x40 MLOAD PUSH4 0x70A08231 PUSH1 0xE0 SHL DUP2 MSTORE ADDRESS PUSH1 0x4 DUP3 ADD MSTORE PUSH32 0x0 SWAP2 SWAP1 PUSH1 0x20 DUP2 PUSH1 0x24 DUP2 PUSH1 0x1 PUSH1 0x1 PUSH1 0xA0 SHL SUB DUP8 AND GAS STATICCALL SWAP1 DUP2 ISZERO PUSH2 0x2BC JUMPI PUSH0 SWAP2 PUSH2 0x7F3 JUMPI JUMPDEST PUSH2 0x7AA PUSH2 0x7B4 DUP5 DUP7 PUSH2 0x786 PUSH2 0x77D DUP4 DUP9 PUSH2 0x950 JUMP JUMPDEST PUSH1 0x2 SLOAD SWAP1 PUSH2 0x963 JUMP JUMPDEST SWAP4 DUP5 SWAP3 CALLER PUSH0 MSTORE PUSH1 0x3 PUSH1 0x20 MSTORE PUSH1 0x40 PUSH0 KECCAK256 PUSH2 0x7A0 DUP3 DUP3 SLOAD PUSH2 0x981 JUMP JUMPDEST SWAP1 SSTORE PUSH1 0x2 SLOAD PUSH2 0x981 JUMP JUMPDEST PUSH1 0x2 SSTORE CALLER SWAP1 PUSH2 0x9C6 JUMP JUMPDEST PUSH1 0x40 MLOAD SWAP1 DUP2 MSTORE PUSH32 0x7084F5476618D8E60B11EF0D7D3F06914655ADB8793E28FF7F018D4C76D505D5 PUSH1 0x20 CALLER SWAP3 LOG2 PUSH1 0x1 PUSH0 MLOAD PUSH1 0x20 PUSH2 0xA6E PUSH0 CODECOPY PUSH0 MLOAD SWAP1 PUSH0 MSTORE SSTORE STOP JUMPDEST SWAP2 SWAP1 POP PUSH1 0x20 DUP3 RETURNDATASIZE PUSH1 0x20 GT PUSH2 0x821 JUMPI JUMPDEST DUP2 PUSH2 0x80F PUSH1 0x20 SWAP4 DUP4 PUSH2 0x91A JUMP JUMPDEST DUP2 ADD SUB SLT PUSH2 0xD9 JUMPI SWAP1 MLOAD PUSH2 0x7AA PUSH2 0x768 JUMP JUMPDEST RETURNDATASIZE SWAP2 POP PUSH2 0x802 JUMP JUMPDEST PUSH1 0x40 MLOAD PUSH3 0x461BCD PUSH1 0xE5 SHL DUP2 MSTORE PUSH1 0x20 PUSH1 0x4 DUP3 ADD MSTORE PUSH1 0x21 PUSH1 0x24 DUP3 ADD MSTORE PUSH32 0x5265696E737572616E63653A2033302D646179206C6F636B7570206163746976 PUSH1 0x44 DUP3 ADD MSTORE PUSH1 0x65 PUSH1 0xF8 SHL PUSH1 0x64 DUP3 ADD MSTORE PUSH1 0x84 SWAP1 REVERT JUMPDEST PUSH4 0x4E487B71 PUSH1 0xE0 SHL PUSH0 MSTORE PUSH1 0x11 PUSH1 0x4 MSTORE PUSH1 0x24 PUSH0 REVERT JUMPDEST PUSH1 0x64 PUSH1 0x40 MLOAD PUSH3 0x461BCD PUSH1 0xE5 SHL DUP2 MSTORE PUSH1 0x20 PUSH1 0x4 DUP3 ADD MSTORE PUSH1 0x20 PUSH1 0x24 DUP3 ADD MSTORE PUSH32 0x5265696E737572616E63653A20696E73756666696369656E7420736861726573 PUSH1 0x44 DUP3 ADD MSTORE REVERT JUMPDEST PUSH1 0x40 MLOAD PUSH3 0x461BCD PUSH1 0xE5 SHL DUP2 MSTORE PUSH1 0x20 PUSH1 0x4 DUP3 ADD MSTORE PUSH1 0x15 PUSH1 0x24 DUP3 ADD MSTORE PUSH21 0x5265696E737572616E63653A207368617265733D3 PUSH1 0x5C SHL PUSH1 0x44 DUP3 ADD MSTORE PUSH1 0x64 SWAP1 REVERT JUMPDEST SWAP2 SWAP1 DUP3 ADD DUP1 SWAP3 GT PUSH2 0x878 JUMPI JUMP JUMPDEST SWAP1 PUSH1 0x1F DUP1 NOT SWAP2 ADD AND DUP2 ADD SWAP1 DUP2 LT PUSH8 0xFFFFFFFFFFFFFFFF DUP3 GT OR PUSH2 0x93C JUMPI PUSH1 0x40 MSTORE JUMP JUMPDEST PUSH4 0x4E487B71 PUSH1 0xE0 SHL PUSH0 MSTORE PUSH1 0x41 PUSH1 0x4 MSTORE PUSH1 0x24 PUSH0 REVERT JUMPDEST DUP2 DUP2 MUL SWAP3 SWAP2 DUP2 ISZERO SWAP2 DUP5 DIV EQ OR ISZERO PUSH2 0x878 JUMPI JUMP JUMPDEST DUP2 ISZERO PUSH2 0x96D JUMPI DIV SWAP1 JUMP JUMPDEST PUSH4 0x4E487B71 PUSH1 0xE0 SHL PUSH0 MSTORE PUSH1 0x12 PUSH1 0x4 MSTORE PUSH1 0x24 PUSH0 REVERT JUMPDEST SWAP2 SWAP1 DUP3 SUB SWAP2 DUP3 GT PUSH2 0x878 JUMPI JUMP JUMPDEST PUSH1 0x2 PUSH0 MLOAD PUSH1 0x20 PUSH2 0xA6E PUSH0 CODECOPY PUSH0 MLOAD SWAP1 PUSH0 MSTORE SLOAD EQ PUSH2 0x9B7 JUMPI PUSH1 0x2 PUSH0 MLOAD PUSH1 0x20 PUSH2 0xA6E PUSH0 CODECOPY PUSH0 MLOAD SWAP1 PUSH0 MSTORE SSTORE JUMP JUMPDEST PUSH4 0x3EE5AEB5 PUSH1 0xE0 SHL PUSH0 MSTORE PUSH1 0x4 PUSH0 REVERT JUMPDEST SWAP2 PUSH1 0x40 MLOAD SWAP2 PUSH4 0xA9059CBB PUSH1 0xE0 SHL PUSH0 MSTORE PUSH1 0x1 DUP1 PUSH1 0xA0 SHL SUB AND PUSH1 0x4 MSTORE PUSH1 0x24 MSTORE PUSH1 0x20 PUSH0 PUSH1 0x44 DUP2 DUP1 DUP7 GAS CALL SWAP1 PUSH1 0x1 PUSH0 MLOAD EQ DUP3 AND ISZERO PUSH2 0xA26 JUMPI JUMPDEST PUSH1 0x40 MSTORE ISZERO PUSH2 0xA06 JUMPI POP JUMP JUMPDEST PUSH4 0x5274AFE7 PUSH1 0xE0 SHL PUSH0 SWAP1 DUP2 MSTORE PUSH1 0x1 PUSH1 0x1 PUSH1 0xA0 SHL SUB SWAP2 SWAP1 SWAP2 AND PUSH1 0x4 MSTORE PUSH1 0x24 SWAP1 REVERT JUMPDEST SWAP1 PUSH1 0x1 DUP2 ISZERO AND PUSH2 0xA3E JUMPI DUP3 EXTCODESIZE ISZERO ISZERO RETURNDATASIZE ISZERO AND AND SWAP1 PUSH2 0x9FB JUMP JUMPDEST POP RETURNDATASIZE PUSH0 DUP3 RETURNDATACOPY RETURNDATASIZE SWAP1 REVERT JUMPDEST PUSH0 SLOAD PUSH1 0x1 PUSH1 0x1 PUSH1 0xA0 SHL SUB AND CALLER SUB PUSH2 0xA5A JUMPI JUMP JUMPDEST PUSH4 0x118CDAA7 PUSH1 0xE0 SHL PUSH0 MSTORE CALLER PUSH1 0x4 MSTORE PUSH1 0x24 PUSH0 REVERT INVALID SWAP12 PUSH24 0x9B17422D0DF92223018B32B4D1FA46E071723D6817E2486D STOP EXTCODESIZE 0xEC 0xC5 PUSH0 STOP LOG2 PUSH5 0x6970667358 0x22 SLT KECCAK256 EQ EQ 0xC PC 0xEC LOG0 DUP7 0xEC POP SWAP15 DUP7 0xD5 PREVRANDAO PUSH27 0xD97C452B93CC5C799989B70140348BB468DF64736F6C634300081C STOP CALLER "},"methodIdentifiers":{"depositTime(address)":"46c64873","owner()":"8da5cb5b","primaryPool()":"9be3d69c","renounceOwnership()":"715018a6","requestDrawdown(uint256)":"d768c90d","setPrimaryPool(address)":"3f91d69d","sharesOf(address)":"f5eb42dc","stake(uint256)":"a694fc3a","totalShares()":"3a98ef39","transferOwnership(address)":"f2fde38b","usdc()":"3e413bee","withdraw(uint256)":"2e1a7d4d"}}}}}