{"contracts/LiquidityPool.sol":{"LiquidityPool":{"abi":[{"inputs":[{"internalType":"address","name":"_usdc","type":"address"},{"internalType":"address","name":"_owner","type":"address"}],"stateMutability":"nonpayable","type":"constructor"},{"inputs":[{"internalType":"address","name":"owner","type":"address"}],"name":"OwnableInvalidOwner","type":"error"},{"inputs":[{"internalType":"address","name":"account","type":"address"}],"name":"OwnableUnauthorizedAccount","type":"error"},{"inputs":[],"name":"ReentrancyGuardReentrantCall","type":"error"},{"inputs":[{"internalType":"address","name":"token","type":"address"}],"name":"SafeERC20FailedOperation","type":"error"},{"anonymous":false,"inputs":[{"indexed":true,"internalType":"address","name":"previousOwner","type":"address"},{"indexed":true,"internalType":"address","name":"newOwner","type":"address"}],"name":"OwnershipTransferred","type":"event"},{"anonymous":false,"inputs":[{"indexed":true,"internalType":"address","name":"lp","type":"address"},{"indexed":false,"internalType":"uint256","name":"amount","type":"uint256"},{"indexed":false,"internalType":"uint256","name":"sharesMinted","type":"uint256"}],"name":"Staked","type":"event"},{"anonymous":false,"inputs":[{"indexed":true,"internalType":"address","name":"lp","type":"address"},{"indexed":false,"internalType":"uint256","name":"sharesBurned","type":"uint256"},{"indexed":false,"internalType":"uint256","name":"amountReturned","type":"uint256"}],"name":"Withdrawn","type":"event"},{"inputs":[],"name":"owner","outputs":[{"internalType":"address","name":"","type":"address"}],"stateMutability":"view","type":"function"},{"inputs":[],"name":"renounceOwnership","outputs":[],"stateMutability":"nonpayable","type":"function"},{"inputs":[{"internalType":"address","name":"","type":"address"}],"name":"sharesOf","outputs":[{"internalType":"uint256","name":"","type":"uint256"}],"stateMutability":"view","type":"function"},{"inputs":[{"internalType":"uint256","name":"amount","type":"uint256"}],"name":"stake","outputs":[],"stateMutability":"nonpayable","type":"function"},{"inputs":[],"name":"totalShares","outputs":[{"internalType":"uint256","name":"","type":"uint256"}],"stateMutability":"view","type":"function"},{"inputs":[{"internalType":"address","name":"newOwner","type":"address"}],"name":"transferOwnership","outputs":[],"stateMutability":"nonpayable","type":"function"},{"inputs":[],"name":"usdc","outputs":[{"internalType":"contract IERC20","name":"","type":"address"}],"stateMutability":"view","type":"function"},{"inputs":[{"internalType":"uint256","name":"shares","type":"uint256"}],"name":"withdraw","outputs":[],"stateMutability":"nonpayable","type":"function"}],"evm":{"bytecode":{"linkReferences":{},"object":"60a03461011157601f6108e138819003918201601f19168301916001600160401b038311848410176101155780849260409485528339810103126101115761004681610129565b906001600160a01b039061005c90602001610129565b169081156100fe575f80546001600160a01b031981168417825560405193916001600160a01b03909116907f8be0079c531659141344cd1fd0a4f28419497f9722a3daafe3b4186f6b6457e09080a360017f9b779b17422d0df92223018b32b4d1fa46e071723d6817e2486d003becc55f00556001600160a01b03166080526107a3908161013e8239608051818181610171015281816103df01526104760152f35b631e4fbdf760e01b5f525f60045260245ffd5b5f80fd5b634e487b7160e01b5f52604160045260245ffd5b51906001600160a01b03821682036101115756fe60806040526004361015610011575f80fd5b5f3560e01c80632e1a7d4d1461042b5780633a98ef391461040e5780633e413bee146103ca578063715018a6146103735780638da5cb5b1461034c578063a694fc3a1461013a578063f2fde38b146100b15763f5eb42dc14610071575f80fd5b346100ad5760203660031901126100ad576004356001600160a01b038116908190036100ad575f526002602052602060405f2054604051908152f35b5f80fd5b346100ad5760203660031901126100ad576004356001600160a01b038116908190036100ad576100df610727565b8015610127575f80546001600160a01b03198116831782556001600160a01b0316907f8be0079c531659141344cd1fd0a4f28419497f9722a3daafe3b4186f6b6457e09080a3005b631e4fbdf760e01b5f525f60045260245ffd5b346100ad5760203660031901126100ad576004356101566106ef565b8015610307576040516370a0823160e01b81523060048201527f00000000000000000000000000000000000000000000000000000000000000006001600160a01b03811690602083602481855afa9283156102fc575f936102c8575b50604051906323b872dd60e01b5f5233600452306024528460445260205f60648180855af19060015f51148216156102a9575b50906040525f606052156102975750600154908115801561028f575b1561027257506102128280926106e2565b600155335f52600260205260405f2061022c8282546106e2565b905560405191825260208201527f1449c6dd7851abc30abf37f57715f492010519147cc2652fbc38202c18a6ee9060403392a260015f51602061074e5f395f51905f5255005b610288610212916102838486610690565b6106b7565b80926106e2565b508015610201565b635274afe760e01b5f5260045260245ffd5b60018215166102bf573b15153d151616856101e5565b823d5f823e3d90fd5b9092506020813d6020116102f4575b816102e46020938361065a565b810103126100ad575191846101b2565b3d91506102d7565b6040513d5f823e3d90fd5b60405162461bcd60e51b815260206004820152601760248201527f4c6971756964697479506f6f6c3a20616d6f756e743d300000000000000000006044820152606490fd5b346100ad575f3660031901126100ad575f546040516001600160a01b039091168152602090f35b346100ad575f3660031901126100ad5761038b610727565b5f80546001600160a01b0319811682556001600160a01b03167f8be0079c531659141344cd1fd0a4f28419497f9722a3daafe3b4186f6b6457e08280a3005b346100ad575f3660031901126100ad576040517f00000000000000000000000000000000000000000000000000000000000000006001600160a01b03168152602090f35b346100ad575f3660031901126100ad576020600154604051908152f35b346100ad5760203660031901126100ad576004356104476106ef565b801561061557335f52600260205260405f20548181106105c5576040516370a0823160e01b81523060048201527f000000000000000000000000000000000000000000000000000000000000000092906001600160a01b03841690602081602481855afa9081156102fc5783905f9261058f575b506104d56104cc826104db94610690565b600154906106b7565b946106d5565b335f52600260205260405f20556104f4826001546106d5565b6001556040519363a9059cbb60e01b5f52336004528360245260205f60448180855af19060015f5114821615610570575b5084604052156102975750825260208201527f92ccf450a286a957af52509bc1c9939d1a6a481783e142e41e2499f0bb66ebc660403392a260015f51602061074e5f395f51905f5255005b6001821516610586573b15153d15161685610525565b853d5f823e3d90fd5b9150506020813d6020116105bd575b816105ab6020938361065a565b810103126100ad5751826104d56104bb565b3d915061059e565b60405162461bcd60e51b815260206004820152602260248201527f4c6971756964697479506f6f6c3a20696e73756666696369656e742073686172604482015261657360f01b6064820152608490fd5b60405162461bcd60e51b815260206004820152601760248201527f4c6971756964697479506f6f6c3a207368617265733d300000000000000000006044820152606490fd5b90601f8019910116810190811067ffffffffffffffff82111761067c57604052565b634e487b7160e01b5f52604160045260245ffd5b818102929181159184041417156106a357565b634e487b7160e01b5f52601160045260245ffd5b81156106c1570490565b634e487b7160e01b5f52601260045260245ffd5b919082039182116106a357565b919082018092116106a357565b60025f51602061074e5f395f51905f5254146107185760025f51602061074e5f395f51905f5255565b633ee5aeb560e01b5f5260045ffd5b5f546001600160a01b0316330361073a57565b63118cdaa760e01b5f523360045260245ffdfe9b779b17422d0df92223018b32b4d1fa46e071723d6817e2486d003becc55f00a26469706673582212207162aa9826416dd456eb1564b400573086885cba4c0ac914bf4b0c5b237deab964736f6c634300081c0033","opcodes":"PUSH1 0xA0 CALLVALUE PUSH2 0x111 JUMPI PUSH1 0x1F PUSH2 0x8E1 CODESIZE DUP2 SWAP1 SUB SWAP2 DUP3 ADD PUSH1 0x1F NOT AND DUP4 ADD SWAP2 PUSH1 0x1 PUSH1 0x1 PUSH1 0x40 SHL SUB DUP4 GT DUP5 DUP5 LT OR PUSH2 0x115 JUMPI DUP1 DUP5 SWAP3 PUSH1 0x40 SWAP5 DUP6 MSTORE DUP4 CODECOPY DUP2 ADD SUB SLT PUSH2 0x111 JUMPI PUSH2 0x46 DUP2 PUSH2 0x129 JUMP JUMPDEST SWAP1 PUSH1 0x1 PUSH1 0x1 PUSH1 0xA0 SHL SUB SWAP1 PUSH2 0x5C SWAP1 PUSH1 0x20 ADD PUSH2 0x129 JUMP JUMPDEST AND SWAP1 DUP2 ISZERO PUSH2 0xFE JUMPI PUSH0 DUP1 SLOAD PUSH1 0x1 PUSH1 0x1 PUSH1 0xA0 SHL SUB NOT DUP2 AND DUP5 OR DUP3 SSTORE PUSH1 0x40 MLOAD SWAP4 SWAP2 PUSH1 0x1 PUSH1 0x1 PUSH1 0xA0 SHL SUB SWAP1 SWAP2 AND SWAP1 PUSH32 0x8BE0079C531659141344CD1FD0A4F28419497F9722A3DAAFE3B4186F6B6457E0 SWAP1 DUP1 LOG3 PUSH1 0x1 PUSH32 0x9B779B17422D0DF92223018B32B4D1FA46E071723D6817E2486D003BECC55F00 SSTORE PUSH1 0x1 PUSH1 0x1 PUSH1 0xA0 SHL SUB AND PUSH1 0x80 MSTORE PUSH2 0x7A3 SWAP1 DUP2 PUSH2 0x13E DUP3 CODECOPY PUSH1 0x80 MLOAD DUP2 DUP2 DUP2 PUSH2 0x171 ADD MSTORE DUP2 DUP2 PUSH2 0x3DF ADD MSTORE PUSH2 0x476 ADD MSTORE RETURN JUMPDEST PUSH4 0x1E4FBDF7 PUSH1 0xE0 SHL PUSH0 MSTORE PUSH0 PUSH1 0x4 MSTORE PUSH1 0x24 PUSH0 REVERT JUMPDEST PUSH0 DUP1 REVERT JUMPDEST PUSH4 0x4E487B71 PUSH1 0xE0 SHL PUSH0 MSTORE PUSH1 0x41 PUSH1 0x4 MSTORE PUSH1 0x24 PUSH0 REVERT JUMPDEST MLOAD SWAP1 PUSH1 0x1 PUSH1 0x1 PUSH1 0xA0 SHL SUB DUP3 AND DUP3 SUB PUSH2 0x111 JUMPI JUMP INVALID PUSH1 0x80 PUSH1 0x40 MSTORE PUSH1 0x4 CALLDATASIZE LT ISZERO PUSH2 0x11 JUMPI PUSH0 DUP1 REVERT JUMPDEST PUSH0 CALLDATALOAD PUSH1 0xE0 SHR DUP1 PUSH4 0x2E1A7D4D EQ PUSH2 0x42B JUMPI DUP1 PUSH4 0x3A98EF39 EQ PUSH2 0x40E JUMPI DUP1 PUSH4 0x3E413BEE EQ PUSH2 0x3CA JUMPI DUP1 PUSH4 0x715018A6 EQ PUSH2 0x373 JUMPI DUP1 PUSH4 0x8DA5CB5B EQ PUSH2 0x34C JUMPI DUP1 PUSH4 0xA694FC3A EQ PUSH2 0x13A JUMPI DUP1 PUSH4 0xF2FDE38B EQ PUSH2 0xB1 JUMPI PUSH4 0xF5EB42DC EQ PUSH2 0x71 JUMPI PUSH0 DUP1 REVERT JUMPDEST CALLVALUE PUSH2 0xAD JUMPI PUSH1 0x20 CALLDATASIZE PUSH1 0x3 NOT ADD SLT PUSH2 0xAD JUMPI PUSH1 0x4 CALLDATALOAD PUSH1 0x1 PUSH1 0x1 PUSH1 0xA0 SHL SUB DUP2 AND SWAP1 DUP2 SWAP1 SUB PUSH2 0xAD JUMPI PUSH0 MSTORE PUSH1 0x2 PUSH1 0x20 MSTORE PUSH1 0x20 PUSH1 0x40 PUSH0 KECCAK256 SLOAD PUSH1 0x40 MLOAD SWAP1 DUP2 MSTORE RETURN JUMPDEST PUSH0 DUP1 REVERT JUMPDEST CALLVALUE PUSH2 0xAD JUMPI PUSH1 0x20 CALLDATASIZE PUSH1 0x3 NOT ADD SLT PUSH2 0xAD JUMPI PUSH1 0x4 CALLDATALOAD PUSH1 0x1 PUSH1 0x1 PUSH1 0xA0 SHL SUB DUP2 AND SWAP1 DUP2 SWAP1 SUB PUSH2 0xAD JUMPI PUSH2 0xDF PUSH2 0x727 JUMP JUMPDEST DUP1 ISZERO PUSH2 0x127 JUMPI PUSH0 DUP1 SLOAD PUSH1 0x1 PUSH1 0x1 PUSH1 0xA0 SHL SUB NOT DUP2 AND DUP4 OR DUP3 SSTORE PUSH1 0x1 PUSH1 0x1 PUSH1 0xA0 SHL SUB AND SWAP1 PUSH32 0x8BE0079C531659141344CD1FD0A4F28419497F9722A3DAAFE3B4186F6B6457E0 SWAP1 DUP1 LOG3 STOP JUMPDEST PUSH4 0x1E4FBDF7 PUSH1 0xE0 SHL PUSH0 MSTORE PUSH0 PUSH1 0x4 MSTORE PUSH1 0x24 PUSH0 REVERT JUMPDEST CALLVALUE PUSH2 0xAD JUMPI PUSH1 0x20 CALLDATASIZE PUSH1 0x3 NOT ADD SLT PUSH2 0xAD JUMPI PUSH1 0x4 CALLDATALOAD PUSH2 0x156 PUSH2 0x6EF JUMP JUMPDEST DUP1 ISZERO PUSH2 0x307 JUMPI PUSH1 0x40 MLOAD PUSH4 0x70A08231 PUSH1 0xE0 SHL DUP2 MSTORE ADDRESS PUSH1 0x4 DUP3 ADD MSTORE PUSH32 0x0 PUSH1 0x1 PUSH1 0x1 PUSH1 0xA0 SHL SUB DUP2 AND SWAP1 PUSH1 0x20 DUP4 PUSH1 0x24 DUP2 DUP6 GAS STATICCALL SWAP3 DUP4 ISZERO PUSH2 0x2FC JUMPI PUSH0 SWAP4 PUSH2 0x2C8 JUMPI JUMPDEST POP PUSH1 0x40 MLOAD SWAP1 PUSH4 0x23B872DD PUSH1 0xE0 SHL PUSH0 MSTORE CALLER PUSH1 0x4 MSTORE ADDRESS PUSH1 0x24 MSTORE DUP5 PUSH1 0x44 MSTORE PUSH1 0x20 PUSH0 PUSH1 0x64 DUP2 DUP1 DUP6 GAS CALL SWAP1 PUSH1 0x1 PUSH0 MLOAD EQ DUP3 AND ISZERO PUSH2 0x2A9 JUMPI JUMPDEST POP SWAP1 PUSH1 0x40 MSTORE PUSH0 PUSH1 0x60 MSTORE ISZERO PUSH2 0x297 JUMPI POP PUSH1 0x1 SLOAD SWAP1 DUP2 ISZERO DUP1 ISZERO PUSH2 0x28F JUMPI JUMPDEST ISZERO PUSH2 0x272 JUMPI POP PUSH2 0x212 DUP3 DUP1 SWAP3 PUSH2 0x6E2 JUMP JUMPDEST PUSH1 0x1 SSTORE CALLER PUSH0 MSTORE PUSH1 0x2 PUSH1 0x20 MSTORE PUSH1 0x40 PUSH0 KECCAK256 PUSH2 0x22C DUP3 DUP3 SLOAD PUSH2 0x6E2 JUMP JUMPDEST SWAP1 SSTORE PUSH1 0x40 MLOAD SWAP2 DUP3 MSTORE PUSH1 0x20 DUP3 ADD MSTORE PUSH32 0x1449C6DD7851ABC30ABF37F57715F492010519147CC2652FBC38202C18A6EE90 PUSH1 0x40 CALLER SWAP3 LOG2 PUSH1 0x1 PUSH0 MLOAD PUSH1 0x20 PUSH2 0x74E PUSH0 CODECOPY PUSH0 MLOAD SWAP1 PUSH0 MSTORE SSTORE STOP JUMPDEST PUSH2 0x288 PUSH2 0x212 SWAP2 PUSH2 0x283 DUP5 DUP7 PUSH2 0x690 JUMP JUMPDEST PUSH2 0x6B7 JUMP JUMPDEST DUP1 SWAP3 PUSH2 0x6E2 JUMP JUMPDEST POP DUP1 ISZERO PUSH2 0x201 JUMP JUMPDEST PUSH4 0x5274AFE7 PUSH1 0xE0 SHL PUSH0 MSTORE PUSH1 0x4 MSTORE PUSH1 0x24 PUSH0 REVERT JUMPDEST PUSH1 0x1 DUP3 ISZERO AND PUSH2 0x2BF JUMPI EXTCODESIZE ISZERO ISZERO RETURNDATASIZE ISZERO AND AND DUP6 PUSH2 0x1E5 JUMP JUMPDEST DUP3 RETURNDATASIZE PUSH0 DUP3 RETURNDATACOPY RETURNDATASIZE SWAP1 REVERT JUMPDEST SWAP1 SWAP3 POP PUSH1 0x20 DUP2 RETURNDATASIZE PUSH1 0x20 GT PUSH2 0x2F4 JUMPI JUMPDEST DUP2 PUSH2 0x2E4 PUSH1 0x20 SWAP4 DUP4 PUSH2 0x65A JUMP JUMPDEST DUP2 ADD SUB SLT PUSH2 0xAD JUMPI MLOAD SWAP2 DUP5 PUSH2 0x1B2 JUMP JUMPDEST RETURNDATASIZE SWAP2 POP PUSH2 0x2D7 JUMP JUMPDEST PUSH1 0x40 MLOAD RETURNDATASIZE PUSH0 DUP3 RETURNDATACOPY RETURNDATASIZE SWAP1 REVERT JUMPDEST PUSH1 0x40 MLOAD PUSH3 0x461BCD PUSH1 0xE5 SHL DUP2 MSTORE PUSH1 0x20 PUSH1 0x4 DUP3 ADD MSTORE PUSH1 0x17 PUSH1 0x24 DUP3 ADD MSTORE PUSH32 0x4C6971756964697479506F6F6C3A20616D6F756E743D30000000000000000000 PUSH1 0x44 DUP3 ADD MSTORE PUSH1 0x64 SWAP1 REVERT JUMPDEST CALLVALUE PUSH2 0xAD JUMPI PUSH0 CALLDATASIZE PUSH1 0x3 NOT ADD SLT PUSH2 0xAD JUMPI PUSH0 SLOAD PUSH1 0x40 MLOAD PUSH1 0x1 PUSH1 0x1 PUSH1 0xA0 SHL SUB SWAP1 SWAP2 AND DUP2 MSTORE PUSH1 0x20 SWAP1 RETURN JUMPDEST CALLVALUE PUSH2 0xAD JUMPI PUSH0 CALLDATASIZE PUSH1 0x3 NOT ADD SLT PUSH2 0xAD JUMPI PUSH2 0x38B PUSH2 0x727 JUMP JUMPDEST PUSH0 DUP1 SLOAD PUSH1 0x1 PUSH1 0x1 PUSH1 0xA0 SHL SUB NOT DUP2 AND DUP3 SSTORE PUSH1 0x1 PUSH1 0x1 PUSH1 0xA0 SHL SUB AND PUSH32 0x8BE0079C531659141344CD1FD0A4F28419497F9722A3DAAFE3B4186F6B6457E0 DUP3 DUP1 LOG3 STOP JUMPDEST CALLVALUE PUSH2 0xAD JUMPI PUSH0 CALLDATASIZE PUSH1 0x3 NOT ADD SLT PUSH2 0xAD JUMPI PUSH1 0x40 MLOAD PUSH32 0x0 PUSH1 0x1 PUSH1 0x1 PUSH1 0xA0 SHL SUB AND DUP2 MSTORE PUSH1 0x20 SWAP1 RETURN JUMPDEST CALLVALUE PUSH2 0xAD JUMPI PUSH0 CALLDATASIZE PUSH1 0x3 NOT ADD SLT PUSH2 0xAD JUMPI PUSH1 0x20 PUSH1 0x1 SLOAD PUSH1 0x40 MLOAD SWAP1 DUP2 MSTORE RETURN JUMPDEST CALLVALUE PUSH2 0xAD JUMPI PUSH1 0x20 CALLDATASIZE PUSH1 0x3 NOT ADD SLT PUSH2 0xAD JUMPI PUSH1 0x4 CALLDATALOAD PUSH2 0x447 PUSH2 0x6EF JUMP JUMPDEST DUP1 ISZERO PUSH2 0x615 JUMPI CALLER PUSH0 MSTORE PUSH1 0x2 PUSH1 0x20 MSTORE PUSH1 0x40 PUSH0 KECCAK256 SLOAD DUP2 DUP2 LT PUSH2 0x5C5 JUMPI PUSH1 0x40 MLOAD PUSH4 0x70A08231 PUSH1 0xE0 SHL DUP2 MSTORE ADDRESS PUSH1 0x4 DUP3 ADD MSTORE PUSH32 0x0 SWAP3 SWAP1 PUSH1 0x1 PUSH1 0x1 PUSH1 0xA0 SHL SUB DUP5 AND SWAP1 PUSH1 0x20 DUP2 PUSH1 0x24 DUP2 DUP6 GAS STATICCALL SWAP1 DUP2 ISZERO PUSH2 0x2FC JUMPI DUP4 SWAP1 PUSH0 SWAP3 PUSH2 0x58F JUMPI JUMPDEST POP PUSH2 0x4D5 PUSH2 0x4CC DUP3 PUSH2 0x4DB SWAP5 PUSH2 0x690 JUMP JUMPDEST PUSH1 0x1 SLOAD SWAP1 PUSH2 0x6B7 JUMP JUMPDEST SWAP5 PUSH2 0x6D5 JUMP JUMPDEST CALLER PUSH0 MSTORE PUSH1 0x2 PUSH1 0x20 MSTORE PUSH1 0x40 PUSH0 KECCAK256 SSTORE PUSH2 0x4F4 DUP3 PUSH1 0x1 SLOAD PUSH2 0x6D5 JUMP JUMPDEST PUSH1 0x1 SSTORE PUSH1 0x40 MLOAD SWAP4 PUSH4 0xA9059CBB PUSH1 0xE0 SHL PUSH0 MSTORE CALLER PUSH1 0x4 MSTORE DUP4 PUSH1 0x24 MSTORE PUSH1 0x20 PUSH0 PUSH1 0x44 DUP2 DUP1 DUP6 GAS CALL SWAP1 PUSH1 0x1 PUSH0 MLOAD EQ DUP3 AND ISZERO PUSH2 0x570 JUMPI JUMPDEST POP DUP5 PUSH1 0x40 MSTORE ISZERO PUSH2 0x297 JUMPI POP DUP3 MSTORE PUSH1 0x20 DUP3 ADD MSTORE PUSH32 0x92CCF450A286A957AF52509BC1C9939D1A6A481783E142E41E2499F0BB66EBC6 PUSH1 0x40 CALLER SWAP3 LOG2 PUSH1 0x1 PUSH0 MLOAD PUSH1 0x20 PUSH2 0x74E PUSH0 CODECOPY PUSH0 MLOAD SWAP1 PUSH0 MSTORE SSTORE STOP JUMPDEST PUSH1 0x1 DUP3 ISZERO AND PUSH2 0x586 JUMPI EXTCODESIZE ISZERO ISZERO RETURNDATASIZE ISZERO AND AND DUP6 PUSH2 0x525 JUMP JUMPDEST DUP6 RETURNDATASIZE PUSH0 DUP3 RETURNDATACOPY RETURNDATASIZE SWAP1 REVERT JUMPDEST SWAP2 POP POP PUSH1 0x20 DUP2 RETURNDATASIZE PUSH1 0x20 GT PUSH2 0x5BD JUMPI JUMPDEST DUP2 PUSH2 0x5AB PUSH1 0x20 SWAP4 DUP4 PUSH2 0x65A JUMP JUMPDEST DUP2 ADD SUB SLT PUSH2 0xAD JUMPI MLOAD DUP3 PUSH2 0x4D5 PUSH2 0x4BB JUMP JUMPDEST RETURNDATASIZE SWAP2 POP PUSH2 0x59E JUMP JUMPDEST PUSH1 0x40 MLOAD PUSH3 0x461BCD PUSH1 0xE5 SHL DUP2 MSTORE PUSH1 0x20 PUSH1 0x4 DUP3 ADD MSTORE PUSH1 0x22 PUSH1 0x24 DUP3 ADD MSTORE PUSH32 0x4C6971756964697479506F6F6C3A20696E73756666696369656E742073686172 PUSH1 0x44 DUP3 ADD MSTORE PUSH2 0x6573 PUSH1 0xF0 SHL PUSH1 0x64 DUP3 ADD MSTORE PUSH1 0x84 SWAP1 REVERT JUMPDEST PUSH1 0x40 MLOAD PUSH3 0x461BCD PUSH1 0xE5 SHL DUP2 MSTORE PUSH1 0x20 PUSH1 0x4 DUP3 ADD MSTORE PUSH1 0x17 PUSH1 0x24 DUP3 ADD MSTORE PUSH32 0x4C6971756964697479506F6F6C3A207368617265733D30000000000000000000 PUSH1 0x44 DUP3 ADD MSTORE PUSH1 0x64 SWAP1 REVERT JUMPDEST SWAP1 PUSH1 0x1F DUP1 NOT SWAP2 ADD AND DUP2 ADD SWAP1 DUP2 LT PUSH8 0xFFFFFFFFFFFFFFFF DUP3 GT OR PUSH2 0x67C JUMPI PUSH1 0x40 MSTORE JUMP JUMPDEST PUSH4 0x4E487B71 PUSH1 0xE0 SHL PUSH0 MSTORE PUSH1 0x41 PUSH1 0x4 MSTORE PUSH1 0x24 PUSH0 REVERT JUMPDEST DUP2 DUP2 MUL SWAP3 SWAP2 DUP2 ISZERO SWAP2 DUP5 DIV EQ OR ISZERO PUSH2 0x6A3 JUMPI JUMP JUMPDEST PUSH4 0x4E487B71 PUSH1 0xE0 SHL PUSH0 MSTORE PUSH1 0x11 PUSH1 0x4 MSTORE PUSH1 0x24 PUSH0 REVERT JUMPDEST DUP2 ISZERO PUSH2 0x6C1 JUMPI DIV SWAP1 JUMP JUMPDEST PUSH4 0x4E487B71 PUSH1 0xE0 SHL PUSH0 MSTORE PUSH1 0x12 PUSH1 0x4 MSTORE PUSH1 0x24 PUSH0 REVERT JUMPDEST SWAP2 SWAP1 DUP3 SUB SWAP2 DUP3 GT PUSH2 0x6A3 JUMPI JUMP JUMPDEST SWAP2 SWAP1 DUP3 ADD DUP1 SWAP3 GT PUSH2 0x6A3 JUMPI JUMP JUMPDEST PUSH1 0x2 PUSH0 MLOAD PUSH1 0x20 PUSH2 0x74E PUSH0 CODECOPY PUSH0 MLOAD SWAP1 PUSH0 MSTORE SLOAD EQ PUSH2 0x718 JUMPI PUSH1 0x2 PUSH0 MLOAD PUSH1 0x20 PUSH2 0x74E PUSH0 CODECOPY PUSH0 MLOAD SWAP1 PUSH0 MSTORE SSTORE JUMP JUMPDEST PUSH4 0x3EE5AEB5 PUSH1 0xE0 SHL PUSH0 MSTORE PUSH1 0x4 PUSH0 REVERT JUMPDEST PUSH0 SLOAD PUSH1 0x1 PUSH1 0x1 PUSH1 0xA0 SHL SUB AND CALLER SUB PUSH2 0x73A JUMPI JUMP JUMPDEST PUSH4 0x118CDAA7 PUSH1 0xE0 SHL PUSH0 MSTORE CALLER PUSH1 0x4 MSTORE PUSH1 0x24 PUSH0 REVERT INVALID SWAP12 PUSH24 0x9B17422D0DF92223018B32B4D1FA46E071723D6817E2486D STOP EXTCODESIZE 0xEC 0xC5 PUSH0 STOP LOG2 PUSH5 0x6970667358 0x22 SLT KECCAK256 PUSH18 0x62AA9826416DD456EB1564B400573086885C 0xBA 0x4C EXP 0xC9 EQ 0xBF 0x4B 0xC JUMPDEST 0x23 PUSH30 0xEAB964736F6C634300081C00330000000000000000000000000000000000 "},"methodIdentifiers":{"owner()":"8da5cb5b","renounceOwnership()":"715018a6","sharesOf(address)":"f5eb42dc","stake(uint256)":"a694fc3a","totalShares()":"3a98ef39","transferOwnership(address)":"f2fde38b","usdc()":"3e413bee","withdraw(uint256)":"2e1a7d4d"}}}}}