{"contracts/PolicyVault.sol":{"PolicyVault":{"abi":[{"inputs":[{"internalType":"address","name":"_usdc","type":"address"},{"internalType":"address","name":"_oracle","type":"address"},{"internalType":"address","name":"_liquidityPool","type":"address"},{"internalType":"address","name":"_owner","type":"address"}],"stateMutability":"nonpayable","type":"constructor"},{"inputs":[{"internalType":"address","name":"owner","type":"address"}],"name":"OwnableInvalidOwner","type":"error"},{"inputs":[{"internalType":"address","name":"account","type":"address"}],"name":"OwnableUnauthorizedAccount","type":"error"},{"inputs":[],"name":"ReentrancyGuardReentrantCall","type":"error"},{"inputs":[{"internalType":"address","name":"token","type":"address"}],"name":"SafeERC20FailedOperation","type":"error"},{"anonymous":false,"inputs":[{"indexed":true,"internalType":"address","name":"liquidityPool","type":"address"}],"name":"LiquidityPoolUpdated","type":"event"},{"anonymous":false,"inputs":[{"indexed":true,"internalType":"address","name":"oracle","type":"address"}],"name":"OracleUpdated","type":"event"},{"anonymous":false,"inputs":[{"indexed":true,"internalType":"address","name":"previousOwner","type":"address"},{"indexed":true,"internalType":"address","name":"newOwner","type":"address"}],"name":"OwnershipTransferred","type":"event"},{"anonymous":false,"inputs":[{"indexed":true,"internalType":"uint256","name":"policyId","type":"uint256"},{"indexed":false,"internalType":"enum PolicyVault.PayoutSeverity","name":"severity","type":"uint8"}],"name":"PolicyClaimable","type":"event"},{"anonymous":false,"inputs":[{"indexed":true,"internalType":"uint256","name":"policyId","type":"uint256"},{"indexed":true,"internalType":"address","name":"farmer","type":"address"},{"indexed":false,"internalType":"uint256","name":"payout","type":"uint256"},{"indexed":false,"internalType":"enum PolicyVault.PayoutSeverity","name":"severity","type":"uint8"}],"name":"PolicyClaimed","type":"event"},{"anonymous":false,"inputs":[{"indexed":true,"internalType":"uint256","name":"policyId","type":"uint256"},{"indexed":true,"internalType":"address","name":"farmer","type":"address"},{"indexed":false,"internalType":"enum PolicyVault.CropType","name":"crop","type":"uint8"},{"indexed":false,"internalType":"uint256","name":"hectares","type":"uint256"},{"indexed":false,"internalType":"uint256","name":"coverageAmount","type":"uint256"},{"indexed":false,"internalType":"uint256","name":"premium","type":"uint256"}],"name":"PolicyCreated","type":"event"},{"anonymous":false,"inputs":[{"indexed":true,"internalType":"uint256","name":"policyId","type":"uint256"}],"name":"PolicyExpired","type":"event"},{"inputs":[],"name":"MAX_COVERAGE_PER_HECTARE","outputs":[{"internalType":"uint256","name":"","type":"uint256"}],"stateMutability":"view","type":"function"},{"inputs":[],"name":"MIN_TRIGGER_DAYS","outputs":[{"internalType":"uint256","name":"","type":"uint256"}],"stateMutability":"view","type":"function"},{"inputs":[{"internalType":"uint256","name":"policyId","type":"uint256"}],"name":"claimPayout","outputs":[],"stateMutability":"nonpayable","type":"function"},{"inputs":[{"components":[{"internalType":"enum PolicyVault.CropType","name":"crop","type":"uint8"},{"internalType":"uint256","name":"farmSizeHectares","type":"uint256"},{"internalType":"int256","name":"lat","type":"int256"},{"internalType":"int256","name":"lon","type":"int256"},{"internalType":"uint256","name":"duration","type":"uint256"},{"internalType":"bytes32","name":"regionCode","type":"bytes32"}],"internalType":"struct PolicyVault.CreatePolicyParams","name":"params","type":"tuple"}],"name":"createPolicy","outputs":[],"stateMutability":"nonpayable","type":"function"},{"inputs":[{"internalType":"uint256","name":"policyId","type":"uint256"}],"name":"evaluateTrigger","outputs":[],"stateMutability":"nonpayable","type":"function"},{"inputs":[{"internalType":"uint256","name":"policyId","type":"uint256"}],"name":"expirePolicy","outputs":[],"stateMutability":"nonpayable","type":"function"},{"inputs":[],"name":"liquidityPool","outputs":[{"internalType":"address","name":"","type":"address"}],"stateMutability":"view","type":"function"},{"inputs":[],"name":"nextPolicyId","outputs":[{"internalType":"uint256","name":"","type":"uint256"}],"stateMutability":"view","type":"function"},{"inputs":[],"name":"oracle","outputs":[{"internalType":"contract IOracleConsumer","name":"","type":"address"}],"stateMutability":"view","type":"function"},{"inputs":[],"name":"owner","outputs":[{"internalType":"address","name":"","type":"address"}],"stateMutability":"view","type":"function"},{"inputs":[{"internalType":"uint256","name":"","type":"uint256"}],"name":"policies","outputs":[{"internalType":"address","name":"farmer","type":"address"},{"internalType":"enum PolicyVault.CropType","name":"crop","type":"uint8"},{"internalType":"uint256","name":"farmSizeHectares","type":"uint256"},{"internalType":"uint256","name":"premium","type":"uint256"},{"internalType":"uint256","name":"coverageAmount","type":"uint256"},{"internalType":"uint256","name":"startTime","type":"uint256"},{"internalType":"uint256","name":"endTime","type":"uint256"},{"internalType":"int256","name":"lat","type":"int256"},{"internalType":"int256","name":"lon","type":"int256"},{"internalType":"uint8","name":"triggerThreshold","type":"uint8"},{"internalType":"bool","name":"active","type":"bool"},{"internalType":"bool","name":"claimed","type":"bool"},{"internalType":"bool","name":"claimable","type":"bool"},{"internalType":"enum PolicyVault.PayoutSeverity","name":"severity","type":"uint8"},{"internalType":"bytes32","name":"regionCode","type":"bytes32"},{"internalType":"uint256","name":"triggerStartTimestamp","type":"uint256"}],"stateMutability":"view","type":"function"},{"inputs":[],"name":"renounceOwnership","outputs":[],"stateMutability":"nonpayable","type":"function"},{"inputs":[{"internalType":"address","name":"_liquidityPool","type":"address"}],"name":"setLiquidityPool","outputs":[],"stateMutability":"nonpayable","type":"function"},{"inputs":[{"internalType":"address","name":"_oracle","type":"address"}],"name":"setOracle","outputs":[],"stateMutability":"nonpayable","type":"function"},{"inputs":[{"internalType":"address","name":"newOwner","type":"address"}],"name":"transferOwnership","outputs":[],"stateMutability":"nonpayable","type":"function"},{"inputs":[],"name":"usdc","outputs":[{"internalType":"contract IERC20","name":"","type":"address"}],"stateMutability":"view","type":"function"}],"evm":{"bytecode":{"linkReferences":{},"object":"60a0346101a957601f61121538819003918201601f19168301916001600160401b038311848410176101ad578084926080946040528339810103126101a957610047816101c1565b90610054602082016101c1565b610060604083016101c1565b916001600160a01b0390610076906060016101c1565b16928315610196575f80546001600160a01b031981168617825560405195916001600160a01b03909116907f8be0079c531659141344cd1fd0a4f28419497f9722a3daafe3b4186f6b6457e09080a360017f9b779b17422d0df92223018b32b4d1fa46e071723d6817e2486d003becc55f0081905560038190556001600160a01b0391821660805280549282166001600160a01b03199384168117909155600280549490921693909216831790557f3df77beb5db05fcdd70a30fc8adf3f83f9501b68579455adbd100b81809403945f80a27fedf1a035d265f6321083031b40acf4e5e06cd3e2e2025192fd308409b13b44c65f80a261103f90816101d682396080518181816103a7015281816105ac01528181610a400152610b1a0152f35b631e4fbdf760e01b5f525f60045260245ffd5b5f80fd5b634e487b7160e01b5f52604160045260245ffd5b51906001600160a01b03821682036101a95756fe60806040526004361015610011575f80fd5b5f3560e01c80630187702014610e3b57806320ae9a7d14610c0d5780633037e4cd14610a6f5780633e413bee14610a2b578063665a11ca14610a03578063715018a6146109ac5780637adbf973146109465780637dc0d1d01461091e57806383b4b1e4146105255780638a69614e146102ce5780638da5cb5b146102a7578063cad0b8db1461028a578063d3e894831461018f578063f2fde38b14610106578063fd9c611e146100eb5763ff08a419146100c9575f80fd5b346100e7575f3660031901126100e7576020604051633b9aca008152f35b5f80fd5b346100e7575f3660031901126100e7576020604051600e8152f35b346100e75760203660031901126100e7576004356001600160a01b038116908190036100e757610134610f03565b801561017c575f80546001600160a01b03198116831782556001600160a01b0316907f8be0079c531659141344cd1fd0a4f28419497f9722a3daafe3b4186f6b6457e09080a3005b631e4fbdf760e01b5f525f60045260245ffd5b346100e75760203660031901126100e7576004355f52600460205261020060405f2080549060ff8260a01c1690600181015460ff6002830154600384015460048501546005860154600687015491600788015493600889015495878760201c1698600a60098c01549b01549b60206040519e8f9060018060a01b0316815261021683610ea1565b015260408d015260608c015260808b015260a08a015260c089015260e0880152610100870152818116610120870152818160081c161515610140870152818160101c16151561016087015260181c16151561018085015261027681610ea1565b6101a08401526101c08301526101e0820152f35b346100e7575f3660031901126100e7576020600354604051908152f35b346100e7575f3660031901126100e7575f546040516001600160a01b039091168152602090f35b346100e75760203660031901126100e7576004356102ea610f81565b805f52600460205260405f20906008820191825461030d60ff8260081c16610ebf565b60ff8160101c166104e05760ff8160181c161561049b5760ff8160201c1661033481610ea1565b156104565781546001600160a01b031633819003610411577fef4040f84a7e4fa3b292a9b9057d33b14470726f672fbfeb4a552945b1345e9e926201000060409362ffff0019161790818755600160ff60038301549360201c1661039781610ea1565b14610405575b6103cb8260ff93947f0000000000000000000000000000000000000000000000000000000000000000610f29565b54955483519283526001600160a01b039096169560201c166103ec81610ea1565b6020820152a360015f516020610fea5f395f51905f5255005b60019190911c9061039d565b60405162461bcd60e51b815260206004820152601760248201527f506f6c6963795661756c743a206e6f74206661726d65720000000000000000006044820152606490fd5b60405162461bcd60e51b815260206004820152601c60248201527f506f6c6963795661756c743a206e6f20736576657269747920736574000000006044820152606490fd5b60405162461bcd60e51b815260206004820152601a60248201527f506f6c6963795661756c743a206e6f7420636c61696d61626c650000000000006044820152606490fd5b60405162461bcd60e51b815260206004820152601c60248201527f506f6c6963795661756c743a20616c726561647920636c61696d6564000000006044820152606490fd5b346100e75760c03660031901126100e75761053e610f81565b60243580156108e357608435801561089e57633b9aca00820291808304633b9aca0003610849576004359260038410156100e75761057b84610fb9565b633b9aca008184020290828204148215171561084957612710900491600354935f19851461084957600185016003557f00000000000000000000000000000000000000000000000000000000000000006040516323b872dd60e01b5f5233600452306024528560445260205f60648180865af19060015f511482161561087d575b6040525f6060521561085d5750420180421161084957604051610200810181811067ffffffffffffffff82111761083557600a916101e09160405233815260208101936106488a610ea1565b8985526040820186815260608301898152608084019089825260a085019242845260c0860194855260443560e0870152606435610100870152604661012087015260016101408701525f6101608701525f6101808701525f6101a087015260a4356101c08701525f878701528c5f52600460205260405f209860018060a01b038751166bffffffffffffffffffffffff60a01b8b5416178a55516106eb81610ea1565b6106f481610ea1565b895460ff60a01b191660a09190911b60ff60a01b1617895551600189015551600288015551600387015551600486015551600585015560e0810151600685015561010081015160078501556101208101516008808601805461014085015161016086015161018087015163ffffffff1990931660ff969096169590951790151590931b61ff00169290921792151560101b62ff0000169290921790151560181b63ff000000161781556101a08201516107ac81610ea1565b6107b581610ea1565b64ff0000000082549160201b169064ff0000000019161790556101c081015160098501550151910155604051946107eb81610ea1565b85526020850152604084015260608301527f4922cc4ba5af57c06c26d02e17d09964049efe7919e9bba1118cb09aa33cfc9860803393a360015f516020610fea5f395f51905f5255005b634e487b7160e01b5f52604160045260245ffd5b634e487b7160e01b5f52601160045260245ffd5b635274afe760e01b5f9081526001600160a01b0391909116600452602490fd5b90600181151661089557823b15153d151616906105fc565b503d5f823e3d90fd5b60405162461bcd60e51b815260206004820152601760248201527f506f6c6963795661756c743a206475726174696f6e3d300000000000000000006044820152606490fd5b60405162461bcd60e51b81526020600482015260136024820152720506f6c6963795661756c743a2073697a653d3606c1b6044820152606490fd5b346100e7575f3660031901126100e7576001546040516001600160a01b039091168152602090f35b346100e75760203660031901126100e7576004356001600160a01b038116908190036100e757610974610f03565b600180546001600160a01b031916821790557f3df77beb5db05fcdd70a30fc8adf3f83f9501b68579455adbd100b81809403945f80a2005b346100e7575f3660031901126100e7576109c4610f03565b5f80546001600160a01b0319811682556001600160a01b03167f8be0079c531659141344cd1fd0a4f28419497f9722a3daafe3b4186f6b6457e08280a3005b346100e7575f3660031901126100e7576002546040516001600160a01b039091168152602090f35b346100e7575f3660031901126100e7576040517f00000000000000000000000000000000000000000000000000000000000000006001600160a01b03168152602090f35b346100e75760203660031901126100e757600435805f52600460205260405f2060088101908154610aa560ff8260081c16610ebf565b6005820154421115610bc85760ff8160181c16610b655760101c60ff161580610b58575b80610b44575b610b04575b50805461ff00191690557fb22aa541487fc93d989bb5b17d1e3a967f649c4979cfd658c0849e070ae0dca05f80a2005b60028054910154610b3e916001600160a01b03167f0000000000000000000000000000000000000000000000000000000000000000610f29565b82610ad4565b506002546001600160a01b03161515610acf565b5060028101541515610ac9565b60405162461bcd60e51b815260206004820152603560248201527f506f6c6963795661756c743a207472696767657220616374697665202d2066616044820152741c9b595c881b5d5cdd0818db185a5b48199a5c9cdd605a1b6064820152608490fd5b60405162461bcd60e51b815260206004820152601860248201527f506f6c6963795661756c743a206e6f74206578706972656400000000000000006044820152606490fd5b346100e75760203660031901126100e757600435805f52600460205260405f2060088101805491610c4360ff8460081c16610ebf565b60018060a01b03600154169260406009830154602482518097819363030710f160e51b835260048301525afa8015610e30575f945f91610de2575b508015610d9d574203428111610849576202a30010610d585760ff16831115610d4f57600a01805415610d47575b5462127500810180911161084957421015610cc357005b60ff817f61782cf7ed50c35f9220bd74184699a7a70a2a12ebe6747518406450eee749449360556020945491630100000063ff000000198416178455115f14610d315750805464ff0000000019166402000000001781555b54821c1660405190610d2c81610ea1565b8152a2005b64ffff0000001916640101000000178155610d1b565b428155610cac565b5f600a90910155005b60405162461bcd60e51b815260206004820152601960248201527f506f6c6963795661756c743a207374616c65206f7261636c65000000000000006044820152606490fd5b60405162461bcd60e51b815260206004820152601b60248201527f506f6c6963795661756c743a206e6f206f7261636c65206461746100000000006044820152606490fd5b94505060403d604011610e29575b601f8101601f1916850167ffffffffffffffff8111868210176108355760409186918352810103126100e7576020845194015186610c7e565b503d610df0565b6040513d5f823e3d90fd5b346100e75760203660031901126100e7576004356001600160a01b038116908190036100e757610e69610f03565b600280546001600160a01b031916821790557fedf1a035d265f6321083031b40acf4e5e06cd3e2e2025192fd308409b13b44c65f80a2005b60031115610eab57565b634e487b7160e01b5f52602160045260245ffd5b15610ec657565b60405162461bcd60e51b8152602060048201526015602482015274506f6c6963795661756c743a20696e61637469766560581b6044820152606490fd5b5f546001600160a01b03163303610f1657565b63118cdaa760e01b5f523360045260245ffd5b916040519163a9059cbb60e01b5f5260018060a01b031660045260245260205f60448180865af19060015f5114821615610f69575b6040521561085d5750565b90600181151661089557823b15153d15161690610f5e565b60025f516020610fea5f395f51905f525414610faa5760025f516020610fea5f395f51905f5255565b633ee5aeb560e01b5f5260045ffd5b610fc281610ea1565b60028114610fe357610fd381610ea1565b15610fde5761012c90565b60fa90565b5060c89056fe9b779b17422d0df92223018b32b4d1fa46e071723d6817e2486d003becc55f00a2646970667358221220226fb4716e1f2b3f9d88f0cfe28f7656b3e97de0271731f731c1add27ad7c92864736f6c634300081c0033","opcodes":"PUSH1 0xA0 CALLVALUE PUSH2 0x1A9 JUMPI PUSH1 0x1F PUSH2 0x1215 CODESIZE DUP2 SWAP1 SUB SWAP2 DUP3 ADD PUSH1 0x1F NOT AND DUP4 ADD SWAP2 PUSH1 0x1 PUSH1 0x1 PUSH1 0x40 SHL SUB DUP4 GT DUP5 DUP5 LT OR PUSH2 0x1AD JUMPI DUP1 DUP5 SWAP3 PUSH1 0x80 SWAP5 PUSH1 0x40 MSTORE DUP4 CODECOPY DUP2 ADD SUB SLT PUSH2 0x1A9 JUMPI PUSH2 0x47 DUP2 PUSH2 0x1C1 JUMP JUMPDEST SWAP1 PUSH2 0x54 PUSH1 0x20 DUP3 ADD PUSH2 0x1C1 JUMP JUMPDEST PUSH2 0x60 PUSH1 0x40 DUP4 ADD PUSH2 0x1C1 JUMP JUMPDEST SWAP2 PUSH1 0x1 PUSH1 0x1 PUSH1 0xA0 SHL SUB SWAP1 PUSH2 0x76 SWAP1 PUSH1 0x60 ADD PUSH2 0x1C1 JUMP JUMPDEST AND SWAP3 DUP4 ISZERO PUSH2 0x196 JUMPI PUSH0 DUP1 SLOAD PUSH1 0x1 PUSH1 0x1 PUSH1 0xA0 SHL SUB NOT DUP2 AND DUP7 OR DUP3 SSTORE PUSH1 0x40 MLOAD SWAP6 SWAP2 PUSH1 0x1 PUSH1 0x1 PUSH1 0xA0 SHL SUB SWAP1 SWAP2 AND SWAP1 PUSH32 0x8BE0079C531659141344CD1FD0A4F28419497F9722A3DAAFE3B4186F6B6457E0 SWAP1 DUP1 LOG3 PUSH1 0x1 PUSH32 0x9B779B17422D0DF92223018B32B4D1FA46E071723D6817E2486D003BECC55F00 DUP2 SWAP1 SSTORE PUSH1 0x3 DUP2 SWAP1 SSTORE PUSH1 0x1 PUSH1 0x1 PUSH1 0xA0 SHL SUB SWAP2 DUP3 AND PUSH1 0x80 MSTORE DUP1 SLOAD SWAP3 DUP3 AND PUSH1 0x1 PUSH1 0x1 PUSH1 0xA0 SHL SUB NOT SWAP4 DUP5 AND DUP2 OR SWAP1 SWAP2 SSTORE PUSH1 0x2 DUP1 SLOAD SWAP5 SWAP1 SWAP3 AND SWAP4 SWAP1 SWAP3 AND DUP4 OR SWAP1 SSTORE PUSH32 0x3DF77BEB5DB05FCDD70A30FC8ADF3F83F9501B68579455ADBD100B8180940394 PUSH0 DUP1 LOG2 PUSH32 0xEDF1A035D265F6321083031B40ACF4E5E06CD3E2E2025192FD308409B13B44C6 PUSH0 DUP1 LOG2 PUSH2 0x103F SWAP1 DUP2 PUSH2 0x1D6 DUP3 CODECOPY PUSH1 0x80 MLOAD DUP2 DUP2 DUP2 PUSH2 0x3A7 ADD MSTORE DUP2 DUP2 PUSH2 0x5AC ADD MSTORE DUP2 DUP2 PUSH2 0xA40 ADD MSTORE PUSH2 0xB1A ADD MSTORE RETURN JUMPDEST PUSH4 0x1E4FBDF7 PUSH1 0xE0 SHL PUSH0 MSTORE PUSH0 PUSH1 0x4 MSTORE PUSH1 0x24 PUSH0 REVERT JUMPDEST PUSH0 DUP1 REVERT JUMPDEST PUSH4 0x4E487B71 PUSH1 0xE0 SHL PUSH0 MSTORE PUSH1 0x41 PUSH1 0x4 MSTORE PUSH1 0x24 PUSH0 REVERT JUMPDEST MLOAD SWAP1 PUSH1 0x1 PUSH1 0x1 PUSH1 0xA0 SHL SUB DUP3 AND DUP3 SUB PUSH2 0x1A9 JUMPI JUMP INVALID PUSH1 0x80 PUSH1 0x40 MSTORE PUSH1 0x4 CALLDATASIZE LT ISZERO PUSH2 0x11 JUMPI PUSH0 DUP1 REVERT JUMPDEST PUSH0 CALLDATALOAD PUSH1 0xE0 SHR DUP1 PUSH4 0x1877020 EQ PUSH2 0xE3B JUMPI DUP1 PUSH4 0x20AE9A7D EQ PUSH2 0xC0D JUMPI DUP1 PUSH4 0x3037E4CD EQ PUSH2 0xA6F JUMPI DUP1 PUSH4 0x3E413BEE EQ PUSH2 0xA2B JUMPI DUP1 PUSH4 0x665A11CA EQ PUSH2 0xA03 JUMPI DUP1 PUSH4 0x715018A6 EQ PUSH2 0x9AC JUMPI DUP1 PUSH4 0x7ADBF973 EQ PUSH2 0x946 JUMPI DUP1 PUSH4 0x7DC0D1D0 EQ PUSH2 0x91E JUMPI DUP1 PUSH4 0x83B4B1E4 EQ PUSH2 0x525 JUMPI DUP1 PUSH4 0x8A69614E EQ PUSH2 0x2CE JUMPI DUP1 PUSH4 0x8DA5CB5B EQ PUSH2 0x2A7 JUMPI DUP1 PUSH4 0xCAD0B8DB EQ PUSH2 0x28A JUMPI DUP1 PUSH4 0xD3E89483 EQ PUSH2 0x18F JUMPI DUP1 PUSH4 0xF2FDE38B EQ PUSH2 0x106 JUMPI DUP1 PUSH4 0xFD9C611E EQ PUSH2 0xEB JUMPI PUSH4 0xFF08A419 EQ PUSH2 0xC9 JUMPI PUSH0 DUP1 REVERT JUMPDEST CALLVALUE PUSH2 0xE7 JUMPI PUSH0 CALLDATASIZE PUSH1 0x3 NOT ADD SLT PUSH2 0xE7 JUMPI PUSH1 0x20 PUSH1 0x40 MLOAD PUSH4 0x3B9ACA00 DUP2 MSTORE RETURN JUMPDEST PUSH0 DUP1 REVERT JUMPDEST CALLVALUE PUSH2 0xE7 JUMPI PUSH0 CALLDATASIZE PUSH1 0x3 NOT ADD SLT PUSH2 0xE7 JUMPI PUSH1 0x20 PUSH1 0x40 MLOAD PUSH1 0xE DUP2 MSTORE RETURN JUMPDEST CALLVALUE PUSH2 0xE7 JUMPI PUSH1 0x20 CALLDATASIZE PUSH1 0x3 NOT ADD SLT PUSH2 0xE7 JUMPI PUSH1 0x4 CALLDATALOAD PUSH1 0x1 PUSH1 0x1 PUSH1 0xA0 SHL SUB DUP2 AND SWAP1 DUP2 SWAP1 SUB PUSH2 0xE7 JUMPI PUSH2 0x134 PUSH2 0xF03 JUMP JUMPDEST DUP1 ISZERO PUSH2 0x17C JUMPI PUSH0 DUP1 SLOAD PUSH1 0x1 PUSH1 0x1 PUSH1 0xA0 SHL SUB NOT DUP2 AND DUP4 OR DUP3 SSTORE PUSH1 0x1 PUSH1 0x1 PUSH1 0xA0 SHL SUB AND SWAP1 PUSH32 0x8BE0079C531659141344CD1FD0A4F28419497F9722A3DAAFE3B4186F6B6457E0 SWAP1 DUP1 LOG3 STOP JUMPDEST PUSH4 0x1E4FBDF7 PUSH1 0xE0 SHL PUSH0 MSTORE PUSH0 PUSH1 0x4 MSTORE PUSH1 0x24 PUSH0 REVERT JUMPDEST CALLVALUE PUSH2 0xE7 JUMPI PUSH1 0x20 CALLDATASIZE PUSH1 0x3 NOT ADD SLT PUSH2 0xE7 JUMPI PUSH1 0x4 CALLDATALOAD PUSH0 MSTORE PUSH1 0x4 PUSH1 0x20 MSTORE PUSH2 0x200 PUSH1 0x40 PUSH0 KECCAK256 DUP1 SLOAD SWAP1 PUSH1 0xFF DUP3 PUSH1 0xA0 SHR AND SWAP1 PUSH1 0x1 DUP2 ADD SLOAD PUSH1 0xFF PUSH1 0x2 DUP4 ADD SLOAD PUSH1 0x3 DUP5 ADD SLOAD PUSH1 0x4 DUP6 ADD SLOAD PUSH1 0x5 DUP7 ADD SLOAD PUSH1 0x6 DUP8 ADD SLOAD SWAP2 PUSH1 0x7 DUP9 ADD SLOAD SWAP4 PUSH1 0x8 DUP10 ADD SLOAD SWAP6 DUP8 DUP8 PUSH1 0x20 SHR AND SWAP9 PUSH1 0xA PUSH1 0x9 DUP13 ADD SLOAD SWAP12 ADD SLOAD SWAP12 PUSH1 0x20 PUSH1 0x40 MLOAD SWAP15 DUP16 SWAP1 PUSH1 0x1 DUP1 PUSH1 0xA0 SHL SUB AND DUP2 MSTORE PUSH2 0x216 DUP4 PUSH2 0xEA1 JUMP JUMPDEST ADD MSTORE PUSH1 0x40 DUP14 ADD MSTORE PUSH1 0x60 DUP13 ADD MSTORE PUSH1 0x80 DUP12 ADD MSTORE PUSH1 0xA0 DUP11 ADD MSTORE PUSH1 0xC0 DUP10 ADD MSTORE PUSH1 0xE0 DUP9 ADD MSTORE PUSH2 0x100 DUP8 ADD MSTORE DUP2 DUP2 AND PUSH2 0x120 DUP8 ADD MSTORE DUP2 DUP2 PUSH1 0x8 SHR AND ISZERO ISZERO PUSH2 0x140 DUP8 ADD MSTORE DUP2 DUP2 PUSH1 0x10 SHR AND ISZERO ISZERO PUSH2 0x160 DUP8 ADD MSTORE PUSH1 0x18 SHR AND ISZERO ISZERO PUSH2 0x180 DUP6 ADD MSTORE PUSH2 0x276 DUP2 PUSH2 0xEA1 JUMP JUMPDEST PUSH2 0x1A0 DUP5 ADD MSTORE PUSH2 0x1C0 DUP4 ADD MSTORE PUSH2 0x1E0 DUP3 ADD MSTORE RETURN JUMPDEST CALLVALUE PUSH2 0xE7 JUMPI PUSH0 CALLDATASIZE PUSH1 0x3 NOT ADD SLT PUSH2 0xE7 JUMPI PUSH1 0x20 PUSH1 0x3 SLOAD PUSH1 0x40 MLOAD SWAP1 DUP2 MSTORE RETURN JUMPDEST CALLVALUE PUSH2 0xE7 JUMPI PUSH0 CALLDATASIZE PUSH1 0x3 NOT ADD SLT PUSH2 0xE7 JUMPI PUSH0 SLOAD PUSH1 0x40 MLOAD PUSH1 0x1 PUSH1 0x1 PUSH1 0xA0 SHL SUB SWAP1 SWAP2 AND DUP2 MSTORE PUSH1 0x20 SWAP1 RETURN JUMPDEST CALLVALUE PUSH2 0xE7 JUMPI PUSH1 0x20 CALLDATASIZE PUSH1 0x3 NOT ADD SLT PUSH2 0xE7 JUMPI PUSH1 0x4 CALLDATALOAD PUSH2 0x2EA PUSH2 0xF81 JUMP JUMPDEST DUP1 PUSH0 MSTORE PUSH1 0x4 PUSH1 0x20 MSTORE PUSH1 0x40 PUSH0 KECCAK256 SWAP1 PUSH1 0x8 DUP3 ADD SWAP2 DUP3 SLOAD PUSH2 0x30D PUSH1 0xFF DUP3 PUSH1 0x8 SHR AND PUSH2 0xEBF JUMP JUMPDEST PUSH1 0xFF DUP2 PUSH1 0x10 SHR AND PUSH2 0x4E0 JUMPI PUSH1 0xFF DUP2 PUSH1 0x18 SHR AND ISZERO PUSH2 0x49B JUMPI PUSH1 0xFF DUP2 PUSH1 0x20 SHR AND PUSH2 0x334 DUP2 PUSH2 0xEA1 JUMP JUMPDEST ISZERO PUSH2 0x456 JUMPI DUP2 SLOAD PUSH1 0x1 PUSH1 0x1 PUSH1 0xA0 SHL SUB AND CALLER DUP2 SWAP1 SUB PUSH2 0x411 JUMPI PUSH32 0xEF4040F84A7E4FA3B292A9B9057D33B14470726F672FBFEB4A552945B1345E9E SWAP3 PUSH3 0x10000 PUSH1 0x40 SWAP4 PUSH3 0xFFFF00 NOT AND OR SWAP1 DUP2 DUP8 SSTORE PUSH1 0x1 PUSH1 0xFF PUSH1 0x3 DUP4 ADD SLOAD SWAP4 PUSH1 0x20 SHR AND PUSH2 0x397 DUP2 PUSH2 0xEA1 JUMP JUMPDEST EQ PUSH2 0x405 JUMPI JUMPDEST PUSH2 0x3CB DUP3 PUSH1 0xFF SWAP4 SWAP5 PUSH32 0x0 PUSH2 0xF29 JUMP JUMPDEST SLOAD SWAP6 SLOAD DUP4 MLOAD SWAP3 DUP4 MSTORE PUSH1 0x1 PUSH1 0x1 PUSH1 0xA0 SHL SUB SWAP1 SWAP7 AND SWAP6 PUSH1 0x20 SHR AND PUSH2 0x3EC DUP2 PUSH2 0xEA1 JUMP JUMPDEST PUSH1 0x20 DUP3 ADD MSTORE LOG3 PUSH1 0x1 PUSH0 MLOAD PUSH1 0x20 PUSH2 0xFEA PUSH0 CODECOPY PUSH0 MLOAD SWAP1 PUSH0 MSTORE SSTORE STOP JUMPDEST PUSH1 0x1 SWAP2 SWAP1 SWAP2 SHR SWAP1 PUSH2 0x39D JUMP JUMPDEST PUSH1 0x40 MLOAD PUSH3 0x461BCD PUSH1 0xE5 SHL DUP2 MSTORE PUSH1 0x20 PUSH1 0x4 DUP3 ADD MSTORE PUSH1 0x17 PUSH1 0x24 DUP3 ADD MSTORE PUSH32 0x506F6C6963795661756C743A206E6F74206661726D6572000000000000000000 PUSH1 0x44 DUP3 ADD MSTORE PUSH1 0x64 SWAP1 REVERT JUMPDEST PUSH1 0x40 MLOAD PUSH3 0x461BCD PUSH1 0xE5 SHL DUP2 MSTORE PUSH1 0x20 PUSH1 0x4 DUP3 ADD MSTORE PUSH1 0x1C PUSH1 0x24 DUP3 ADD MSTORE PUSH32 0x506F6C6963795661756C743A206E6F2073657665726974792073657400000000 PUSH1 0x44 DUP3 ADD MSTORE PUSH1 0x64 SWAP1 REVERT JUMPDEST PUSH1 0x40 MLOAD PUSH3 0x461BCD PUSH1 0xE5 SHL DUP2 MSTORE PUSH1 0x20 PUSH1 0x4 DUP3 ADD MSTORE PUSH1 0x1A PUSH1 0x24 DUP3 ADD MSTORE PUSH32 0x506F6C6963795661756C743A206E6F7420636C61696D61626C65000000000000 PUSH1 0x44 DUP3 ADD MSTORE PUSH1 0x64 SWAP1 REVERT JUMPDEST PUSH1 0x40 MLOAD PUSH3 0x461BCD PUSH1 0xE5 SHL DUP2 MSTORE PUSH1 0x20 PUSH1 0x4 DUP3 ADD MSTORE PUSH1 0x1C PUSH1 0x24 DUP3 ADD MSTORE PUSH32 0x506F6C6963795661756C743A20616C726561647920636C61696D656400000000 PUSH1 0x44 DUP3 ADD MSTORE PUSH1 0x64 SWAP1 REVERT JUMPDEST CALLVALUE PUSH2 0xE7 JUMPI PUSH1 0xC0 CALLDATASIZE PUSH1 0x3 NOT ADD SLT PUSH2 0xE7 JUMPI PUSH2 0x53E PUSH2 0xF81 JUMP JUMPDEST PUSH1 0x24 CALLDATALOAD DUP1 ISZERO PUSH2 0x8E3 JUMPI PUSH1 0x84 CALLDATALOAD DUP1 ISZERO PUSH2 0x89E JUMPI PUSH4 0x3B9ACA00 DUP3 MUL SWAP2 DUP1 DUP4 DIV PUSH4 0x3B9ACA00 SUB PUSH2 0x849 JUMPI PUSH1 0x4 CALLDATALOAD SWAP3 PUSH1 0x3 DUP5 LT ISZERO PUSH2 0xE7 JUMPI PUSH2 0x57B DUP5 PUSH2 0xFB9 JUMP JUMPDEST PUSH4 0x3B9ACA00 DUP2 DUP5 MUL MUL SWAP1 DUP3 DUP3 DIV EQ DUP3 ISZERO OR ISZERO PUSH2 0x849 JUMPI PUSH2 0x2710 SWAP1 DIV SWAP2 PUSH1 0x3 SLOAD SWAP4 PUSH0 NOT DUP6 EQ PUSH2 0x849 JUMPI PUSH1 0x1 DUP6 ADD PUSH1 0x3 SSTORE PUSH32 0x0 PUSH1 0x40 MLOAD PUSH4 0x23B872DD PUSH1 0xE0 SHL PUSH0 MSTORE CALLER PUSH1 0x4 MSTORE ADDRESS PUSH1 0x24 MSTORE DUP6 PUSH1 0x44 MSTORE PUSH1 0x20 PUSH0 PUSH1 0x64 DUP2 DUP1 DUP7 GAS CALL SWAP1 PUSH1 0x1 PUSH0 MLOAD EQ DUP3 AND ISZERO PUSH2 0x87D JUMPI JUMPDEST PUSH1 0x40 MSTORE PUSH0 PUSH1 0x60 MSTORE ISZERO PUSH2 0x85D JUMPI POP TIMESTAMP ADD DUP1 TIMESTAMP GT PUSH2 0x849 JUMPI PUSH1 0x40 MLOAD PUSH2 0x200 DUP2 ADD DUP2 DUP2 LT PUSH8 0xFFFFFFFFFFFFFFFF DUP3 GT OR PUSH2 0x835 JUMPI PUSH1 0xA SWAP2 PUSH2 0x1E0 SWAP2 PUSH1 0x40 MSTORE CALLER DUP2 MSTORE PUSH1 0x20 DUP2 ADD SWAP4 PUSH2 0x648 DUP11 PUSH2 0xEA1 JUMP JUMPDEST DUP10 DUP6 MSTORE PUSH1 0x40 DUP3 ADD DUP7 DUP2 MSTORE PUSH1 0x60 DUP4 ADD DUP10 DUP2 MSTORE PUSH1 0x80 DUP5 ADD SWAP1 DUP10 DUP3 MSTORE PUSH1 0xA0 DUP6 ADD SWAP3 TIMESTAMP DUP5 MSTORE PUSH1 0xC0 DUP7 ADD SWAP5 DUP6 MSTORE PUSH1 0x44 CALLDATALOAD PUSH1 0xE0 DUP8 ADD MSTORE PUSH1 0x64 CALLDATALOAD PUSH2 0x100 DUP8 ADD MSTORE PUSH1 0x46 PUSH2 0x120 DUP8 ADD MSTORE PUSH1 0x1 PUSH2 0x140 DUP8 ADD MSTORE PUSH0 PUSH2 0x160 DUP8 ADD MSTORE PUSH0 PUSH2 0x180 DUP8 ADD MSTORE PUSH0 PUSH2 0x1A0 DUP8 ADD MSTORE PUSH1 0xA4 CALLDATALOAD PUSH2 0x1C0 DUP8 ADD MSTORE PUSH0 DUP8 DUP8 ADD MSTORE DUP13 PUSH0 MSTORE PUSH1 0x4 PUSH1 0x20 MSTORE PUSH1 0x40 PUSH0 KECCAK256 SWAP9 PUSH1 0x1 DUP1 PUSH1 0xA0 SHL SUB DUP8 MLOAD AND PUSH12 0xFFFFFFFFFFFFFFFFFFFFFFFF PUSH1 0xA0 SHL DUP12 SLOAD AND OR DUP11 SSTORE MLOAD PUSH2 0x6EB DUP2 PUSH2 0xEA1 JUMP JUMPDEST PUSH2 0x6F4 DUP2 PUSH2 0xEA1 JUMP JUMPDEST DUP10 SLOAD PUSH1 0xFF PUSH1 0xA0 SHL NOT AND PUSH1 0xA0 SWAP2 SWAP1 SWAP2 SHL PUSH1 0xFF PUSH1 0xA0 SHL AND OR DUP10 SSTORE MLOAD PUSH1 0x1 DUP10 ADD SSTORE MLOAD PUSH1 0x2 DUP9 ADD SSTORE MLOAD PUSH1 0x3 DUP8 ADD SSTORE MLOAD PUSH1 0x4 DUP7 ADD SSTORE MLOAD PUSH1 0x5 DUP6 ADD SSTORE PUSH1 0xE0 DUP2 ADD MLOAD PUSH1 0x6 DUP6 ADD SSTORE PUSH2 0x100 DUP2 ADD MLOAD PUSH1 0x7 DUP6 ADD SSTORE PUSH2 0x120 DUP2 ADD MLOAD PUSH1 0x8 DUP1 DUP7 ADD DUP1 SLOAD PUSH2 0x140 DUP6 ADD MLOAD PUSH2 0x160 DUP7 ADD MLOAD PUSH2 0x180 DUP8 ADD MLOAD PUSH4 0xFFFFFFFF NOT SWAP1 SWAP4 AND PUSH1 0xFF SWAP7 SWAP1 SWAP7 AND SWAP6 SWAP1 SWAP6 OR SWAP1 ISZERO ISZERO SWAP1 SWAP4 SHL PUSH2 0xFF00 AND SWAP3 SWAP1 SWAP3 OR SWAP3 ISZERO ISZERO PUSH1 0x10 SHL PUSH3 0xFF0000 AND SWAP3 SWAP1 SWAP3 OR SWAP1 ISZERO ISZERO PUSH1 0x18 SHL PUSH4 0xFF000000 AND OR DUP2 SSTORE PUSH2 0x1A0 DUP3 ADD MLOAD PUSH2 0x7AC DUP2 PUSH2 0xEA1 JUMP JUMPDEST PUSH2 0x7B5 DUP2 PUSH2 0xEA1 JUMP JUMPDEST PUSH5 0xFF00000000 DUP3 SLOAD SWAP2 PUSH1 0x20 SHL AND SWAP1 PUSH5 0xFF00000000 NOT AND OR SWAP1 SSTORE PUSH2 0x1C0 DUP2 ADD MLOAD PUSH1 0x9 DUP6 ADD SSTORE ADD MLOAD SWAP2 ADD SSTORE PUSH1 0x40 MLOAD SWAP5 PUSH2 0x7EB DUP2 PUSH2 0xEA1 JUMP JUMPDEST DUP6 MSTORE PUSH1 0x20 DUP6 ADD MSTORE PUSH1 0x40 DUP5 ADD MSTORE PUSH1 0x60 DUP4 ADD MSTORE PUSH32 0x4922CC4BA5AF57C06C26D02E17D09964049EFE7919E9BBA1118CB09AA33CFC98 PUSH1 0x80 CALLER SWAP4 LOG3 PUSH1 0x1 PUSH0 MLOAD PUSH1 0x20 PUSH2 0xFEA PUSH0 CODECOPY PUSH0 MLOAD SWAP1 PUSH0 MSTORE SSTORE STOP JUMPDEST PUSH4 0x4E487B71 PUSH1 0xE0 SHL PUSH0 MSTORE PUSH1 0x41 PUSH1 0x4 MSTORE PUSH1 0x24 PUSH0 REVERT JUMPDEST PUSH4 0x4E487B71 PUSH1 0xE0 SHL PUSH0 MSTORE PUSH1 0x11 PUSH1 0x4 MSTORE PUSH1 0x24 PUSH0 REVERT JUMPDEST PUSH4 0x5274AFE7 PUSH1 0xE0 SHL PUSH0 SWAP1 DUP2 MSTORE PUSH1 0x1 PUSH1 0x1 PUSH1 0xA0 SHL SUB SWAP2 SWAP1 SWAP2 AND PUSH1 0x4 MSTORE PUSH1 0x24 SWAP1 REVERT JUMPDEST SWAP1 PUSH1 0x1 DUP2 ISZERO AND PUSH2 0x895 JUMPI DUP3 EXTCODESIZE ISZERO ISZERO RETURNDATASIZE ISZERO AND AND SWAP1 PUSH2 0x5FC JUMP JUMPDEST POP RETURNDATASIZE PUSH0 DUP3 RETURNDATACOPY RETURNDATASIZE SWAP1 REVERT JUMPDEST PUSH1 0x40 MLOAD PUSH3 0x461BCD PUSH1 0xE5 SHL DUP2 MSTORE PUSH1 0x20 PUSH1 0x4 DUP3 ADD MSTORE PUSH1 0x17 PUSH1 0x24 DUP3 ADD MSTORE PUSH32 0x506F6C6963795661756C743A206475726174696F6E3D30000000000000000000 PUSH1 0x44 DUP3 ADD MSTORE PUSH1 0x64 SWAP1 REVERT JUMPDEST PUSH1 0x40 MLOAD PUSH3 0x461BCD PUSH1 0xE5 SHL DUP2 MSTORE PUSH1 0x20 PUSH1 0x4 DUP3 ADD MSTORE PUSH1 0x13 PUSH1 0x24 DUP3 ADD MSTORE PUSH19 0x506F6C6963795661756C743A2073697A653D3 PUSH1 0x6C SHL PUSH1 0x44 DUP3 ADD MSTORE PUSH1 0x64 SWAP1 REVERT JUMPDEST CALLVALUE PUSH2 0xE7 JUMPI PUSH0 CALLDATASIZE PUSH1 0x3 NOT ADD SLT PUSH2 0xE7 JUMPI PUSH1 0x1 SLOAD PUSH1 0x40 MLOAD PUSH1 0x1 PUSH1 0x1 PUSH1 0xA0 SHL SUB SWAP1 SWAP2 AND DUP2 MSTORE PUSH1 0x20 SWAP1 RETURN JUMPDEST CALLVALUE PUSH2 0xE7 JUMPI PUSH1 0x20 CALLDATASIZE PUSH1 0x3 NOT ADD SLT PUSH2 0xE7 JUMPI PUSH1 0x4 CALLDATALOAD PUSH1 0x1 PUSH1 0x1 PUSH1 0xA0 SHL SUB DUP2 AND SWAP1 DUP2 SWAP1 SUB PUSH2 0xE7 JUMPI PUSH2 0x974 PUSH2 0xF03 JUMP JUMPDEST PUSH1 0x1 DUP1 SLOAD PUSH1 0x1 PUSH1 0x1 PUSH1 0xA0 SHL SUB NOT AND DUP3 OR SWAP1 SSTORE PUSH32 0x3DF77BEB5DB05FCDD70A30FC8ADF3F83F9501B68579455ADBD100B8180940394 PUSH0 DUP1 LOG2 STOP JUMPDEST CALLVALUE PUSH2 0xE7 JUMPI PUSH0 CALLDATASIZE PUSH1 0x3 NOT ADD SLT PUSH2 0xE7 JUMPI PUSH2 0x9C4 PUSH2 0xF03 JUMP JUMPDEST PUSH0 DUP1 SLOAD PUSH1 0x1 PUSH1 0x1 PUSH1 0xA0 SHL SUB NOT DUP2 AND DUP3 SSTORE PUSH1 0x1 PUSH1 0x1 PUSH1 0xA0 SHL SUB AND PUSH32 0x8BE0079C531659141344CD1FD0A4F28419497F9722A3DAAFE3B4186F6B6457E0 DUP3 DUP1 LOG3 STOP JUMPDEST CALLVALUE PUSH2 0xE7 JUMPI PUSH0 CALLDATASIZE PUSH1 0x3 NOT ADD SLT PUSH2 0xE7 JUMPI PUSH1 0x2 SLOAD PUSH1 0x40 MLOAD PUSH1 0x1 PUSH1 0x1 PUSH1 0xA0 SHL SUB SWAP1 SWAP2 AND DUP2 MSTORE PUSH1 0x20 SWAP1 RETURN JUMPDEST CALLVALUE PUSH2 0xE7 JUMPI PUSH0 CALLDATASIZE PUSH1 0x3 NOT ADD SLT PUSH2 0xE7 JUMPI PUSH1 0x40 MLOAD PUSH32 0x0 PUSH1 0x1 PUSH1 0x1 PUSH1 0xA0 SHL SUB AND DUP2 MSTORE PUSH1 0x20 SWAP1 RETURN JUMPDEST CALLVALUE PUSH2 0xE7 JUMPI PUSH1 0x20 CALLDATASIZE PUSH1 0x3 NOT ADD SLT PUSH2 0xE7 JUMPI PUSH1 0x4 CALLDATALOAD DUP1 PUSH0 MSTORE PUSH1 0x4 PUSH1 0x20 MSTORE PUSH1 0x40 PUSH0 KECCAK256 PUSH1 0x8 DUP2 ADD SWAP1 DUP2 SLOAD PUSH2 0xAA5 PUSH1 0xFF DUP3 PUSH1 0x8 SHR AND PUSH2 0xEBF JUMP JUMPDEST PUSH1 0x5 DUP3 ADD SLOAD TIMESTAMP GT ISZERO PUSH2 0xBC8 JUMPI PUSH1 0xFF DUP2 PUSH1 0x18 SHR AND PUSH2 0xB65 JUMPI PUSH1 0x10 SHR PUSH1 0xFF AND ISZERO DUP1 PUSH2 0xB58 JUMPI JUMPDEST DUP1 PUSH2 0xB44 JUMPI JUMPDEST PUSH2 0xB04 JUMPI JUMPDEST POP DUP1 SLOAD PUSH2 0xFF00 NOT AND SWAP1 SSTORE PUSH32 0xB22AA541487FC93D989BB5B17D1E3A967F649C4979CFD658C0849E070AE0DCA0 PUSH0 DUP1 LOG2 STOP JUMPDEST PUSH1 0x2 DUP1 SLOAD SWAP2 ADD SLOAD PUSH2 0xB3E SWAP2 PUSH1 0x1 PUSH1 0x1 PUSH1 0xA0 SHL SUB AND PUSH32 0x0 PUSH2 0xF29 JUMP JUMPDEST DUP3 PUSH2 0xAD4 JUMP JUMPDEST POP PUSH1 0x2 SLOAD PUSH1 0x1 PUSH1 0x1 PUSH1 0xA0 SHL SUB AND ISZERO ISZERO PUSH2 0xACF JUMP JUMPDEST POP PUSH1 0x2 DUP2 ADD SLOAD ISZERO ISZERO PUSH2 0xAC9 JUMP JUMPDEST PUSH1 0x40 MLOAD PUSH3 0x461BCD PUSH1 0xE5 SHL DUP2 MSTORE PUSH1 0x20 PUSH1 0x4 DUP3 ADD MSTORE PUSH1 0x35 PUSH1 0x24 DUP3 ADD MSTORE PUSH32 0x506F6C6963795661756C743A207472696767657220616374697665202D206661 PUSH1 0x44 DUP3 ADD MSTORE PUSH21 0x1C9B595C881B5D5CDD0818DB185A5B48199A5C9CDD PUSH1 0x5A SHL PUSH1 0x64 DUP3 ADD MSTORE PUSH1 0x84 SWAP1 REVERT JUMPDEST PUSH1 0x40 MLOAD PUSH3 0x461BCD PUSH1 0xE5 SHL DUP2 MSTORE PUSH1 0x20 PUSH1 0x4 DUP3 ADD MSTORE PUSH1 0x18 PUSH1 0x24 DUP3 ADD MSTORE PUSH32 0x506F6C6963795661756C743A206E6F7420657870697265640000000000000000 PUSH1 0x44 DUP3 ADD MSTORE PUSH1 0x64 SWAP1 REVERT JUMPDEST CALLVALUE PUSH2 0xE7 JUMPI PUSH1 0x20 CALLDATASIZE PUSH1 0x3 NOT ADD SLT PUSH2 0xE7 JUMPI PUSH1 0x4 CALLDATALOAD DUP1 PUSH0 MSTORE PUSH1 0x4 PUSH1 0x20 MSTORE PUSH1 0x40 PUSH0 KECCAK256 PUSH1 0x8 DUP2 ADD DUP1 SLOAD SWAP2 PUSH2 0xC43 PUSH1 0xFF DUP5 PUSH1 0x8 SHR AND PUSH2 0xEBF JUMP JUMPDEST PUSH1 0x1 DUP1 PUSH1 0xA0 SHL SUB PUSH1 0x1 SLOAD AND SWAP3 PUSH1 0x40 PUSH1 0x9 DUP4 ADD SLOAD PUSH1 0x24 DUP3 MLOAD DUP1 SWAP8 DUP2 SWAP4 PUSH4 0x30710F1 PUSH1 0xE5 SHL DUP4 MSTORE PUSH1 0x4 DUP4 ADD MSTORE GAS STATICCALL DUP1 ISZERO PUSH2 0xE30 JUMPI PUSH0 SWAP5 PUSH0 SWAP2 PUSH2 0xDE2 JUMPI JUMPDEST POP DUP1 ISZERO PUSH2 0xD9D JUMPI TIMESTAMP SUB TIMESTAMP DUP2 GT PUSH2 0x849 JUMPI PUSH3 0x2A300 LT PUSH2 0xD58 JUMPI PUSH1 0xFF AND DUP4 GT ISZERO PUSH2 0xD4F JUMPI PUSH1 0xA ADD DUP1 SLOAD ISZERO PUSH2 0xD47 JUMPI JUMPDEST SLOAD PUSH3 0x127500 DUP2 ADD DUP1 SWAP2 GT PUSH2 0x849 JUMPI TIMESTAMP LT ISZERO PUSH2 0xCC3 JUMPI STOP JUMPDEST PUSH1 0xFF DUP2 PUSH32 0x61782CF7ED50C35F9220BD74184699A7A70A2A12EBE6747518406450EEE74944 SWAP4 PUSH1 0x55 PUSH1 0x20 SWAP5 SLOAD SWAP2 PUSH4 0x1000000 PUSH4 0xFF000000 NOT DUP5 AND OR DUP5 SSTORE GT PUSH0 EQ PUSH2 0xD31 JUMPI POP DUP1 SLOAD PUSH5 0xFF00000000 NOT AND PUSH5 0x200000000 OR DUP2 SSTORE JUMPDEST SLOAD DUP3 SHR AND PUSH1 0x40 MLOAD SWAP1 PUSH2 0xD2C DUP2 PUSH2 0xEA1 JUMP JUMPDEST DUP2 MSTORE LOG2 STOP JUMPDEST PUSH5 0xFFFF000000 NOT AND PUSH5 0x101000000 OR DUP2 SSTORE PUSH2 0xD1B JUMP JUMPDEST TIMESTAMP DUP2 SSTORE PUSH2 0xCAC JUMP JUMPDEST PUSH0 PUSH1 0xA SWAP1 SWAP2 ADD SSTORE STOP JUMPDEST PUSH1 0x40 MLOAD PUSH3 0x461BCD PUSH1 0xE5 SHL DUP2 MSTORE PUSH1 0x20 PUSH1 0x4 DUP3 ADD MSTORE PUSH1 0x19 PUSH1 0x24 DUP3 ADD MSTORE PUSH32 0x506F6C6963795661756C743A207374616C65206F7261636C6500000000000000 PUSH1 0x44 DUP3 ADD MSTORE PUSH1 0x64 SWAP1 REVERT JUMPDEST PUSH1 0x40 MLOAD PUSH3 0x461BCD PUSH1 0xE5 SHL DUP2 MSTORE PUSH1 0x20 PUSH1 0x4 DUP3 ADD MSTORE PUSH1 0x1B PUSH1 0x24 DUP3 ADD MSTORE PUSH32 0x506F6C6963795661756C743A206E6F206F7261636C6520646174610000000000 PUSH1 0x44 DUP3 ADD MSTORE PUSH1 0x64 SWAP1 REVERT JUMPDEST SWAP5 POP POP PUSH1 0x40 RETURNDATASIZE PUSH1 0x40 GT PUSH2 0xE29 JUMPI JUMPDEST PUSH1 0x1F DUP2 ADD PUSH1 0x1F NOT AND DUP6 ADD PUSH8 0xFFFFFFFFFFFFFFFF DUP2 GT DUP7 DUP3 LT OR PUSH2 0x835 JUMPI PUSH1 0x40 SWAP2 DUP7 SWAP2 DUP4 MSTORE DUP2 ADD SUB SLT PUSH2 0xE7 JUMPI PUSH1 0x20 DUP5 MLOAD SWAP5 ADD MLOAD DUP7 PUSH2 0xC7E JUMP JUMPDEST POP RETURNDATASIZE PUSH2 0xDF0 JUMP JUMPDEST PUSH1 0x40 MLOAD RETURNDATASIZE PUSH0 DUP3 RETURNDATACOPY RETURNDATASIZE SWAP1 REVERT JUMPDEST CALLVALUE PUSH2 0xE7 JUMPI PUSH1 0x20 CALLDATASIZE PUSH1 0x3 NOT ADD SLT PUSH2 0xE7 JUMPI PUSH1 0x4 CALLDATALOAD PUSH1 0x1 PUSH1 0x1 PUSH1 0xA0 SHL SUB DUP2 AND SWAP1 DUP2 SWAP1 SUB PUSH2 0xE7 JUMPI PUSH2 0xE69 PUSH2 0xF03 JUMP JUMPDEST PUSH1 0x2 DUP1 SLOAD PUSH1 0x1 PUSH1 0x1 PUSH1 0xA0 SHL SUB NOT AND DUP3 OR SWAP1 SSTORE PUSH32 0xEDF1A035D265F6321083031B40ACF4E5E06CD3E2E2025192FD308409B13B44C6 PUSH0 DUP1 LOG2 STOP JUMPDEST PUSH1 0x3 GT ISZERO PUSH2 0xEAB JUMPI JUMP JUMPDEST PUSH4 0x4E487B71 PUSH1 0xE0 SHL PUSH0 MSTORE PUSH1 0x21 PUSH1 0x4 MSTORE PUSH1 0x24 PUSH0 REVERT JUMPDEST ISZERO PUSH2 0xEC6 JUMPI JUMP JUMPDEST PUSH1 0x40 MLOAD PUSH3 0x461BCD PUSH1 0xE5 SHL DUP2 MSTORE PUSH1 0x20 PUSH1 0x4 DUP3 ADD MSTORE PUSH1 0x15 PUSH1 0x24 DUP3 ADD MSTORE PUSH21 0x506F6C6963795661756C743A20696E616374697665 PUSH1 0x58 SHL PUSH1 0x44 DUP3 ADD MSTORE PUSH1 0x64 SWAP1 REVERT JUMPDEST PUSH0 SLOAD PUSH1 0x1 PUSH1 0x1 PUSH1 0xA0 SHL SUB AND CALLER SUB PUSH2 0xF16 JUMPI JUMP JUMPDEST PUSH4 0x118CDAA7 PUSH1 0xE0 SHL PUSH0 MSTORE CALLER PUSH1 0x4 MSTORE PUSH1 0x24 PUSH0 REVERT JUMPDEST SWAP2 PUSH1 0x40 MLOAD SWAP2 PUSH4 0xA9059CBB PUSH1 0xE0 SHL PUSH0 MSTORE PUSH1 0x1 DUP1 PUSH1 0xA0 SHL SUB AND PUSH1 0x4 MSTORE PUSH1 0x24 MSTORE PUSH1 0x20 PUSH0 PUSH1 0x44 DUP2 DUP1 DUP7 GAS CALL SWAP1 PUSH1 0x1 PUSH0 MLOAD EQ DUP3 AND ISZERO PUSH2 0xF69 JUMPI JUMPDEST PUSH1 0x40 MSTORE ISZERO PUSH2 0x85D JUMPI POP JUMP JUMPDEST SWAP1 PUSH1 0x1 DUP2 ISZERO AND PUSH2 0x895 JUMPI DUP3 EXTCODESIZE ISZERO ISZERO RETURNDATASIZE ISZERO AND AND SWAP1 PUSH2 0xF5E JUMP JUMPDEST PUSH1 0x2 PUSH0 MLOAD PUSH1 0x20 PUSH2 0xFEA PUSH0 CODECOPY PUSH0 MLOAD SWAP1 PUSH0 MSTORE SLOAD EQ PUSH2 0xFAA JUMPI PUSH1 0x2 PUSH0 MLOAD PUSH1 0x20 PUSH2 0xFEA PUSH0 CODECOPY PUSH0 MLOAD SWAP1 PUSH0 MSTORE SSTORE JUMP JUMPDEST PUSH4 0x3EE5AEB5 PUSH1 0xE0 SHL PUSH0 MSTORE PUSH1 0x4 PUSH0 REVERT JUMPDEST PUSH2 0xFC2 DUP2 PUSH2 0xEA1 JUMP JUMPDEST PUSH1 0x2 DUP2 EQ PUSH2 0xFE3 JUMPI PUSH2 0xFD3 DUP2 PUSH2 0xEA1 JUMP JUMPDEST ISZERO PUSH2 0xFDE JUMPI PUSH2 0x12C SWAP1 JUMP JUMPDEST PUSH1 0xFA SWAP1 JUMP JUMPDEST POP PUSH1 0xC8 SWAP1 JUMP INVALID SWAP12 PUSH24 0x9B17422D0DF92223018B32B4D1FA46E071723D6817E2486D STOP EXTCODESIZE 0xEC 0xC5 PUSH0 STOP LOG2 PUSH5 0x6970667358 0x22 SLT KECCAK256 0x22 PUSH16 0xB4716E1F2B3F9D88F0CFE28F7656B3E9 PUSH30 0xE0271731F731C1ADD27AD7C92864736F6C634300081C0033000000000000 "},"methodIdentifiers":{"MAX_COVERAGE_PER_HECTARE()":"ff08a419","MIN_TRIGGER_DAYS()":"fd9c611e","claimPayout(uint256)":"8a69614e","createPolicy((uint8,uint256,int256,int256,uint256,bytes32))":"83b4b1e4","evaluateTrigger(uint256)":"20ae9a7d","expirePolicy(uint256)":"3037e4cd","liquidityPool()":"665a11ca","nextPolicyId()":"cad0b8db","oracle()":"7dc0d1d0","owner()":"8da5cb5b","policies(uint256)":"d3e89483","renounceOwnership()":"715018a6","setLiquidityPool(address)":"01877020","setOracle(address)":"7adbf973","transferOwnership(address)":"f2fde38b","usdc()":"3e413bee"}}}}}