{"contracts/OracleConsumer.sol":{"OracleConsumer":{"abi":[{"inputs":[{"internalType":"address","name":"_ftsoRegistry","type":"address"},{"internalType":"address","name":"_keeper","type":"address"}],"stateMutability":"nonpayable","type":"constructor"},{"anonymous":false,"inputs":[{"indexed":true,"internalType":"bytes32","name":"regionCode","type":"bytes32"},{"indexed":false,"internalType":"uint256","name":"index","type":"uint256"},{"indexed":false,"internalType":"uint256","name":"timestamp","type":"uint256"}],"name":"DroughtIndexUpdated","type":"event"},{"anonymous":false,"inputs":[{"indexed":true,"internalType":"address","name":"registry","type":"address"}],"name":"FtsoRegistryUpdated","type":"event"},{"anonymous":false,"inputs":[{"indexed":true,"internalType":"address","name":"keeper","type":"address"}],"name":"KeeperUpdated","type":"event"},{"inputs":[{"internalType":"bytes32","name":"","type":"bytes32"}],"name":"droughtByRegion","outputs":[{"internalType":"uint256","name":"index","type":"uint256"},{"internalType":"uint256","name":"timestamp","type":"uint256"}],"stateMutability":"view","type":"function"},{"inputs":[],"name":"ftsoRegistry","outputs":[{"internalType":"contract IFtsoRegistry","name":"","type":"address"}],"stateMutability":"view","type":"function"},{"inputs":[{"internalType":"bytes32","name":"regionCode","type":"bytes32"}],"name":"getDroughtIndex","outputs":[{"internalType":"uint256","name":"index","type":"uint256"},{"internalType":"uint256","name":"timestamp","type":"uint256"}],"stateMutability":"view","type":"function"},{"inputs":[],"name":"keeper","outputs":[{"internalType":"address","name":"","type":"address"}],"stateMutability":"view","type":"function"},{"inputs":[{"internalType":"address","name":"_ftsoRegistry","type":"address"}],"name":"setFtsoRegistry","outputs":[],"stateMutability":"nonpayable","type":"function"},{"inputs":[{"internalType":"address","name":"_keeper","type":"address"}],"name":"setKeeper","outputs":[],"stateMutability":"nonpayable","type":"function"},{"inputs":[{"internalType":"bytes32","name":"regionCode","type":"bytes32"},{"internalType":"uint256","name":"index","type":"uint256"}],"name":"updateDroughtIndex","outputs":[],"stateMutability":"nonpayable","type":"function"}],"evm":{"bytecode":{"linkReferences":{},"object":"6080346100da57601f6104ae38819003918201601f19168301916001600160401b038311848410176100de5780849260409485528339810103126100da57610052602061004b836100f2565b92016100f2565b5f80546001600160a01b03199081166001600160a01b0394851690811783556001805490921694909316938417905560405192907f0425bcd291db1d48816f2a98edc7ecaf6dd5c64b973d9e4b3b6b750763dc6c2e9080a27fe123745201fbaf8c6658a1c7e6477f1587c8105a23a4dd4339ea2ecc7328785a5f80a26103a790816101078239f35b5f80fd5b634e487b7160e01b5f52604160045260245ffd5b51906001600160a01b03821682036100da5756fe6080806040526004361015610012575f80fd5b5f3560e01c90816338b5f869146102cf575080635fc560141461025d57806360e21e2014610218578063748747e6146101a557806392bdd62714610172578063aced16611461014a5763b971190f14610069575f80fd5b346101465760403660031901126101465760043560243561009560018060a01b036001541633146102f1565b606481116100f65760407f20b884a63f3712694a98efa22c87498bd02904027784a367ee3c1660c030264f916100c961033d565b818152600160208201428152865f526002602052845f2092518355519101558151908152426020820152a2005b60405162461bcd60e51b815260206004820152602260248201527f4f7261636c65436f6e73756d65723a20696e646578206f7574206f662072616e604482015261676560f01b6064820152608490fd5b5f80fd5b34610146575f366003190112610146576001546040516001600160a01b039091168152602090f35b34610146576020366003190112610146576004355f5260026020526040805f206001815491015482519182526020820152f35b34610146576020366003190112610146576004356001600160a01b038116908190036101465760015481906101e4336001600160a01b038316146102f1565b6001600160a01b031916176001557f0425bcd291db1d48816f2a98edc7ecaf6dd5c64b973d9e4b3b6b750763dc6c2e5f80a2005b34610146576020366003190112610146576004355f5260026020526040805f20602061024261033d565b60018354938483520154918291015282519182526020820152f35b34610146576020366003190112610146576004356001600160a01b038116908190036101465761029860018060a01b036001541633146102f1565b5f80546001600160a01b031916821781557fe123745201fbaf8c6658a1c7e6477f1587c8105a23a4dd4339ea2ecc7328785a9080a2005b34610146575f366003190112610146575f546001600160a01b03168152602090f35b156102f857565b60405162461bcd60e51b815260206004820152601a60248201527f4f7261636c65436f6e73756d65723a206e6f74206b65657065720000000000006044820152606490fd5b604051906040820182811067ffffffffffffffff82111761035d57604052565b634e487b7160e01b5f52604160045260245ffdfea26469706673582212200dd7a21ed015b929ff633d5f7e67198c041e647a910d38a15e1e979b3e2e170864736f6c634300081c0033","opcodes":"PUSH1 0x80 CALLVALUE PUSH2 0xDA JUMPI PUSH1 0x1F PUSH2 0x4AE CODESIZE DUP2 SWAP1 SUB SWAP2 DUP3 ADD PUSH1 0x1F NOT AND DUP4 ADD SWAP2 PUSH1 0x1 PUSH1 0x1 PUSH1 0x40 SHL SUB DUP4 GT DUP5 DUP5 LT OR PUSH2 0xDE JUMPI DUP1 DUP5 SWAP3 PUSH1 0x40 SWAP5 DUP6 MSTORE DUP4 CODECOPY DUP2 ADD SUB SLT PUSH2 0xDA JUMPI PUSH2 0x52 PUSH1 0x20 PUSH2 0x4B DUP4 PUSH2 0xF2 JUMP JUMPDEST SWAP3 ADD PUSH2 0xF2 JUMP JUMPDEST PUSH0 DUP1 SLOAD PUSH1 0x1 PUSH1 0x1 PUSH1 0xA0 SHL SUB NOT SWAP1 DUP2 AND PUSH1 0x1 PUSH1 0x1 PUSH1 0xA0 SHL SUB SWAP5 DUP6 AND SWAP1 DUP2 OR DUP4 SSTORE PUSH1 0x1 DUP1 SLOAD SWAP1 SWAP3 AND SWAP5 SWAP1 SWAP4 AND SWAP4 DUP5 OR SWAP1 SSTORE PUSH1 0x40 MLOAD SWAP3 SWAP1 PUSH32 0x425BCD291DB1D48816F2A98EDC7ECAF6DD5C64B973D9E4B3B6B750763DC6C2E SWAP1 DUP1 LOG2 PUSH32 0xE123745201FBAF8C6658A1C7E6477F1587C8105A23A4DD4339EA2ECC7328785A PUSH0 DUP1 LOG2 PUSH2 0x3A7 SWAP1 DUP2 PUSH2 0x107 DUP3 CODECOPY RETURN JUMPDEST PUSH0 DUP1 REVERT JUMPDEST PUSH4 0x4E487B71 PUSH1 0xE0 SHL PUSH0 MSTORE PUSH1 0x41 PUSH1 0x4 MSTORE PUSH1 0x24 PUSH0 REVERT JUMPDEST MLOAD SWAP1 PUSH1 0x1 PUSH1 0x1 PUSH1 0xA0 SHL SUB DUP3 AND DUP3 SUB PUSH2 0xDA JUMPI JUMP INVALID PUSH1 0x80 DUP1 PUSH1 0x40 MSTORE PUSH1 0x4 CALLDATASIZE LT ISZERO PUSH2 0x12 JUMPI PUSH0 DUP1 REVERT JUMPDEST PUSH0 CALLDATALOAD PUSH1 0xE0 SHR SWAP1 DUP2 PUSH4 0x38B5F869 EQ PUSH2 0x2CF JUMPI POP DUP1 PUSH4 0x5FC56014 EQ PUSH2 0x25D JUMPI DUP1 PUSH4 0x60E21E20 EQ PUSH2 0x218 JUMPI DUP1 PUSH4 0x748747E6 EQ PUSH2 0x1A5 JUMPI DUP1 PUSH4 0x92BDD627 EQ PUSH2 0x172 JUMPI DUP1 PUSH4 0xACED1661 EQ PUSH2 0x14A JUMPI PUSH4 0xB971190F EQ PUSH2 0x69 JUMPI PUSH0 DUP1 REVERT JUMPDEST CALLVALUE PUSH2 0x146 JUMPI PUSH1 0x40 CALLDATASIZE PUSH1 0x3 NOT ADD SLT PUSH2 0x146 JUMPI PUSH1 0x4 CALLDATALOAD PUSH1 0x24 CALLDATALOAD PUSH2 0x95 PUSH1 0x1 DUP1 PUSH1 0xA0 SHL SUB PUSH1 0x1 SLOAD AND CALLER EQ PUSH2 0x2F1 JUMP JUMPDEST PUSH1 0x64 DUP2 GT PUSH2 0xF6 JUMPI PUSH1 0x40 PUSH32 0x20B884A63F3712694A98EFA22C87498BD02904027784A367EE3C1660C030264F SWAP2 PUSH2 0xC9 PUSH2 0x33D JUMP JUMPDEST DUP2 DUP2 MSTORE PUSH1 0x1 PUSH1 0x20 DUP3 ADD TIMESTAMP DUP2 MSTORE DUP7 PUSH0 MSTORE PUSH1 0x2 PUSH1 0x20 MSTORE DUP5 PUSH0 KECCAK256 SWAP3 MLOAD DUP4 SSTORE MLOAD SWAP2 ADD SSTORE DUP2 MLOAD SWAP1 DUP2 MSTORE TIMESTAMP PUSH1 0x20 DUP3 ADD MSTORE LOG2 STOP JUMPDEST PUSH1 0x40 MLOAD PUSH3 0x461BCD PUSH1 0xE5 SHL DUP2 MSTORE PUSH1 0x20 PUSH1 0x4 DUP3 ADD MSTORE PUSH1 0x22 PUSH1 0x24 DUP3 ADD MSTORE PUSH32 0x4F7261636C65436F6E73756D65723A20696E646578206F7574206F662072616E PUSH1 0x44 DUP3 ADD MSTORE PUSH2 0x6765 PUSH1 0xF0 SHL PUSH1 0x64 DUP3 ADD MSTORE PUSH1 0x84 SWAP1 REVERT JUMPDEST PUSH0 DUP1 REVERT JUMPDEST CALLVALUE PUSH2 0x146 JUMPI PUSH0 CALLDATASIZE PUSH1 0x3 NOT ADD SLT PUSH2 0x146 JUMPI PUSH1 0x1 SLOAD PUSH1 0x40 MLOAD PUSH1 0x1 PUSH1 0x1 PUSH1 0xA0 SHL SUB SWAP1 SWAP2 AND DUP2 MSTORE PUSH1 0x20 SWAP1 RETURN JUMPDEST CALLVALUE PUSH2 0x146 JUMPI PUSH1 0x20 CALLDATASIZE PUSH1 0x3 NOT ADD SLT PUSH2 0x146 JUMPI PUSH1 0x4 CALLDATALOAD PUSH0 MSTORE PUSH1 0x2 PUSH1 0x20 MSTORE PUSH1 0x40 DUP1 PUSH0 KECCAK256 PUSH1 0x1 DUP2 SLOAD SWAP2 ADD SLOAD DUP3 MLOAD SWAP2 DUP3 MSTORE PUSH1 0x20 DUP3 ADD MSTORE RETURN JUMPDEST CALLVALUE PUSH2 0x146 JUMPI PUSH1 0x20 CALLDATASIZE PUSH1 0x3 NOT ADD SLT PUSH2 0x146 JUMPI PUSH1 0x4 CALLDATALOAD PUSH1 0x1 PUSH1 0x1 PUSH1 0xA0 SHL SUB DUP2 AND SWAP1 DUP2 SWAP1 SUB PUSH2 0x146 JUMPI PUSH1 0x1 SLOAD DUP2 SWAP1 PUSH2 0x1E4 CALLER PUSH1 0x1 PUSH1 0x1 PUSH1 0xA0 SHL SUB DUP4 AND EQ PUSH2 0x2F1 JUMP JUMPDEST PUSH1 0x1 PUSH1 0x1 PUSH1 0xA0 SHL SUB NOT AND OR PUSH1 0x1 SSTORE PUSH32 0x425BCD291DB1D48816F2A98EDC7ECAF6DD5C64B973D9E4B3B6B750763DC6C2E PUSH0 DUP1 LOG2 STOP JUMPDEST CALLVALUE PUSH2 0x146 JUMPI PUSH1 0x20 CALLDATASIZE PUSH1 0x3 NOT ADD SLT PUSH2 0x146 JUMPI PUSH1 0x4 CALLDATALOAD PUSH0 MSTORE PUSH1 0x2 PUSH1 0x20 MSTORE PUSH1 0x40 DUP1 PUSH0 KECCAK256 PUSH1 0x20 PUSH2 0x242 PUSH2 0x33D JUMP JUMPDEST PUSH1 0x1 DUP4 SLOAD SWAP4 DUP5 DUP4 MSTORE ADD SLOAD SWAP2 DUP3 SWAP2 ADD MSTORE DUP3 MLOAD SWAP2 DUP3 MSTORE PUSH1 0x20 DUP3 ADD MSTORE RETURN JUMPDEST CALLVALUE PUSH2 0x146 JUMPI PUSH1 0x20 CALLDATASIZE PUSH1 0x3 NOT ADD SLT PUSH2 0x146 JUMPI PUSH1 0x4 CALLDATALOAD PUSH1 0x1 PUSH1 0x1 PUSH1 0xA0 SHL SUB DUP2 AND SWAP1 DUP2 SWAP1 SUB PUSH2 0x146 JUMPI PUSH2 0x298 PUSH1 0x1 DUP1 PUSH1 0xA0 SHL SUB PUSH1 0x1 SLOAD AND CALLER EQ PUSH2 0x2F1 JUMP JUMPDEST PUSH0 DUP1 SLOAD PUSH1 0x1 PUSH1 0x1 PUSH1 0xA0 SHL SUB NOT AND DUP3 OR DUP2 SSTORE PUSH32 0xE123745201FBAF8C6658A1C7E6477F1587C8105A23A4DD4339EA2ECC7328785A SWAP1 DUP1 LOG2 STOP JUMPDEST CALLVALUE PUSH2 0x146 JUMPI PUSH0 CALLDATASIZE PUSH1 0x3 NOT ADD SLT PUSH2 0x146 JUMPI PUSH0 SLOAD PUSH1 0x1 PUSH1 0x1 PUSH1 0xA0 SHL SUB AND DUP2 MSTORE PUSH1 0x20 SWAP1 RETURN JUMPDEST ISZERO PUSH2 0x2F8 JUMPI JUMP JUMPDEST PUSH1 0x40 MLOAD PUSH3 0x461BCD PUSH1 0xE5 SHL DUP2 MSTORE PUSH1 0x20 PUSH1 0x4 DUP3 ADD MSTORE PUSH1 0x1A PUSH1 0x24 DUP3 ADD MSTORE PUSH32 0x4F7261636C65436F6E73756D65723A206E6F74206B6565706572000000000000 PUSH1 0x44 DUP3 ADD MSTORE PUSH1 0x64 SWAP1 REVERT JUMPDEST PUSH1 0x40 MLOAD SWAP1 PUSH1 0x40 DUP3 ADD DUP3 DUP2 LT PUSH8 0xFFFFFFFFFFFFFFFF DUP3 GT OR PUSH2 0x35D JUMPI PUSH1 0x40 MSTORE JUMP JUMPDEST PUSH4 0x4E487B71 PUSH1 0xE0 SHL PUSH0 MSTORE PUSH1 0x41 PUSH1 0x4 MSTORE PUSH1 0x24 PUSH0 REVERT INVALID LOG2 PUSH5 0x6970667358 0x22 SLT KECCAK256 0xD 0xD7 LOG2 0x1E 0xD0 ISZERO 0xB9 0x29 SELFDESTRUCT PUSH4 0x3D5F7E67 NOT DUP13 DIV 0x1E PUSH5 0x7A910D38A1 MCOPY 0x1E SWAP8 SWAP12 RETURNDATACOPY 0x2E OR ADDMOD PUSH5 0x736F6C6343 STOP ADDMOD SHR STOP CALLER "},"methodIdentifiers":{"droughtByRegion(bytes32)":"92bdd627","ftsoRegistry()":"38b5f869","getDroughtIndex(bytes32)":"60e21e20","keeper()":"aced1661","setFtsoRegistry(address)":"5fc56014","setKeeper(address)":"748747e6","updateDroughtIndex(bytes32,uint256)":"b971190f"}}}}}