{
  "_format": "hh-sol-artifact-1",
  "contractName": "ReinsurancePool",
  "sourceName": "contracts/ReinsurancePool.sol",
  "abi": [
    {
      "inputs": [
        {
          "internalType": "address",
          "name": "_usdc",
          "type": "address"
        },
        {
          "internalType": "address",
          "name": "_owner",
          "type": "address"
        }
      ],
      "stateMutability": "nonpayable",
      "type": "constructor"
    },
    {
      "inputs": [
        {
          "internalType": "address",
          "name": "owner",
          "type": "address"
        }
      ],
      "name": "OwnableInvalidOwner",
      "type": "error"
    },
    {
      "inputs": [
        {
          "internalType": "address",
          "name": "account",
          "type": "address"
        }
      ],
      "name": "OwnableUnauthorizedAccount",
      "type": "error"
    },
    {
      "inputs": [],
      "name": "ReentrancyGuardReentrantCall",
      "type": "error"
    },
    {
      "inputs": [
        {
          "internalType": "address",
          "name": "token",
          "type": "address"
        }
      ],
      "name": "SafeERC20FailedOperation",
      "type": "error"
    },
    {
      "anonymous": false,
      "inputs": [
        {
          "indexed": false,
          "internalType": "uint256",
          "name": "amount",
          "type": "uint256"
        }
      ],
      "name": "DrawdownTriggered",
      "type": "event"
    },
    {
      "anonymous": false,
      "inputs": [
        {
          "indexed": true,
          "internalType": "address",
          "name": "previousOwner",
          "type": "address"
        },
        {
          "indexed": true,
          "internalType": "address",
          "name": "newOwner",
          "type": "address"
        }
      ],
      "name": "OwnershipTransferred",
      "type": "event"
    },
    {
      "anonymous": false,
      "inputs": [
        {
          "indexed": true,
          "internalType": "address",
          "name": "pool",
          "type": "address"
        }
      ],
      "name": "PrimaryPoolSet",
      "type": "event"
    },
    {
      "anonymous": false,
      "inputs": [
        {
          "indexed": true,
          "internalType": "address",
          "name": "lp",
          "type": "address"
        },
        {
          "indexed": false,
          "internalType": "uint256",
          "name": "amount",
          "type": "uint256"
        }
      ],
      "name": "Staked",
      "type": "event"
    },
    {
      "anonymous": false,
      "inputs": [
        {
          "indexed": true,
          "internalType": "address",
          "name": "lp",
          "type": "address"
        },
        {
          "indexed": false,
          "internalType": "uint256",
          "name": "amount",
          "type": "uint256"
        }
      ],
      "name": "Withdrawn",
      "type": "event"
    },
    {
      "inputs": [
        {
          "internalType": "address",
          "name": "",
          "type": "address"
        }
      ],
      "name": "depositTime",
      "outputs": [
        {
          "internalType": "uint256",
          "name": "",
          "type": "uint256"
        }
      ],
      "stateMutability": "view",
      "type": "function"
    },
    {
      "inputs": [],
      "name": "owner",
      "outputs": [
        {
          "internalType": "address",
          "name": "",
          "type": "address"
        }
      ],
      "stateMutability": "view",
      "type": "function"
    },
    {
      "inputs": [],
      "name": "primaryPool",
      "outputs": [
        {
          "internalType": "address",
          "name": "",
          "type": "address"
        }
      ],
      "stateMutability": "view",
      "type": "function"
    },
    {
      "inputs": [],
      "name": "renounceOwnership",
      "outputs": [],
      "stateMutability": "nonpayable",
      "type": "function"
    },
    {
      "inputs": [
        {
          "internalType": "uint256",
          "name": "deficit",
          "type": "uint256"
        }
      ],
      "name": "requestDrawdown",
      "outputs": [],
      "stateMutability": "nonpayable",
      "type": "function"
    },
    {
      "inputs": [
        {
          "internalType": "address",
          "name": "_primaryPool",
          "type": "address"
        }
      ],
      "name": "setPrimaryPool",
      "outputs": [],
      "stateMutability": "nonpayable",
      "type": "function"
    },
    {
      "inputs": [
        {
          "internalType": "address",
          "name": "",
          "type": "address"
        }
      ],
      "name": "sharesOf",
      "outputs": [
        {
          "internalType": "uint256",
          "name": "",
          "type": "uint256"
        }
      ],
      "stateMutability": "view",
      "type": "function"
    },
    {
      "inputs": [
        {
          "internalType": "uint256",
          "name": "amount",
          "type": "uint256"
        }
      ],
      "name": "stake",
      "outputs": [],
      "stateMutability": "nonpayable",
      "type": "function"
    },
    {
      "inputs": [],
      "name": "totalShares",
      "outputs": [
        {
          "internalType": "uint256",
          "name": "",
          "type": "uint256"
        }
      ],
      "stateMutability": "view",
      "type": "function"
    },
    {
      "inputs": [
        {
          "internalType": "address",
          "name": "newOwner",
          "type": "address"
        }
      ],
      "name": "transferOwnership",
      "outputs": [],
      "stateMutability": "nonpayable",
      "type": "function"
    },
    {
      "inputs": [],
      "name": "usdc",
      "outputs": [
        {
          "internalType": "contract IERC20",
          "name": "",
          "type": "address"
        }
      ],
      "stateMutability": "view",
      "type": "function"
    },
    {
      "inputs": [
        {
          "internalType": "uint256",
          "name": "shares",
          "type": "uint256"
        }
      ],
      "name": "withdraw",
      "outputs": [],
      "stateMutability": "nonpayable",
      "type": "function"
    }
  ],
  "bytecode": "0x60a03461011857601f610c0838819003918201601f19168301916001600160401b0383118484101761011c5780849260409485528339810103126101185761004681610130565b906001600160a01b039061005c90602001610130565b16908115610105575f80546001600160a01b031981168417825560405193916001600160a01b03909116907f8be0079c531659141344cd1fd0a4f28419497f9722a3daafe3b4186f6b6457e09080a360017f9b779b17422d0df92223018b32b4d1fa46e071723d6817e2486d003becc55f00556001600160a01b0316608052610ac3908161014582396080518181816101a3015281816103430152818161067101526107270152f35b631e4fbdf760e01b5f525f60045260245ffd5b5f80fd5b634e487b7160e01b5f52604160045260245ffd5b51906001600160a01b03821682036101185756fe60806040526004361015610011575f80fd5b5f3560e01c80632e1a7d4d146106bd5780633a98ef39146106a05780633e413bee1461065c5780633f91d69d146105f657806346c64873146105ba578063715018a6146105635780638da5cb5b1461053c5780639be3d69c14610514578063a694fc3a1461030c578063d768c90d14610166578063f2fde38b146100dd5763f5eb42dc1461009d575f80fd5b346100d95760203660031901126100d9576004356001600160a01b038116908190036100d9575f526003602052602060405f2054604051908152f35b5f80fd5b346100d95760203660031901126100d9576004356001600160a01b038116908190036100d95761010b610a47565b8015610153575f80546001600160a01b03198116831782556001600160a01b0316907f8be0079c531659141344cd1fd0a4f28419497f9722a3daafe3b4186f6b6457e09080a3005b631e4fbdf760e01b5f525f60045260245ffd5b346100d95760203660031901126100d9576001546001600160a01b0316600435338290036102c7576040516370a0823160e01b81523060048201527f00000000000000000000000000000000000000000000000000000000000000009290916020836024816001600160a01b0388165afa9283156102bc575f93610288575b508215610239577fc13627a0906158af00730245b26fbcc9e6aad2962b127dc117f86e583f71c9db93602093610226928181111561022f57509283916109c6565b604051908152a1005b90509283916109c6565b60405162461bcd60e51b815260206004820152602160248201527f5265696e737572616e63653a206e6f206361706974616c20617661696c61626c6044820152606560f81b6064820152608490fd5b9092506020813d6020116102b4575b816102a46020938361091a565b810103126100d9575191846101e5565b3d9150610297565b6040513d5f823e3d90fd5b60405162461bcd60e51b815260206004820152601d60248201527f5265696e737572616e63653a206e6f74207072696d61727920706f6f6c0000006044820152606490fd5b346100d95760203660031901126100d95760043561032861098e565b80156104d7576040516370a0823160e01b81523060048201527f00000000000000000000000000000000000000000000000000000000000000006001600160a01b03811690602083602481855afa9283156102bc575f936104a3575b50604051906323b872dd60e01b5f5233600452306024528460445260205f60648180855af19060015f5114821615610484575b50906040525f606052156104725750600254908115801561046a575b1561044d57506103e482809261090d565b600255335f5260036020526103fe60405f2091825461090d565b9055335f5260046020524260405f20556040519081527f9e71bc8eea02a63969f509818f2dafb9254532904319f9dbda79b67bd34a5f3d60203392a260015f516020610a6e5f395f51905f5255005b6104636103e49161045e8486610950565b610963565b809261090d565b5080156103d3565b635274afe760e01b5f5260045260245ffd5b600182151661049a573b15153d151616856103b7565b823d5f823e3d90fd5b9092506020813d6020116104cf575b816104bf6020938361091a565b810103126100d957519184610384565b3d91506104b2565b60405162461bcd60e51b815260206004820152601560248201527405265696e737572616e63653a20616d6f756e743d3605c1b6044820152606490fd5b346100d9575f3660031901126100d9576001546040516001600160a01b039091168152602090f35b346100d9575f3660031901126100d9575f546040516001600160a01b039091168152602090f35b346100d9575f3660031901126100d95761057b610a47565b5f80546001600160a01b0319811682556001600160a01b03167f8be0079c531659141344cd1fd0a4f28419497f9722a3daafe3b4186f6b6457e08280a3005b346100d95760203660031901126100d9576004356001600160a01b038116908190036100d9575f526004602052602060405f2054604051908152f35b346100d95760203660031901126100d9576004356001600160a01b038116908190036100d957610624610a47565b600180546001600160a01b031916821790557f29defaeeec5505d275c25799ebadb74d01c7b5fb5a5606502048d24144ee46715f80a2005b346100d9575f3660031901126100d9576040517f00000000000000000000000000000000000000000000000000000000000000006001600160a01b03168152602090f35b346100d9575f3660031901126100d9576020600254604051908152f35b346100d95760203660031901126100d9576004356106d961098e565b80156108d057335f5260036020528060405f20541061088c57335f52600460205260405f205462278d008101809111610878574210610829576040516370a0823160e01b81523060048201527f000000000000000000000000000000000000000000000000000000000000000091906020816024816001600160a01b0387165afa9081156102bc575f916107f3575b6107aa6107b4848661078661077d8388610950565b60025490610963565b938492335f52600360205260405f206107a0828254610981565b9055600254610981565b60025533906109c6565b6040519081527f7084f5476618d8e60b11ef0d7d3f06914655adb8793e28ff7f018d4c76d505d560203392a260015f516020610a6e5f395f51905f5255005b9190506020823d602011610821575b8161080f6020938361091a565b810103126100d95790516107aa610768565b3d9150610802565b60405162461bcd60e51b815260206004820152602160248201527f5265696e737572616e63653a2033302d646179206c6f636b75702061637469766044820152606560f81b6064820152608490fd5b634e487b7160e01b5f52601160045260245ffd5b606460405162461bcd60e51b815260206004820152602060248201527f5265696e737572616e63653a20696e73756666696369656e74207368617265736044820152fd5b60405162461bcd60e51b815260206004820152601560248201527405265696e737572616e63653a207368617265733d3605c1b6044820152606490fd5b9190820180921161087857565b90601f8019910116810190811067ffffffffffffffff82111761093c57604052565b634e487b7160e01b5f52604160045260245ffd5b8181029291811591840414171561087857565b811561096d570490565b634e487b7160e01b5f52601260045260245ffd5b9190820391821161087857565b60025f516020610a6e5f395f51905f5254146109b75760025f516020610a6e5f395f51905f5255565b633ee5aeb560e01b5f5260045ffd5b916040519163a9059cbb60e01b5f5260018060a01b031660045260245260205f60448180865af19060015f5114821615610a26575b60405215610a065750565b635274afe760e01b5f9081526001600160a01b0391909116600452602490fd5b906001811516610a3e57823b15153d151616906109fb565b503d5f823e3d90fd5b5f546001600160a01b03163303610a5a57565b63118cdaa760e01b5f523360045260245ffdfe9b779b17422d0df92223018b32b4d1fa46e071723d6817e2486d003becc55f00a264697066735822122014140c58eca086ec509e86d5447ad97c452b93cc5c799989b70140348bb468df64736f6c634300081c0033",
  "linkReferences": {},
  "deployedLinkReferences": {}
}