{
  "_format": "hh-sol-artifact-1",
  "contractName": "LiquidityPool",
  "sourceName": "contracts/LiquidityPool.sol",
  "abi": [
    {
      "inputs": [
        {
          "internalType": "address",
          "name": "_usdc",
          "type": "address"
        },
        {
          "internalType": "address",
          "name": "_owner",
          "type": "address"
        }
      ],
      "stateMutability": "nonpayable",
      "type": "constructor"
    },
    {
      "inputs": [
        {
          "internalType": "address",
          "name": "owner",
          "type": "address"
        }
      ],
      "name": "OwnableInvalidOwner",
      "type": "error"
    },
    {
      "inputs": [
        {
          "internalType": "address",
          "name": "account",
          "type": "address"
        }
      ],
      "name": "OwnableUnauthorizedAccount",
      "type": "error"
    },
    {
      "inputs": [],
      "name": "ReentrancyGuardReentrantCall",
      "type": "error"
    },
    {
      "inputs": [
        {
          "internalType": "address",
          "name": "token",
          "type": "address"
        }
      ],
      "name": "SafeERC20FailedOperation",
      "type": "error"
    },
    {
      "anonymous": false,
      "inputs": [
        {
          "indexed": true,
          "internalType": "address",
          "name": "previousOwner",
          "type": "address"
        },
        {
          "indexed": true,
          "internalType": "address",
          "name": "newOwner",
          "type": "address"
        }
      ],
      "name": "OwnershipTransferred",
      "type": "event"
    },
    {
      "anonymous": false,
      "inputs": [
        {
          "indexed": true,
          "internalType": "address",
          "name": "lp",
          "type": "address"
        },
        {
          "indexed": false,
          "internalType": "uint256",
          "name": "amount",
          "type": "uint256"
        },
        {
          "indexed": false,
          "internalType": "uint256",
          "name": "sharesMinted",
          "type": "uint256"
        }
      ],
      "name": "Staked",
      "type": "event"
    },
    {
      "anonymous": false,
      "inputs": [
        {
          "indexed": true,
          "internalType": "address",
          "name": "lp",
          "type": "address"
        },
        {
          "indexed": false,
          "internalType": "uint256",
          "name": "sharesBurned",
          "type": "uint256"
        },
        {
          "indexed": false,
          "internalType": "uint256",
          "name": "amountReturned",
          "type": "uint256"
        }
      ],
      "name": "Withdrawn",
      "type": "event"
    },
    {
      "inputs": [],
      "name": "owner",
      "outputs": [
        {
          "internalType": "address",
          "name": "",
          "type": "address"
        }
      ],
      "stateMutability": "view",
      "type": "function"
    },
    {
      "inputs": [],
      "name": "renounceOwnership",
      "outputs": [],
      "stateMutability": "nonpayable",
      "type": "function"
    },
    {
      "inputs": [
        {
          "internalType": "address",
          "name": "",
          "type": "address"
        }
      ],
      "name": "sharesOf",
      "outputs": [
        {
          "internalType": "uint256",
          "name": "",
          "type": "uint256"
        }
      ],
      "stateMutability": "view",
      "type": "function"
    },
    {
      "inputs": [
        {
          "internalType": "uint256",
          "name": "amount",
          "type": "uint256"
        }
      ],
      "name": "stake",
      "outputs": [],
      "stateMutability": "nonpayable",
      "type": "function"
    },
    {
      "inputs": [],
      "name": "totalShares",
      "outputs": [
        {
          "internalType": "uint256",
          "name": "",
          "type": "uint256"
        }
      ],
      "stateMutability": "view",
      "type": "function"
    },
    {
      "inputs": [
        {
          "internalType": "address",
          "name": "newOwner",
          "type": "address"
        }
      ],
      "name": "transferOwnership",
      "outputs": [],
      "stateMutability": "nonpayable",
      "type": "function"
    },
    {
      "inputs": [],
      "name": "usdc",
      "outputs": [
        {
          "internalType": "contract IERC20",
          "name": "",
          "type": "address"
        }
      ],
      "stateMutability": "view",
      "type": "function"
    },
    {
      "inputs": [
        {
          "internalType": "uint256",
          "name": "shares",
          "type": "uint256"
        }
      ],
      "name": "withdraw",
      "outputs": [],
      "stateMutability": "nonpayable",
      "type": "function"
    }
  ],
  "bytecode": "0x60a060405234801561000f575f5ffd5b50604051610a42380380610a4283398101604081905261002e91610106565b806001600160a01b03811661005c57604051631e4fbdf760e01b81525f600482015260240160405180910390fd5b6100658161009c565b5060017f9b779b17422d0df92223018b32b4d1fa46e071723d6817e2486d003becc55f0055506001600160a01b0316608052610137565b5f80546001600160a01b038381166001600160a01b0319831681178455604051919092169283917f8be0079c531659141344cd1fd0a4f28419497f9722a3daafe3b4186f6b6457e09190a35050565b80516001600160a01b0381168114610101575f5ffd5b919050565b5f5f60408385031215610117575f5ffd5b610120836100eb565b915061012e602084016100eb565b90509250929050565b6080516108d861016a5f395f818160bf015281816102330152818161030301528181610402015261048201526108d85ff3fe608060405234801561000f575f5ffd5b5060043610610085575f3560e01c80638da5cb5b116100585780638da5cb5b14610101578063a694fc3a14610111578063f2fde38b14610124578063f5eb42dc14610137575f5ffd5b80632e1a7d4d146100895780633a98ef391461009e5780633e413bee146100ba578063715018a6146100f9575b5f5ffd5b61009c6100973660046107b1565b610156565b005b6100a760015481565b6040519081526020015b60405180910390f35b6100e17f000000000000000000000000000000000000000000000000000000000000000081565b6040516001600160a01b0390911681526020016100b1565b61009c610381565b5f546001600160a01b03166100e1565b61009c61011f3660046107b1565b610394565b61009c6101323660046107c8565b61056d565b6100a76101453660046107c8565b60026020525f908152604090205481565b61015e6105a7565b5f81116101b25760405162461bcd60e51b815260206004820152601760248201527f4c6971756964697479506f6f6c3a207368617265733d3000000000000000000060448201526064015b60405180910390fd5b335f908152600260205260409020548181101561021c5760405162461bcd60e51b815260206004820152602260248201527f4c6971756964697479506f6f6c3a20696e73756666696369656e742073686172604482015261657360f01b60648201526084016101a9565b6040516370a0823160e01b81523060048201525f907f00000000000000000000000000000000000000000000000000000000000000006001600160a01b0316906370a0823190602401602060405180830381865afa158015610280573d5f5f3e3d5ffd5b505050506040513d601f19601f820116820180604052508101906102a491906107f5565b90505f60015484836102b69190610820565b6102c0919061083d565b90506102cc848461085c565b335f90815260026020526040812091909155600180548692906102f090849061085c565b9091555061032a90506001600160a01b037f00000000000000000000000000000000000000000000000000000000000000001633836105c2565b604080518581526020810183905233917f92ccf450a286a957af52509bc1c9939d1a6a481783e142e41e2499f0bb66ebc6910160405180910390a250505061037e60015f5160206108835f395f51905f5255565b50565b6103896105fc565b6103925f610628565b565b61039c6105a7565b5f81116103eb5760405162461bcd60e51b815260206004820152601760248201527f4c6971756964697479506f6f6c3a20616d6f756e743d3000000000000000000060448201526064016101a9565b6040516370a0823160e01b81523060048201525f907f00000000000000000000000000000000000000000000000000000000000000006001600160a01b0316906370a0823190602401602060405180830381865afa15801561044f573d5f5f3e3d5ffd5b505050506040513d601f19601f8201168201806040525081019061047391906107f5565b90506104aa6001600160a01b037f000000000000000000000000000000000000000000000000000000000000000016333085610677565b5f6001545f14806104b9575081155b156104c55750816104e1565b81600154846104d49190610820565b6104de919061083d565b90505b8060015f8282546104f2919061086f565b9091555050335f908152600260205260408120805483929061051590849061086f565b9091555050604080518481526020810183905233917f1449c6dd7851abc30abf37f57715f492010519147cc2652fbc38202c18a6ee90910160405180910390a2505061037e60015f5160206108835f395f51905f5255565b6105756105fc565b6001600160a01b03811661059e57604051631e4fbdf760e01b81525f60048201526024016101a9565b61037e81610628565b6105af6106b3565b60025f5160206108835f395f51905f5255565b6105cf83838360016106e2565b6105f757604051635274afe760e01b81526001600160a01b03841660048201526024016101a9565b505050565b5f546001600160a01b031633146103925760405163118cdaa760e01b81523360048201526024016101a9565b5f80546001600160a01b038381166001600160a01b0319831681178455604051919092169283917f8be0079c531659141344cd1fd0a4f28419497f9722a3daafe3b4186f6b6457e09190a35050565b610685848484846001610744565b6106ad57604051635274afe760e01b81526001600160a01b03851660048201526024016101a9565b50505050565b5f5160206108835f395f51905f525460020361039257604051633ee5aeb560e01b815260040160405180910390fd5b60405163a9059cbb60e01b5f8181526001600160a01b038616600452602485905291602083604481808b5af1925060015f5114831661073857838315161561072c573d5f823e3d81fd5b5f873b113d1516831692505b60405250949350505050565b6040516323b872dd60e01b5f8181526001600160a01b038781166004528616602452604485905291602083606481808c5af1925060015f511483166107a0578383151615610794573d5f823e3d81fd5b5f883b113d1516831692505b604052505f60605295945050505050565b5f602082840312156107c1575f5ffd5b5035919050565b5f602082840312156107d8575f5ffd5b81356001600160a01b03811681146107ee575f5ffd5b9392505050565b5f60208284031215610805575f5ffd5b5051919050565b634e487b7160e01b5f52601160045260245ffd5b80820281158282048414176108375761083761080c565b92915050565b5f8261085757634e487b7160e01b5f52601260045260245ffd5b500490565b818103818111156108375761083761080c565b808201808211156108375761083761080c56fe9b779b17422d0df92223018b32b4d1fa46e071723d6817e2486d003becc55f00a26469706673582212205db02aa5624adf485a167f8215c33ada76f37fa099823e75a05bac7e8c82ea0f64736f6c634300081c0033",
  "linkReferences": {},
  "deployedLinkReferences": {}
}