{
  "_format": "hh-sol-artifact-1",
  "contractName": "OracleConsumer",
  "sourceName": "contracts/OracleConsumer.sol",
  "abi": [
    {
      "inputs": [
        {
          "internalType": "address",
          "name": "_ftsoRegistry",
          "type": "address"
        },
        {
          "internalType": "address",
          "name": "_keeper",
          "type": "address"
        }
      ],
      "stateMutability": "nonpayable",
      "type": "constructor"
    },
    {
      "anonymous": false,
      "inputs": [
        {
          "indexed": true,
          "internalType": "bytes32",
          "name": "regionCode",
          "type": "bytes32"
        },
        {
          "indexed": false,
          "internalType": "uint256",
          "name": "index",
          "type": "uint256"
        },
        {
          "indexed": false,
          "internalType": "uint256",
          "name": "timestamp",
          "type": "uint256"
        },
        {
          "indexed": false,
          "internalType": "uint256",
          "name": "riskScore",
          "type": "uint256"
        },
        {
          "indexed": false,
          "internalType": "enum OracleConsumer.DataConfidence",
          "name": "confidence",
          "type": "uint8"
        }
      ],
      "name": "DroughtIndexUpdated",
      "type": "event"
    },
    {
      "anonymous": false,
      "inputs": [
        {
          "indexed": true,
          "internalType": "address",
          "name": "registry",
          "type": "address"
        }
      ],
      "name": "FtsoRegistryUpdated",
      "type": "event"
    },
    {
      "anonymous": false,
      "inputs": [
        {
          "indexed": true,
          "internalType": "address",
          "name": "keeper",
          "type": "address"
        }
      ],
      "name": "KeeperUpdated",
      "type": "event"
    },
    {
      "inputs": [
        {
          "internalType": "bytes32",
          "name": "",
          "type": "bytes32"
        }
      ],
      "name": "droughtByRegion",
      "outputs": [
        {
          "internalType": "uint256",
          "name": "index",
          "type": "uint256"
        },
        {
          "internalType": "uint256",
          "name": "timestamp",
          "type": "uint256"
        },
        {
          "internalType": "uint256",
          "name": "riskScore",
          "type": "uint256"
        },
        {
          "internalType": "enum OracleConsumer.DataConfidence",
          "name": "confidence",
          "type": "uint8"
        }
      ],
      "stateMutability": "view",
      "type": "function"
    },
    {
      "inputs": [],
      "name": "ftsoRegistry",
      "outputs": [
        {
          "internalType": "contract IFtsoRegistry",
          "name": "",
          "type": "address"
        }
      ],
      "stateMutability": "view",
      "type": "function"
    },
    {
      "inputs": [
        {
          "internalType": "bytes32",
          "name": "regionCode",
          "type": "bytes32"
        }
      ],
      "name": "getDroughtIndex",
      "outputs": [
        {
          "internalType": "uint256",
          "name": "index",
          "type": "uint256"
        },
        {
          "internalType": "uint256",
          "name": "timestamp",
          "type": "uint256"
        },
        {
          "internalType": "uint256",
          "name": "riskScore",
          "type": "uint256"
        }
      ],
      "stateMutability": "view",
      "type": "function"
    },
    {
      "inputs": [],
      "name": "keeper",
      "outputs": [
        {
          "internalType": "address",
          "name": "",
          "type": "address"
        }
      ],
      "stateMutability": "view",
      "type": "function"
    },
    {
      "inputs": [
        {
          "internalType": "address",
          "name": "_ftsoRegistry",
          "type": "address"
        }
      ],
      "name": "setFtsoRegistry",
      "outputs": [],
      "stateMutability": "nonpayable",
      "type": "function"
    },
    {
      "inputs": [
        {
          "internalType": "address",
          "name": "_keeper",
          "type": "address"
        }
      ],
      "name": "setKeeper",
      "outputs": [],
      "stateMutability": "nonpayable",
      "type": "function"
    },
    {
      "inputs": [
        {
          "internalType": "bytes32",
          "name": "regionCode",
          "type": "bytes32"
        },
        {
          "internalType": "uint256",
          "name": "noaa",
          "type": "uint256"
        },
        {
          "internalType": "uint256",
          "name": "ndvi",
          "type": "uint256"
        },
        {
          "internalType": "uint256",
          "name": "weather",
          "type": "uint256"
        },
        {
          "internalType": "uint256",
          "name": "riskScore",
          "type": "uint256"
        }
      ],
      "name": "updateDroughtIndex",
      "outputs": [],
      "stateMutability": "nonpayable",
      "type": "function"
    }
  ],
  "bytecode": "0x6080346100da57601f6106bc38819003918201601f19168301916001600160401b038311848410176100de5780849260409485528339810103126100da57610052602061004b836100f2565b92016100f2565b5f80546001600160a01b03199081166001600160a01b0394851690811783556001805490921694909316938417905560405192907f0425bcd291db1d48816f2a98edc7ecaf6dd5c64b973d9e4b3b6b750763dc6c2e9080a27fe123745201fbaf8c6658a1c7e6477f1587c8105a23a4dd4339ea2ecc7328785a5f80a26105b590816101078239f35b5f80fd5b634e487b7160e01b5f52604160045260245ffd5b51906001600160a01b03821682036100da5756fe6080806040526004361015610012575f80fd5b5f3560e01c90816338b5f869146104ab575080635fc560141461043957806360e21e20146103c7578063748747e61461035457806392bdd6271461030c578063aced1661146102e45763b4a94dae14610069575f80fd5b346102e05760a03660031901126102e05760043560243560443590606435608435916100a060018060a01b036001541633146104f3565b6064811115806102d5575b806102ca575b1561027a5783811091821580610270575b801561025b575b156102195781945b8083111561020357818311156101fd57825b935b156101ed5750808210156101e657505b81039081116101d25760029060148111156101bd5750505f915b61011761054b565b928184526003602085019442865260408101858152606082019661013b858961053f565b885f52600260205260405f20925183555160018301555160028201550193519060038210156101a9577f46646844b6fecf7b48c5a3c0a8f810ed4eab3ee75eabd3fa2c176c517e2f2d4f946101a49260ff801983541691161790556040519384934290856104cd565b0390a2005b634e487b7160e01b5f52602160045260245ffd5b600a90939193111561010f576001925061010f565b634e487b7160e01b5f52601160045260245ffd5b90506100f5565b9150808210156101e657506100f5565b816100e3565b8181111561021357805b936100e5565b8161020d565b8185101580610251575b801561023c575b1561023557846100d1565b80946100d1565b5081851115801561022a57508085101561022a565b5080851115610223565b508482111580156100c95750808210156100c9565b50808211156100c2565b60405162461bcd60e51b815260206004820152602260248201527f4f7261636c65436f6e73756d65723a20696e646578206f7574206f662072616e604482015261676560f01b6064820152608490fd5b5060648211156100b1565b5060648411156100ab565b5f80fd5b346102e0575f3660031901126102e0576001546040516001600160a01b039091168152602090f35b346102e05760203660031901126102e0576004355f52600260205260405f20805461035060018301549260ff600360028301549201541690604051948594856104cd565b0390f35b346102e05760203660031901126102e0576004356001600160a01b038116908190036102e0576001548190610393336001600160a01b038316146104f3565b6001600160a01b031916176001557f0425bcd291db1d48816f2a98edc7ecaf6dd5c64b973d9e4b3b6b750763dc6c2e5f80a2005b346102e05760203660031901126102e0576004355f526002602052606060405f206103f061054b565b90805482526001810154916020810192835261042160ff60036002850154946040850195865201541685830161053f565b51915190519060405192835260208301526040820152f35b346102e05760203660031901126102e0576004356001600160a01b038116908190036102e05761047460018060a01b036001541633146104f3565b5f80546001600160a01b031916821781557fe123745201fbaf8c6658a1c7e6477f1587c8105a23a4dd4339ea2ecc7328785a9080a2005b346102e0575f3660031901126102e0575f546001600160a01b03168152602090f35b919493929094608083019583526020830152604082015260038210156101a95760600152565b156104fa57565b60405162461bcd60e51b815260206004820152601a60248201527f4f7261636c65436f6e73756d65723a206e6f74206b65657065720000000000006044820152606490fd5b60038210156101a95752565b604051906080820182811067ffffffffffffffff82111761056b57604052565b634e487b7160e01b5f52604160045260245ffdfea2646970667358221220cddd2cf495f12e21cdcfe8fb41ed69d578d4ec9655168180611efd066dcb7a9a64736f6c634300081c0033",
  "linkReferences": {},
  "deployedLinkReferences": {}
}