{
  "_format": "hh-sol-artifact-1",
  "contractName": "PolicyVault",
  "sourceName": "contracts/PolicyVault.sol",
  "abi": [
    {
      "inputs": [
        {
          "internalType": "address",
          "name": "_usdc",
          "type": "address"
        },
        {
          "internalType": "address",
          "name": "_oracle",
          "type": "address"
        },
        {
          "internalType": "address",
          "name": "_liquidityPool",
          "type": "address"
        },
        {
          "internalType": "address",
          "name": "_owner",
          "type": "address"
        }
      ],
      "stateMutability": "nonpayable",
      "type": "constructor"
    },
    {
      "inputs": [
        {
          "internalType": "address",
          "name": "owner",
          "type": "address"
        }
      ],
      "name": "OwnableInvalidOwner",
      "type": "error"
    },
    {
      "inputs": [
        {
          "internalType": "address",
          "name": "account",
          "type": "address"
        }
      ],
      "name": "OwnableUnauthorizedAccount",
      "type": "error"
    },
    {
      "inputs": [],
      "name": "ReentrancyGuardReentrantCall",
      "type": "error"
    },
    {
      "inputs": [
        {
          "internalType": "address",
          "name": "token",
          "type": "address"
        }
      ],
      "name": "SafeERC20FailedOperation",
      "type": "error"
    },
    {
      "anonymous": false,
      "inputs": [
        {
          "indexed": true,
          "internalType": "address",
          "name": "liquidityPool",
          "type": "address"
        }
      ],
      "name": "LiquidityPoolUpdated",
      "type": "event"
    },
    {
      "anonymous": false,
      "inputs": [
        {
          "indexed": true,
          "internalType": "address",
          "name": "oracle",
          "type": "address"
        }
      ],
      "name": "OracleUpdated",
      "type": "event"
    },
    {
      "anonymous": false,
      "inputs": [
        {
          "indexed": true,
          "internalType": "address",
          "name": "previousOwner",
          "type": "address"
        },
        {
          "indexed": true,
          "internalType": "address",
          "name": "newOwner",
          "type": "address"
        }
      ],
      "name": "OwnershipTransferred",
      "type": "event"
    },
    {
      "anonymous": false,
      "inputs": [
        {
          "indexed": true,
          "internalType": "uint256",
          "name": "policyId",
          "type": "uint256"
        },
        {
          "indexed": false,
          "internalType": "enum PolicyVault.PayoutSeverity",
          "name": "severity",
          "type": "uint8"
        }
      ],
      "name": "PolicyClaimable",
      "type": "event"
    },
    {
      "anonymous": false,
      "inputs": [
        {
          "indexed": true,
          "internalType": "uint256",
          "name": "policyId",
          "type": "uint256"
        },
        {
          "indexed": true,
          "internalType": "address",
          "name": "farmer",
          "type": "address"
        },
        {
          "indexed": false,
          "internalType": "uint256",
          "name": "payout",
          "type": "uint256"
        },
        {
          "indexed": false,
          "internalType": "enum PolicyVault.PayoutSeverity",
          "name": "severity",
          "type": "uint8"
        }
      ],
      "name": "PolicyClaimed",
      "type": "event"
    },
    {
      "anonymous": false,
      "inputs": [
        {
          "indexed": true,
          "internalType": "uint256",
          "name": "policyId",
          "type": "uint256"
        },
        {
          "indexed": true,
          "internalType": "address",
          "name": "farmer",
          "type": "address"
        },
        {
          "indexed": false,
          "internalType": "enum PolicyVault.CropType",
          "name": "crop",
          "type": "uint8"
        },
        {
          "indexed": false,
          "internalType": "uint256",
          "name": "hectares",
          "type": "uint256"
        },
        {
          "indexed": false,
          "internalType": "uint256",
          "name": "coverageAmount",
          "type": "uint256"
        },
        {
          "indexed": false,
          "internalType": "uint256",
          "name": "premium",
          "type": "uint256"
        }
      ],
      "name": "PolicyCreated",
      "type": "event"
    },
    {
      "anonymous": false,
      "inputs": [
        {
          "indexed": true,
          "internalType": "uint256",
          "name": "policyId",
          "type": "uint256"
        }
      ],
      "name": "PolicyExpired",
      "type": "event"
    },
    {
      "inputs": [],
      "name": "MAX_COVERAGE_PER_HECTARE",
      "outputs": [
        {
          "internalType": "uint256",
          "name": "",
          "type": "uint256"
        }
      ],
      "stateMutability": "view",
      "type": "function"
    },
    {
      "inputs": [],
      "name": "MIN_TRIGGER_DAYS",
      "outputs": [
        {
          "internalType": "uint256",
          "name": "",
          "type": "uint256"
        }
      ],
      "stateMutability": "view",
      "type": "function"
    },
    {
      "inputs": [
        {
          "internalType": "uint256",
          "name": "policyId",
          "type": "uint256"
        }
      ],
      "name": "claimPayout",
      "outputs": [],
      "stateMutability": "nonpayable",
      "type": "function"
    },
    {
      "inputs": [
        {
          "components": [
            {
              "internalType": "enum PolicyVault.CropType",
              "name": "crop",
              "type": "uint8"
            },
            {
              "internalType": "uint256",
              "name": "farmSizeHectares",
              "type": "uint256"
            },
            {
              "internalType": "int256",
              "name": "lat",
              "type": "int256"
            },
            {
              "internalType": "int256",
              "name": "lon",
              "type": "int256"
            },
            {
              "internalType": "uint256",
              "name": "duration",
              "type": "uint256"
            },
            {
              "internalType": "bytes32",
              "name": "regionCode",
              "type": "bytes32"
            }
          ],
          "internalType": "struct PolicyVault.CreatePolicyParams",
          "name": "params",
          "type": "tuple"
        }
      ],
      "name": "createPolicy",
      "outputs": [],
      "stateMutability": "nonpayable",
      "type": "function"
    },
    {
      "inputs": [
        {
          "internalType": "uint256",
          "name": "policyId",
          "type": "uint256"
        }
      ],
      "name": "evaluateTrigger",
      "outputs": [],
      "stateMutability": "nonpayable",
      "type": "function"
    },
    {
      "inputs": [
        {
          "internalType": "uint256",
          "name": "policyId",
          "type": "uint256"
        }
      ],
      "name": "expirePolicy",
      "outputs": [],
      "stateMutability": "nonpayable",
      "type": "function"
    },
    {
      "inputs": [],
      "name": "liquidityPool",
      "outputs": [
        {
          "internalType": "address",
          "name": "",
          "type": "address"
        }
      ],
      "stateMutability": "view",
      "type": "function"
    },
    {
      "inputs": [],
      "name": "nextPolicyId",
      "outputs": [
        {
          "internalType": "uint256",
          "name": "",
          "type": "uint256"
        }
      ],
      "stateMutability": "view",
      "type": "function"
    },
    {
      "inputs": [],
      "name": "oracle",
      "outputs": [
        {
          "internalType": "contract IOracleConsumer",
          "name": "",
          "type": "address"
        }
      ],
      "stateMutability": "view",
      "type": "function"
    },
    {
      "inputs": [],
      "name": "owner",
      "outputs": [
        {
          "internalType": "address",
          "name": "",
          "type": "address"
        }
      ],
      "stateMutability": "view",
      "type": "function"
    },
    {
      "inputs": [
        {
          "internalType": "uint256",
          "name": "",
          "type": "uint256"
        }
      ],
      "name": "policies",
      "outputs": [
        {
          "internalType": "address",
          "name": "farmer",
          "type": "address"
        },
        {
          "internalType": "enum PolicyVault.CropType",
          "name": "crop",
          "type": "uint8"
        },
        {
          "internalType": "uint256",
          "name": "farmSizeHectares",
          "type": "uint256"
        },
        {
          "internalType": "uint256",
          "name": "premium",
          "type": "uint256"
        },
        {
          "internalType": "uint256",
          "name": "coverageAmount",
          "type": "uint256"
        },
        {
          "internalType": "uint256",
          "name": "startTime",
          "type": "uint256"
        },
        {
          "internalType": "uint256",
          "name": "endTime",
          "type": "uint256"
        },
        {
          "internalType": "int256",
          "name": "lat",
          "type": "int256"
        },
        {
          "internalType": "int256",
          "name": "lon",
          "type": "int256"
        },
        {
          "internalType": "uint8",
          "name": "triggerThreshold",
          "type": "uint8"
        },
        {
          "internalType": "bool",
          "name": "active",
          "type": "bool"
        },
        {
          "internalType": "bool",
          "name": "claimed",
          "type": "bool"
        },
        {
          "internalType": "bool",
          "name": "claimable",
          "type": "bool"
        },
        {
          "internalType": "enum PolicyVault.PayoutSeverity",
          "name": "severity",
          "type": "uint8"
        },
        {
          "internalType": "bytes32",
          "name": "regionCode",
          "type": "bytes32"
        },
        {
          "internalType": "uint256",
          "name": "triggerStartTimestamp",
          "type": "uint256"
        }
      ],
      "stateMutability": "view",
      "type": "function"
    },
    {
      "inputs": [],
      "name": "renounceOwnership",
      "outputs": [],
      "stateMutability": "nonpayable",
      "type": "function"
    },
    {
      "inputs": [
        {
          "internalType": "address",
          "name": "_liquidityPool",
          "type": "address"
        }
      ],
      "name": "setLiquidityPool",
      "outputs": [],
      "stateMutability": "nonpayable",
      "type": "function"
    },
    {
      "inputs": [
        {
          "internalType": "address",
          "name": "_oracle",
          "type": "address"
        }
      ],
      "name": "setOracle",
      "outputs": [],
      "stateMutability": "nonpayable",
      "type": "function"
    },
    {
      "inputs": [
        {
          "internalType": "address",
          "name": "newOwner",
          "type": "address"
        }
      ],
      "name": "transferOwnership",
      "outputs": [],
      "stateMutability": "nonpayable",
      "type": "function"
    },
    {
      "inputs": [],
      "name": "usdc",
      "outputs": [
        {
          "internalType": "contract IERC20",
          "name": "",
          "type": "address"
        }
      ],
      "stateMutability": "view",
      "type": "function"
    }
  ],
  "bytecode": "0x60a0346101a957601f61121538819003918201601f19168301916001600160401b038311848410176101ad578084926080946040528339810103126101a957610047816101c1565b90610054602082016101c1565b610060604083016101c1565b916001600160a01b0390610076906060016101c1565b16928315610196575f80546001600160a01b031981168617825560405195916001600160a01b03909116907f8be0079c531659141344cd1fd0a4f28419497f9722a3daafe3b4186f6b6457e09080a360017f9b779b17422d0df92223018b32b4d1fa46e071723d6817e2486d003becc55f0081905560038190556001600160a01b0391821660805280549282166001600160a01b03199384168117909155600280549490921693909216831790557f3df77beb5db05fcdd70a30fc8adf3f83f9501b68579455adbd100b81809403945f80a27fedf1a035d265f6321083031b40acf4e5e06cd3e2e2025192fd308409b13b44c65f80a261103f90816101d682396080518181816103a7015281816105ac01528181610a400152610b1a0152f35b631e4fbdf760e01b5f525f60045260245ffd5b5f80fd5b634e487b7160e01b5f52604160045260245ffd5b51906001600160a01b03821682036101a95756fe60806040526004361015610011575f80fd5b5f3560e01c80630187702014610e3b57806320ae9a7d14610c0d5780633037e4cd14610a6f5780633e413bee14610a2b578063665a11ca14610a03578063715018a6146109ac5780637adbf973146109465780637dc0d1d01461091e57806383b4b1e4146105255780638a69614e146102ce5780638da5cb5b146102a7578063cad0b8db1461028a578063d3e894831461018f578063f2fde38b14610106578063fd9c611e146100eb5763ff08a419146100c9575f80fd5b346100e7575f3660031901126100e7576020604051633b9aca008152f35b5f80fd5b346100e7575f3660031901126100e7576020604051600e8152f35b346100e75760203660031901126100e7576004356001600160a01b038116908190036100e757610134610f03565b801561017c575f80546001600160a01b03198116831782556001600160a01b0316907f8be0079c531659141344cd1fd0a4f28419497f9722a3daafe3b4186f6b6457e09080a3005b631e4fbdf760e01b5f525f60045260245ffd5b346100e75760203660031901126100e7576004355f52600460205261020060405f2080549060ff8260a01c1690600181015460ff6002830154600384015460048501546005860154600687015491600788015493600889015495878760201c1698600a60098c01549b01549b60206040519e8f9060018060a01b0316815261021683610ea1565b015260408d015260608c015260808b015260a08a015260c089015260e0880152610100870152818116610120870152818160081c161515610140870152818160101c16151561016087015260181c16151561018085015261027681610ea1565b6101a08401526101c08301526101e0820152f35b346100e7575f3660031901126100e7576020600354604051908152f35b346100e7575f3660031901126100e7575f546040516001600160a01b039091168152602090f35b346100e75760203660031901126100e7576004356102ea610f81565b805f52600460205260405f20906008820191825461030d60ff8260081c16610ebf565b60ff8160101c166104e05760ff8160181c161561049b5760ff8160201c1661033481610ea1565b156104565781546001600160a01b031633819003610411577fef4040f84a7e4fa3b292a9b9057d33b14470726f672fbfeb4a552945b1345e9e926201000060409362ffff0019161790818755600160ff60038301549360201c1661039781610ea1565b14610405575b6103cb8260ff93947f0000000000000000000000000000000000000000000000000000000000000000610f29565b54955483519283526001600160a01b039096169560201c166103ec81610ea1565b6020820152a360015f516020610fea5f395f51905f5255005b60019190911c9061039d565b60405162461bcd60e51b815260206004820152601760248201527f506f6c6963795661756c743a206e6f74206661726d65720000000000000000006044820152606490fd5b60405162461bcd60e51b815260206004820152601c60248201527f506f6c6963795661756c743a206e6f20736576657269747920736574000000006044820152606490fd5b60405162461bcd60e51b815260206004820152601a60248201527f506f6c6963795661756c743a206e6f7420636c61696d61626c650000000000006044820152606490fd5b60405162461bcd60e51b815260206004820152601c60248201527f506f6c6963795661756c743a20616c726561647920636c61696d6564000000006044820152606490fd5b346100e75760c03660031901126100e75761053e610f81565b60243580156108e357608435801561089e57633b9aca00820291808304633b9aca0003610849576004359260038410156100e75761057b84610fb9565b633b9aca008184020290828204148215171561084957612710900491600354935f19851461084957600185016003557f00000000000000000000000000000000000000000000000000000000000000006040516323b872dd60e01b5f5233600452306024528560445260205f60648180865af19060015f511482161561087d575b6040525f6060521561085d5750420180421161084957604051610200810181811067ffffffffffffffff82111761083557600a916101e09160405233815260208101936106488a610ea1565b8985526040820186815260608301898152608084019089825260a085019242845260c0860194855260443560e0870152606435610100870152604661012087015260016101408701525f6101608701525f6101808701525f6101a087015260a4356101c08701525f878701528c5f52600460205260405f209860018060a01b038751166bffffffffffffffffffffffff60a01b8b5416178a55516106eb81610ea1565b6106f481610ea1565b895460ff60a01b191660a09190911b60ff60a01b1617895551600189015551600288015551600387015551600486015551600585015560e0810151600685015561010081015160078501556101208101516008808601805461014085015161016086015161018087015163ffffffff1990931660ff969096169590951790151590931b61ff00169290921792151560101b62ff0000169290921790151560181b63ff000000161781556101a08201516107ac81610ea1565b6107b581610ea1565b64ff0000000082549160201b169064ff0000000019161790556101c081015160098501550151910155604051946107eb81610ea1565b85526020850152604084015260608301527f4922cc4ba5af57c06c26d02e17d09964049efe7919e9bba1118cb09aa33cfc9860803393a360015f516020610fea5f395f51905f5255005b634e487b7160e01b5f52604160045260245ffd5b634e487b7160e01b5f52601160045260245ffd5b635274afe760e01b5f9081526001600160a01b0391909116600452602490fd5b90600181151661089557823b15153d151616906105fc565b503d5f823e3d90fd5b60405162461bcd60e51b815260206004820152601760248201527f506f6c6963795661756c743a206475726174696f6e3d300000000000000000006044820152606490fd5b60405162461bcd60e51b81526020600482015260136024820152720506f6c6963795661756c743a2073697a653d3606c1b6044820152606490fd5b346100e7575f3660031901126100e7576001546040516001600160a01b039091168152602090f35b346100e75760203660031901126100e7576004356001600160a01b038116908190036100e757610974610f03565b600180546001600160a01b031916821790557f3df77beb5db05fcdd70a30fc8adf3f83f9501b68579455adbd100b81809403945f80a2005b346100e7575f3660031901126100e7576109c4610f03565b5f80546001600160a01b0319811682556001600160a01b03167f8be0079c531659141344cd1fd0a4f28419497f9722a3daafe3b4186f6b6457e08280a3005b346100e7575f3660031901126100e7576002546040516001600160a01b039091168152602090f35b346100e7575f3660031901126100e7576040517f00000000000000000000000000000000000000000000000000000000000000006001600160a01b03168152602090f35b346100e75760203660031901126100e757600435805f52600460205260405f2060088101908154610aa560ff8260081c16610ebf565b6005820154421115610bc85760ff8160181c16610b655760101c60ff161580610b58575b80610b44575b610b04575b50805461ff00191690557fb22aa541487fc93d989bb5b17d1e3a967f649c4979cfd658c0849e070ae0dca05f80a2005b60028054910154610b3e916001600160a01b03167f0000000000000000000000000000000000000000000000000000000000000000610f29565b82610ad4565b506002546001600160a01b03161515610acf565b5060028101541515610ac9565b60405162461bcd60e51b815260206004820152603560248201527f506f6c6963795661756c743a207472696767657220616374697665202d2066616044820152741c9b595c881b5d5cdd0818db185a5b48199a5c9cdd605a1b6064820152608490fd5b60405162461bcd60e51b815260206004820152601860248201527f506f6c6963795661756c743a206e6f74206578706972656400000000000000006044820152606490fd5b346100e75760203660031901126100e757600435805f52600460205260405f2060088101805491610c4360ff8460081c16610ebf565b60018060a01b03600154169260406009830154602482518097819363030710f160e51b835260048301525afa8015610e30575f945f91610de2575b508015610d9d574203428111610849576202a30010610d585760ff16831115610d4f57600a01805415610d47575b5462127500810180911161084957421015610cc357005b60ff817f61782cf7ed50c35f9220bd74184699a7a70a2a12ebe6747518406450eee749449360556020945491630100000063ff000000198416178455115f14610d315750805464ff0000000019166402000000001781555b54821c1660405190610d2c81610ea1565b8152a2005b64ffff0000001916640101000000178155610d1b565b428155610cac565b5f600a90910155005b60405162461bcd60e51b815260206004820152601960248201527f506f6c6963795661756c743a207374616c65206f7261636c65000000000000006044820152606490fd5b60405162461bcd60e51b815260206004820152601b60248201527f506f6c6963795661756c743a206e6f206f7261636c65206461746100000000006044820152606490fd5b94505060403d604011610e29575b601f8101601f1916850167ffffffffffffffff8111868210176108355760409186918352810103126100e7576020845194015186610c7e565b503d610df0565b6040513d5f823e3d90fd5b346100e75760203660031901126100e7576004356001600160a01b038116908190036100e757610e69610f03565b600280546001600160a01b031916821790557fedf1a035d265f6321083031b40acf4e5e06cd3e2e2025192fd308409b13b44c65f80a2005b60031115610eab57565b634e487b7160e01b5f52602160045260245ffd5b15610ec657565b60405162461bcd60e51b8152602060048201526015602482015274506f6c6963795661756c743a20696e61637469766560581b6044820152606490fd5b5f546001600160a01b03163303610f1657565b63118cdaa760e01b5f523360045260245ffd5b916040519163a9059cbb60e01b5f5260018060a01b031660045260245260205f60448180865af19060015f5114821615610f69575b6040521561085d5750565b90600181151661089557823b15153d15161690610f5e565b60025f516020610fea5f395f51905f525414610faa5760025f516020610fea5f395f51905f5255565b633ee5aeb560e01b5f5260045ffd5b610fc281610ea1565b60028114610fe357610fd381610ea1565b15610fde5761012c90565b60fa90565b5060c89056fe9b779b17422d0df92223018b32b4d1fa46e071723d6817e2486d003becc55f00a2646970667358221220226fb4716e1f2b3f9d88f0cfe28f7656b3e97de0271731f731c1add27ad7c92864736f6c634300081c0033",
  "linkReferences": {},
  "deployedLinkReferences": {}
}